{
  "transactions": [
    {
      "hash": "0xb8729202e184c4bd578dc5821e6bcc976f2cb64c1140d1ae50e0767798c411c3",
      "transactionType": "CALL",
      "contractName": null,
      "contractAddress": "0xf13edf5904174e08b50c2828c045cfa6a2d2c4ca",
      "function": "setParkFiAddress(address)",
      "arguments": [
        "0x5f7520323cEB32D7eF9B0315796a30b91519dFEC"
      ],
      "transaction": {
        "from": "0x764693dd666e8dd9275cde8f05c6b07446b1d941",
        "to": "0xf13edf5904174e08b50c2828c045cfa6a2d2c4ca",
        "gas": "0xf8cc",
        "value": "0x0",
        "input": "0x19b350930000000000000000000000005f7520323ceb32d7ef9b0315796a30b91519dfec",
        "nonce": "0x135",
        "chainId": "0xaa36a7"
      },
      "additionalContracts": [],
      "isFixedGasLimit": false
    },
    {
      "hash": "0xaf353ab2fb8d8f64d41d761806b58d2513492eecc331eb0c6e6e127d6d9994fa",
      "transactionType": "CALL",
      "contractName": null,
      "contractAddress": "0x5f7520323ceb32d7ef9b0315796a30b91519dfec",
      "function": "verifyAndMintParkingSpace(uint256,uint256)",
      "arguments": [
        "1000000000000000000",
        "4000000000000000000"
      ],
      "transaction": {
        "from": "0x764693dd666e8dd9275cde8f05c6b07446b1d941",
        "to": "0x5f7520323ceb32d7ef9b0315796a30b91519dfec",
        "gas": "0x50ccd",
        "value": "0x0",
        "input": "0xe0bddcd90000000000000000000000000000000000000000000000000de0b6b3a76400000000000000000000000000000000000000000000000000003782dace9d900000",
        "nonce": "0x136",
        "chainId": "0xaa36a7"
      },
      "additionalContracts": [],
      "isFixedGasLimit": false
    },
    {
      "hash": "0x01f89660e58b758df2239e6d82e74df08ca24d4aa2b3d4dc66c0f1f0cdf80ce5",
      "transactionType": "CALL",
      "contractName": null,
      "contractAddress": "0x5f7520323ceb32d7ef9b0315796a30b91519dfec",
      "function": "verifyAndMintParkingSpace(uint256,uint256)",
      "arguments": [
        "1000000000000000000",
        "5000000000000000000"
      ],
      "transaction": {
        "from": "0x764693dd666e8dd9275cde8f05c6b07446b1d941",
        "to": "0x5f7520323ceb32d7ef9b0315796a30b91519dfec",
        "gas": "0x3f804",
        "value": "0x0",
        "input": "0xe0bddcd90000000000000000000000000000000000000000000000000de0b6b3a76400000000000000000000000000000000000000000000000000004563918244f40000",
        "nonce": "0x137",
        "chainId": "0xaa36a7"
      },
      "additionalContracts": [],
      "isFixedGasLimit": false
    },
    {
      "hash": "0xd5bb4c767e202a5f58fdd77762abb7e35cab3e0966a90f6b2f5fdb4ff88fd5e0",
      "transactionType": "CALL",
      "contractName": null,
      "contractAddress": "0x5f7520323ceb32d7ef9b0315796a30b91519dfec",
      "function": "verifyAndMintParkingSpace(uint256,uint256)",
      "arguments": [
        "2000000000000000000",
        "7000000000000000000"
      ],
      "transaction": {
        "from": "0x764693dd666e8dd9275cde8f05c6b07446b1d941",
        "to": "0x5f7520323ceb32d7ef9b0315796a30b91519dfec",
        "gas": "0x3f804",
        "value": "0x0",
        "input": "0xe0bddcd90000000000000000000000000000000000000000000000001bc16d674ec800000000000000000000000000000000000000000000000000006124fee993bc0000",
        "nonce": "0x138",
        "chainId": "0xaa36a7"
      },
      "additionalContracts": [],
      "isFixedGasLimit": false
    },
    {
      "hash": "0x719919a6dd2a39ece3e5f5763907264799da5aa5a9ee32b2b1bf8e798c701f39",
      "transactionType": "CALL",
      "contractName": null,
      "contractAddress": "0x5f7520323ceb32d7ef9b0315796a30b91519dfec",
      "function": "verifyAndMintMembership()",
      "arguments": [],
      "transaction": {
        "from": "0x764693dd666e8dd9275cde8f05c6b07446b1d941",
        "to": "0x5f7520323ceb32d7ef9b0315796a30b91519dfec",
        "gas": "0x275e5",
        "value": "0x0",
        "input": "0xf62c28cf",
        "nonce": "0x139",
        "chainId": "0xaa36a7"
      },
      "additionalContracts": [],
      "isFixedGasLimit": false
    },
    {
      "hash": "0x88db55bb25414b93bcc43107416bafa1e0cfe39d8c5712994146a4704840ea24",
      "transactionType": "CALL",
      "contractName": null,
      "contractAddress": "0xfd57931425e1da4257500a5b168fe5c975b97c52",
      "function": "approve(address,uint256)",
      "arguments": [
        "0x5f7520323cEB32D7eF9B0315796a30b91519dFEC",
        "115792089237316195423570985008687907853269984665640564039457584007913129639935"
      ],
      "transaction": {
        "from": "0x764693dd666e8dd9275cde8f05c6b07446b1d941",
        "to": "0xfd57931425e1da4257500a5b168fe5c975b97c52",
        "gas": "0x10ab1",
        "value": "0x0",
        "input": "0x095ea7b30000000000000000000000005f7520323ceb32d7ef9b0315796a30b91519dfecffffffffffffffffffffffffffffffffffffffffffffffffffffffffffffffff",
        "nonce": "0x13a",
        "chainId": "0xaa36a7"
      },
      "additionalContracts": [],
      "isFixedGasLimit": false
    },
    {
      "hash": "0xb9f06c4ea13f20e4fabf4f83da29c3e181acccab832ccf2c470e334058cd67cb",
      "transactionType": "CALL",
      "contractName": null,
      "contractAddress": "0x5f7520323ceb32d7ef9b0315796a30b91519dfec",
      "function": "checkIn(uint256,uint8,uint256)",
      "arguments": [
        "1",
        "0",
        "7200"
      ],
      "transaction": {
        "from": "0x764693dd666e8dd9275cde8f05c6b07446b1d941",
        "to": "0x5f7520323ceb32d7ef9b0315796a30b91519dfec",
        "gas": "0x29b0e",
        "value": "0x0",
        "input": "0xa1ae6a25000000000000000000000000000000000000000000000000000000000000000100000000000000000000000000000000000000000000000000000000000000000000000000000000000000000000000000000000000000000000000000001c20",
        "nonce": "0x13b",
        "chainId": "0xaa36a7"
      },
      "additionalContracts": [],
      "isFixedGasLimit": false
    },
    {
      "hash": "0xc008ebb4abb47a8eaf6e8e82effbb9cab4fd30fdde2823604655608b4efa06a6",
      "transactionType": "CALL",
      "contractName": null,
      "contractAddress": "0x5f7520323ceb32d7ef9b0315796a30b91519dfec",
      "function": "checkIn(uint256,uint8,uint256)",
      "arguments": [
        "2",
        "0",
        "7200"
      ],
      "transaction": {
        "from": "0x764693dd666e8dd9275cde8f05c6b07446b1d941",
        "to": "0x5f7520323ceb32d7ef9b0315796a30b91519dfec",
        "gas": "0x23ecb",
        "value": "0x0",
        "input": "0xa1ae6a25000000000000000000000000000000000000000000000000000000000000000200000000000000000000000000000000000000000000000000000000000000000000000000000000000000000000000000000000000000000000000000001c20",
        "nonce": "0x13c",
        "chainId": "0xaa36a7"
      },
      "additionalContracts": [],
      "isFixedGasLimit": false
    },
    {
      "hash": "0x3b043a93085031a24d864f71e23b04bf41a261dd5c27fdc7c998f2bbf5ab9995",
      "transactionType": "CALL",
      "contractName": null,
      "contractAddress": "0x5f7520323ceb32d7ef9b0315796a30b91519dfec",
      "function": "checkIn(uint256,uint8,uint256)",
      "arguments": [
        "3",
        "1",
        "259200"
      ],
      "transaction": {
        "from": "0x764693dd666e8dd9275cde8f05c6b07446b1d941",
        "to": "0x5f7520323ceb32d7ef9b0315796a30b91519dfec",
        "gas": "0x23da0",
        "value": "0x0",
        "input": "0xa1ae6a2500000000000000000000000000000000000000000000000000000000000000030000000000000000000000000000000000000000000000000000000000000001000000000000000000000000000000000000000000000000000000000003f480",
        "nonce": "0x13d",
        "chainId": "0xaa36a7"
      },
      "additionalContracts": [],
      "isFixedGasLimit": false
    }
  ],
  "receipts": [
    {
      "status": "0x1",
      "cumulativeGasUsed": "0x84d747",
      "logs": [],
      "logsBloom": "0x00000000000000000000000000000000000000000000000000000000000000000000000000000000000000000000000000000000000000000000000000000000000000000000000000000000000000000000000000000000000000000000000000000000000000000000000000000000000000000000000000000000000000000000000000000000000000000000000000000000000000000000000000000000000000000000000000000000000000000000000000000000000000000000000000000000000000000000000000000000000000000000000000000000000000000000000000000000000000000000000000000000000000000000000000000000",
      "type": "0x2",
      "transactionHash": "0xb8729202e184c4bd578dc5821e6bcc976f2cb64c1140d1ae50e0767798c411c3",
      "transactionIndex": "0x36",
      "blockHash": "0x1157075f7007c5e80bbae20d2fba469234c28d4302cc9a773f628c2d3e6099b8",
      "blockNumber": "0x5db72c",
      "gasUsed": "0xb420",
      "effectiveGasPrice": "0x541a55a3",
      "from": "0x764693dd666e8dd9275cde8f05c6b07446b1d941",
      "to": "0xf13edf5904174e08b50c2828c045cfa6a2d2c4ca",
      "contractAddress": null
    },
    {
      "status": "0x1",
      "cumulativeGasUsed": "0x887f3f",
      "logs": [
        {
          "address": "0xf13edf5904174e08b50c2828c045cfa6a2d2c4ca",
          "topics": [
            "0xddf252ad1be2c89b69c2b068fc378daa952ba7f163c4a11628f55a4df523b3ef",
            "0x0000000000000000000000000000000000000000000000000000000000000000",
            "0x000000000000000000000000764693dd666e8dd9275cde8f05c6b07446b1d941",
            "0x0000000000000000000000000000000000000000000000000000000000000001"
          ],
          "data": "0x",
          "blockHash": "0x1157075f7007c5e80bbae20d2fba469234c28d4302cc9a773f628c2d3e6099b8",
          "blockNumber": "0x5db72c",
          "transactionHash": "0xaf353ab2fb8d8f64d41d761806b58d2513492eecc331eb0c6e6e127d6d9994fa",
          "transactionIndex": "0x37",
          "logIndex": "0x67",
          "removed": false
        },
        {
          "address": "0xf13edf5904174e08b50c2828c045cfa6a2d2c4ca",
          "topics": [
            "0xf8e1a15aba9398e019f0b49df1a4fde98ee17ae345cb5f6b5e2c27f5033e8ce7"
          ],
          "data": "0x0000000000000000000000000000000000000000000000000000000000000001",
          "blockHash": "0x1157075f7007c5e80bbae20d2fba469234c28d4302cc9a773f628c2d3e6099b8",
          "blockNumber": "0x5db72c",
          "transactionHash": "0xaf353ab2fb8d8f64d41d761806b58d2513492eecc331eb0c6e6e127d6d9994fa",
          "transactionIndex": "0x37",
          "logIndex": "0x68",
          "removed": false
        },
        {
          "address": "0xf13edf5904174e08b50c2828c045cfa6a2d2c4ca",
          "topics": [
            "0x026aac271342ae43d27b41062e6f37001e4673fbbf25ad4bc3cfd6cd2094bd39",
            "0x000000000000000000000000764693dd666e8dd9275cde8f05c6b07446b1d941",
            "0x0000000000000000000000000000000000000000000000000000000000000001"
          ],
          "data": "0x",
          "blockHash": "0x1157075f7007c5e80bbae20d2fba469234c28d4302cc9a773f628c2d3e6099b8",
          "blockNumber": "0x5db72c",
          "transactionHash": "0xaf353ab2fb8d8f64d41d761806b58d2513492eecc331eb0c6e6e127d6d9994fa",
          "transactionIndex": "0x37",
          "logIndex": "0x69",
          "removed": false
        },
        {
          "address": "0x5f7520323ceb32d7ef9b0315796a30b91519dfec",
          "topics": [
            "0x91e71c368c41168aa5766ee5b0c25d8c5f2c37970e7e4365305015fae0bfb0c6",
            "0x0000000000000000000000000000000000000000000000000000000000000001",
            "0x0000000000000000000000000000000000000000000000000de0b6b3a7640000",
            "0x0000000000000000000000000000000000000000000000003782dace9d900000"
          ],
          "data": "0x",
          "blockHash": "0x1157075f7007c5e80bbae20d2fba469234c28d4302cc9a773f628c2d3e6099b8",
          "blockNumber": "0x5db72c",
          "transactionHash": "0xaf353ab2fb8d8f64d41d761806b58d2513492eecc331eb0c6e6e127d6d9994fa",
          "transactionIndex": "0x37",
          "logIndex": "0x6a",
          "removed": false
        }
      ],
      "logsBloom": "0x00000000040000000000000000000000800000000000000000000000004000000000000000000000000000000000000000000000000000000000000000040000000000000000000000000088000000000000000000040000000000000000000000000000020000000000000000000800000000000000000000000010000000002000000000000000040000000000000000000000004000000000000000000000008020000000000008000000040010002000020000000000400000000000008000000002000800000000000001004000000000000000000000040000000060000000000000000000200000000000000000010000000000000100000020000000",
      "type": "0x2",
      "transactionHash": "0xaf353ab2fb8d8f64d41d761806b58d2513492eecc331eb0c6e6e127d6d9994fa",
      "transactionIndex": "0x37",
      "blockHash": "0x1157075f7007c5e80bbae20d2fba469234c28d4302cc9a773f628c2d3e6099b8",
      "blockNumber": "0x5db72c",
      "gasUsed": "0x3a7f8",
      "effectiveGasPrice": "0x541a55a3",
      "from": "0x764693dd666e8dd9275cde8f05c6b07446b1d941",
      "to": "0x5f7520323ceb32d7ef9b0315796a30b91519dfec",
      "contractAddress": null
    },
    {
      "status": "0x1",
      "cumulativeGasUsed": "0x8b5ed3",
      "logs": [
        {
          "address": "0xf13edf5904174e08b50c2828c045cfa6a2d2c4ca",
          "topics": [
            "0xddf252ad1be2c89b69c2b068fc378daa952ba7f163c4a11628f55a4df523b3ef",
            "0x0000000000000000000000000000000000000000000000000000000000000000",
            "0x000000000000000000000000764693dd666e8dd9275cde8f05c6b07446b1d941",
            "0x0000000000000000000000000000000000000000000000000000000000000002"
          ],
          "data": "0x",
          "blockHash": "0x1157075f7007c5e80bbae20d2fba469234c28d4302cc9a773f628c2d3e6099b8",
          "blockNumber": "0x5db72c",
          "transactionHash": "0x01f89660e58b758df2239e6d82e74df08ca24d4aa2b3d4dc66c0f1f0cdf80ce5",
          "transactionIndex": "0x38",
          "logIndex": "0x6b",
          "removed": false
        },
        {
          "address": "0xf13edf5904174e08b50c2828c045cfa6a2d2c4ca",
          "topics": [
            "0xf8e1a15aba9398e019f0b49df1a4fde98ee17ae345cb5f6b5e2c27f5033e8ce7"
          ],
          "data": "0x0000000000000000000000000000000000000000000000000000000000000002",
          "blockHash": "0x1157075f7007c5e80bbae20d2fba469234c28d4302cc9a773f628c2d3e6099b8",
          "blockNumber": "0x5db72c",
          "transactionHash": "0x01f89660e58b758df2239e6d82e74df08ca24d4aa2b3d4dc66c0f1f0cdf80ce5",
          "transactionIndex": "0x38",
          "logIndex": "0x6c",
          "removed": false
        },
        {
          "address": "0xf13edf5904174e08b50c2828c045cfa6a2d2c4ca",
          "topics": [
            "0x026aac271342ae43d27b41062e6f37001e4673fbbf25ad4bc3cfd6cd2094bd39",
            "0x000000000000000000000000764693dd666e8dd9275cde8f05c6b07446b1d941",
            "0x0000000000000000000000000000000000000000000000000000000000000002"
          ],
          "data": "0x",
          "blockHash": "0x1157075f7007c5e80bbae20d2fba469234c28d4302cc9a773f628c2d3e6099b8",
          "blockNumber": "0x5db72c",
          "transactionHash": "0x01f89660e58b758df2239e6d82e74df08ca24d4aa2b3d4dc66c0f1f0cdf80ce5",
          "transactionIndex": "0x38",
          "logIndex": "0x6d",
          "removed": false
        },
        {
          "address": "0x5f7520323ceb32d7ef9b0315796a30b91519dfec",
          "topics": [
            "0x91e71c368c41168aa5766ee5b0c25d8c5f2c37970e7e4365305015fae0bfb0c6",
            "0x0000000000000000000000000000000000000000000000000000000000000002",
            "0x0000000000000000000000000000000000000000000000000de0b6b3a7640000",
            "0x0000000000000000000000000000000000000000000000004563918244f40000"
          ],
          "data": "0x",
          "blockHash": "0x1157075f7007c5e80bbae20d2fba469234c28d4302cc9a773f628c2d3e6099b8",
          "blockNumber": "0x5db72c",
          "transactionHash": "0x01f89660e58b758df2239e6d82e74df08ca24d4aa2b3d4dc66c0f1f0cdf80ce5",
          "transactionIndex": "0x38",
          "logIndex": "0x6e",
          "removed": false
        }
      ],
      "logsBloom": "0x04000000040000000000000000000000800000000000000000000000004000000000000000000000000000000000000000000000000000000000000000010000000000000000000000000088000000000000000000000000000000000000000000000000020000000000000000000800000000000000000000000010000000002000000000000000040000000000000000000000004000000000000000000000008000000000000000000100040010002000022000000000400000000000008000000002000800000000000001004000000000000000000000040000000020000000000000000000200000000000001000010000008000000100000000000000",
      "type": "0x2",
      "transactionHash": "0x01f89660e58b758df2239e6d82e74df08ca24d4aa2b3d4dc66c0f1f0cdf80ce5",
      "transactionIndex": "0x38",
      "blockHash": "0x1157075f7007c5e80bbae20d2fba469234c28d4302cc9a773f628c2d3e6099b8",
      "blockNumber": "0x5db72c",
      "gasUsed": "0x2df94",
      "effectiveGasPrice": "0x541a55a3",
      "from": "0x764693dd666e8dd9275cde8f05c6b07446b1d941",
      "to": "0x5f7520323ceb32d7ef9b0315796a30b91519dfec",
      "contractAddress": null
    },
    {
      "status": "0x1",
      "cumulativeGasUsed": "0x8fcd02",
      "logs": [
        {
          "address": "0xf13edf5904174e08b50c2828c045cfa6a2d2c4ca",
          "topics": [
            "0xddf252ad1be2c89b69c2b068fc378daa952ba7f163c4a11628f55a4df523b3ef",
            "0x0000000000000000000000000000000000000000000000000000000000000000",
            "0x000000000000000000000000764693dd666e8dd9275cde8f05c6b07446b1d941",
            "0x0000000000000000000000000000000000000000000000000000000000000003"
          ],
          "data": "0x",
          "blockHash": "0x1157075f7007c5e80bbae20d2fba469234c28d4302cc9a773f628c2d3e6099b8",
          "blockNumber": "0x5db72c",
          "transactionHash": "0xd5bb4c767e202a5f58fdd77762abb7e35cab3e0966a90f6b2f5fdb4ff88fd5e0",
          "transactionIndex": "0x3a",
          "logIndex": "0x72",
          "removed": false
        },
        {
          "address": "0xf13edf5904174e08b50c2828c045cfa6a2d2c4ca",
          "topics": [
            "0xf8e1a15aba9398e019f0b49df1a4fde98ee17ae345cb5f6b5e2c27f5033e8ce7"
          ],
          "data": "0x0000000000000000000000000000000000000000000000000000000000000003",
          "blockHash": "0x1157075f7007c5e80bbae20d2fba469234c28d4302cc9a773f628c2d3e6099b8",
          "blockNumber": "0x5db72c",
          "transactionHash": "0xd5bb4c767e202a5f58fdd77762abb7e35cab3e0966a90f6b2f5fdb4ff88fd5e0",
          "transactionIndex": "0x3a",
          "logIndex": "0x73",
          "removed": false
        },
        {
          "address": "0xf13edf5904174e08b50c2828c045cfa6a2d2c4ca",
          "topics": [
            "0x026aac271342ae43d27b41062e6f37001e4673fbbf25ad4bc3cfd6cd2094bd39",
            "0x000000000000000000000000764693dd666e8dd9275cde8f05c6b07446b1d941",
            "0x0000000000000000000000000000000000000000000000000000000000000003"
          ],
          "data": "0x",
          "blockHash": "0x1157075f7007c5e80bbae20d2fba469234c28d4302cc9a773f628c2d3e6099b8",
          "blockNumber": "0x5db72c",
          "transactionHash": "0xd5bb4c767e202a5f58fdd77762abb7e35cab3e0966a90f6b2f5fdb4ff88fd5e0",
          "transactionIndex": "0x3a",
          "logIndex": "0x74",
          "removed": false
        },
        {
          "address": "0x5f7520323ceb32d7ef9b0315796a30b91519dfec",
          "topics": [
            "0x91e71c368c41168aa5766ee5b0c25d8c5f2c37970e7e4365305015fae0bfb0c6",
            "0x0000000000000000000000000000000000000000000000000000000000000003",
            "0x0000000000000000000000000000000000000000000000001bc16d674ec80000",
            "0x0000000000000000000000000000000000000000000000006124fee993bc0000"
          ],
          "data": "0x",
          "blockHash": "0x1157075f7007c5e80bbae20d2fba469234c28d4302cc9a773f628c2d3e6099b8",
          "blockNumber": "0x5db72c",
          "transactionHash": "0xd5bb4c767e202a5f58fdd77762abb7e35cab3e0966a90f6b2f5fdb4ff88fd5e0",
          "transactionIndex": "0x3a",
          "logIndex": "0x75",
          "removed": false
        }
      ],
      "logsBloom": "0x00000000040000000000000000000000800100000000000000000000004000000000000000000000000000000000000000000000020000000000000000000000000000000001000000000088000000000000000000000000000000000000000000000000120000000000000000000800000000000000000000000010000000042000000000000000040000000000000000000000000000000000001000000000008000000000000000000000040000002000020000800000400000000000408000000002000000000400000001004000000000000000000000040000000020000000000000000000200000000000000000010000000000000100000000000000",
      "type": "0x2",
      "transactionHash": "0xd5bb4c767e202a5f58fdd77762abb7e35cab3e0966a90f6b2f5fdb4ff88fd5e0",
      "transactionIndex": "0x3a",
      "blockHash": "0x1157075f7007c5e80bbae20d2fba469234c28d4302cc9a773f628c2d3e6099b8",
      "blockNumber": "0x5db72c",
      "gasUsed": "0x2df94",
      "effectiveGasPrice": "0x541a55a3",
      "from": "0x764693dd666e8dd9275cde8f05c6b07446b1d941",
      "to": "0x5f7520323ceb32d7ef9b0315796a30b91519dfec",
      "contractAddress": null
    },
    {
      "status": "0x1",
      "cumulativeGasUsed": "0x93e13c",
      "logs": [
        {
          "address": "0x8bb960138cb32f9e40fd68bac5ead8f7d1eedeb5",
          "topics": [
            "0xddf252ad1be2c89b69c2b068fc378daa952ba7f163c4a11628f55a4df523b3ef",
            "0x0000000000000000000000000000000000000000000000000000000000000000",
            "0x000000000000000000000000764693dd666e8dd9275cde8f05c6b07446b1d941",
            "0x0000000000000000000000000000000000000000000000000000000000000004"
          ],
          "data": "0x",
          "blockHash": "0x1157075f7007c5e80bbae20d2fba469234c28d4302cc9a773f628c2d3e6099b8",
          "blockNumber": "0x5db72c",
          "transactionHash": "0x719919a6dd2a39ece3e5f5763907264799da5aa5a9ee32b2b1bf8e798c701f39",
          "transactionIndex": "0x3d",
          "logIndex": "0x77",
          "removed": false
        },
        {
          "address": "0x8bb960138cb32f9e40fd68bac5ead8f7d1eedeb5",
          "topics": [
            "0xf8e1a15aba9398e019f0b49df1a4fde98ee17ae345cb5f6b5e2c27f5033e8ce7"
          ],
          "data": "0x0000000000000000000000000000000000000000000000000000000000000004",
          "blockHash": "0x1157075f7007c5e80bbae20d2fba469234c28d4302cc9a773f628c2d3e6099b8",
          "blockNumber": "0x5db72c",
          "transactionHash": "0x719919a6dd2a39ece3e5f5763907264799da5aa5a9ee32b2b1bf8e798c701f39",
          "transactionIndex": "0x3d",
          "logIndex": "0x78",
          "removed": false
        },
        {
          "address": "0x8bb960138cb32f9e40fd68bac5ead8f7d1eedeb5",
          "topics": [
            "0xbab4562ae868d1765ed8452e98bba908a974596c4babc3ada5e90e05e3f433fb",
            "0x000000000000000000000000764693dd666e8dd9275cde8f05c6b07446b1d941",
            "0x0000000000000000000000000000000000000000000000000000000000000004"
          ],
          "data": "0x",
          "blockHash": "0x1157075f7007c5e80bbae20d2fba469234c28d4302cc9a773f628c2d3e6099b8",
          "blockNumber": "0x5db72c",
          "transactionHash": "0x719919a6dd2a39ece3e5f5763907264799da5aa5a9ee32b2b1bf8e798c701f39",
          "transactionIndex": "0x3d",
          "logIndex": "0x79",
          "removed": false
        },
        {
          "address": "0x5f7520323ceb32d7ef9b0315796a30b91519dfec",
          "topics": [
            "0xd35a6cc813c47c11ff9f41f7fe9d463b32db9be612b7f78e9ba6336deb4c5900",
            "0x000000000000000000000000764693dd666e8dd9275cde8f05c6b07446b1d941"
          ],
          "data": "0x",
          "blockHash": "0x1157075f7007c5e80bbae20d2fba469234c28d4302cc9a773f628c2d3e6099b8",
          "blockNumber": "0x5db72c",
          "transactionHash": "0x719919a6dd2a39ece3e5f5763907264799da5aa5a9ee32b2b1bf8e798c701f39",
          "transactionIndex": "0x3d",
          "logIndex": "0x7a",
          "removed": false
        }
      ],
      "logsBloom": "0x00000000000000000000100800000000800000000000000000000000004000000000000000000000000000000000000080000000000000000000000000000000000000000080000001000088000000000000200000000000000000000000000008004000020000000000000000000800000000000000000000000010200000000000000000000000040000000002000000000000000000000000000000000000000000000000000000000000040000002000000000000000002000000000008000000002000000000000000001000000000000008000000000000000000020000000000000000000200000000000000000000000000000000000000000000000",
      "type": "0x2",
      "transactionHash": "0x719919a6dd2a39ece3e5f5763907264799da5aa5a9ee32b2b1bf8e798c701f39",
      "transactionIndex": "0x3d",
      "blockHash": "0x1157075f7007c5e80bbae20d2fba469234c28d4302cc9a773f628c2d3e6099b8",
      "blockNumber": "0x5db72c",
      "gasUsed": "0x1aeb3",
      "effectiveGasPrice": "0x541a55a3",
      "from": "0x764693dd666e8dd9275cde8f05c6b07446b1d941",
      "to": "0x5f7520323ceb32d7ef9b0315796a30b91519dfec",
      "contractAddress": null
    },
    {
      "status": "0x1",
      "cumulativeGasUsed": "0x949797",
      "logs": [
        {
          "address": "0xfd57931425e1da4257500a5b168fe5c975b97c52",
          "topics": [
            "0x8c5be1e5ebec7d5bd14f71427d1e84f3dd0314c0f7b2291e5b200ac8c7c3b925",
            "0x000000000000000000000000764693dd666e8dd9275cde8f05c6b07446b1d941",
            "0x0000000000000000000000005f7520323ceb32d7ef9b0315796a30b91519dfec"
          ],
          "data": "0xffffffffffffffffffffffffffffffffffffffffffffffffffffffffffffffff",
          "blockHash": "0x1157075f7007c5e80bbae20d2fba469234c28d4302cc9a773f628c2d3e6099b8",
          "blockNumber": "0x5db72c",
          "transactionHash": "0x88db55bb25414b93bcc43107416bafa1e0cfe39d8c5712994146a4704840ea24",
          "transactionIndex": "0x3e",
          "logIndex": "0x7b",
          "removed": false
        }
      ],
      "logsBloom": "0x00000000000000000000000000000000800000000000000000000000004000000000000000000000000000000000000000000000000000000000000000200000000000000000000000000080000000000000000000000000000000000000000000000000000000000000000000000000000000000000000000000000000000000000000040000000000000000000000000000000000000000000001000000000020000000000000000000000000000000000000000000000000000000000000200100000000000000000000000000000000000000000000000000000040000000010000000000000000000000000000000000400000000000000000000000000",
      "type": "0x2",
      "transactionHash": "0x88db55bb25414b93bcc43107416bafa1e0cfe39d8c5712994146a4704840ea24",
      "transactionIndex": "0x3e",
      "blockHash": "0x1157075f7007c5e80bbae20d2fba469234c28d4302cc9a773f628c2d3e6099b8",
      "blockNumber": "0x5db72c",
      "gasUsed": "0xb65b",
      "effectiveGasPrice": "0x541a55a3",
      "from": "0x764693dd666e8dd9275cde8f05c6b07446b1d941",
      "to": "0xfd57931425e1da4257500a5b168fe5c975b97c52",
      "contractAddress": null
    },
    {
      "status": "0x1",
      "cumulativeGasUsed": "0x967a87",
      "logs": [
        {
          "address": "0xfd57931425e1da4257500a5b168fe5c975b97c52",
          "topics": [
            "0xddf252ad1be2c89b69c2b068fc378daa952ba7f163c4a11628f55a4df523b3ef",
            "0x000000000000000000000000764693dd666e8dd9275cde8f05c6b07446b1d941",
            "0x0000000000000000000000005f7520323ceb32d7ef9b0315796a30b91519dfec"
          ],
          "data": "0x00000000000000000000000000000000000000000000018650127cc3dc800000",
          "blockHash": "0x1157075f7007c5e80bbae20d2fba469234c28d4302cc9a773f628c2d3e6099b8",
          "blockNumber": "0x5db72c",
          "transactionHash": "0xb9f06c4ea13f20e4fabf4f83da29c3e181acccab832ccf2c470e334058cd67cb",
          "transactionIndex": "0x3f",
          "logIndex": "0x7c",
          "removed": false
        },
        {
          "address": "0xfd57931425e1da4257500a5b168fe5c975b97c52",
          "topics": [
            "0xddf252ad1be2c89b69c2b068fc378daa952ba7f163c4a11628f55a4df523b3ef",
            "0x0000000000000000000000005f7520323ceb32d7ef9b0315796a30b91519dfec",
            "0x000000000000000000000000764693dd666e8dd9275cde8f05c6b07446b1d941"
          ],
          "data": "0x00000000000000000000000000000000000000000000018650127cc3dc7ffff6",
          "blockHash": "0x1157075f7007c5e80bbae20d2fba469234c28d4302cc9a773f628c2d3e6099b8",
          "blockNumber": "0x5db72c",
          "transactionHash": "0xb9f06c4ea13f20e4fabf4f83da29c3e181acccab832ccf2c470e334058cd67cb",
          "transactionIndex": "0x3f",
          "logIndex": "0x7d",
          "removed": false
        },
        {
          "address": "0x5f7520323ceb32d7ef9b0315796a30b91519dfec",
          "topics": [
            "0x1a777a4e69f842f69af228bdecb2e58e1ab9d68e3c8694533ddb6ff9dd243f82",
            "0x0000000000000000000000000000000000000000000000000000000000000001",
            "0x000000000000000000000000764693dd666e8dd9275cde8f05c6b07446b1d941"
          ],
          "data": "0x",
          "blockHash": "0x1157075f7007c5e80bbae20d2fba469234c28d4302cc9a773f628c2d3e6099b8",
          "blockNumber": "0x5db72c",
          "transactionHash": "0xb9f06c4ea13f20e4fabf4f83da29c3e181acccab832ccf2c470e334058cd67cb",
          "transactionIndex": "0x3f",
          "logIndex": "0x7e",
          "removed": false
        }
      ],
      "logsBloom": "0x00000000000000000000000000000000800000000000000000000000004000000000000000000000000000000000000000000000000000000000000000040000000000000000000004000088000000000000000000040000000000000000000000000000000000000000000000000000000000000000000000000010000000000000000040000000040000000000000000000000000200000000001000000000000000000000000000000000040000000000000000000000000000000000000200100002000000000000000001000000000000000000000000000000040040000000000000000000000000000000000000000400000800000000000000000000",
      "type": "0x2",
      "transactionHash": "0xb9f06c4ea13f20e4fabf4f83da29c3e181acccab832ccf2c470e334058cd67cb",
      "transactionIndex": "0x3f",
      "blockHash": "0x1157075f7007c5e80bbae20d2fba469234c28d4302cc9a773f628c2d3e6099b8",
      "blockNumber": "0x5db72c",
      "gasUsed": "0x1e2f0",
      "effectiveGasPrice": "0x541a55a3",
      "from": "0x764693dd666e8dd9275cde8f05c6b07446b1d941",
      "to": "0x5f7520323ceb32d7ef9b0315796a30b91519dfec",
      "contractAddress": null
    },
    {
      "status": "0x1",
      "cumulativeGasUsed": "0x981aab",
      "logs": [
        {
          "address": "0xfd57931425e1da4257500a5b168fe5c975b97c52",
          "topics": [
            "0xddf252ad1be2c89b69c2b068fc378daa952ba7f163c4a11628f55a4df523b3ef",
            "0x000000000000000000000000764693dd666e8dd9275cde8f05c6b07446b1d941",
            "0x0000000000000000000000005f7520323ceb32d7ef9b0315796a30b91519dfec"
          ],
          "data": "0x00000000000000000000000000000000000000000000018650127cc3dc800000",
          "blockHash": "0x1157075f7007c5e80bbae20d2fba469234c28d4302cc9a773f628c2d3e6099b8",
          "blockNumber": "0x5db72c",
          "transactionHash": "0xc008ebb4abb47a8eaf6e8e82effbb9cab4fd30fdde2823604655608b4efa06a6",
          "transactionIndex": "0x40",
          "logIndex": "0x7f",
          "removed": false
        },
        {
          "address": "0xfd57931425e1da4257500a5b168fe5c975b97c52",
          "topics": [
            "0xddf252ad1be2c89b69c2b068fc378daa952ba7f163c4a11628f55a4df523b3ef",
            "0x0000000000000000000000005f7520323ceb32d7ef9b0315796a30b91519dfec",
            "0x000000000000000000000000764693dd666e8dd9275cde8f05c6b07446b1d941"
          ],
          "data": "0x00000000000000000000000000000000000000000000018650127cc3dc7ffff6",
          "blockHash": "0x1157075f7007c5e80bbae20d2fba469234c28d4302cc9a773f628c2d3e6099b8",
          "blockNumber": "0x5db72c",
          "transactionHash": "0xc008ebb4abb47a8eaf6e8e82effbb9cab4fd30fdde2823604655608b4efa06a6",
          "transactionIndex": "0x40",
          "logIndex": "0x80",
          "removed": false
        },
        {
          "address": "0x5f7520323ceb32d7ef9b0315796a30b91519dfec",
          "topics": [
            "0x1a777a4e69f842f69af228bdecb2e58e1ab9d68e3c8694533ddb6ff9dd243f82",
            "0x0000000000000000000000000000000000000000000000000000000000000002",
            "0x000000000000000000000000764693dd666e8dd9275cde8f05c6b07446b1d941"
          ],
          "data": "0x",
          "blockHash": "0x1157075f7007c5e80bbae20d2fba469234c28d4302cc9a773f628c2d3e6099b8",
          "blockNumber": "0x5db72c",
          "transactionHash": "0xc008ebb4abb47a8eaf6e8e82effbb9cab4fd30fdde2823604655608b4efa06a6",
          "transactionIndex": "0x40",
          "logIndex": "0x81",
          "removed": false
        }
      ],
      "logsBloom": "0x04000000000000000000000000000000800000000000000000000000004000000000000000000000000000000000000000000000000000000000000000000000000000000000000004000088000000000000000000000000000000000000000000000000000000000000000000000000000000000000000000000010000000000000000040000000040000000000000000000000000200000000001000000000000000000000000000000100040000000000000000000000000000000000000200100002000000000000000001000000000000000000000000000000040000000000000000000000000000000000000000000400008800000000000000000000",
      "type": "0x2",
      "transactionHash": "0xc008ebb4abb47a8eaf6e8e82effbb9cab4fd30fdde2823604655608b4efa06a6",
      "transactionIndex": "0x40",
      "blockHash": "0x1157075f7007c5e80bbae20d2fba469234c28d4302cc9a773f628c2d3e6099b8",
      "blockNumber": "0x5db72c",
      "gasUsed": "0x1a024",
      "effectiveGasPrice": "0x541a55a3",
      "from": "0x764693dd666e8dd9275cde8f05c6b07446b1d941",
      "to": "0x5f7520323ceb32d7ef9b0315796a30b91519dfec",
      "contractAddress": null
    },
    {
      "status": "0x1",
      "cumulativeGasUsed": "0x9b25f6",
      "logs": [
        {
          "address": "0xfd57931425e1da4257500a5b168fe5c975b97c52",
          "topics": [
            "0xddf252ad1be2c89b69c2b068fc378daa952ba7f163c4a11628f55a4df523b3ef",
            "0x000000000000000000000000764693dd666e8dd9275cde8f05c6b07446b1d941",
            "0x0000000000000000000000005f7520323ceb32d7ef9b0315796a30b91519dfec"
          ],
          "data": "0x000000000000000000000000000000000000000000018036d232d0cd0e000000",
          "blockHash": "0x1157075f7007c5e80bbae20d2fba469234c28d4302cc9a773f628c2d3e6099b8",
          "blockNumber": "0x5db72c",
          "transactionHash": "0x3b043a93085031a24d864f71e23b04bf41a261dd5c27fdc7c998f2bbf5ab9995",
          "transactionIndex": "0x42",
          "logIndex": "0x83",
          "removed": false
        },
        {
          "address": "0xfd57931425e1da4257500a5b168fe5c975b97c52",
          "topics": [
            "0xddf252ad1be2c89b69c2b068fc378daa952ba7f163c4a11628f55a4df523b3ef",
            "0x0000000000000000000000005f7520323ceb32d7ef9b0315796a30b91519dfec",
            "0x000000000000000000000000764693dd666e8dd9275cde8f05c6b07446b1d941"
          ],
          "data": "0x000000000000000000000000000000000000000000018036d232d0cd0dfffff6",
          "blockHash": "0x1157075f7007c5e80bbae20d2fba469234c28d4302cc9a773f628c2d3e6099b8",
          "blockNumber": "0x5db72c",
          "transactionHash": "0x3b043a93085031a24d864f71e23b04bf41a261dd5c27fdc7c998f2bbf5ab9995",
          "transactionIndex": "0x42",
          "logIndex": "0x84",
          "removed": false
        },
        {
          "address": "0x5f7520323ceb32d7ef9b0315796a30b91519dfec",
          "topics": [
            "0x1a777a4e69f842f69af228bdecb2e58e1ab9d68e3c8694533ddb6ff9dd243f82",
            "0x0000000000000000000000000000000000000000000000000000000000000003",
            "0x000000000000000000000000764693dd666e8dd9275cde8f05c6b07446b1d941"
          ],
          "data": "0x",
          "blockHash": "0x1157075f7007c5e80bbae20d2fba469234c28d4302cc9a773f628c2d3e6099b8",
          "blockNumber": "0x5db72c",
          "transactionHash": "0x3b043a93085031a24d864f71e23b04bf41a261dd5c27fdc7c998f2bbf5ab9995",
          "transactionIndex": "0x42",
          "logIndex": "0x85",
          "removed": false
        }
      ],
      "logsBloom": "0x00000000000000000000000000000000800000000000000000000000004000000000000000000000000000000000000000000000020000000000000000000000000000000000000004000088000000000000000000000000000000000000000000000000000000000000000000000000000000000000000000000010000000000000000040000000040000000000000000000000000200000000001000000000000000000000000000000000040000000000000000800000000000000000400200100002000000000000000001000000000000000000000000000000040000000000000000000000000000000000000000000400000800000000000000000000",
      "type": "0x2",
      "transactionHash": "0x3b043a93085031a24d864f71e23b04bf41a261dd5c27fdc7c998f2bbf5ab9995",
      "transactionIndex": "0x42",
      "blockHash": "0x1157075f7007c5e80bbae20d2fba469234c28d4302cc9a773f628c2d3e6099b8",
      "blockNumber": "0x5db72c",
      "gasUsed": "0x19f4c",
      "effectiveGasPrice": "0x541a55a3",
      "from": "0x764693dd666e8dd9275cde8f05c6b07446b1d941",
      "to": "0x5f7520323ceb32d7ef9b0315796a30b91519dfec",
      "contractAddress": null
    }
  ],
  "libraries": [],
  "pending": [],
  "returns": {},
  "timestamp": 1718816860,
  "chain": 11155111,
  "commit": "02b8d64"
}