{
  "transactions": [
    {
      "hash": "0x0d7ddabf7a434b740409eb57d7edc12e41d0b6a593eefea324e5184c3ff79225",
      "transactionType": "CALL",
      "contractName": null,
      "contractAddress": "0xd8ed4a9317585bd8ce8ef7524c313f25373d1739",
      "function": "transfer(address,uint256)",
      "arguments": [
        "0x0489DB67c9B49C1C813da3C538103926f31BE572",
        "1000000000000000000000"
      ],
      "transaction": {
        "from": "0x764693dd666e8dd9275cde8f05c6b07446b1d941",
        "to": "0xd8ed4a9317585bd8ce8ef7524c313f25373d1739",
        "gas": "0x116b2",
        "value": "0x0",
        "input": "0xa9059cbb0000000000000000000000000489db67c9b49c1c813da3c538103926f31be57200000000000000000000000000000000000000000000003635c9adc5dea00000",
        "nonce": "0x156",
        "chainId": "0xaa36a7"
      },
      "additionalContracts": [],
      "isFixedGasLimit": false
    }
  ],
  "receipts": [
    {
      "status": "0x1",
      "cumulativeGasUsed": "0x96fda7",
      "logs": [
        {
          "address": "0xd8ed4a9317585bd8ce8ef7524c313f25373d1739",
          "topics": [
            "0xddf252ad1be2c89b69c2b068fc378daa952ba7f163c4a11628f55a4df523b3ef",
            "0x000000000000000000000000764693dd666e8dd9275cde8f05c6b07446b1d941",
            "0x0000000000000000000000000489db67c9b49c1c813da3c538103926f31be572"
          ],
          "data": "0x00000000000000000000000000000000000000000000003635c9adc5dea00000",
          "blockHash": "0x5f9b248557a0b0def56491aa1f134842a05bd39eeb792d3acdd45309a8722ef8",
          "blockNumber": "0x5dc821",
          "transactionHash": "0x0d7ddabf7a434b740409eb57d7edc12e41d0b6a593eefea324e5184c3ff79225",
          "transactionIndex": "0x50",
          "logIndex": "0x86",
          "removed": false
        }
      ],
      "logsBloom": "0x00000000000000000000000000000000800000000000000000000000004000000000000000000000000000000000000000000000000000000000000080000000000000000000000000000088000000000000000000000000000000000000000000000000000000000000000000800040000000000000000000000010000000000000000000000000000000000000000000000000000000000000000000000000000000000000000000000000000000000000000000000000000000000040000000000002000000000000000000200000000000000000000000000000000000000000000000000000020000000000000000000000000000000000000000000000",
      "type": "0x2",
      "transactionHash": "0x0d7ddabf7a434b740409eb57d7edc12e41d0b6a593eefea324e5184c3ff79225",
      "transactionIndex": "0x50",
      "blockHash": "0x5f9b248557a0b0def56491aa1f134842a05bd39eeb792d3acdd45309a8722ef8",
      "blockNumber": "0x5dc821",
      "gasUsed": "0xc9c6",
      "effectiveGasPrice": "0x1f7ea0d0",
      "from": "0x764693dd666e8dd9275cde8f05c6b07446b1d941",
      "to": "0xd8ed4a9317585bd8ce8ef7524c313f25373d1739",
      "contractAddress": null
    }
  ],
  "libraries": [],
  "pending": [],
  "returns": {},
  "timestamp": 1718868964,
  "chain": 11155111,
  "commit": "67d1581"
}