{
  "transactions": [
    {
      "hash": "0x6adc824b2f687acd8aaf798abea9bf34f6703258d6191cd41a1bf52333321192",
      "transactionType": "CALL",
      "contractName": null,
      "contractAddress": "0xefce5726631051a4ea3a8483d79e69f8fe0aa12a",
      "function": "verifyAndMintParkingSpace(uint256,uint256)",
      "arguments": [
        "10000000000",
        "10000000000"
      ],
      "transaction": {
        "from": "0x764693dd666e8dd9275cde8f05c6b07446b1d941",
        "to": "0xefce5726631051a4ea3a8483d79e69f8fe0aa12a",
        "gas": "0x433a2",
        "value": "0x0",
        "input": "0xe0bddcd900000000000000000000000000000000000000000000000000000002540be40000000000000000000000000000000000000000000000000000000002540be400",
        "nonce": "0x179",
        "chainId": "0xaa36a7"
      },
      "additionalContracts": [],
      "isFixedGasLimit": false
    },
    {
      "hash": "0xbb1603843359d3004567614e06fa20941decb8b57dcbe878ef2f5e5fdd114451",
      "transactionType": "CALL",
      "contractName": null,
      "contractAddress": "0xefce5726631051a4ea3a8483d79e69f8fe0aa12a",
      "function": "verifyAndMintParkingSpace(uint256,uint256)",
      "arguments": [
        "10000000000",
        "10000000000"
      ],
      "transaction": {
        "from": "0x764693dd666e8dd9275cde8f05c6b07446b1d941",
        "to": "0xefce5726631051a4ea3a8483d79e69f8fe0aa12a",
        "gas": "0x433a2",
        "value": "0x0",
        "input": "0xe0bddcd900000000000000000000000000000000000000000000000000000002540be40000000000000000000000000000000000000000000000000000000002540be400",
        "nonce": "0x17a",
        "chainId": "0xaa36a7"
      },
      "additionalContracts": [],
      "isFixedGasLimit": false
    },
    {
      "hash": "0xf8fbc3e5ddff035eabc8e3244ced2686888b9b24a218bd3da0a53c1fe73a059c",
      "transactionType": "CALL",
      "contractName": null,
      "contractAddress": "0xefce5726631051a4ea3a8483d79e69f8fe0aa12a",
      "function": "verifyAndMintParkingSpace(uint256,uint256)",
      "arguments": [
        "10000000000",
        "10000000000"
      ],
      "transaction": {
        "from": "0x764693dd666e8dd9275cde8f05c6b07446b1d941",
        "to": "0xefce5726631051a4ea3a8483d79e69f8fe0aa12a",
        "gas": "0x433a2",
        "value": "0x0",
        "input": "0xe0bddcd900000000000000000000000000000000000000000000000000000002540be40000000000000000000000000000000000000000000000000000000002540be400",
        "nonce": "0x17b",
        "chainId": "0xaa36a7"
      },
      "additionalContracts": [],
      "isFixedGasLimit": false
    },
    {
      "hash": "0xfbf78b9e2303b1a67b6aa6f822686e620a0f0c342000a9b6f29c1b6f6a6abc23",
      "transactionType": "CALL",
      "contractName": null,
      "contractAddress": "0xefce5726631051a4ea3a8483d79e69f8fe0aa12a",
      "function": "verifyAndMintParkingSpace(uint256,uint256)",
      "arguments": [
        "10000000000",
        "10000000000"
      ],
      "transaction": {
        "from": "0x764693dd666e8dd9275cde8f05c6b07446b1d941",
        "to": "0xefce5726631051a4ea3a8483d79e69f8fe0aa12a",
        "gas": "0x433a2",
        "value": "0x0",
        "input": "0xe0bddcd900000000000000000000000000000000000000000000000000000002540be40000000000000000000000000000000000000000000000000000000002540be400",
        "nonce": "0x17c",
        "chainId": "0xaa36a7"
      },
      "additionalContracts": [],
      "isFixedGasLimit": false
    },
    {
      "hash": "0x3dbb4b7ba0aa1833364f6f6db4c7f27bbe6d0799421f044208e1e1b395ae2fa1",
      "transactionType": "CALL",
      "contractName": null,
      "contractAddress": "0xefce5726631051a4ea3a8483d79e69f8fe0aa12a",
      "function": "verifyAndMintParkingSpace(uint256,uint256)",
      "arguments": [
        "10000000000",
        "10000000000"
      ],
      "transaction": {
        "from": "0x764693dd666e8dd9275cde8f05c6b07446b1d941",
        "to": "0xefce5726631051a4ea3a8483d79e69f8fe0aa12a",
        "gas": "0x433a2",
        "value": "0x0",
        "input": "0xe0bddcd900000000000000000000000000000000000000000000000000000002540be40000000000000000000000000000000000000000000000000000000002540be400",
        "nonce": "0x17d",
        "chainId": "0xaa36a7"
      },
      "additionalContracts": [],
      "isFixedGasLimit": false
    },
    {
      "hash": "0x42b85e3cd47e868787e2ed303872bb9a9b2c543fd11c3d9f2ed95184d863602f",
      "transactionType": "CALL",
      "contractName": null,
      "contractAddress": "0xefce5726631051a4ea3a8483d79e69f8fe0aa12a",
      "function": "verifyAndMintParkingSpace(uint256,uint256)",
      "arguments": [
        "10000000000",
        "10000000000"
      ],
      "transaction": {
        "from": "0x764693dd666e8dd9275cde8f05c6b07446b1d941",
        "to": "0xefce5726631051a4ea3a8483d79e69f8fe0aa12a",
        "gas": "0x433a2",
        "value": "0x0",
        "input": "0xe0bddcd900000000000000000000000000000000000000000000000000000002540be40000000000000000000000000000000000000000000000000000000002540be400",
        "nonce": "0x17e",
        "chainId": "0xaa36a7"
      },
      "additionalContracts": [],
      "isFixedGasLimit": false
    },
    {
      "hash": "0x1df7bb847fc82c7129635a4eaf7900f10d525170ef4cd871929a56517b95711f",
      "transactionType": "CALL",
      "contractName": null,
      "contractAddress": "0xefce5726631051a4ea3a8483d79e69f8fe0aa12a",
      "function": "verifyAndMintParkingSpace(uint256,uint256)",
      "arguments": [
        "10000000000",
        "10000000000"
      ],
      "transaction": {
        "from": "0x764693dd666e8dd9275cde8f05c6b07446b1d941",
        "to": "0xefce5726631051a4ea3a8483d79e69f8fe0aa12a",
        "gas": "0x433a2",
        "value": "0x0",
        "input": "0xe0bddcd900000000000000000000000000000000000000000000000000000002540be40000000000000000000000000000000000000000000000000000000002540be400",
        "nonce": "0x17f",
        "chainId": "0xaa36a7"
      },
      "additionalContracts": [],
      "isFixedGasLimit": false
    },
    {
      "hash": "0x0bc80075795d4fcab7b5a50c34816a6ba8ed08817f2878d48835237c9abddf8b",
      "transactionType": "CALL",
      "contractName": null,
      "contractAddress": "0xefce5726631051a4ea3a8483d79e69f8fe0aa12a",
      "function": "verifyAndMintParkingSpace(uint256,uint256)",
      "arguments": [
        "10000000000",
        "10000000000"
      ],
      "transaction": {
        "from": "0x764693dd666e8dd9275cde8f05c6b07446b1d941",
        "to": "0xefce5726631051a4ea3a8483d79e69f8fe0aa12a",
        "gas": "0x433a2",
        "value": "0x0",
        "input": "0xe0bddcd900000000000000000000000000000000000000000000000000000002540be40000000000000000000000000000000000000000000000000000000002540be400",
        "nonce": "0x180",
        "chainId": "0xaa36a7"
      },
      "additionalContracts": [],
      "isFixedGasLimit": false
    },
    {
      "hash": "0x97580731c0c4c162d30b48c57ae51ac311a81fcff259c67b20cdb6da23aba7cc",
      "transactionType": "CALL",
      "contractName": null,
      "contractAddress": "0xefce5726631051a4ea3a8483d79e69f8fe0aa12a",
      "function": "verifyAndMintParkingSpace(uint256,uint256)",
      "arguments": [
        "10000000000",
        "10000000000"
      ],
      "transaction": {
        "from": "0x764693dd666e8dd9275cde8f05c6b07446b1d941",
        "to": "0xefce5726631051a4ea3a8483d79e69f8fe0aa12a",
        "gas": "0x433a2",
        "value": "0x0",
        "input": "0xe0bddcd900000000000000000000000000000000000000000000000000000002540be40000000000000000000000000000000000000000000000000000000002540be400",
        "nonce": "0x181",
        "chainId": "0xaa36a7"
      },
      "additionalContracts": [],
      "isFixedGasLimit": false
    },
    {
      "hash": "0xe79b5fe3077ac54917f2129440c03ae263643e89cdf5a741797d75eebe335c24",
      "transactionType": "CALL",
      "contractName": null,
      "contractAddress": "0xefce5726631051a4ea3a8483d79e69f8fe0aa12a",
      "function": "verifyAndMintParkingSpace(uint256,uint256)",
      "arguments": [
        "10000000000",
        "10000000000"
      ],
      "transaction": {
        "from": "0x764693dd666e8dd9275cde8f05c6b07446b1d941",
        "to": "0xefce5726631051a4ea3a8483d79e69f8fe0aa12a",
        "gas": "0x433a2",
        "value": "0x0",
        "input": "0xe0bddcd900000000000000000000000000000000000000000000000000000002540be40000000000000000000000000000000000000000000000000000000002540be400",
        "nonce": "0x182",
        "chainId": "0xaa36a7"
      },
      "additionalContracts": [],
      "isFixedGasLimit": false
    },
    {
      "hash": "0x4c689a068e88ce6a64530f80e42c42df8e297ce19d6e84451e745e2bb59a4add",
      "transactionType": "CALL",
      "contractName": null,
      "contractAddress": "0xefce5726631051a4ea3a8483d79e69f8fe0aa12a",
      "function": "verifyAndMintParkingSpace(uint256,uint256)",
      "arguments": [
        "10000000000",
        "10000000000"
      ],
      "transaction": {
        "from": "0x764693dd666e8dd9275cde8f05c6b07446b1d941",
        "to": "0xefce5726631051a4ea3a8483d79e69f8fe0aa12a",
        "gas": "0x433a2",
        "value": "0x0",
        "input": "0xe0bddcd900000000000000000000000000000000000000000000000000000002540be40000000000000000000000000000000000000000000000000000000002540be400",
        "nonce": "0x183",
        "chainId": "0xaa36a7"
      },
      "additionalContracts": [],
      "isFixedGasLimit": false
    },
    {
      "hash": "0xdbb9e608e4e8f965da2bc1791dcec7b29b5a2eed5feeefc264ec317bbc2b6bf8",
      "transactionType": "CALL",
      "contractName": null,
      "contractAddress": "0xefce5726631051a4ea3a8483d79e69f8fe0aa12a",
      "function": "verifyAndMintParkingSpace(uint256,uint256)",
      "arguments": [
        "10000000000",
        "10000000000"
      ],
      "transaction": {
        "from": "0x764693dd666e8dd9275cde8f05c6b07446b1d941",
        "to": "0xefce5726631051a4ea3a8483d79e69f8fe0aa12a",
        "gas": "0x433a2",
        "value": "0x0",
        "input": "0xe0bddcd900000000000000000000000000000000000000000000000000000002540be40000000000000000000000000000000000000000000000000000000002540be400",
        "nonce": "0x184",
        "chainId": "0xaa36a7"
      },
      "additionalContracts": [],
      "isFixedGasLimit": false
    },
    {
      "hash": "0x65b0faaec0ef63af0fe11aa9ee29e9774944f0a0907fcaf9b56983ae3debdeb7",
      "transactionType": "CALL",
      "contractName": null,
      "contractAddress": "0xefce5726631051a4ea3a8483d79e69f8fe0aa12a",
      "function": "verifyAndMintMembership()",
      "arguments": [],
      "transaction": {
        "from": "0x764693dd666e8dd9275cde8f05c6b07446b1d941",
        "to": "0xefce5726631051a4ea3a8483d79e69f8fe0aa12a",
        "gas": "0x1f6c1",
        "value": "0x0",
        "input": "0xf62c28cf",
        "nonce": "0x185",
        "chainId": "0xaa36a7"
      },
      "additionalContracts": [],
      "isFixedGasLimit": false
    },
    {
      "hash": "0x4f70eae36752bdfd64957b1b1267e3c303c1494c42062b18d8a865d2fcbb920a",
      "transactionType": "CALL",
      "contractName": null,
      "contractAddress": "0xd8ed4a9317585bd8ce8ef7524c313f25373d1739",
      "function": "approve(address,uint256)",
      "arguments": [
        "0xEfCe5726631051A4Ea3A8483D79E69F8Fe0aa12A",
        "115792089237316195423570985008687907853269984665640564039457584007913129639935"
      ],
      "transaction": {
        "from": "0x764693dd666e8dd9275cde8f05c6b07446b1d941",
        "to": "0xd8ed4a9317585bd8ce8ef7524c313f25373d1739",
        "gas": "0x9080",
        "value": "0x0",
        "input": "0x095ea7b3000000000000000000000000efce5726631051a4ea3a8483d79e69f8fe0aa12affffffffffffffffffffffffffffffffffffffffffffffffffffffffffffffff",
        "nonce": "0x186",
        "chainId": "0xaa36a7"
      },
      "additionalContracts": [],
      "isFixedGasLimit": false
    },
    {
      "hash": "0x74d1e7a5b0c42685b6e597061c08acb568403c5dd9bf27173d88221e4cc98983",
      "transactionType": "CALL",
      "contractName": null,
      "contractAddress": "0xefce5726631051a4ea3a8483d79e69f8fe0aa12a",
      "function": "checkIn(uint256,uint8,uint256)",
      "arguments": [
        "3",
        "1",
        "259200"
      ],
      "transaction": {
        "from": "0x764693dd666e8dd9275cde8f05c6b07446b1d941",
        "to": "0xefce5726631051a4ea3a8483d79e69f8fe0aa12a",
        "gas": "0x23ddd",
        "value": "0x0",
        "input": "0xa1ae6a2500000000000000000000000000000000000000000000000000000000000000030000000000000000000000000000000000000000000000000000000000000001000000000000000000000000000000000000000000000000000000000003f480",
        "nonce": "0x187",
        "chainId": "0xaa36a7"
      },
      "additionalContracts": [],
      "isFixedGasLimit": false
    }
  ],
  "receipts": [
    {
      "status": "0x1",
      "cumulativeGasUsed": "0x6689e9",
      "logs": [
        {
          "address": "0x6ec5929e48ad78838155fc8d3c6ed4e3c5bac111",
          "topics": [
            "0xddf252ad1be2c89b69c2b068fc378daa952ba7f163c4a11628f55a4df523b3ef",
            "0x0000000000000000000000000000000000000000000000000000000000000000",
            "0x000000000000000000000000764693dd666e8dd9275cde8f05c6b07446b1d941",
            "0x0000000000000000000000000000000000000000000000000000000000000010"
          ],
          "data": "0x",
          "blockHash": "0x9b89a3ca8793a1ee7739e3a8f59d4317a4f983db619dcc7da7196771918db094",
          "blockNumber": "0x5dcd19",
          "transactionHash": "0x6adc824b2f687acd8aaf798abea9bf34f6703258d6191cd41a1bf52333321192",
          "transactionIndex": "0x35",
          "logIndex": "0x56",
          "removed": false
        },
        {
          "address": "0x6ec5929e48ad78838155fc8d3c6ed4e3c5bac111",
          "topics": [
            "0xf8e1a15aba9398e019f0b49df1a4fde98ee17ae345cb5f6b5e2c27f5033e8ce7"
          ],
          "data": "0x0000000000000000000000000000000000000000000000000000000000000010",
          "blockHash": "0x9b89a3ca8793a1ee7739e3a8f59d4317a4f983db619dcc7da7196771918db094",
          "blockNumber": "0x5dcd19",
          "transactionHash": "0x6adc824b2f687acd8aaf798abea9bf34f6703258d6191cd41a1bf52333321192",
          "transactionIndex": "0x35",
          "logIndex": "0x57",
          "removed": false
        },
        {
          "address": "0x6ec5929e48ad78838155fc8d3c6ed4e3c5bac111",
          "topics": [
            "0x026aac271342ae43d27b41062e6f37001e4673fbbf25ad4bc3cfd6cd2094bd39",
            "0x000000000000000000000000764693dd666e8dd9275cde8f05c6b07446b1d941",
            "0x0000000000000000000000000000000000000000000000000000000000000010"
          ],
          "data": "0x",
          "blockHash": "0x9b89a3ca8793a1ee7739e3a8f59d4317a4f983db619dcc7da7196771918db094",
          "blockNumber": "0x5dcd19",
          "transactionHash": "0x6adc824b2f687acd8aaf798abea9bf34f6703258d6191cd41a1bf52333321192",
          "transactionIndex": "0x35",
          "logIndex": "0x58",
          "removed": false
        },
        {
          "address": "0xefce5726631051a4ea3a8483d79e69f8fe0aa12a",
          "topics": [
            "0x91e71c368c41168aa5766ee5b0c25d8c5f2c37970e7e4365305015fae0bfb0c6",
            "0x0000000000000000000000000000000000000000000000000000000000000006",
            "0x00000000000000000000000000000000000000000000000000000002540be400",
            "0x00000000000000000000000000000000000000000000000000000002540be400"
          ],
          "data": "0x",
          "blockHash": "0x9b89a3ca8793a1ee7739e3a8f59d4317a4f983db619dcc7da7196771918db094",
          "blockNumber": "0x5dcd19",
          "transactionHash": "0x6adc824b2f687acd8aaf798abea9bf34f6703258d6191cd41a1bf52333321192",
          "transactionIndex": "0x35",
          "logIndex": "0x59",
          "removed": false
        }
      ],
      "logsBloom": "0x00000000140000000000000000000000800000000000000000000000004000000000000000000000000000000000000000000000000400000000000000000000000000000000000000000088000000000000000000000000000000000000000000000000020000000000100000000800000000400000000000000010040020002000000400000008000000000000000000000100000000000000000000000000000000000080000000000000000040002080020000000004400000080000008000000002000000000000000000000000000000000000000000040000000030000000000000000000200000000000000000000000000000000100000000000000",
      "type": "0x2",
      "transactionHash": "0x6adc824b2f687acd8aaf798abea9bf34f6703258d6191cd41a1bf52333321192",
      "transactionIndex": "0x35",
      "blockHash": "0x9b89a3ca8793a1ee7739e3a8f59d4317a4f983db619dcc7da7196771918db094",
      "blockNumber": "0x5dcd19",
      "gasUsed": "0x2df7a",
      "effectiveGasPrice": "0x9f92028",
      "from": "0x764693dd666e8dd9275cde8f05c6b07446b1d941",
      "to": "0xefce5726631051a4ea3a8483d79e69f8fe0aa12a",
      "contractAddress": null
    },
    {
      "status": "0x1",
      "cumulativeGasUsed": "0x696963",
      "logs": [
        {
          "address": "0x6ec5929e48ad78838155fc8d3c6ed4e3c5bac111",
          "topics": [
            "0xddf252ad1be2c89b69c2b068fc378daa952ba7f163c4a11628f55a4df523b3ef",
            "0x0000000000000000000000000000000000000000000000000000000000000000",
            "0x000000000000000000000000764693dd666e8dd9275cde8f05c6b07446b1d941",
            "0x0000000000000000000000000000000000000000000000000000000000000011"
          ],
          "data": "0x",
          "blockHash": "0x9b89a3ca8793a1ee7739e3a8f59d4317a4f983db619dcc7da7196771918db094",
          "blockNumber": "0x5dcd19",
          "transactionHash": "0xbb1603843359d3004567614e06fa20941decb8b57dcbe878ef2f5e5fdd114451",
          "transactionIndex": "0x36",
          "logIndex": "0x5a",
          "removed": false
        },
        {
          "address": "0x6ec5929e48ad78838155fc8d3c6ed4e3c5bac111",
          "topics": [
            "0xf8e1a15aba9398e019f0b49df1a4fde98ee17ae345cb5f6b5e2c27f5033e8ce7"
          ],
          "data": "0x0000000000000000000000000000000000000000000000000000000000000011",
          "blockHash": "0x9b89a3ca8793a1ee7739e3a8f59d4317a4f983db619dcc7da7196771918db094",
          "blockNumber": "0x5dcd19",
          "transactionHash": "0xbb1603843359d3004567614e06fa20941decb8b57dcbe878ef2f5e5fdd114451",
          "transactionIndex": "0x36",
          "logIndex": "0x5b",
          "removed": false
        },
        {
          "address": "0x6ec5929e48ad78838155fc8d3c6ed4e3c5bac111",
          "topics": [
            "0x026aac271342ae43d27b41062e6f37001e4673fbbf25ad4bc3cfd6cd2094bd39",
            "0x000000000000000000000000764693dd666e8dd9275cde8f05c6b07446b1d941",
            "0x0000000000000000000000000000000000000000000000000000000000000011"
          ],
          "data": "0x",
          "blockHash": "0x9b89a3ca8793a1ee7739e3a8f59d4317a4f983db619dcc7da7196771918db094",
          "blockNumber": "0x5dcd19",
          "transactionHash": "0xbb1603843359d3004567614e06fa20941decb8b57dcbe878ef2f5e5fdd114451",
          "transactionIndex": "0x36",
          "logIndex": "0x5c",
          "removed": false
        },
        {
          "address": "0xefce5726631051a4ea3a8483d79e69f8fe0aa12a",
          "topics": [
            "0x91e71c368c41168aa5766ee5b0c25d8c5f2c37970e7e4365305015fae0bfb0c6",
            "0x0000000000000000000000000000000000000000000000000000000000000007",
            "0x00000000000000000000000000000000000000000000000000000002540be400",
            "0x00000000000000000000000000000000000000000000000000000002540be400"
          ],
          "data": "0x",
          "blockHash": "0x9b89a3ca8793a1ee7739e3a8f59d4317a4f983db619dcc7da7196771918db094",
          "blockNumber": "0x5dcd19",
          "transactionHash": "0xbb1603843359d3004567614e06fa20941decb8b57dcbe878ef2f5e5fdd114451",
          "transactionIndex": "0x36",
          "logIndex": "0x5d",
          "removed": false
        }
      ],
      "logsBloom": "0x00000000040000000000000000000000800000000000000000000000004000000000000000000000000000000000000000001000000000000000000000000000000020000000000000000088000000000000000000000000000000000000000000000000020000000000100000000800000000404000000000000010000020002000000000000008000000000000000000000000000000000000000000000000000000000080000000000000000040002080020000000004400000000400008000001002000000000000000000000000000000000000000000040100000030000000000000000000200000000000000000000000000000000100000000000000",
      "type": "0x2",
      "transactionHash": "0xbb1603843359d3004567614e06fa20941decb8b57dcbe878ef2f5e5fdd114451",
      "transactionIndex": "0x36",
      "blockHash": "0x9b89a3ca8793a1ee7739e3a8f59d4317a4f983db619dcc7da7196771918db094",
      "blockNumber": "0x5dcd19",
      "gasUsed": "0x2df7a",
      "effectiveGasPrice": "0x9f92028",
      "from": "0x764693dd666e8dd9275cde8f05c6b07446b1d941",
      "to": "0xefce5726631051a4ea3a8483d79e69f8fe0aa12a",
      "contractAddress": null
    },
    {
      "status": "0x1",
      "cumulativeGasUsed": "0x6c48dd",
      "logs": [
        {
          "address": "0x6ec5929e48ad78838155fc8d3c6ed4e3c5bac111",
          "topics": [
            "0xddf252ad1be2c89b69c2b068fc378daa952ba7f163c4a11628f55a4df523b3ef",
            "0x0000000000000000000000000000000000000000000000000000000000000000",
            "0x000000000000000000000000764693dd666e8dd9275cde8f05c6b07446b1d941",
            "0x0000000000000000000000000000000000000000000000000000000000000012"
          ],
          "data": "0x",
          "blockHash": "0x9b89a3ca8793a1ee7739e3a8f59d4317a4f983db619dcc7da7196771918db094",
          "blockNumber": "0x5dcd19",
          "transactionHash": "0xf8fbc3e5ddff035eabc8e3244ced2686888b9b24a218bd3da0a53c1fe73a059c",
          "transactionIndex": "0x37",
          "logIndex": "0x5e",
          "removed": false
        },
        {
          "address": "0x6ec5929e48ad78838155fc8d3c6ed4e3c5bac111",
          "topics": [
            "0xf8e1a15aba9398e019f0b49df1a4fde98ee17ae345cb5f6b5e2c27f5033e8ce7"
          ],
          "data": "0x0000000000000000000000000000000000000000000000000000000000000012",
          "blockHash": "0x9b89a3ca8793a1ee7739e3a8f59d4317a4f983db619dcc7da7196771918db094",
          "blockNumber": "0x5dcd19",
          "transactionHash": "0xf8fbc3e5ddff035eabc8e3244ced2686888b9b24a218bd3da0a53c1fe73a059c",
          "transactionIndex": "0x37",
          "logIndex": "0x5f",
          "removed": false
        },
        {
          "address": "0x6ec5929e48ad78838155fc8d3c6ed4e3c5bac111",
          "topics": [
            "0x026aac271342ae43d27b41062e6f37001e4673fbbf25ad4bc3cfd6cd2094bd39",
            "0x000000000000000000000000764693dd666e8dd9275cde8f05c6b07446b1d941",
            "0x0000000000000000000000000000000000000000000000000000000000000012"
          ],
          "data": "0x",
          "blockHash": "0x9b89a3ca8793a1ee7739e3a8f59d4317a4f983db619dcc7da7196771918db094",
          "blockNumber": "0x5dcd19",
          "transactionHash": "0xf8fbc3e5ddff035eabc8e3244ced2686888b9b24a218bd3da0a53c1fe73a059c",
          "transactionIndex": "0x37",
          "logIndex": "0x60",
          "removed": false
        },
        {
          "address": "0xefce5726631051a4ea3a8483d79e69f8fe0aa12a",
          "topics": [
            "0x91e71c368c41168aa5766ee5b0c25d8c5f2c37970e7e4365305015fae0bfb0c6",
            "0x0000000000000000000000000000000000000000000000000000000000000008",
            "0x00000000000000000000000000000000000000000000000000000002540be400",
            "0x00000000000000000000000000000000000000000000000000000002540be400"
          ],
          "data": "0x",
          "blockHash": "0x9b89a3ca8793a1ee7739e3a8f59d4317a4f983db619dcc7da7196771918db094",
          "blockNumber": "0x5dcd19",
          "transactionHash": "0xf8fbc3e5ddff035eabc8e3244ced2686888b9b24a218bd3da0a53c1fe73a059c",
          "transactionIndex": "0x37",
          "logIndex": "0x61",
          "removed": false
        }
      ],
      "logsBloom": "0x00000000040000000000000000000000800000000000000000000000004000000000000000000000000000000000000000000000000080000000000000000000000000000000000000000088000000000000000000000000000000000000000000000000020000000000100000000800000000400000000000000010000020002080000000000008000000000000040000000000000000000000000000000000000000000080000000000000000040002080020000000044400000000000008040000002000000000400000000000000000000000000000000040000000030000000000000000000200000000000000000000000000000000100000000000000",
      "type": "0x2",
      "transactionHash": "0xf8fbc3e5ddff035eabc8e3244ced2686888b9b24a218bd3da0a53c1fe73a059c",
      "transactionIndex": "0x37",
      "blockHash": "0x9b89a3ca8793a1ee7739e3a8f59d4317a4f983db619dcc7da7196771918db094",
      "blockNumber": "0x5dcd19",
      "gasUsed": "0x2df7a",
      "effectiveGasPrice": "0x9f92028",
      "from": "0x764693dd666e8dd9275cde8f05c6b07446b1d941",
      "to": "0xefce5726631051a4ea3a8483d79e69f8fe0aa12a",
      "contractAddress": null
    },
    {
      "status": "0x1",
      "cumulativeGasUsed": "0x6f2857",
      "logs": [
        {
          "address": "0x6ec5929e48ad78838155fc8d3c6ed4e3c5bac111",
          "topics": [
            "0xddf252ad1be2c89b69c2b068fc378daa952ba7f163c4a11628f55a4df523b3ef",
            "0x0000000000000000000000000000000000000000000000000000000000000000",
            "0x000000000000000000000000764693dd666e8dd9275cde8f05c6b07446b1d941",
            "0x0000000000000000000000000000000000000000000000000000000000000013"
          ],
          "data": "0x",
          "blockHash": "0x9b89a3ca8793a1ee7739e3a8f59d4317a4f983db619dcc7da7196771918db094",
          "blockNumber": "0x5dcd19",
          "transactionHash": "0xfbf78b9e2303b1a67b6aa6f822686e620a0f0c342000a9b6f29c1b6f6a6abc23",
          "transactionIndex": "0x38",
          "logIndex": "0x62",
          "removed": false
        },
        {
          "address": "0x6ec5929e48ad78838155fc8d3c6ed4e3c5bac111",
          "topics": [
            "0xf8e1a15aba9398e019f0b49df1a4fde98ee17ae345cb5f6b5e2c27f5033e8ce7"
          ],
          "data": "0x0000000000000000000000000000000000000000000000000000000000000013",
          "blockHash": "0x9b89a3ca8793a1ee7739e3a8f59d4317a4f983db619dcc7da7196771918db094",
          "blockNumber": "0x5dcd19",
          "transactionHash": "0xfbf78b9e2303b1a67b6aa6f822686e620a0f0c342000a9b6f29c1b6f6a6abc23",
          "transactionIndex": "0x38",
          "logIndex": "0x63",
          "removed": false
        },
        {
          "address": "0x6ec5929e48ad78838155fc8d3c6ed4e3c5bac111",
          "topics": [
            "0x026aac271342ae43d27b41062e6f37001e4673fbbf25ad4bc3cfd6cd2094bd39",
            "0x000000000000000000000000764693dd666e8dd9275cde8f05c6b07446b1d941",
            "0x0000000000000000000000000000000000000000000000000000000000000013"
          ],
          "data": "0x",
          "blockHash": "0x9b89a3ca8793a1ee7739e3a8f59d4317a4f983db619dcc7da7196771918db094",
          "blockNumber": "0x5dcd19",
          "transactionHash": "0xfbf78b9e2303b1a67b6aa6f822686e620a0f0c342000a9b6f29c1b6f6a6abc23",
          "transactionIndex": "0x38",
          "logIndex": "0x64",
          "removed": false
        },
        {
          "address": "0xefce5726631051a4ea3a8483d79e69f8fe0aa12a",
          "topics": [
            "0x91e71c368c41168aa5766ee5b0c25d8c5f2c37970e7e4365305015fae0bfb0c6",
            "0x0000000000000000000000000000000000000000000000000000000000000009",
            "0x00000000000000000000000000000000000000000000000000000002540be400",
            "0x00000000000000000000000000000000000000000000000000000002540be400"
          ],
          "data": "0x",
          "blockHash": "0x9b89a3ca8793a1ee7739e3a8f59d4317a4f983db619dcc7da7196771918db094",
          "blockNumber": "0x5dcd19",
          "transactionHash": "0xfbf78b9e2303b1a67b6aa6f822686e620a0f0c342000a9b6f29c1b6f6a6abc23",
          "transactionIndex": "0x38",
          "logIndex": "0x65",
          "removed": false
        }
      ],
      "logsBloom": "0x20000000040000000000000000800000800000000000000000000000004000000000000040000000000000000000000000000000000000000000000000200000000000000000000000000088000000000000000000000000000000000000000000000000020000000000100000000800000000400000000000000010000020002000000000000008000000000000000000001000000000000000000000000000000000000080000000000000000040002080020000000004400000000000008000000002000000000000000000000000000000000000000000040000000030000000000000000000200000000000000000000000000000000100000000800000",
      "type": "0x2",
      "transactionHash": "0xfbf78b9e2303b1a67b6aa6f822686e620a0f0c342000a9b6f29c1b6f6a6abc23",
      "transactionIndex": "0x38",
      "blockHash": "0x9b89a3ca8793a1ee7739e3a8f59d4317a4f983db619dcc7da7196771918db094",
      "blockNumber": "0x5dcd19",
      "gasUsed": "0x2df7a",
      "effectiveGasPrice": "0x9f92028",
      "from": "0x764693dd666e8dd9275cde8f05c6b07446b1d941",
      "to": "0xefce5726631051a4ea3a8483d79e69f8fe0aa12a",
      "contractAddress": null
    },
    {
      "status": "0x1",
      "cumulativeGasUsed": "0x7207d1",
      "logs": [
        {
          "address": "0x6ec5929e48ad78838155fc8d3c6ed4e3c5bac111",
          "topics": [
            "0xddf252ad1be2c89b69c2b068fc378daa952ba7f163c4a11628f55a4df523b3ef",
            "0x0000000000000000000000000000000000000000000000000000000000000000",
            "0x000000000000000000000000764693dd666e8dd9275cde8f05c6b07446b1d941",
            "0x0000000000000000000000000000000000000000000000000000000000000014"
          ],
          "data": "0x",
          "blockHash": "0x9b89a3ca8793a1ee7739e3a8f59d4317a4f983db619dcc7da7196771918db094",
          "blockNumber": "0x5dcd19",
          "transactionHash": "0x3dbb4b7ba0aa1833364f6f6db4c7f27bbe6d0799421f044208e1e1b395ae2fa1",
          "transactionIndex": "0x39",
          "logIndex": "0x66",
          "removed": false
        },
        {
          "address": "0x6ec5929e48ad78838155fc8d3c6ed4e3c5bac111",
          "topics": [
            "0xf8e1a15aba9398e019f0b49df1a4fde98ee17ae345cb5f6b5e2c27f5033e8ce7"
          ],
          "data": "0x0000000000000000000000000000000000000000000000000000000000000014",
          "blockHash": "0x9b89a3ca8793a1ee7739e3a8f59d4317a4f983db619dcc7da7196771918db094",
          "blockNumber": "0x5dcd19",
          "transactionHash": "0x3dbb4b7ba0aa1833364f6f6db4c7f27bbe6d0799421f044208e1e1b395ae2fa1",
          "transactionIndex": "0x39",
          "logIndex": "0x67",
          "removed": false
        },
        {
          "address": "0x6ec5929e48ad78838155fc8d3c6ed4e3c5bac111",
          "topics": [
            "0x026aac271342ae43d27b41062e6f37001e4673fbbf25ad4bc3cfd6cd2094bd39",
            "0x000000000000000000000000764693dd666e8dd9275cde8f05c6b07446b1d941",
            "0x0000000000000000000000000000000000000000000000000000000000000014"
          ],
          "data": "0x",
          "blockHash": "0x9b89a3ca8793a1ee7739e3a8f59d4317a4f983db619dcc7da7196771918db094",
          "blockNumber": "0x5dcd19",
          "transactionHash": "0x3dbb4b7ba0aa1833364f6f6db4c7f27bbe6d0799421f044208e1e1b395ae2fa1",
          "transactionIndex": "0x39",
          "logIndex": "0x68",
          "removed": false
        },
        {
          "address": "0xefce5726631051a4ea3a8483d79e69f8fe0aa12a",
          "topics": [
            "0x91e71c368c41168aa5766ee5b0c25d8c5f2c37970e7e4365305015fae0bfb0c6",
            "0x000000000000000000000000000000000000000000000000000000000000000a",
            "0x00000000000000000000000000000000000000000000000000000002540be400",
            "0x00000000000000000000000000000000000000000000000000000002540be400"
          ],
          "data": "0x",
          "blockHash": "0x9b89a3ca8793a1ee7739e3a8f59d4317a4f983db619dcc7da7196771918db094",
          "blockNumber": "0x5dcd19",
          "transactionHash": "0x3dbb4b7ba0aa1833364f6f6db4c7f27bbe6d0799421f044208e1e1b395ae2fa1",
          "transactionIndex": "0x39",
          "logIndex": "0x69",
          "removed": false
        }
      ],
      "logsBloom": "0x00000000040000000000000000000000800000000000000000000000004000000000000000000000000000000000000000002000040000000020000000000000000000000000000000000088000000000000000000000000000000000000000000000000020000000000100000000800000000400000000000000010000020002000000000000008010000000000000000000000000400000000000000000000000000000080000020000000000040002080020000000004400000000000008000000002000000000000000000000000000000000000000000040000000030000000000000000000200000000000000000000000000000000100000000000000",
      "type": "0x2",
      "transactionHash": "0x3dbb4b7ba0aa1833364f6f6db4c7f27bbe6d0799421f044208e1e1b395ae2fa1",
      "transactionIndex": "0x39",
      "blockHash": "0x9b89a3ca8793a1ee7739e3a8f59d4317a4f983db619dcc7da7196771918db094",
      "blockNumber": "0x5dcd19",
      "gasUsed": "0x2df7a",
      "effectiveGasPrice": "0x9f92028",
      "from": "0x764693dd666e8dd9275cde8f05c6b07446b1d941",
      "to": "0xefce5726631051a4ea3a8483d79e69f8fe0aa12a",
      "contractAddress": null
    },
    {
      "status": "0x1",
      "cumulativeGasUsed": "0x74e74b",
      "logs": [
        {
          "address": "0x6ec5929e48ad78838155fc8d3c6ed4e3c5bac111",
          "topics": [
            "0xddf252ad1be2c89b69c2b068fc378daa952ba7f163c4a11628f55a4df523b3ef",
            "0x0000000000000000000000000000000000000000000000000000000000000000",
            "0x000000000000000000000000764693dd666e8dd9275cde8f05c6b07446b1d941",
            "0x0000000000000000000000000000000000000000000000000000000000000015"
          ],
          "data": "0x",
          "blockHash": "0x9b89a3ca8793a1ee7739e3a8f59d4317a4f983db619dcc7da7196771918db094",
          "blockNumber": "0x5dcd19",
          "transactionHash": "0x42b85e3cd47e868787e2ed303872bb9a9b2c543fd11c3d9f2ed95184d863602f",
          "transactionIndex": "0x3a",
          "logIndex": "0x6a",
          "removed": false
        },
        {
          "address": "0x6ec5929e48ad78838155fc8d3c6ed4e3c5bac111",
          "topics": [
            "0xf8e1a15aba9398e019f0b49df1a4fde98ee17ae345cb5f6b5e2c27f5033e8ce7"
          ],
          "data": "0x0000000000000000000000000000000000000000000000000000000000000015",
          "blockHash": "0x9b89a3ca8793a1ee7739e3a8f59d4317a4f983db619dcc7da7196771918db094",
          "blockNumber": "0x5dcd19",
          "transactionHash": "0x42b85e3cd47e868787e2ed303872bb9a9b2c543fd11c3d9f2ed95184d863602f",
          "transactionIndex": "0x3a",
          "logIndex": "0x6b",
          "removed": false
        },
        {
          "address": "0x6ec5929e48ad78838155fc8d3c6ed4e3c5bac111",
          "topics": [
            "0x026aac271342ae43d27b41062e6f37001e4673fbbf25ad4bc3cfd6cd2094bd39",
            "0x000000000000000000000000764693dd666e8dd9275cde8f05c6b07446b1d941",
            "0x0000000000000000000000000000000000000000000000000000000000000015"
          ],
          "data": "0x",
          "blockHash": "0x9b89a3ca8793a1ee7739e3a8f59d4317a4f983db619dcc7da7196771918db094",
          "blockNumber": "0x5dcd19",
          "transactionHash": "0x42b85e3cd47e868787e2ed303872bb9a9b2c543fd11c3d9f2ed95184d863602f",
          "transactionIndex": "0x3a",
          "logIndex": "0x6c",
          "removed": false
        },
        {
          "address": "0xefce5726631051a4ea3a8483d79e69f8fe0aa12a",
          "topics": [
            "0x91e71c368c41168aa5766ee5b0c25d8c5f2c37970e7e4365305015fae0bfb0c6",
            "0x000000000000000000000000000000000000000000000000000000000000000b",
            "0x00000000000000000000000000000000000000000000000000000002540be400",
            "0x00000000000000000000000000000000000000000000000000000002540be400"
          ],
          "data": "0x",
          "blockHash": "0x9b89a3ca8793a1ee7739e3a8f59d4317a4f983db619dcc7da7196771918db094",
          "blockNumber": "0x5dcd19",
          "transactionHash": "0x42b85e3cd47e868787e2ed303872bb9a9b2c543fd11c3d9f2ed95184d863602f",
          "transactionIndex": "0x3a",
          "logIndex": "0x6d",
          "removed": false
        }
      ],
      "logsBloom": "0x00000000040000000000004000000000800000000000000000000000004000000000000000000000000000000000000000000000000000000000000000000000001000000000000000000088000000000000000000000000000000000000000000000000020000000000100000000800000000400000000000000010000020002000000000000008000000000000000000000000000000000000000000000000000000000080000000000000010040002080020000000004400000000000008000000002000000000000000000000000002000000000000000040000000030002000000000000000200000000000000000000000000000040100000000000000",
      "type": "0x2",
      "transactionHash": "0x42b85e3cd47e868787e2ed303872bb9a9b2c543fd11c3d9f2ed95184d863602f",
      "transactionIndex": "0x3a",
      "blockHash": "0x9b89a3ca8793a1ee7739e3a8f59d4317a4f983db619dcc7da7196771918db094",
      "blockNumber": "0x5dcd19",
      "gasUsed": "0x2df7a",
      "effectiveGasPrice": "0x9f92028",
      "from": "0x764693dd666e8dd9275cde8f05c6b07446b1d941",
      "to": "0xefce5726631051a4ea3a8483d79e69f8fe0aa12a",
      "contractAddress": null
    },
    {
      "status": "0x1",
      "cumulativeGasUsed": "0x77c6c5",
      "logs": [
        {
          "address": "0x6ec5929e48ad78838155fc8d3c6ed4e3c5bac111",
          "topics": [
            "0xddf252ad1be2c89b69c2b068fc378daa952ba7f163c4a11628f55a4df523b3ef",
            "0x0000000000000000000000000000000000000000000000000000000000000000",
            "0x000000000000000000000000764693dd666e8dd9275cde8f05c6b07446b1d941",
            "0x0000000000000000000000000000000000000000000000000000000000000016"
          ],
          "data": "0x",
          "blockHash": "0x9b89a3ca8793a1ee7739e3a8f59d4317a4f983db619dcc7da7196771918db094",
          "blockNumber": "0x5dcd19",
          "transactionHash": "0x1df7bb847fc82c7129635a4eaf7900f10d525170ef4cd871929a56517b95711f",
          "transactionIndex": "0x3b",
          "logIndex": "0x6e",
          "removed": false
        },
        {
          "address": "0x6ec5929e48ad78838155fc8d3c6ed4e3c5bac111",
          "topics": [
            "0xf8e1a15aba9398e019f0b49df1a4fde98ee17ae345cb5f6b5e2c27f5033e8ce7"
          ],
          "data": "0x0000000000000000000000000000000000000000000000000000000000000016",
          "blockHash": "0x9b89a3ca8793a1ee7739e3a8f59d4317a4f983db619dcc7da7196771918db094",
          "blockNumber": "0x5dcd19",
          "transactionHash": "0x1df7bb847fc82c7129635a4eaf7900f10d525170ef4cd871929a56517b95711f",
          "transactionIndex": "0x3b",
          "logIndex": "0x6f",
          "removed": false
        },
        {
          "address": "0x6ec5929e48ad78838155fc8d3c6ed4e3c5bac111",
          "topics": [
            "0x026aac271342ae43d27b41062e6f37001e4673fbbf25ad4bc3cfd6cd2094bd39",
            "0x000000000000000000000000764693dd666e8dd9275cde8f05c6b07446b1d941",
            "0x0000000000000000000000000000000000000000000000000000000000000016"
          ],
          "data": "0x",
          "blockHash": "0x9b89a3ca8793a1ee7739e3a8f59d4317a4f983db619dcc7da7196771918db094",
          "blockNumber": "0x5dcd19",
          "transactionHash": "0x1df7bb847fc82c7129635a4eaf7900f10d525170ef4cd871929a56517b95711f",
          "transactionIndex": "0x3b",
          "logIndex": "0x70",
          "removed": false
        },
        {
          "address": "0xefce5726631051a4ea3a8483d79e69f8fe0aa12a",
          "topics": [
            "0x91e71c368c41168aa5766ee5b0c25d8c5f2c37970e7e4365305015fae0bfb0c6",
            "0x000000000000000000000000000000000000000000000000000000000000000c",
            "0x00000000000000000000000000000000000000000000000000000002540be400",
            "0x00000000000000000000000000000000000000000000000000000002540be400"
          ],
          "data": "0x",
          "blockHash": "0x9b89a3ca8793a1ee7739e3a8f59d4317a4f983db619dcc7da7196771918db094",
          "blockNumber": "0x5dcd19",
          "transactionHash": "0x1df7bb847fc82c7129635a4eaf7900f10d525170ef4cd871929a56517b95711f",
          "transactionIndex": "0x3b",
          "logIndex": "0x71",
          "removed": false
        }
      ],
      "logsBloom": "0x00000000040000000000000000000000800002000000000000000000004000000000000000000200000000000000000000000000000000000000000000000000000000000000000800000088000000000000000000000000000000000000000000000000020000000000100000000800200000400000000000000010000020002000000000000008000000000000000000000000000000000000000000000000000000000080000000000000000040002080020000000004400000000000008000000002000000000000000000000000000000000000000000040000000030200000000000000000200000000000000000000000000000000108000000000000",
      "type": "0x2",
      "transactionHash": "0x1df7bb847fc82c7129635a4eaf7900f10d525170ef4cd871929a56517b95711f",
      "transactionIndex": "0x3b",
      "blockHash": "0x9b89a3ca8793a1ee7739e3a8f59d4317a4f983db619dcc7da7196771918db094",
      "blockNumber": "0x5dcd19",
      "gasUsed": "0x2df7a",
      "effectiveGasPrice": "0x9f92028",
      "from": "0x764693dd666e8dd9275cde8f05c6b07446b1d941",
      "to": "0xefce5726631051a4ea3a8483d79e69f8fe0aa12a",
      "contractAddress": null
    },
    {
      "status": "0x1",
      "cumulativeGasUsed": "0x7aa63f",
      "logs": [
        {
          "address": "0x6ec5929e48ad78838155fc8d3c6ed4e3c5bac111",
          "topics": [
            "0xddf252ad1be2c89b69c2b068fc378daa952ba7f163c4a11628f55a4df523b3ef",
            "0x0000000000000000000000000000000000000000000000000000000000000000",
            "0x000000000000000000000000764693dd666e8dd9275cde8f05c6b07446b1d941",
            "0x0000000000000000000000000000000000000000000000000000000000000017"
          ],
          "data": "0x",
          "blockHash": "0x9b89a3ca8793a1ee7739e3a8f59d4317a4f983db619dcc7da7196771918db094",
          "blockNumber": "0x5dcd19",
          "transactionHash": "0x0bc80075795d4fcab7b5a50c34816a6ba8ed08817f2878d48835237c9abddf8b",
          "transactionIndex": "0x3c",
          "logIndex": "0x72",
          "removed": false
        },
        {
          "address": "0x6ec5929e48ad78838155fc8d3c6ed4e3c5bac111",
          "topics": [
            "0xf8e1a15aba9398e019f0b49df1a4fde98ee17ae345cb5f6b5e2c27f5033e8ce7"
          ],
          "data": "0x0000000000000000000000000000000000000000000000000000000000000017",
          "blockHash": "0x9b89a3ca8793a1ee7739e3a8f59d4317a4f983db619dcc7da7196771918db094",
          "blockNumber": "0x5dcd19",
          "transactionHash": "0x0bc80075795d4fcab7b5a50c34816a6ba8ed08817f2878d48835237c9abddf8b",
          "transactionIndex": "0x3c",
          "logIndex": "0x73",
          "removed": false
        },
        {
          "address": "0x6ec5929e48ad78838155fc8d3c6ed4e3c5bac111",
          "topics": [
            "0x026aac271342ae43d27b41062e6f37001e4673fbbf25ad4bc3cfd6cd2094bd39",
            "0x000000000000000000000000764693dd666e8dd9275cde8f05c6b07446b1d941",
            "0x0000000000000000000000000000000000000000000000000000000000000017"
          ],
          "data": "0x",
          "blockHash": "0x9b89a3ca8793a1ee7739e3a8f59d4317a4f983db619dcc7da7196771918db094",
          "blockNumber": "0x5dcd19",
          "transactionHash": "0x0bc80075795d4fcab7b5a50c34816a6ba8ed08817f2878d48835237c9abddf8b",
          "transactionIndex": "0x3c",
          "logIndex": "0x74",
          "removed": false
        },
        {
          "address": "0xefce5726631051a4ea3a8483d79e69f8fe0aa12a",
          "topics": [
            "0x91e71c368c41168aa5766ee5b0c25d8c5f2c37970e7e4365305015fae0bfb0c6",
            "0x000000000000000000000000000000000000000000000000000000000000000d",
            "0x00000000000000000000000000000000000000000000000000000002540be400",
            "0x00000000000000000000000000000000000000000000000000000002540be400"
          ],
          "data": "0x",
          "blockHash": "0x9b89a3ca8793a1ee7739e3a8f59d4317a4f983db619dcc7da7196771918db094",
          "blockNumber": "0x5dcd19",
          "transactionHash": "0x0bc80075795d4fcab7b5a50c34816a6ba8ed08817f2878d48835237c9abddf8b",
          "transactionIndex": "0x3c",
          "logIndex": "0x75",
          "removed": false
        }
      ],
      "logsBloom": "0x00000000040000000040000000000000800000000000000000000000004000000000000000000000000000000000000000001000000000000000001000000000000000000000000000000088000000000002000000000000000000000000000000000000020000000000100000000800000000400000000000000010000020002000000000000008000000000000000000000000000000000000000000000000000000000080000000000000000040002080020000000004400000000000008000000002000000000000000000000000000000000000000000040000000030020000000000000000200000000000000000000000000000000100000000080000",
      "type": "0x2",
      "transactionHash": "0x0bc80075795d4fcab7b5a50c34816a6ba8ed08817f2878d48835237c9abddf8b",
      "transactionIndex": "0x3c",
      "blockHash": "0x9b89a3ca8793a1ee7739e3a8f59d4317a4f983db619dcc7da7196771918db094",
      "blockNumber": "0x5dcd19",
      "gasUsed": "0x2df7a",
      "effectiveGasPrice": "0x9f92028",
      "from": "0x764693dd666e8dd9275cde8f05c6b07446b1d941",
      "to": "0xefce5726631051a4ea3a8483d79e69f8fe0aa12a",
      "contractAddress": null
    },
    {
      "status": "0x1",
      "cumulativeGasUsed": "0x7d85b9",
      "logs": [
        {
          "address": "0x6ec5929e48ad78838155fc8d3c6ed4e3c5bac111",
          "topics": [
            "0xddf252ad1be2c89b69c2b068fc378daa952ba7f163c4a11628f55a4df523b3ef",
            "0x0000000000000000000000000000000000000000000000000000000000000000",
            "0x000000000000000000000000764693dd666e8dd9275cde8f05c6b07446b1d941",
            "0x0000000000000000000000000000000000000000000000000000000000000018"
          ],
          "data": "0x",
          "blockHash": "0x9b89a3ca8793a1ee7739e3a8f59d4317a4f983db619dcc7da7196771918db094",
          "blockNumber": "0x5dcd19",
          "transactionHash": "0x97580731c0c4c162d30b48c57ae51ac311a81fcff259c67b20cdb6da23aba7cc",
          "transactionIndex": "0x3d",
          "logIndex": "0x76",
          "removed": false
        },
        {
          "address": "0x6ec5929e48ad78838155fc8d3c6ed4e3c5bac111",
          "topics": [
            "0xf8e1a15aba9398e019f0b49df1a4fde98ee17ae345cb5f6b5e2c27f5033e8ce7"
          ],
          "data": "0x0000000000000000000000000000000000000000000000000000000000000018",
          "blockHash": "0x9b89a3ca8793a1ee7739e3a8f59d4317a4f983db619dcc7da7196771918db094",
          "blockNumber": "0x5dcd19",
          "transactionHash": "0x97580731c0c4c162d30b48c57ae51ac311a81fcff259c67b20cdb6da23aba7cc",
          "transactionIndex": "0x3d",
          "logIndex": "0x77",
          "removed": false
        },
        {
          "address": "0x6ec5929e48ad78838155fc8d3c6ed4e3c5bac111",
          "topics": [
            "0x026aac271342ae43d27b41062e6f37001e4673fbbf25ad4bc3cfd6cd2094bd39",
            "0x000000000000000000000000764693dd666e8dd9275cde8f05c6b07446b1d941",
            "0x0000000000000000000000000000000000000000000000000000000000000018"
          ],
          "data": "0x",
          "blockHash": "0x9b89a3ca8793a1ee7739e3a8f59d4317a4f983db619dcc7da7196771918db094",
          "blockNumber": "0x5dcd19",
          "transactionHash": "0x97580731c0c4c162d30b48c57ae51ac311a81fcff259c67b20cdb6da23aba7cc",
          "transactionIndex": "0x3d",
          "logIndex": "0x78",
          "removed": false
        },
        {
          "address": "0xefce5726631051a4ea3a8483d79e69f8fe0aa12a",
          "topics": [
            "0x91e71c368c41168aa5766ee5b0c25d8c5f2c37970e7e4365305015fae0bfb0c6",
            "0x000000000000000000000000000000000000000000000000000000000000000e",
            "0x00000000000000000000000000000000000000000000000000000002540be400",
            "0x00000000000000000000000000000000000000000000000000000002540be400"
          ],
          "data": "0x",
          "blockHash": "0x9b89a3ca8793a1ee7739e3a8f59d4317a4f983db619dcc7da7196771918db094",
          "blockNumber": "0x5dcd19",
          "transactionHash": "0x97580731c0c4c162d30b48c57ae51ac311a81fcff259c67b20cdb6da23aba7cc",
          "transactionIndex": "0x3d",
          "logIndex": "0x79",
          "removed": false
        }
      ],
      "logsBloom": "0x00000000040000000000000000000000800000000000000000000000004000000000000000000000000000000000000000000000000000000000000000000000000000000000000800000088000000000040000000000000000000000000000000000000020000000000100000000800000000400000000000000010000020002000000000000008000000000000000008000000000000000000000000000000000000000080000000000000000040002080020000000024400000000000008000100002000000000000000000000000000000000000000020040000000030000000000000000000200000000000000000000000000000000100000000000000",
      "type": "0x2",
      "transactionHash": "0x97580731c0c4c162d30b48c57ae51ac311a81fcff259c67b20cdb6da23aba7cc",
      "transactionIndex": "0x3d",
      "blockHash": "0x9b89a3ca8793a1ee7739e3a8f59d4317a4f983db619dcc7da7196771918db094",
      "blockNumber": "0x5dcd19",
      "gasUsed": "0x2df7a",
      "effectiveGasPrice": "0x9f92028",
      "from": "0x764693dd666e8dd9275cde8f05c6b07446b1d941",
      "to": "0xefce5726631051a4ea3a8483d79e69f8fe0aa12a",
      "contractAddress": null
    },
    {
      "status": "0x1",
      "cumulativeGasUsed": "0x806533",
      "logs": [
        {
          "address": "0x6ec5929e48ad78838155fc8d3c6ed4e3c5bac111",
          "topics": [
            "0xddf252ad1be2c89b69c2b068fc378daa952ba7f163c4a11628f55a4df523b3ef",
            "0x0000000000000000000000000000000000000000000000000000000000000000",
            "0x000000000000000000000000764693dd666e8dd9275cde8f05c6b07446b1d941",
            "0x0000000000000000000000000000000000000000000000000000000000000019"
          ],
          "data": "0x",
          "blockHash": "0x9b89a3ca8793a1ee7739e3a8f59d4317a4f983db619dcc7da7196771918db094",
          "blockNumber": "0x5dcd19",
          "transactionHash": "0xe79b5fe3077ac54917f2129440c03ae263643e89cdf5a741797d75eebe335c24",
          "transactionIndex": "0x3e",
          "logIndex": "0x7a",
          "removed": false
        },
        {
          "address": "0x6ec5929e48ad78838155fc8d3c6ed4e3c5bac111",
          "topics": [
            "0xf8e1a15aba9398e019f0b49df1a4fde98ee17ae345cb5f6b5e2c27f5033e8ce7"
          ],
          "data": "0x0000000000000000000000000000000000000000000000000000000000000019",
          "blockHash": "0x9b89a3ca8793a1ee7739e3a8f59d4317a4f983db619dcc7da7196771918db094",
          "blockNumber": "0x5dcd19",
          "transactionHash": "0xe79b5fe3077ac54917f2129440c03ae263643e89cdf5a741797d75eebe335c24",
          "transactionIndex": "0x3e",
          "logIndex": "0x7b",
          "removed": false
        },
        {
          "address": "0x6ec5929e48ad78838155fc8d3c6ed4e3c5bac111",
          "topics": [
            "0x026aac271342ae43d27b41062e6f37001e4673fbbf25ad4bc3cfd6cd2094bd39",
            "0x000000000000000000000000764693dd666e8dd9275cde8f05c6b07446b1d941",
            "0x0000000000000000000000000000000000000000000000000000000000000019"
          ],
          "data": "0x",
          "blockHash": "0x9b89a3ca8793a1ee7739e3a8f59d4317a4f983db619dcc7da7196771918db094",
          "blockNumber": "0x5dcd19",
          "transactionHash": "0xe79b5fe3077ac54917f2129440c03ae263643e89cdf5a741797d75eebe335c24",
          "transactionIndex": "0x3e",
          "logIndex": "0x7c",
          "removed": false
        },
        {
          "address": "0xefce5726631051a4ea3a8483d79e69f8fe0aa12a",
          "topics": [
            "0x91e71c368c41168aa5766ee5b0c25d8c5f2c37970e7e4365305015fae0bfb0c6",
            "0x000000000000000000000000000000000000000000000000000000000000000f",
            "0x00000000000000000000000000000000000000000000000000000002540be400",
            "0x00000000000000000000000000000000000000000000000000000002540be400"
          ],
          "data": "0x",
          "blockHash": "0x9b89a3ca8793a1ee7739e3a8f59d4317a4f983db619dcc7da7196771918db094",
          "blockNumber": "0x5dcd19",
          "transactionHash": "0xe79b5fe3077ac54917f2129440c03ae263643e89cdf5a741797d75eebe335c24",
          "transactionIndex": "0x3e",
          "logIndex": "0x7d",
          "removed": false
        }
      ],
      "logsBloom": "0x00000000040000000000000000000000800000000000000000000000004000000000000000000000000000000000000000000000000000800000000000000000000000000000000000000088000000000000000000000000000000000002000000000000020000000000100000000800000000400000020000000010000020002000000000000808000000000000000000000000000000000000000000000000000000000080000000000000000040002080020000000004400000000000008000000002000000000000000000000000000000000000000000040000000030000000000200000000200000000000000000000000000000000100008000000000",
      "type": "0x2",
      "transactionHash": "0xe79b5fe3077ac54917f2129440c03ae263643e89cdf5a741797d75eebe335c24",
      "transactionIndex": "0x3e",
      "blockHash": "0x9b89a3ca8793a1ee7739e3a8f59d4317a4f983db619dcc7da7196771918db094",
      "blockNumber": "0x5dcd19",
      "gasUsed": "0x2df7a",
      "effectiveGasPrice": "0x9f92028",
      "from": "0x764693dd666e8dd9275cde8f05c6b07446b1d941",
      "to": "0xefce5726631051a4ea3a8483d79e69f8fe0aa12a",
      "contractAddress": null
    },
    {
      "status": "0x1",
      "cumulativeGasUsed": "0x8344ad",
      "logs": [
        {
          "address": "0x6ec5929e48ad78838155fc8d3c6ed4e3c5bac111",
          "topics": [
            "0xddf252ad1be2c89b69c2b068fc378daa952ba7f163c4a11628f55a4df523b3ef",
            "0x0000000000000000000000000000000000000000000000000000000000000000",
            "0x000000000000000000000000764693dd666e8dd9275cde8f05c6b07446b1d941",
            "0x000000000000000000000000000000000000000000000000000000000000001a"
          ],
          "data": "0x",
          "blockHash": "0x9b89a3ca8793a1ee7739e3a8f59d4317a4f983db619dcc7da7196771918db094",
          "blockNumber": "0x5dcd19",
          "transactionHash": "0x4c689a068e88ce6a64530f80e42c42df8e297ce19d6e84451e745e2bb59a4add",
          "transactionIndex": "0x3f",
          "logIndex": "0x7e",
          "removed": false
        },
        {
          "address": "0x6ec5929e48ad78838155fc8d3c6ed4e3c5bac111",
          "topics": [
            "0xf8e1a15aba9398e019f0b49df1a4fde98ee17ae345cb5f6b5e2c27f5033e8ce7"
          ],
          "data": "0x000000000000000000000000000000000000000000000000000000000000001a",
          "blockHash": "0x9b89a3ca8793a1ee7739e3a8f59d4317a4f983db619dcc7da7196771918db094",
          "blockNumber": "0x5dcd19",
          "transactionHash": "0x4c689a068e88ce6a64530f80e42c42df8e297ce19d6e84451e745e2bb59a4add",
          "transactionIndex": "0x3f",
          "logIndex": "0x7f",
          "removed": false
        },
        {
          "address": "0x6ec5929e48ad78838155fc8d3c6ed4e3c5bac111",
          "topics": [
            "0x026aac271342ae43d27b41062e6f37001e4673fbbf25ad4bc3cfd6cd2094bd39",
            "0x000000000000000000000000764693dd666e8dd9275cde8f05c6b07446b1d941",
            "0x000000000000000000000000000000000000000000000000000000000000001a"
          ],
          "data": "0x",
          "blockHash": "0x9b89a3ca8793a1ee7739e3a8f59d4317a4f983db619dcc7da7196771918db094",
          "blockNumber": "0x5dcd19",
          "transactionHash": "0x4c689a068e88ce6a64530f80e42c42df8e297ce19d6e84451e745e2bb59a4add",
          "transactionIndex": "0x3f",
          "logIndex": "0x80",
          "removed": false
        },
        {
          "address": "0xefce5726631051a4ea3a8483d79e69f8fe0aa12a",
          "topics": [
            "0x91e71c368c41168aa5766ee5b0c25d8c5f2c37970e7e4365305015fae0bfb0c6",
            "0x0000000000000000000000000000000000000000000000000000000000000010",
            "0x00000000000000000000000000000000000000000000000000000002540be400",
            "0x00000000000000000000000000000000000000000000000000000002540be400"
          ],
          "data": "0x",
          "blockHash": "0x9b89a3ca8793a1ee7739e3a8f59d4317a4f983db619dcc7da7196771918db094",
          "blockNumber": "0x5dcd19",
          "transactionHash": "0x4c689a068e88ce6a64530f80e42c42df8e297ce19d6e84451e745e2bb59a4add",
          "transactionIndex": "0x3f",
          "logIndex": "0x81",
          "removed": false
        }
      ],
      "logsBloom": "0x00000000140000000000000000000000800000000000000000000000004000000000000000000000000000000000000000000000000000000000000000000000000000000000000000000088000000001000000000000000000000001000000000000000020000000000100000000800000000400000000000000010040020002000000000000008000000000000000000000100000000000000000000000000000000000080000000000000000040002080020000000004400000000000008000000002000000000000000000000000000000000000000000040000000030000000000000000000200000000000000000000000000004000100000000000000",
      "type": "0x2",
      "transactionHash": "0x4c689a068e88ce6a64530f80e42c42df8e297ce19d6e84451e745e2bb59a4add",
      "transactionIndex": "0x3f",
      "blockHash": "0x9b89a3ca8793a1ee7739e3a8f59d4317a4f983db619dcc7da7196771918db094",
      "blockNumber": "0x5dcd19",
      "gasUsed": "0x2df7a",
      "effectiveGasPrice": "0x9f92028",
      "from": "0x764693dd666e8dd9275cde8f05c6b07446b1d941",
      "to": "0xefce5726631051a4ea3a8483d79e69f8fe0aa12a",
      "contractAddress": null
    },
    {
      "status": "0x1",
      "cumulativeGasUsed": "0x8363db",
      "logs": [
        {
          "address": "0x6ec5929e48ad78838155fc8d3c6ed4e3c5bac111",
          "topics": [
            "0xddf252ad1be2c89b69c2b068fc378daa952ba7f163c4a11628f55a4df523b3ef",
            "0x0000000000000000000000000000000000000000000000000000000000000000",
            "0x000000000000000000000000764693dd666e8dd9275cde8f05c6b07446b1d941",
            "0x000000000000000000000000000000000000000000000000000000000000001b"
          ],
          "data": "0x",
          "blockHash": "0x2e033ceb7bcf94757b6295673c85f98a17b718fb1f938d5126ea8316992777aa",
          "blockNumber": "0x5dcd1b",
          "transactionHash": "0xdbb9e608e4e8f965da2bc1791dcec7b29b5a2eed5feeefc264ec317bbc2b6bf8",
          "transactionIndex": "0x4a",
          "logIndex": "0x75",
          "removed": false
        },
        {
          "address": "0x6ec5929e48ad78838155fc8d3c6ed4e3c5bac111",
          "topics": [
            "0xf8e1a15aba9398e019f0b49df1a4fde98ee17ae345cb5f6b5e2c27f5033e8ce7"
          ],
          "data": "0x000000000000000000000000000000000000000000000000000000000000001b",
          "blockHash": "0x2e033ceb7bcf94757b6295673c85f98a17b718fb1f938d5126ea8316992777aa",
          "blockNumber": "0x5dcd1b",
          "transactionHash": "0xdbb9e608e4e8f965da2bc1791dcec7b29b5a2eed5feeefc264ec317bbc2b6bf8",
          "transactionIndex": "0x4a",
          "logIndex": "0x76",
          "removed": false
        },
        {
          "address": "0x6ec5929e48ad78838155fc8d3c6ed4e3c5bac111",
          "topics": [
            "0x026aac271342ae43d27b41062e6f37001e4673fbbf25ad4bc3cfd6cd2094bd39",
            "0x000000000000000000000000764693dd666e8dd9275cde8f05c6b07446b1d941",
            "0x000000000000000000000000000000000000000000000000000000000000001b"
          ],
          "data": "0x",
          "blockHash": "0x2e033ceb7bcf94757b6295673c85f98a17b718fb1f938d5126ea8316992777aa",
          "blockNumber": "0x5dcd1b",
          "transactionHash": "0xdbb9e608e4e8f965da2bc1791dcec7b29b5a2eed5feeefc264ec317bbc2b6bf8",
          "transactionIndex": "0x4a",
          "logIndex": "0x77",
          "removed": false
        },
        {
          "address": "0xefce5726631051a4ea3a8483d79e69f8fe0aa12a",
          "topics": [
            "0x91e71c368c41168aa5766ee5b0c25d8c5f2c37970e7e4365305015fae0bfb0c6",
            "0x0000000000000000000000000000000000000000000000000000000000000011",
            "0x00000000000000000000000000000000000000000000000000000002540be400",
            "0x00000000000000000000000000000000000000000000000000000002540be400"
          ],
          "data": "0x",
          "blockHash": "0x2e033ceb7bcf94757b6295673c85f98a17b718fb1f938d5126ea8316992777aa",
          "blockNumber": "0x5dcd1b",
          "transactionHash": "0xdbb9e608e4e8f965da2bc1791dcec7b29b5a2eed5feeefc264ec317bbc2b6bf8",
          "transactionIndex": "0x4a",
          "logIndex": "0x78",
          "removed": false
        }
      ],
      "logsBloom": "0x00000000040000000000000000000000800000000010000000000000004000000000000000000000000000000000000000000000000000000000000000000000000000000000000000000088000000000000000000000000000000000000000000000000020000000000100000000800000000404000000000000010000020002000000000000008000000000000000000000000000000000000000000000000000000000180000000000000000040002080020000008004400000000400008000001002000000000000000000000000000000000000000000040000000030000000000000000000200000000000000000000000000000000100000000000000",
      "type": "0x2",
      "transactionHash": "0xdbb9e608e4e8f965da2bc1791dcec7b29b5a2eed5feeefc264ec317bbc2b6bf8",
      "transactionIndex": "0x4a",
      "blockHash": "0x2e033ceb7bcf94757b6295673c85f98a17b718fb1f938d5126ea8316992777aa",
      "blockNumber": "0x5dcd1b",
      "gasUsed": "0x2df7a",
      "effectiveGasPrice": "0x9954a6d",
      "from": "0x764693dd666e8dd9275cde8f05c6b07446b1d941",
      "to": "0xefce5726631051a4ea3a8483d79e69f8fe0aa12a",
      "contractAddress": null
    },
    {
      "status": "0x1",
      "cumulativeGasUsed": "0x84cfd8",
      "logs": [
        {
          "address": "0xe37e44964dad319c6b31d222453b7ddd3b249721",
          "topics": [
            "0xddf252ad1be2c89b69c2b068fc378daa952ba7f163c4a11628f55a4df523b3ef",
            "0x0000000000000000000000000000000000000000000000000000000000000000",
            "0x000000000000000000000000764693dd666e8dd9275cde8f05c6b07446b1d941",
            "0x0000000000000000000000000000000000000000000000000000000000000007"
          ],
          "data": "0x",
          "blockHash": "0x2e033ceb7bcf94757b6295673c85f98a17b718fb1f938d5126ea8316992777aa",
          "blockNumber": "0x5dcd1b",
          "transactionHash": "0x65b0faaec0ef63af0fe11aa9ee29e9774944f0a0907fcaf9b56983ae3debdeb7",
          "transactionIndex": "0x4b",
          "logIndex": "0x79",
          "removed": false
        },
        {
          "address": "0xe37e44964dad319c6b31d222453b7ddd3b249721",
          "topics": [
            "0xf8e1a15aba9398e019f0b49df1a4fde98ee17ae345cb5f6b5e2c27f5033e8ce7"
          ],
          "data": "0x0000000000000000000000000000000000000000000000000000000000000007",
          "blockHash": "0x2e033ceb7bcf94757b6295673c85f98a17b718fb1f938d5126ea8316992777aa",
          "blockNumber": "0x5dcd1b",
          "transactionHash": "0x65b0faaec0ef63af0fe11aa9ee29e9774944f0a0907fcaf9b56983ae3debdeb7",
          "transactionIndex": "0x4b",
          "logIndex": "0x7a",
          "removed": false
        },
        {
          "address": "0xe37e44964dad319c6b31d222453b7ddd3b249721",
          "topics": [
            "0xbab4562ae868d1765ed8452e98bba908a974596c4babc3ada5e90e05e3f433fb",
            "0x000000000000000000000000764693dd666e8dd9275cde8f05c6b07446b1d941",
            "0x0000000000000000000000000000000000000000000000000000000000000007"
          ],
          "data": "0x",
          "blockHash": "0x2e033ceb7bcf94757b6295673c85f98a17b718fb1f938d5126ea8316992777aa",
          "blockNumber": "0x5dcd1b",
          "transactionHash": "0x65b0faaec0ef63af0fe11aa9ee29e9774944f0a0907fcaf9b56983ae3debdeb7",
          "transactionIndex": "0x4b",
          "logIndex": "0x7b",
          "removed": false
        },
        {
          "address": "0xefce5726631051a4ea3a8483d79e69f8fe0aa12a",
          "topics": [
            "0xd35a6cc813c47c11ff9f41f7fe9d463b32db9be612b7f78e9ba6336deb4c5900",
            "0x000000000000000000000000764693dd666e8dd9275cde8f05c6b07446b1d941"
          ],
          "data": "0x",
          "blockHash": "0x2e033ceb7bcf94757b6295673c85f98a17b718fb1f938d5126ea8316992777aa",
          "blockNumber": "0x5dcd1b",
          "transactionHash": "0x65b0faaec0ef63af0fe11aa9ee29e9774944f0a0907fcaf9b56983ae3debdeb7",
          "transactionIndex": "0x4b",
          "logIndex": "0x7c",
          "removed": false
        }
      ],
      "logsBloom": "0x00000000000000000000100800000000800000000000000000000000004000000000000000000000000000004000000080001000000000000000000000000000000020000000000001000088000000000000000000000000000000000000000000004000020000040000000000000800000000000000000000000050200000000000000000000008000000000000000000000000000000000000000000000000000000000000000000000000000000002080000000000004000000000000008000000002000000000000000000000000000000000000000000000100000020000000000000000000200000000000000000000000000000000000000000000000",
      "type": "0x2",
      "transactionHash": "0x65b0faaec0ef63af0fe11aa9ee29e9774944f0a0907fcaf9b56983ae3debdeb7",
      "transactionIndex": "0x4b",
      "blockHash": "0x2e033ceb7bcf94757b6295673c85f98a17b718fb1f938d5126ea8316992777aa",
      "blockNumber": "0x5dcd1b",
      "gasUsed": "0x16bfd",
      "effectiveGasPrice": "0x9954a6d",
      "from": "0x764693dd666e8dd9275cde8f05c6b07446b1d941",
      "to": "0xefce5726631051a4ea3a8483d79e69f8fe0aa12a",
      "contractAddress": null
    },
    {
      "status": "0x1",
      "cumulativeGasUsed": "0x853877",
      "logs": [
        {
          "address": "0xd8ed4a9317585bd8ce8ef7524c313f25373d1739",
          "topics": [
            "0x8c5be1e5ebec7d5bd14f71427d1e84f3dd0314c0f7b2291e5b200ac8c7c3b925",
            "0x000000000000000000000000764693dd666e8dd9275cde8f05c6b07446b1d941",
            "0x000000000000000000000000efce5726631051a4ea3a8483d79e69f8fe0aa12a"
          ],
          "data": "0xffffffffffffffffffffffffffffffffffffffffffffffffffffffffffffffff",
          "blockHash": "0x2e033ceb7bcf94757b6295673c85f98a17b718fb1f938d5126ea8316992777aa",
          "blockNumber": "0x5dcd1b",
          "transactionHash": "0x4f70eae36752bdfd64957b1b1267e3c303c1494c42062b18d8a865d2fcbb920a",
          "transactionIndex": "0x4c",
          "logIndex": "0x7d",
          "removed": false
        }
      ],
      "logsBloom": "0x00000000000000000000000000000000800000000000000000000000004000000000000000000000000000000000000000000000000000000000000000200000000000000000000000000080000000000000000000000000000000000000000000000000000000000000000000800000000000000000000000000000000000000000000000000000000000000000000000000000000000000000000000000000020000000200000000000000000000000000000000000000000000000040000000000000000000000000000000000004000000000000000000000000000000000010000000000000020000000000000400000000000000000000000000000000",
      "type": "0x2",
      "transactionHash": "0x4f70eae36752bdfd64957b1b1267e3c303c1494c42062b18d8a865d2fcbb920a",
      "transactionIndex": "0x4c",
      "blockHash": "0x2e033ceb7bcf94757b6295673c85f98a17b718fb1f938d5126ea8316992777aa",
      "blockNumber": "0x5dcd1b",
      "gasUsed": "0x689f",
      "effectiveGasPrice": "0x9954a6d",
      "from": "0x764693dd666e8dd9275cde8f05c6b07446b1d941",
      "to": "0xd8ed4a9317585bd8ce8ef7524c313f25373d1739",
      "contractAddress": null
    },
    {
      "status": "0x1",
      "cumulativeGasUsed": "0x86d7ef",
      "logs": [
        {
          "address": "0xd8ed4a9317585bd8ce8ef7524c313f25373d1739",
          "topics": [
            "0xddf252ad1be2c89b69c2b068fc378daa952ba7f163c4a11628f55a4df523b3ef",
            "0x000000000000000000000000764693dd666e8dd9275cde8f05c6b07446b1d941",
            "0x000000000000000000000000efce5726631051a4ea3a8483d79e69f8fe0aa12a"
          ],
          "data": "0x000000000000000000000000000000000000000000018036d232d0cd0e000000",
          "blockHash": "0x2e033ceb7bcf94757b6295673c85f98a17b718fb1f938d5126ea8316992777aa",
          "blockNumber": "0x5dcd1b",
          "transactionHash": "0x74d1e7a5b0c42685b6e597061c08acb568403c5dd9bf27173d88221e4cc98983",
          "transactionIndex": "0x4d",
          "logIndex": "0x7e",
          "removed": false
        },
        {
          "address": "0xd8ed4a9317585bd8ce8ef7524c313f25373d1739",
          "topics": [
            "0xddf252ad1be2c89b69c2b068fc378daa952ba7f163c4a11628f55a4df523b3ef",
            "0x000000000000000000000000efce5726631051a4ea3a8483d79e69f8fe0aa12a",
            "0x000000000000000000000000764693dd666e8dd9275cde8f05c6b07446b1d941"
          ],
          "data": "0x000000000000000000000000000000000000000000018036d22f434e69398000",
          "blockHash": "0x2e033ceb7bcf94757b6295673c85f98a17b718fb1f938d5126ea8316992777aa",
          "blockNumber": "0x5dcd1b",
          "transactionHash": "0x74d1e7a5b0c42685b6e597061c08acb568403c5dd9bf27173d88221e4cc98983",
          "transactionIndex": "0x4d",
          "logIndex": "0x7f",
          "removed": false
        },
        {
          "address": "0xefce5726631051a4ea3a8483d79e69f8fe0aa12a",
          "topics": [
            "0x1a777a4e69f842f69af228bdecb2e58e1ab9d68e3c8694533ddb6ff9dd243f82",
            "0x0000000000000000000000000000000000000000000000000000000000000003",
            "0x000000000000000000000000764693dd666e8dd9275cde8f05c6b07446b1d941"
          ],
          "data": "0x",
          "blockHash": "0x2e033ceb7bcf94757b6295673c85f98a17b718fb1f938d5126ea8316992777aa",
          "blockNumber": "0x5dcd1b",
          "transactionHash": "0x74d1e7a5b0c42685b6e597061c08acb568403c5dd9bf27173d88221e4cc98983",
          "transactionIndex": "0x4d",
          "logIndex": "0x80",
          "removed": false
        }
      ],
      "logsBloom": "0x00000000000000000000000000000000800000000000000000000000004000000000000000000000000000000000000000000000020000000000000000000000000000000000000004000088000000000000000000000000000000000000000000000000000000000000000000800000000000000000000000000010000000000000000000000008000000000000000000000000000200000000000000000000000000000200000000000000000000000080000000800004000000000040400000000002000000000000000000000004000000000000000000000000000000000000000000000000020000000000000400000000000800000000000000000000",
      "type": "0x2",
      "transactionHash": "0x74d1e7a5b0c42685b6e597061c08acb568403c5dd9bf27173d88221e4cc98983",
      "transactionIndex": "0x4d",
      "blockHash": "0x2e033ceb7bcf94757b6295673c85f98a17b718fb1f938d5126ea8316992777aa",
      "blockNumber": "0x5dcd1b",
      "gasUsed": "0x19f78",
      "effectiveGasPrice": "0x9954a6d",
      "from": "0x764693dd666e8dd9275cde8f05c6b07446b1d941",
      "to": "0xefce5726631051a4ea3a8483d79e69f8fe0aa12a",
      "contractAddress": null
    }
  ],
  "libraries": [],
  "pending": [],
  "returns": {},
  "timestamp": 1718884286,
  "chain": 11155111,
  "commit": "8fce21c"
}