{
  "transactions": [
    {
      "hash": "0x816d5348c3d9e7ef200f4f3d723289fdba7c6c9803159ab8fa771fc672d558ce",
      "transactionType": "CREATE",
      "contractName": "ParkFi",
      "contractAddress": "0x5f5e7ec4b245c571edfa8fcd81a09b9311b769b1",
      "function": null,
      "arguments": [
        "0xe37e44964Dad319C6b31D222453b7DDd3b249721",
        "0x6Ec5929e48aD78838155FC8D3C6ed4E3c5BAc111",
        "0xD8ed4a9317585BD8Ce8eF7524C313F25373D1739",
        "1000",
        "1000"
      ],
      "transaction": {
        "from": "0x764693dd666e8dd9275cde8f05c6b07446b1d941",
        "gas": "0x16229f",
        "value": "0x0",
        "input": "0x608060405234801561001057600080fd5b5060405161122738038061122783398101604081905261002f91610117565b338061005557604051631e4fbdf760e01b81526000600482015260240160405180910390fd5b61005e816100ab565b50600180546001600160a01b03199081166001600160a01b03978816179091556002805482169587169590951790945560038054909416929094169190911790915560045560055561016d565b600080546001600160a01b038381166001600160a01b0319831681178455604051919092169283917f8be0079c531659141344cd1fd0a4f28419497f9722a3daafe3b4186f6b6457e09190a35050565b80516001600160a01b038116811461011257600080fd5b919050565b600080600080600060a0868803121561012f57600080fd5b610138866100fb565b9450610146602087016100fb565b9350610154604087016100fb565b6060870151608090970151959894975095949392505050565b6110ab8061017c6000396000f3fe608060405234801561001057600080fd5b50600436106100935760003560e01c80639a9f07de116100665780639a9f07de146100ee578063a1ae6a25146100f6578063e0bddcd914610109578063f2fde38b1461011c578063f62c28cf1461012f57600080fd5b80631bd2eeee146100985780633b111731146100ad578063715018a6146100cb5780638da5cb5b146100d3575b600080fd5b6100ab6100a6366004610e10565b610137565b005b6100b56102ec565b6040516100c29190610e61565b60405180910390f35b6100ab610505565b6000546040516001600160a01b0390911681526020016100c2565b6100b5610519565b6100ab610104366004610f0e565b6107a1565b6100ab610117366004610f4a565b610b9c565b6100ab61012a366004610f6c565b610c7f565b6100ab610cc2565b600180546040516370a0823160e01b81523360048201526001600160a01b03909116906370a0823190602401602060405180830381865afa158015610180573d6000803e3d6000fd5b505050506040513d601f19601f820116820180604052508101906101a49190610f9c565b10156101c35760405163148fe22160e11b815260040160405180910390fd5b6000818152600760205260409020600481015461010090046001600160a01b031633146102035760405163be24598360e01b815260040160405180910390fd5b60006102128260030154610d4c565b905080156102a45760035460058301546040516323b872dd60e01b81523360048201526001600160a01b039182166024820152604481018490529116906323b872dd906064016020604051808303816000875af1158015610277573d6000803e3d6000fd5b505050506040513d601f19601f8201168201806040525081019061029b9190610fb5565b6102a457600080fd5b6004820180546001600160a81b031916905560006003830181905560405184917f484d6a78aff107b13227d3005e91c4967e9d387e9c8b44953f3f95f18308a92691a2505050565b6006546060906000805b8281101561033e576007600061030d836001610fed565b815260208101919091526040016000206004015460ff16610336578161033281611006565b9250505b6001016102f6565b506000808267ffffffffffffffff81111561035b5761035b61101f565b6040519080825280602002602001820160405280156103d157816020015b6103be6040805161010081018252600080825260208201819052918101829052606081018290526080810182905260a0810182905260c081018290529060e082015290565b8152602001906001900390816103795790505b50905060005b848110156104fc57600760006103ee836001610fed565b815260208101919091526040016000206004015460ff166104f4576000610416826001610fed565b60008181526007602090815260409182902082516101008082018552825482526001808401549483019490945260028301549482019490945260038201546060820152600482015460ff808216151560808401529490046001600160a01b0390811660a0830152600583015490811660c083015294955090939092849260e0850192600160a01b9004909116908111156104b2576104b2610e29565b60018111156104c3576104c3610e29565b815250508486815181106104d9576104d9611035565b60209081029190910101526104ef600186610fed565b945050505b6001016103d7565b50949350505050565b61050d610d93565b6105176000610dc0565b565b6006546060906000805b828110156105a7576007600061053a836001610fed565b815260208101919091526040016000206004015460ff16801561058c57503360076000610568846001610fed565b815260208101919091526040016000206004015461010090046001600160a01b0316145b1561059f578161059b81611006565b9250505b600101610523565b506000808267ffffffffffffffff8111156105c4576105c461101f565b60405190808252806020026020018201604052801561063a57816020015b6106276040805161010081018252600080825260208201819052918101829052606081018290526080810182905260a0810182905260c081018290529060e082015290565b8152602001906001900390816105e25790505b50905060005b848110156104fc5760076000610657836001610fed565b815260208101919091526040016000206004015460ff1680156106a957503360076000610685846001610fed565b815260208101919091526040016000206004015461010090046001600160a01b0316145b156107995760006106bb826001610fed565b60008181526007602090815260409182902082516101008082018552825482526001808401549483019490945260028301549482019490945260038201546060820152600482015460ff808216151560808401529490046001600160a01b0390811660a0830152600583015490811660c083015294955090939092849260e0850192600160a01b90049091169081111561075757610757610e29565b600181111561076857610768610e29565b8152505084868151811061077e5761077e611035565b6020908102919091010152610794600186610fed565b945050505b600101610640565b600180546040516370a0823160e01b81523360048201526001600160a01b03909116906370a0823190602401602060405180830381865afa1580156107ea573d6000803e3d6000fd5b505050506040513d601f19601f8201168201806040525081019061080e9190610f9c565b101561082d5760405163148fe22160e11b815260040160405180910390fd5b6000838152600760205260409020600481015460ff16156108615760405163d9b9141960e01b815260040160405180910390fd5b60048101805433610100026001600160a81b0319909116176001179055600083600181111561089257610892610e29565b03610a205760058101805460ff60a01b191690556108b08242610fed565b600382015560018101546000906108c7908461104b565b6003546040516323b872dd60e01b8152336004820152306024820152604481018390529192506001600160a01b0316906323b872dd906064016020604051808303816000875af115801561091f573d6000803e3d6000fd5b505050506040513d601f19601f820116820180604052508101906109439190610fb5565b61094c57600080fd5b60035460058301546004546001600160a01b039283169263a9059cbb9216906109759085611062565b6040516001600160e01b031960e085901b1681526001600160a01b03909216600483015260248201526044016020604051808303816000875af11580156109c0573d6000803e3d6000fd5b505050506040513d601f19601f820116820180604052508101906109e49190610fb5565b6109ed57600080fd5b604051339086907f1a777a4e69f842f69af228bdecb2e58e1ab9d68e3c8694533ddb6ff9dd243f8290600090a350610b96565b610a2a8242610fed565b60038201556002810154600090610a41908461104b565b6003546040516323b872dd60e01b8152336004820152306024820152604481018390529192506001600160a01b0316906323b872dd906064016020604051808303816000875af1158015610a99573d6000803e3d6000fd5b505050506040513d601f19601f82011682018060405250810190610abd9190610fb5565b610ac657600080fd5b60035460058301546004546001600160a01b039283169263a9059cbb921690610aef9085611062565b6040516001600160e01b031960e085901b1681526001600160a01b03909216600483015260248201526044016020604051808303816000875af1158015610b3a573d6000803e3d6000fd5b505050506040513d601f19601f82011682018060405250810190610b5e9190610fb5565b610b6757600080fd5b604051339086907f1a777a4e69f842f69af228bdecb2e58e1ab9d68e3c8694533ddb6ff9dd243f8290600090a3505b50505050565b60068054906000610bac83611006565b9091555050600654600081815260076020526040908190209182556001820184905560028083018490556005830180546001600160a01b0319163390811790915590549151632a6ac57960e01b815260048101919091526001600160a01b0390911690632a6ac57990602401600060405180830381600087803b158015610c3257600080fd5b505af1158015610c46573d6000803e3d6000fd5b50506006546040518593508692507f91e71c368c41168aa5766ee5b0c25d8c5f2c37970e7e4365305015fae0bfb0c690600090a4505050565b610c87610d93565b6001600160a01b038116610cb657604051631e4fbdf760e01b8152600060048201526024015b60405180910390fd5b610cbf81610dc0565b50565b60015460405163553005c560e11b81523360048201526001600160a01b039091169063aa600b8a90602401600060405180830381600087803b158015610d0757600080fd5b505af1158015610d1b573d6000803e3d6000fd5b50506040513392507fd35a6cc813c47c11ff9f41f7fe9d463b32db9be612b7f78e9ba6336deb4c59009150600090a2565b600081421115610d8e576000610d628342611062565b90508015610d8c57600454610d77908261104b565b610d8990670de0b6b3a764000061104b565b91505b505b919050565b6000546001600160a01b031633146105175760405163118cdaa760e01b8152336004820152602401610cad565b600080546001600160a01b038381166001600160a01b0319831681178455604051919092169283917f8be0079c531659141344cd1fd0a4f28419497f9722a3daafe3b4186f6b6457e09190a35050565b600060208284031215610e2257600080fd5b5035919050565b634e487b7160e01b600052602160045260246000fd5b60028110610e5d57634e487b7160e01b600052602160045260246000fd5b9052565b602080825282518282018190526000918401906040840190835b81811015610f035783518051845260208101516020850152604081015160408501526060810151606085015260808101511515608085015260018060a01b0360a08201511660a085015260018060a01b0360c08201511660c085015260e08101519050610eeb60e0850182610e3f565b50602093909301926101009290920191600101610e7b565b509095945050505050565b600080600060608486031215610f2357600080fd5b83359250602084013560028110610f3957600080fd5b929592945050506040919091013590565b60008060408385031215610f5d57600080fd5b50508035926020909101359150565b600060208284031215610f7e57600080fd5b81356001600160a01b0381168114610f9557600080fd5b9392505050565b600060208284031215610fae57600080fd5b5051919050565b600060208284031215610fc757600080fd5b81518015158114610f9557600080fd5b634e487b7160e01b600052601160045260246000fd5b8082018082111561100057611000610fd7565b92915050565b60006001820161101857611018610fd7565b5060010190565b634e487b7160e01b600052604160045260246000fd5b634e487b7160e01b600052603260045260246000fd5b808202811582820484141761100057611000610fd7565b8181038181111561100057611000610fd756fea2646970667358221220f2b7f2da9ea9f47e368b17b6855933da0428bcaa15ca72041c070bbaa5256d6964736f6c634300081a0033000000000000000000000000e37e44964dad319c6b31d222453b7ddd3b2497210000000000000000000000006ec5929e48ad78838155fc8d3c6ed4e3c5bac111000000000000000000000000d8ed4a9317585bd8ce8ef7524c313f25373d173900000000000000000000000000000000000000000000000000000000000003e800000000000000000000000000000000000000000000000000000000000003e8",
        "nonce": "0x188",
        "chainId": "0xaa36a7"
      },
      "additionalContracts": [],
      "isFixedGasLimit": false
    },
    {
      "hash": "0x84022fe11f99e793bee15d8ce12453135ca7d9522f3e1191be64c942f9c33dd8",
      "transactionType": "CALL",
      "contractName": null,
      "contractAddress": "0xe37e44964dad319c6b31d222453b7ddd3b249721",
      "function": "setParkFiAddress(address)",
      "arguments": [
        "0x5f5e7Ec4B245c571EdFa8fcd81A09b9311B769b1"
      ],
      "transaction": {
        "from": "0x764693dd666e8dd9275cde8f05c6b07446b1d941",
        "to": "0xe37e44964dad319c6b31d222453b7ddd3b249721",
        "gas": "0x9c69",
        "value": "0x0",
        "input": "0x19b350930000000000000000000000005f5e7ec4b245c571edfa8fcd81a09b9311b769b1",
        "nonce": "0x189",
        "chainId": "0xaa36a7"
      },
      "additionalContracts": [],
      "isFixedGasLimit": false
    },
    {
      "hash": "0x60c82712a40e09c8b8d3f1aa8b69143437d085cfada24d8960a927767d688d1f",
      "transactionType": "CALL",
      "contractName": null,
      "contractAddress": "0x6ec5929e48ad78838155fc8d3c6ed4e3c5bac111",
      "function": "setParkFiAddress(address)",
      "arguments": [
        "0x5f5e7Ec4B245c571EdFa8fcd81A09b9311B769b1"
      ],
      "transaction": {
        "from": "0x764693dd666e8dd9275cde8f05c6b07446b1d941",
        "to": "0x6ec5929e48ad78838155fc8d3c6ed4e3c5bac111",
        "gas": "0x9c88",
        "value": "0x0",
        "input": "0x19b350930000000000000000000000005f5e7ec4b245c571edfa8fcd81a09b9311b769b1",
        "nonce": "0x18a",
        "chainId": "0xaa36a7"
      },
      "additionalContracts": [],
      "isFixedGasLimit": false
    },
    {
      "hash": "0x5d013507dd175f1a8f69c2874355dcc5379b21a8790f0676328cfb686ee1d1fd",
      "transactionType": "CALL",
      "contractName": "ParkFi",
      "contractAddress": "0x5f5e7ec4b245c571edfa8fcd81a09b9311b769b1",
      "function": "verifyAndMintParkingSpace(uint256,uint256)",
      "arguments": [
        "10000000000",
        "10000000000"
      ],
      "transaction": {
        "from": "0x764693dd666e8dd9275cde8f05c6b07446b1d941",
        "to": "0x5f5e7ec4b245c571edfa8fcd81a09b9311b769b1",
        "gas": "0x45423",
        "value": "0x0",
        "input": "0xe0bddcd900000000000000000000000000000000000000000000000000000002540be40000000000000000000000000000000000000000000000000000000002540be400",
        "nonce": "0x18b",
        "chainId": "0xaa36a7"
      },
      "additionalContracts": [],
      "isFixedGasLimit": false
    },
    {
      "hash": "0xbf781f95b1e0d3c49557408e3ed3aaaba0a719e0a359a00946fcd5ebd4896c8c",
      "transactionType": "CALL",
      "contractName": "ParkFi",
      "contractAddress": "0x5f5e7ec4b245c571edfa8fcd81a09b9311b769b1",
      "function": "verifyAndMintParkingSpace(uint256,uint256)",
      "arguments": [
        "10000000000",
        "10000000000"
      ],
      "transaction": {
        "from": "0x764693dd666e8dd9275cde8f05c6b07446b1d941",
        "to": "0x5f5e7ec4b245c571edfa8fcd81a09b9311b769b1",
        "gas": "0x433a2",
        "value": "0x0",
        "input": "0xe0bddcd900000000000000000000000000000000000000000000000000000002540be40000000000000000000000000000000000000000000000000000000002540be400",
        "nonce": "0x18c",
        "chainId": "0xaa36a7"
      },
      "additionalContracts": [],
      "isFixedGasLimit": false
    },
    {
      "hash": "0x66e0523a5db5d3501fba8571fea106e58d760e6eebc45269063c3beef1ebd919",
      "transactionType": "CALL",
      "contractName": "ParkFi",
      "contractAddress": "0x5f5e7ec4b245c571edfa8fcd81a09b9311b769b1",
      "function": "verifyAndMintParkingSpace(uint256,uint256)",
      "arguments": [
        "10000000000",
        "10000000000"
      ],
      "transaction": {
        "from": "0x764693dd666e8dd9275cde8f05c6b07446b1d941",
        "to": "0x5f5e7ec4b245c571edfa8fcd81a09b9311b769b1",
        "gas": "0x433a2",
        "value": "0x0",
        "input": "0xe0bddcd900000000000000000000000000000000000000000000000000000002540be40000000000000000000000000000000000000000000000000000000002540be400",
        "nonce": "0x18d",
        "chainId": "0xaa36a7"
      },
      "additionalContracts": [],
      "isFixedGasLimit": false
    },
    {
      "hash": "0xb95a674a20a955dc3c569474d40371bd7adf67d71c006cb03121d9dc4c743533",
      "transactionType": "CALL",
      "contractName": "ParkFi",
      "contractAddress": "0x5f5e7ec4b245c571edfa8fcd81a09b9311b769b1",
      "function": "verifyAndMintParkingSpace(uint256,uint256)",
      "arguments": [
        "10000000000",
        "10000000000"
      ],
      "transaction": {
        "from": "0x764693dd666e8dd9275cde8f05c6b07446b1d941",
        "to": "0x5f5e7ec4b245c571edfa8fcd81a09b9311b769b1",
        "gas": "0x433a2",
        "value": "0x0",
        "input": "0xe0bddcd900000000000000000000000000000000000000000000000000000002540be40000000000000000000000000000000000000000000000000000000002540be400",
        "nonce": "0x18e",
        "chainId": "0xaa36a7"
      },
      "additionalContracts": [],
      "isFixedGasLimit": false
    },
    {
      "hash": "0x49f6bc5084cacb41d466979062e2ec0cc39c3767d1b7a76553c2dd2c48edd91a",
      "transactionType": "CALL",
      "contractName": "ParkFi",
      "contractAddress": "0x5f5e7ec4b245c571edfa8fcd81a09b9311b769b1",
      "function": "verifyAndMintParkingSpace(uint256,uint256)",
      "arguments": [
        "10000000000",
        "10000000000"
      ],
      "transaction": {
        "from": "0x764693dd666e8dd9275cde8f05c6b07446b1d941",
        "to": "0x5f5e7ec4b245c571edfa8fcd81a09b9311b769b1",
        "gas": "0x433a2",
        "value": "0x0",
        "input": "0xe0bddcd900000000000000000000000000000000000000000000000000000002540be40000000000000000000000000000000000000000000000000000000002540be400",
        "nonce": "0x18f",
        "chainId": "0xaa36a7"
      },
      "additionalContracts": [],
      "isFixedGasLimit": false
    },
    {
      "hash": "0x0fd32401e72f835f0fdaccc68e0b9a68d3e1d93bc3c2ff3448f9c89d4cefa327",
      "transactionType": "CALL",
      "contractName": "ParkFi",
      "contractAddress": "0x5f5e7ec4b245c571edfa8fcd81a09b9311b769b1",
      "function": "verifyAndMintParkingSpace(uint256,uint256)",
      "arguments": [
        "10000000000",
        "10000000000"
      ],
      "transaction": {
        "from": "0x764693dd666e8dd9275cde8f05c6b07446b1d941",
        "to": "0x5f5e7ec4b245c571edfa8fcd81a09b9311b769b1",
        "gas": "0x433a2",
        "value": "0x0",
        "input": "0xe0bddcd900000000000000000000000000000000000000000000000000000002540be40000000000000000000000000000000000000000000000000000000002540be400",
        "nonce": "0x190",
        "chainId": "0xaa36a7"
      },
      "additionalContracts": [],
      "isFixedGasLimit": false
    },
    {
      "hash": "0x3dbfc8c8ded9b05b9ce87f4b9f5b153420130ccfd91e94a3bacea3ea491c5b1f",
      "transactionType": "CALL",
      "contractName": "ParkFi",
      "contractAddress": "0x5f5e7ec4b245c571edfa8fcd81a09b9311b769b1",
      "function": "verifyAndMintParkingSpace(uint256,uint256)",
      "arguments": [
        "10000000000",
        "10000000000"
      ],
      "transaction": {
        "from": "0x764693dd666e8dd9275cde8f05c6b07446b1d941",
        "to": "0x5f5e7ec4b245c571edfa8fcd81a09b9311b769b1",
        "gas": "0x433a2",
        "value": "0x0",
        "input": "0xe0bddcd900000000000000000000000000000000000000000000000000000002540be40000000000000000000000000000000000000000000000000000000002540be400",
        "nonce": "0x191",
        "chainId": "0xaa36a7"
      },
      "additionalContracts": [],
      "isFixedGasLimit": false
    },
    {
      "hash": "0x59e5279bdc8d2be20bdd5d3ddeaa3f41682c60a97df16b8807a288192a8f50b5",
      "transactionType": "CALL",
      "contractName": "ParkFi",
      "contractAddress": "0x5f5e7ec4b245c571edfa8fcd81a09b9311b769b1",
      "function": "verifyAndMintParkingSpace(uint256,uint256)",
      "arguments": [
        "10000000000",
        "10000000000"
      ],
      "transaction": {
        "from": "0x764693dd666e8dd9275cde8f05c6b07446b1d941",
        "to": "0x5f5e7ec4b245c571edfa8fcd81a09b9311b769b1",
        "gas": "0x433a2",
        "value": "0x0",
        "input": "0xe0bddcd900000000000000000000000000000000000000000000000000000002540be40000000000000000000000000000000000000000000000000000000002540be400",
        "nonce": "0x192",
        "chainId": "0xaa36a7"
      },
      "additionalContracts": [],
      "isFixedGasLimit": false
    },
    {
      "hash": "0x7c96cd1b87890c5482ddcdd71c4124f4a6feb7ac23eb1117009a3f2824e6ef4e",
      "transactionType": "CALL",
      "contractName": "ParkFi",
      "contractAddress": "0x5f5e7ec4b245c571edfa8fcd81a09b9311b769b1",
      "function": "verifyAndMintParkingSpace(uint256,uint256)",
      "arguments": [
        "10000000000",
        "10000000000"
      ],
      "transaction": {
        "from": "0x764693dd666e8dd9275cde8f05c6b07446b1d941",
        "to": "0x5f5e7ec4b245c571edfa8fcd81a09b9311b769b1",
        "gas": "0x433a2",
        "value": "0x0",
        "input": "0xe0bddcd900000000000000000000000000000000000000000000000000000002540be40000000000000000000000000000000000000000000000000000000002540be400",
        "nonce": "0x193",
        "chainId": "0xaa36a7"
      },
      "additionalContracts": [],
      "isFixedGasLimit": false
    },
    {
      "hash": "0xb358642548e723387d02fdbdc30cc4f8b814e5906509721dc79fbff7ba25aec4",
      "transactionType": "CALL",
      "contractName": "ParkFi",
      "contractAddress": "0x5f5e7ec4b245c571edfa8fcd81a09b9311b769b1",
      "function": "verifyAndMintParkingSpace(uint256,uint256)",
      "arguments": [
        "10000000000",
        "10000000000"
      ],
      "transaction": {
        "from": "0x764693dd666e8dd9275cde8f05c6b07446b1d941",
        "to": "0x5f5e7ec4b245c571edfa8fcd81a09b9311b769b1",
        "gas": "0x433a2",
        "value": "0x0",
        "input": "0xe0bddcd900000000000000000000000000000000000000000000000000000002540be40000000000000000000000000000000000000000000000000000000002540be400",
        "nonce": "0x194",
        "chainId": "0xaa36a7"
      },
      "additionalContracts": [],
      "isFixedGasLimit": false
    },
    {
      "hash": "0x814a976424843d671cd1e02f87c11d9eae415b90310fe5cad1a024615d571a13",
      "transactionType": "CALL",
      "contractName": "ParkFi",
      "contractAddress": "0x5f5e7ec4b245c571edfa8fcd81a09b9311b769b1",
      "function": "verifyAndMintParkingSpace(uint256,uint256)",
      "arguments": [
        "10000000000",
        "10000000000"
      ],
      "transaction": {
        "from": "0x764693dd666e8dd9275cde8f05c6b07446b1d941",
        "to": "0x5f5e7ec4b245c571edfa8fcd81a09b9311b769b1",
        "gas": "0x433a2",
        "value": "0x0",
        "input": "0xe0bddcd900000000000000000000000000000000000000000000000000000002540be40000000000000000000000000000000000000000000000000000000002540be400",
        "nonce": "0x195",
        "chainId": "0xaa36a7"
      },
      "additionalContracts": [],
      "isFixedGasLimit": false
    },
    {
      "hash": "0x61c682e836a1dd9641275a10caaf1325e6cca51726e798752c958d68b08995ec",
      "transactionType": "CALL",
      "contractName": "ParkFi",
      "contractAddress": "0x5f5e7ec4b245c571edfa8fcd81a09b9311b769b1",
      "function": "verifyAndMintParkingSpace(uint256,uint256)",
      "arguments": [
        "10000000000",
        "10000000000"
      ],
      "transaction": {
        "from": "0x764693dd666e8dd9275cde8f05c6b07446b1d941",
        "to": "0x5f5e7ec4b245c571edfa8fcd81a09b9311b769b1",
        "gas": "0x433a2",
        "value": "0x0",
        "input": "0xe0bddcd900000000000000000000000000000000000000000000000000000002540be40000000000000000000000000000000000000000000000000000000002540be400",
        "nonce": "0x196",
        "chainId": "0xaa36a7"
      },
      "additionalContracts": [],
      "isFixedGasLimit": false
    },
    {
      "hash": "0xcf8bd0a249d0bd7ab2355e5e9a44088c767a16da328c5159f761acba0074f515",
      "transactionType": "CALL",
      "contractName": "ParkFi",
      "contractAddress": "0x5f5e7ec4b245c571edfa8fcd81a09b9311b769b1",
      "function": "verifyAndMintMembership()",
      "arguments": [],
      "transaction": {
        "from": "0x764693dd666e8dd9275cde8f05c6b07446b1d941",
        "to": "0x5f5e7ec4b245c571edfa8fcd81a09b9311b769b1",
        "gas": "0x1f6c1",
        "value": "0x0",
        "input": "0xf62c28cf",
        "nonce": "0x197",
        "chainId": "0xaa36a7"
      },
      "additionalContracts": [],
      "isFixedGasLimit": false
    },
    {
      "hash": "0xc0d8ef639d5c729cc0c29d39b360737aa03a2356977f06e12877ebb0221fb4bf",
      "transactionType": "CALL",
      "contractName": null,
      "contractAddress": "0xd8ed4a9317585bd8ce8ef7524c313f25373d1739",
      "function": "approve(address,uint256)",
      "arguments": [
        "0x5f5e7Ec4B245c571EdFa8fcd81A09b9311B769b1",
        "115792089237316195423570985008687907853269984665640564039457584007913129639935"
      ],
      "transaction": {
        "from": "0x764693dd666e8dd9275cde8f05c6b07446b1d941",
        "to": "0xd8ed4a9317585bd8ce8ef7524c313f25373d1739",
        "gas": "0x10ab1",
        "value": "0x0",
        "input": "0x095ea7b30000000000000000000000005f5e7ec4b245c571edfa8fcd81a09b9311b769b1ffffffffffffffffffffffffffffffffffffffffffffffffffffffffffffffff",
        "nonce": "0x198",
        "chainId": "0xaa36a7"
      },
      "additionalContracts": [],
      "isFixedGasLimit": false
    },
    {
      "hash": "0x9f0fc9fa1531671264a1336b88a0b1a82fa1aeef3b88de12904d6e14615d4603",
      "transactionType": "CALL",
      "contractName": "ParkFi",
      "contractAddress": "0x5f5e7ec4b245c571edfa8fcd81a09b9311b769b1",
      "function": "checkIn(uint256,uint8,uint256)",
      "arguments": [
        "1",
        "0",
        "7200"
      ],
      "transaction": {
        "from": "0x764693dd666e8dd9275cde8f05c6b07446b1d941",
        "to": "0x5f5e7ec4b245c571edfa8fcd81a09b9311b769b1",
        "gas": "0x29b4a",
        "value": "0x0",
        "input": "0xa1ae6a25000000000000000000000000000000000000000000000000000000000000000100000000000000000000000000000000000000000000000000000000000000000000000000000000000000000000000000000000000000000000000000001c20",
        "nonce": "0x199",
        "chainId": "0xaa36a7"
      },
      "additionalContracts": [],
      "isFixedGasLimit": false
    },
    {
      "hash": "0x7cbb11a5a46a15d5db6efb0bb8644f0b2ac42cf99ea84342682b113100700bed",
      "transactionType": "CALL",
      "contractName": "ParkFi",
      "contractAddress": "0x5f5e7ec4b245c571edfa8fcd81a09b9311b769b1",
      "function": "checkIn(uint256,uint8,uint256)",
      "arguments": [
        "2",
        "0",
        "7200"
      ],
      "transaction": {
        "from": "0x764693dd666e8dd9275cde8f05c6b07446b1d941",
        "to": "0x5f5e7ec4b245c571edfa8fcd81a09b9311b769b1",
        "gas": "0x23f08",
        "value": "0x0",
        "input": "0xa1ae6a25000000000000000000000000000000000000000000000000000000000000000200000000000000000000000000000000000000000000000000000000000000000000000000000000000000000000000000000000000000000000000000001c20",
        "nonce": "0x19a",
        "chainId": "0xaa36a7"
      },
      "additionalContracts": [],
      "isFixedGasLimit": false
    },
    {
      "hash": "0x5995e5d72d49a100e701d9a97854fdd3d1f3cdc6567ac186af5293db41f09d09",
      "transactionType": "CALL",
      "contractName": "ParkFi",
      "contractAddress": "0x5f5e7ec4b245c571edfa8fcd81a09b9311b769b1",
      "function": "checkIn(uint256,uint8,uint256)",
      "arguments": [
        "3",
        "1",
        "259200"
      ],
      "transaction": {
        "from": "0x764693dd666e8dd9275cde8f05c6b07446b1d941",
        "to": "0x5f5e7ec4b245c571edfa8fcd81a09b9311b769b1",
        "gas": "0x23ddd",
        "value": "0x0",
        "input": "0xa1ae6a2500000000000000000000000000000000000000000000000000000000000000030000000000000000000000000000000000000000000000000000000000000001000000000000000000000000000000000000000000000000000000000003f480",
        "nonce": "0x19b",
        "chainId": "0xaa36a7"
      },
      "additionalContracts": [],
      "isFixedGasLimit": false
    },
    {
      "hash": "0xebc7aaef46079d9f527a0d309d43a67799a9b25186f0cfc353088a9bb198d5f9",
      "transactionType": "CALL",
      "contractName": "ParkFi",
      "contractAddress": "0x5f5e7ec4b245c571edfa8fcd81a09b9311b769b1",
      "function": "checkIn(uint256,uint8,uint256)",
      "arguments": [
        "4",
        "1",
        "345600"
      ],
      "transaction": {
        "from": "0x764693dd666e8dd9275cde8f05c6b07446b1d941",
        "to": "0x5f5e7ec4b245c571edfa8fcd81a09b9311b769b1",
        "gas": "0x23dcc",
        "value": "0x0",
        "input": "0xa1ae6a25000000000000000000000000000000000000000000000000000000000000000400000000000000000000000000000000000000000000000000000000000000010000000000000000000000000000000000000000000000000000000000054600",
        "nonce": "0x19c",
        "chainId": "0xaa36a7"
      },
      "additionalContracts": [],
      "isFixedGasLimit": false
    },
    {
      "hash": "0x17e5ae495495c187f58d1efb86924604f35970ac1a0e06b713ae59a54821e6b4",
      "transactionType": "CALL",
      "contractName": "ParkFi",
      "contractAddress": "0x5f5e7ec4b245c571edfa8fcd81a09b9311b769b1",
      "function": "checkIn(uint256,uint8,uint256)",
      "arguments": [
        "5",
        "0",
        "7200"
      ],
      "transaction": {
        "from": "0x764693dd666e8dd9275cde8f05c6b07446b1d941",
        "to": "0x5f5e7ec4b245c571edfa8fcd81a09b9311b769b1",
        "gas": "0x23f08",
        "value": "0x0",
        "input": "0xa1ae6a25000000000000000000000000000000000000000000000000000000000000000500000000000000000000000000000000000000000000000000000000000000000000000000000000000000000000000000000000000000000000000000001c20",
        "nonce": "0x19d",
        "chainId": "0xaa36a7"
      },
      "additionalContracts": [],
      "isFixedGasLimit": false
    },
    {
      "hash": "0xb5c546853418b1ea8c366341354d0c294669dcf1f7a7d7f0633126ed221512a5",
      "transactionType": "CALL",
      "contractName": "ParkFi",
      "contractAddress": "0x5f5e7ec4b245c571edfa8fcd81a09b9311b769b1",
      "function": "checkIn(uint256,uint8,uint256)",
      "arguments": [
        "6",
        "0",
        "7200"
      ],
      "transaction": {
        "from": "0x764693dd666e8dd9275cde8f05c6b07446b1d941",
        "to": "0x5f5e7ec4b245c571edfa8fcd81a09b9311b769b1",
        "gas": "0x23f08",
        "value": "0x0",
        "input": "0xa1ae6a25000000000000000000000000000000000000000000000000000000000000000600000000000000000000000000000000000000000000000000000000000000000000000000000000000000000000000000000000000000000000000000001c20",
        "nonce": "0x19e",
        "chainId": "0xaa36a7"
      },
      "additionalContracts": [],
      "isFixedGasLimit": false
    },
    {
      "hash": "0xd65ae2961374f3f4353060fdcb523319c0393bea7474980fe867cb8d50d7921a",
      "transactionType": "CALL",
      "contractName": "ParkFi",
      "contractAddress": "0x5f5e7ec4b245c571edfa8fcd81a09b9311b769b1",
      "function": "checkIn(uint256,uint8,uint256)",
      "arguments": [
        "7",
        "0",
        "7200"
      ],
      "transaction": {
        "from": "0x764693dd666e8dd9275cde8f05c6b07446b1d941",
        "to": "0x5f5e7ec4b245c571edfa8fcd81a09b9311b769b1",
        "gas": "0x23f08",
        "value": "0x0",
        "input": "0xa1ae6a25000000000000000000000000000000000000000000000000000000000000000700000000000000000000000000000000000000000000000000000000000000000000000000000000000000000000000000000000000000000000000000001c20",
        "nonce": "0x19f",
        "chainId": "0xaa36a7"
      },
      "additionalContracts": [],
      "isFixedGasLimit": false
    },
    {
      "hash": "0xeeae8602afb6f59b1ac4200ec807937b3526643b182c47d6290c5386940fa6f2",
      "transactionType": "CALL",
      "contractName": "ParkFi",
      "contractAddress": "0x5f5e7ec4b245c571edfa8fcd81a09b9311b769b1",
      "function": "checkIn(uint256,uint8,uint256)",
      "arguments": [
        "8",
        "0",
        "7200"
      ],
      "transaction": {
        "from": "0x764693dd666e8dd9275cde8f05c6b07446b1d941",
        "to": "0x5f5e7ec4b245c571edfa8fcd81a09b9311b769b1",
        "gas": "0x23f08",
        "value": "0x0",
        "input": "0xa1ae6a25000000000000000000000000000000000000000000000000000000000000000800000000000000000000000000000000000000000000000000000000000000000000000000000000000000000000000000000000000000000000000000001c20",
        "nonce": "0x1a0",
        "chainId": "0xaa36a7"
      },
      "additionalContracts": [],
      "isFixedGasLimit": false
    },
    {
      "hash": "0xac5e1814758f30da9b4bac1c1a12989b5698cbae146a4ce9ae1f7c4a253a0214",
      "transactionType": "CALL",
      "contractName": "ParkFi",
      "contractAddress": "0x5f5e7ec4b245c571edfa8fcd81a09b9311b769b1",
      "function": "checkIn(uint256,uint8,uint256)",
      "arguments": [
        "9",
        "0",
        "7200"
      ],
      "transaction": {
        "from": "0x764693dd666e8dd9275cde8f05c6b07446b1d941",
        "to": "0x5f5e7ec4b245c571edfa8fcd81a09b9311b769b1",
        "gas": "0x23f08",
        "value": "0x0",
        "input": "0xa1ae6a25000000000000000000000000000000000000000000000000000000000000000900000000000000000000000000000000000000000000000000000000000000000000000000000000000000000000000000000000000000000000000000001c20",
        "nonce": "0x1a1",
        "chainId": "0xaa36a7"
      },
      "additionalContracts": [],
      "isFixedGasLimit": false
    },
    {
      "hash": "0xd3266a2ff68db693ca4cd5ac13e767219f780528b0921fca61eca8f9bc439740",
      "transactionType": "CALL",
      "contractName": "ParkFi",
      "contractAddress": "0x5f5e7ec4b245c571edfa8fcd81a09b9311b769b1",
      "function": "checkIn(uint256,uint8,uint256)",
      "arguments": [
        "10",
        "0",
        "7200"
      ],
      "transaction": {
        "from": "0x764693dd666e8dd9275cde8f05c6b07446b1d941",
        "to": "0x5f5e7ec4b245c571edfa8fcd81a09b9311b769b1",
        "gas": "0x23f08",
        "value": "0x0",
        "input": "0xa1ae6a25000000000000000000000000000000000000000000000000000000000000000a00000000000000000000000000000000000000000000000000000000000000000000000000000000000000000000000000000000000000000000000000001c20",
        "nonce": "0x1a2",
        "chainId": "0xaa36a7"
      },
      "additionalContracts": [],
      "isFixedGasLimit": false
    },
    {
      "hash": "0x33e37a87b2e62e53490563bd872951f03fd77d61c235d444f306bc841eff9391",
      "transactionType": "CALL",
      "contractName": "ParkFi",
      "contractAddress": "0x5f5e7ec4b245c571edfa8fcd81a09b9311b769b1",
      "function": "checkOut(uint256)",
      "arguments": [
        "1"
      ],
      "transaction": {
        "from": "0x764693dd666e8dd9275cde8f05c6b07446b1d941",
        "to": "0x5f5e7ec4b245c571edfa8fcd81a09b9311b769b1",
        "gas": "0xaf12",
        "value": "0x0",
        "input": "0x1bd2eeee0000000000000000000000000000000000000000000000000000000000000001",
        "nonce": "0x1a3",
        "chainId": "0xaa36a7"
      },
      "additionalContracts": [],
      "isFixedGasLimit": false
    },
    {
      "hash": "0x98676b0d7a0a2eef3bcc2558680c0cb412d4b40a7492065d1663590ae1042df8",
      "transactionType": "CALL",
      "contractName": "ParkFi",
      "contractAddress": "0x5f5e7ec4b245c571edfa8fcd81a09b9311b769b1",
      "function": "checkOut(uint256)",
      "arguments": [
        "3"
      ],
      "transaction": {
        "from": "0x764693dd666e8dd9275cde8f05c6b07446b1d941",
        "to": "0x5f5e7ec4b245c571edfa8fcd81a09b9311b769b1",
        "gas": "0xaf12",
        "value": "0x0",
        "input": "0x1bd2eeee0000000000000000000000000000000000000000000000000000000000000003",
        "nonce": "0x1a4",
        "chainId": "0xaa36a7"
      },
      "additionalContracts": [],
      "isFixedGasLimit": false
    }
  ],
  "receipts": [
    {
      "status": "0x1",
      "cumulativeGasUsed": "0x15d2dcb",
      "logs": [
        {
          "address": "0x5f5e7ec4b245c571edfa8fcd81a09b9311b769b1",
          "topics": [
            "0x8be0079c531659141344cd1fd0a4f28419497f9722a3daafe3b4186f6b6457e0",
            "0x0000000000000000000000000000000000000000000000000000000000000000",
            "0x000000000000000000000000764693dd666e8dd9275cde8f05c6b07446b1d941"
          ],
          "data": "0x",
          "blockHash": "0xa1ce8289a4a4b4d84889f554c2db607f5f10f61ff943b2bfc637cceb8b99d468",
          "blockNumber": "0x5dcf0e",
          "transactionHash": "0x816d5348c3d9e7ef200f4f3d723289fdba7c6c9803159ab8fa771fc672d558ce",
          "transactionIndex": "0x2e",
          "logIndex": "0x7a",
          "removed": false
        }
      ],
      "logsBloom": "0x00000000000000100000000000000000800000000000000000800000004000000000000000000000000000000000000000000000000000000000000000000000000000000000000000000080000000000001000000000000000000000000000000000000020000000000000000000800000000000000000000000000000000400000000000000000000000000000000000000000000000000000000000080000000000000000080000000000000000000000000000000000000000000000000000000000000000000000000000000000000000000000000000000000000020000000000000000000000000000000000000000000000000000000000000000000",
      "type": "0x2",
      "transactionHash": "0x816d5348c3d9e7ef200f4f3d723289fdba7c6c9803159ab8fa771fc672d558ce",
      "transactionIndex": "0x2e",
      "blockHash": "0xa1ce8289a4a4b4d84889f554c2db607f5f10f61ff943b2bfc637cceb8b99d468",
      "blockNumber": "0x5dcf0e",
      "gasUsed": "0x11081f",
      "effectiveGasPrice": "0x43926da4",
      "from": "0x764693dd666e8dd9275cde8f05c6b07446b1d941",
      "to": null,
      "contractAddress": "0x5f5e7ec4b245c571edfa8fcd81a09b9311b769b1"
    },
    {
      "status": "0x1",
      "cumulativeGasUsed": "0x15d9f09",
      "logs": [],
      "logsBloom": "0x00000000000000000000000000000000000000000000000000000000000000000000000000000000000000000000000000000000000000000000000000000000000000000000000000000000000000000000000000000000000000000000000000000000000000000000000000000000000000000000000000000000000000000000000000000000000000000000000000000000000000000000000000000000000000000000000000000000000000000000000000000000000000000000000000000000000000000000000000000000000000000000000000000000000000000000000000000000000000000000000000000000000000000000000000000000",
      "type": "0x2",
      "transactionHash": "0x84022fe11f99e793bee15d8ce12453135ca7d9522f3e1191be64c942f9c33dd8",
      "transactionIndex": "0x2f",
      "blockHash": "0xa1ce8289a4a4b4d84889f554c2db607f5f10f61ff943b2bfc637cceb8b99d468",
      "blockNumber": "0x5dcf0e",
      "gasUsed": "0x713e",
      "effectiveGasPrice": "0x43926da4",
      "from": "0x764693dd666e8dd9275cde8f05c6b07446b1d941",
      "to": "0xe37e44964dad319c6b31d222453b7ddd3b249721",
      "contractAddress": null
    },
    {
      "status": "0x1",
      "cumulativeGasUsed": "0x15e105d",
      "logs": [],
      "logsBloom": "0x00000000000000000000000000000000000000000000000000000000000000000000000000000000000000000000000000000000000000000000000000000000000000000000000000000000000000000000000000000000000000000000000000000000000000000000000000000000000000000000000000000000000000000000000000000000000000000000000000000000000000000000000000000000000000000000000000000000000000000000000000000000000000000000000000000000000000000000000000000000000000000000000000000000000000000000000000000000000000000000000000000000000000000000000000000000",
      "type": "0x2",
      "transactionHash": "0x60c82712a40e09c8b8d3f1aa8b69143437d085cfada24d8960a927767d688d1f",
      "transactionIndex": "0x30",
      "blockHash": "0xa1ce8289a4a4b4d84889f554c2db607f5f10f61ff943b2bfc637cceb8b99d468",
      "blockNumber": "0x5dcf0e",
      "gasUsed": "0x7154",
      "effectiveGasPrice": "0x43926da4",
      "from": "0x764693dd666e8dd9275cde8f05c6b07446b1d941",
      "to": "0x6ec5929e48ad78838155fc8d3c6ed4e3c5bac111",
      "contractAddress": null
    },
    {
      "status": "0x1",
      "cumulativeGasUsed": "0x16132a3",
      "logs": [
        {
          "address": "0x6ec5929e48ad78838155fc8d3c6ed4e3c5bac111",
          "topics": [
            "0xddf252ad1be2c89b69c2b068fc378daa952ba7f163c4a11628f55a4df523b3ef",
            "0x0000000000000000000000000000000000000000000000000000000000000000",
            "0x000000000000000000000000764693dd666e8dd9275cde8f05c6b07446b1d941",
            "0x000000000000000000000000000000000000000000000000000000000000001c"
          ],
          "data": "0x",
          "blockHash": "0xa1ce8289a4a4b4d84889f554c2db607f5f10f61ff943b2bfc637cceb8b99d468",
          "blockNumber": "0x5dcf0e",
          "transactionHash": "0x5d013507dd175f1a8f69c2874355dcc5379b21a8790f0676328cfb686ee1d1fd",
          "transactionIndex": "0x31",
          "logIndex": "0x7b",
          "removed": false
        },
        {
          "address": "0x6ec5929e48ad78838155fc8d3c6ed4e3c5bac111",
          "topics": [
            "0xf8e1a15aba9398e019f0b49df1a4fde98ee17ae345cb5f6b5e2c27f5033e8ce7"
          ],
          "data": "0x000000000000000000000000000000000000000000000000000000000000001c",
          "blockHash": "0xa1ce8289a4a4b4d84889f554c2db607f5f10f61ff943b2bfc637cceb8b99d468",
          "blockNumber": "0x5dcf0e",
          "transactionHash": "0x5d013507dd175f1a8f69c2874355dcc5379b21a8790f0676328cfb686ee1d1fd",
          "transactionIndex": "0x31",
          "logIndex": "0x7c",
          "removed": false
        },
        {
          "address": "0x6ec5929e48ad78838155fc8d3c6ed4e3c5bac111",
          "topics": [
            "0x026aac271342ae43d27b41062e6f37001e4673fbbf25ad4bc3cfd6cd2094bd39",
            "0x000000000000000000000000764693dd666e8dd9275cde8f05c6b07446b1d941",
            "0x000000000000000000000000000000000000000000000000000000000000001c"
          ],
          "data": "0x",
          "blockHash": "0xa1ce8289a4a4b4d84889f554c2db607f5f10f61ff943b2bfc637cceb8b99d468",
          "blockNumber": "0x5dcf0e",
          "transactionHash": "0x5d013507dd175f1a8f69c2874355dcc5379b21a8790f0676328cfb686ee1d1fd",
          "transactionIndex": "0x31",
          "logIndex": "0x7d",
          "removed": false
        },
        {
          "address": "0x5f5e7ec4b245c571edfa8fcd81a09b9311b769b1",
          "topics": [
            "0x91e71c368c41168aa5766ee5b0c25d8c5f2c37970e7e4365305015fae0bfb0c6",
            "0x0000000000000000000000000000000000000000000000000000000000000001",
            "0x00000000000000000000000000000000000000000000000000000002540be400",
            "0x00000000000000000000000000000000000000000000000000000002540be400"
          ],
          "data": "0x",
          "blockHash": "0xa1ce8289a4a4b4d84889f554c2db607f5f10f61ff943b2bfc637cceb8b99d468",
          "blockNumber": "0x5dcf0e",
          "transactionHash": "0x5d013507dd175f1a8f69c2874355dcc5379b21a8790f0676328cfb686ee1d1fd",
          "transactionIndex": "0x31",
          "logIndex": "0x7e",
          "removed": false
        }
      ],
      "logsBloom": "0x00000000040000100000000000000000800000000000000000000000004000000000000000000000000000000000000000000000000000200000000000040000000000000000000000000088000000000000000000040000000000000000000000000000020000000000100000000800000000400000000000000010000020002000000000000000000000000000000200000000000000000000000000080000000000000080080000000002000040002000020000000000400000000000008000000002000000000000000000000000000000000000000000040000000070000000000000000000200000000000000000000000000000000100000000000000",
      "type": "0x2",
      "transactionHash": "0x5d013507dd175f1a8f69c2874355dcc5379b21a8790f0676328cfb686ee1d1fd",
      "transactionIndex": "0x31",
      "blockHash": "0xa1ce8289a4a4b4d84889f554c2db607f5f10f61ff943b2bfc637cceb8b99d468",
      "blockNumber": "0x5dcf0e",
      "gasUsed": "0x32246",
      "effectiveGasPrice": "0x43926da4",
      "from": "0x764693dd666e8dd9275cde8f05c6b07446b1d941",
      "to": "0x5f5e7ec4b245c571edfa8fcd81a09b9311b769b1",
      "contractAddress": null
    },
    {
      "status": "0x1",
      "cumulativeGasUsed": "0x164121d",
      "logs": [
        {
          "address": "0x6ec5929e48ad78838155fc8d3c6ed4e3c5bac111",
          "topics": [
            "0xddf252ad1be2c89b69c2b068fc378daa952ba7f163c4a11628f55a4df523b3ef",
            "0x0000000000000000000000000000000000000000000000000000000000000000",
            "0x000000000000000000000000764693dd666e8dd9275cde8f05c6b07446b1d941",
            "0x000000000000000000000000000000000000000000000000000000000000001d"
          ],
          "data": "0x",
          "blockHash": "0xa1ce8289a4a4b4d84889f554c2db607f5f10f61ff943b2bfc637cceb8b99d468",
          "blockNumber": "0x5dcf0e",
          "transactionHash": "0xbf781f95b1e0d3c49557408e3ed3aaaba0a719e0a359a00946fcd5ebd4896c8c",
          "transactionIndex": "0x32",
          "logIndex": "0x7f",
          "removed": false
        },
        {
          "address": "0x6ec5929e48ad78838155fc8d3c6ed4e3c5bac111",
          "topics": [
            "0xf8e1a15aba9398e019f0b49df1a4fde98ee17ae345cb5f6b5e2c27f5033e8ce7"
          ],
          "data": "0x000000000000000000000000000000000000000000000000000000000000001d",
          "blockHash": "0xa1ce8289a4a4b4d84889f554c2db607f5f10f61ff943b2bfc637cceb8b99d468",
          "blockNumber": "0x5dcf0e",
          "transactionHash": "0xbf781f95b1e0d3c49557408e3ed3aaaba0a719e0a359a00946fcd5ebd4896c8c",
          "transactionIndex": "0x32",
          "logIndex": "0x80",
          "removed": false
        },
        {
          "address": "0x6ec5929e48ad78838155fc8d3c6ed4e3c5bac111",
          "topics": [
            "0x026aac271342ae43d27b41062e6f37001e4673fbbf25ad4bc3cfd6cd2094bd39",
            "0x000000000000000000000000764693dd666e8dd9275cde8f05c6b07446b1d941",
            "0x000000000000000000000000000000000000000000000000000000000000001d"
          ],
          "data": "0x",
          "blockHash": "0xa1ce8289a4a4b4d84889f554c2db607f5f10f61ff943b2bfc637cceb8b99d468",
          "blockNumber": "0x5dcf0e",
          "transactionHash": "0xbf781f95b1e0d3c49557408e3ed3aaaba0a719e0a359a00946fcd5ebd4896c8c",
          "transactionIndex": "0x32",
          "logIndex": "0x81",
          "removed": false
        },
        {
          "address": "0x5f5e7ec4b245c571edfa8fcd81a09b9311b769b1",
          "topics": [
            "0x91e71c368c41168aa5766ee5b0c25d8c5f2c37970e7e4365305015fae0bfb0c6",
            "0x0000000000000000000000000000000000000000000000000000000000000002",
            "0x00000000000000000000000000000000000000000000000000000002540be400",
            "0x00000000000000000000000000000000000000000000000000000002540be400"
          ],
          "data": "0x",
          "blockHash": "0xa1ce8289a4a4b4d84889f554c2db607f5f10f61ff943b2bfc637cceb8b99d468",
          "blockNumber": "0x5dcf0e",
          "transactionHash": "0xbf781f95b1e0d3c49557408e3ed3aaaba0a719e0a359a00946fcd5ebd4896c8c",
          "transactionIndex": "0x32",
          "logIndex": "0x82",
          "removed": false
        }
      ],
      "logsBloom": "0x04000080040000100000000000000000800000000000000000000000004000000000000000000000000000000000000000000000000000000000000200000000000000000000000000000088000000000000000000000010000000000000000000000000020000000000100000000800000000400000000000000010000020002000000000000000000000000000000000000000000000000000000000080000000000000080080000000100000040002000020000000000400000000000008000000002000000000000000000000000000000000000000000040000000030000000000000000000200000000000000000000000008000000100000000000000",
      "type": "0x2",
      "transactionHash": "0xbf781f95b1e0d3c49557408e3ed3aaaba0a719e0a359a00946fcd5ebd4896c8c",
      "transactionIndex": "0x32",
      "blockHash": "0xa1ce8289a4a4b4d84889f554c2db607f5f10f61ff943b2bfc637cceb8b99d468",
      "blockNumber": "0x5dcf0e",
      "gasUsed": "0x2df7a",
      "effectiveGasPrice": "0x43926da4",
      "from": "0x764693dd666e8dd9275cde8f05c6b07446b1d941",
      "to": "0x5f5e7ec4b245c571edfa8fcd81a09b9311b769b1",
      "contractAddress": null
    },
    {
      "status": "0x1",
      "cumulativeGasUsed": "0x166f197",
      "logs": [
        {
          "address": "0x6ec5929e48ad78838155fc8d3c6ed4e3c5bac111",
          "topics": [
            "0xddf252ad1be2c89b69c2b068fc378daa952ba7f163c4a11628f55a4df523b3ef",
            "0x0000000000000000000000000000000000000000000000000000000000000000",
            "0x000000000000000000000000764693dd666e8dd9275cde8f05c6b07446b1d941",
            "0x000000000000000000000000000000000000000000000000000000000000001e"
          ],
          "data": "0x",
          "blockHash": "0xa1ce8289a4a4b4d84889f554c2db607f5f10f61ff943b2bfc637cceb8b99d468",
          "blockNumber": "0x5dcf0e",
          "transactionHash": "0x66e0523a5db5d3501fba8571fea106e58d760e6eebc45269063c3beef1ebd919",
          "transactionIndex": "0x33",
          "logIndex": "0x83",
          "removed": false
        },
        {
          "address": "0x6ec5929e48ad78838155fc8d3c6ed4e3c5bac111",
          "topics": [
            "0xf8e1a15aba9398e019f0b49df1a4fde98ee17ae345cb5f6b5e2c27f5033e8ce7"
          ],
          "data": "0x000000000000000000000000000000000000000000000000000000000000001e",
          "blockHash": "0xa1ce8289a4a4b4d84889f554c2db607f5f10f61ff943b2bfc637cceb8b99d468",
          "blockNumber": "0x5dcf0e",
          "transactionHash": "0x66e0523a5db5d3501fba8571fea106e58d760e6eebc45269063c3beef1ebd919",
          "transactionIndex": "0x33",
          "logIndex": "0x84",
          "removed": false
        },
        {
          "address": "0x6ec5929e48ad78838155fc8d3c6ed4e3c5bac111",
          "topics": [
            "0x026aac271342ae43d27b41062e6f37001e4673fbbf25ad4bc3cfd6cd2094bd39",
            "0x000000000000000000000000764693dd666e8dd9275cde8f05c6b07446b1d941",
            "0x000000000000000000000000000000000000000000000000000000000000001e"
          ],
          "data": "0x",
          "blockHash": "0xa1ce8289a4a4b4d84889f554c2db607f5f10f61ff943b2bfc637cceb8b99d468",
          "blockNumber": "0x5dcf0e",
          "transactionHash": "0x66e0523a5db5d3501fba8571fea106e58d760e6eebc45269063c3beef1ebd919",
          "transactionIndex": "0x33",
          "logIndex": "0x85",
          "removed": false
        },
        {
          "address": "0x5f5e7ec4b245c571edfa8fcd81a09b9311b769b1",
          "topics": [
            "0x91e71c368c41168aa5766ee5b0c25d8c5f2c37970e7e4365305015fae0bfb0c6",
            "0x0000000000000000000000000000000000000000000000000000000000000003",
            "0x00000000000000000000000000000000000000000000000000000002540be400",
            "0x00000000000000000000000000000000000000000000000000000002540be400"
          ],
          "data": "0x",
          "blockHash": "0xa1ce8289a4a4b4d84889f554c2db607f5f10f61ff943b2bfc637cceb8b99d468",
          "blockNumber": "0x5dcf0e",
          "transactionHash": "0x66e0523a5db5d3501fba8571fea106e58d760e6eebc45269063c3beef1ebd919",
          "transactionIndex": "0x33",
          "logIndex": "0x86",
          "removed": false
        }
      ],
      "logsBloom": "0x00000000040000100000000000000000800000000000000000000000004000000000000000000000000000000400000000000000020000000000000000000000000000000000008000000088000000000000000000000000000000000000000000000000020000000000100000000800000000400000000000000010000020002000000000000000000000000000000000000000000000000000000000080000000000000080080000000000000040002000020000800000400000000000408000000002000000000000000000000000000000000000000000040000000030000000000000000000280000000000000000000000000000000100000000000000",
      "type": "0x2",
      "transactionHash": "0x66e0523a5db5d3501fba8571fea106e58d760e6eebc45269063c3beef1ebd919",
      "transactionIndex": "0x33",
      "blockHash": "0xa1ce8289a4a4b4d84889f554c2db607f5f10f61ff943b2bfc637cceb8b99d468",
      "blockNumber": "0x5dcf0e",
      "gasUsed": "0x2df7a",
      "effectiveGasPrice": "0x43926da4",
      "from": "0x764693dd666e8dd9275cde8f05c6b07446b1d941",
      "to": "0x5f5e7ec4b245c571edfa8fcd81a09b9311b769b1",
      "contractAddress": null
    },
    {
      "status": "0x1",
      "cumulativeGasUsed": "0x169d111",
      "logs": [
        {
          "address": "0x6ec5929e48ad78838155fc8d3c6ed4e3c5bac111",
          "topics": [
            "0xddf252ad1be2c89b69c2b068fc378daa952ba7f163c4a11628f55a4df523b3ef",
            "0x0000000000000000000000000000000000000000000000000000000000000000",
            "0x000000000000000000000000764693dd666e8dd9275cde8f05c6b07446b1d941",
            "0x000000000000000000000000000000000000000000000000000000000000001f"
          ],
          "data": "0x",
          "blockHash": "0xa1ce8289a4a4b4d84889f554c2db607f5f10f61ff943b2bfc637cceb8b99d468",
          "blockNumber": "0x5dcf0e",
          "transactionHash": "0xb95a674a20a955dc3c569474d40371bd7adf67d71c006cb03121d9dc4c743533",
          "transactionIndex": "0x34",
          "logIndex": "0x87",
          "removed": false
        },
        {
          "address": "0x6ec5929e48ad78838155fc8d3c6ed4e3c5bac111",
          "topics": [
            "0xf8e1a15aba9398e019f0b49df1a4fde98ee17ae345cb5f6b5e2c27f5033e8ce7"
          ],
          "data": "0x000000000000000000000000000000000000000000000000000000000000001f",
          "blockHash": "0xa1ce8289a4a4b4d84889f554c2db607f5f10f61ff943b2bfc637cceb8b99d468",
          "blockNumber": "0x5dcf0e",
          "transactionHash": "0xb95a674a20a955dc3c569474d40371bd7adf67d71c006cb03121d9dc4c743533",
          "transactionIndex": "0x34",
          "logIndex": "0x88",
          "removed": false
        },
        {
          "address": "0x6ec5929e48ad78838155fc8d3c6ed4e3c5bac111",
          "topics": [
            "0x026aac271342ae43d27b41062e6f37001e4673fbbf25ad4bc3cfd6cd2094bd39",
            "0x000000000000000000000000764693dd666e8dd9275cde8f05c6b07446b1d941",
            "0x000000000000000000000000000000000000000000000000000000000000001f"
          ],
          "data": "0x",
          "blockHash": "0xa1ce8289a4a4b4d84889f554c2db607f5f10f61ff943b2bfc637cceb8b99d468",
          "blockNumber": "0x5dcf0e",
          "transactionHash": "0xb95a674a20a955dc3c569474d40371bd7adf67d71c006cb03121d9dc4c743533",
          "transactionIndex": "0x34",
          "logIndex": "0x89",
          "removed": false
        },
        {
          "address": "0x5f5e7ec4b245c571edfa8fcd81a09b9311b769b1",
          "topics": [
            "0x91e71c368c41168aa5766ee5b0c25d8c5f2c37970e7e4365305015fae0bfb0c6",
            "0x0000000000000000000000000000000000000000000000000000000000000004",
            "0x00000000000000000000000000000000000000000000000000000002540be400",
            "0x00000000000000000000000000000000000000000000000000000002540be400"
          ],
          "data": "0x",
          "blockHash": "0xa1ce8289a4a4b4d84889f554c2db607f5f10f61ff943b2bfc637cceb8b99d468",
          "blockNumber": "0x5dcf0e",
          "transactionHash": "0xb95a674a20a955dc3c569474d40371bd7adf67d71c006cb03121d9dc4c743533",
          "transactionIndex": "0x34",
          "logIndex": "0x8a",
          "removed": false
        }
      ],
      "logsBloom": "0x00000000040000100000000400000000800000000000000000000000004000000000000000000000000000000000000000000000000000000000000000000000000000000000000000000088000000000000000000000000000000000000000008000000020000000000100000000800000000400000000000000010000020002000000000000000000000000000000000000000000000000000000000080000000000000080080000000000000040002000020000000000402000000001008000000002000000000000000000000000000000008000000000040000000030000000000000000000200000000000000000000000000000000100000000000000",
      "type": "0x2",
      "transactionHash": "0xb95a674a20a955dc3c569474d40371bd7adf67d71c006cb03121d9dc4c743533",
      "transactionIndex": "0x34",
      "blockHash": "0xa1ce8289a4a4b4d84889f554c2db607f5f10f61ff943b2bfc637cceb8b99d468",
      "blockNumber": "0x5dcf0e",
      "gasUsed": "0x2df7a",
      "effectiveGasPrice": "0x43926da4",
      "from": "0x764693dd666e8dd9275cde8f05c6b07446b1d941",
      "to": "0x5f5e7ec4b245c571edfa8fcd81a09b9311b769b1",
      "contractAddress": null
    },
    {
      "status": "0x1",
      "cumulativeGasUsed": "0x16cb08b",
      "logs": [
        {
          "address": "0x6ec5929e48ad78838155fc8d3c6ed4e3c5bac111",
          "topics": [
            "0xddf252ad1be2c89b69c2b068fc378daa952ba7f163c4a11628f55a4df523b3ef",
            "0x0000000000000000000000000000000000000000000000000000000000000000",
            "0x000000000000000000000000764693dd666e8dd9275cde8f05c6b07446b1d941",
            "0x0000000000000000000000000000000000000000000000000000000000000020"
          ],
          "data": "0x",
          "blockHash": "0xa1ce8289a4a4b4d84889f554c2db607f5f10f61ff943b2bfc637cceb8b99d468",
          "blockNumber": "0x5dcf0e",
          "transactionHash": "0x49f6bc5084cacb41d466979062e2ec0cc39c3767d1b7a76553c2dd2c48edd91a",
          "transactionIndex": "0x35",
          "logIndex": "0x8b",
          "removed": false
        },
        {
          "address": "0x6ec5929e48ad78838155fc8d3c6ed4e3c5bac111",
          "topics": [
            "0xf8e1a15aba9398e019f0b49df1a4fde98ee17ae345cb5f6b5e2c27f5033e8ce7"
          ],
          "data": "0x0000000000000000000000000000000000000000000000000000000000000020",
          "blockHash": "0xa1ce8289a4a4b4d84889f554c2db607f5f10f61ff943b2bfc637cceb8b99d468",
          "blockNumber": "0x5dcf0e",
          "transactionHash": "0x49f6bc5084cacb41d466979062e2ec0cc39c3767d1b7a76553c2dd2c48edd91a",
          "transactionIndex": "0x35",
          "logIndex": "0x8c",
          "removed": false
        },
        {
          "address": "0x6ec5929e48ad78838155fc8d3c6ed4e3c5bac111",
          "topics": [
            "0x026aac271342ae43d27b41062e6f37001e4673fbbf25ad4bc3cfd6cd2094bd39",
            "0x000000000000000000000000764693dd666e8dd9275cde8f05c6b07446b1d941",
            "0x0000000000000000000000000000000000000000000000000000000000000020"
          ],
          "data": "0x",
          "blockHash": "0xa1ce8289a4a4b4d84889f554c2db607f5f10f61ff943b2bfc637cceb8b99d468",
          "blockNumber": "0x5dcf0e",
          "transactionHash": "0x49f6bc5084cacb41d466979062e2ec0cc39c3767d1b7a76553c2dd2c48edd91a",
          "transactionIndex": "0x35",
          "logIndex": "0x8d",
          "removed": false
        },
        {
          "address": "0x5f5e7ec4b245c571edfa8fcd81a09b9311b769b1",
          "topics": [
            "0x91e71c368c41168aa5766ee5b0c25d8c5f2c37970e7e4365305015fae0bfb0c6",
            "0x0000000000000000000000000000000000000000000000000000000000000005",
            "0x00000000000000000000000000000000000000000000000000000002540be400",
            "0x00000000000000000000000000000000000000000000000000000002540be400"
          ],
          "data": "0x",
          "blockHash": "0xa1ce8289a4a4b4d84889f554c2db607f5f10f61ff943b2bfc637cceb8b99d468",
          "blockNumber": "0x5dcf0e",
          "transactionHash": "0x49f6bc5084cacb41d466979062e2ec0cc39c3767d1b7a76553c2dd2c48edd91a",
          "transactionIndex": "0x35",
          "logIndex": "0x8e",
          "removed": false
        }
      ],
      "logsBloom": "0x00000000040000100000000000000000800000000000000000000000004000000000000000000000000000000000000000000000000000000000000000000000000010000000000000000088000000000000000000000000000000000000000000000000020000000000100000000800000000400000000000000010000020002000000000000000000000000000001000000800000000000000000000080000000400000080080000000000000040002000020000000000400000000000008000000002000000000000000000000000080000000000000000040000000030000000400000000000200000000000000000000000000000000100000000000000",
      "type": "0x2",
      "transactionHash": "0x49f6bc5084cacb41d466979062e2ec0cc39c3767d1b7a76553c2dd2c48edd91a",
      "transactionIndex": "0x35",
      "blockHash": "0xa1ce8289a4a4b4d84889f554c2db607f5f10f61ff943b2bfc637cceb8b99d468",
      "blockNumber": "0x5dcf0e",
      "gasUsed": "0x2df7a",
      "effectiveGasPrice": "0x43926da4",
      "from": "0x764693dd666e8dd9275cde8f05c6b07446b1d941",
      "to": "0x5f5e7ec4b245c571edfa8fcd81a09b9311b769b1",
      "contractAddress": null
    },
    {
      "status": "0x1",
      "cumulativeGasUsed": "0x16f9005",
      "logs": [
        {
          "address": "0x6ec5929e48ad78838155fc8d3c6ed4e3c5bac111",
          "topics": [
            "0xddf252ad1be2c89b69c2b068fc378daa952ba7f163c4a11628f55a4df523b3ef",
            "0x0000000000000000000000000000000000000000000000000000000000000000",
            "0x000000000000000000000000764693dd666e8dd9275cde8f05c6b07446b1d941",
            "0x0000000000000000000000000000000000000000000000000000000000000021"
          ],
          "data": "0x",
          "blockHash": "0xa1ce8289a4a4b4d84889f554c2db607f5f10f61ff943b2bfc637cceb8b99d468",
          "blockNumber": "0x5dcf0e",
          "transactionHash": "0x0fd32401e72f835f0fdaccc68e0b9a68d3e1d93bc3c2ff3448f9c89d4cefa327",
          "transactionIndex": "0x36",
          "logIndex": "0x8f",
          "removed": false
        },
        {
          "address": "0x6ec5929e48ad78838155fc8d3c6ed4e3c5bac111",
          "topics": [
            "0xf8e1a15aba9398e019f0b49df1a4fde98ee17ae345cb5f6b5e2c27f5033e8ce7"
          ],
          "data": "0x0000000000000000000000000000000000000000000000000000000000000021",
          "blockHash": "0xa1ce8289a4a4b4d84889f554c2db607f5f10f61ff943b2bfc637cceb8b99d468",
          "blockNumber": "0x5dcf0e",
          "transactionHash": "0x0fd32401e72f835f0fdaccc68e0b9a68d3e1d93bc3c2ff3448f9c89d4cefa327",
          "transactionIndex": "0x36",
          "logIndex": "0x90",
          "removed": false
        },
        {
          "address": "0x6ec5929e48ad78838155fc8d3c6ed4e3c5bac111",
          "topics": [
            "0x026aac271342ae43d27b41062e6f37001e4673fbbf25ad4bc3cfd6cd2094bd39",
            "0x000000000000000000000000764693dd666e8dd9275cde8f05c6b07446b1d941",
            "0x0000000000000000000000000000000000000000000000000000000000000021"
          ],
          "data": "0x",
          "blockHash": "0xa1ce8289a4a4b4d84889f554c2db607f5f10f61ff943b2bfc637cceb8b99d468",
          "blockNumber": "0x5dcf0e",
          "transactionHash": "0x0fd32401e72f835f0fdaccc68e0b9a68d3e1d93bc3c2ff3448f9c89d4cefa327",
          "transactionIndex": "0x36",
          "logIndex": "0x91",
          "removed": false
        },
        {
          "address": "0x5f5e7ec4b245c571edfa8fcd81a09b9311b769b1",
          "topics": [
            "0x91e71c368c41168aa5766ee5b0c25d8c5f2c37970e7e4365305015fae0bfb0c6",
            "0x0000000000000000000000000000000000000000000000000000000000000006",
            "0x00000000000000000000000000000000000000000000000000000002540be400",
            "0x00000000000000000000000000000000000000000000000000000002540be400"
          ],
          "data": "0x",
          "blockHash": "0xa1ce8289a4a4b4d84889f554c2db607f5f10f61ff943b2bfc637cceb8b99d468",
          "blockNumber": "0x5dcf0e",
          "transactionHash": "0x0fd32401e72f835f0fdaccc68e0b9a68d3e1d93bc3c2ff3448f9c89d4cefa327",
          "transactionIndex": "0x36",
          "logIndex": "0x92",
          "removed": false
        }
      ],
      "logsBloom": "0x00000000040000100000000000000000800000000000000000000000004000020000000000000000000000000000000000000000000400000000000000000000000000000000000000000088000000000000000000000000000000000000000000000000020000000000100000000800000000400000000000000010040020002000000400000000000000000000000000000000000000000000000000080000000000000080080000000000000040002000020800000000400000080000008000000002000000000000000000000000000000000000000000040000000030000000000000000000200000000000000000000000000000000100000000000000",
      "type": "0x2",
      "transactionHash": "0x0fd32401e72f835f0fdaccc68e0b9a68d3e1d93bc3c2ff3448f9c89d4cefa327",
      "transactionIndex": "0x36",
      "blockHash": "0xa1ce8289a4a4b4d84889f554c2db607f5f10f61ff943b2bfc637cceb8b99d468",
      "blockNumber": "0x5dcf0e",
      "gasUsed": "0x2df7a",
      "effectiveGasPrice": "0x43926da4",
      "from": "0x764693dd666e8dd9275cde8f05c6b07446b1d941",
      "to": "0x5f5e7ec4b245c571edfa8fcd81a09b9311b769b1",
      "contractAddress": null
    },
    {
      "status": "0x1",
      "cumulativeGasUsed": "0x1726f7f",
      "logs": [
        {
          "address": "0x6ec5929e48ad78838155fc8d3c6ed4e3c5bac111",
          "topics": [
            "0xddf252ad1be2c89b69c2b068fc378daa952ba7f163c4a11628f55a4df523b3ef",
            "0x0000000000000000000000000000000000000000000000000000000000000000",
            "0x000000000000000000000000764693dd666e8dd9275cde8f05c6b07446b1d941",
            "0x0000000000000000000000000000000000000000000000000000000000000022"
          ],
          "data": "0x",
          "blockHash": "0xa1ce8289a4a4b4d84889f554c2db607f5f10f61ff943b2bfc637cceb8b99d468",
          "blockNumber": "0x5dcf0e",
          "transactionHash": "0x3dbfc8c8ded9b05b9ce87f4b9f5b153420130ccfd91e94a3bacea3ea491c5b1f",
          "transactionIndex": "0x37",
          "logIndex": "0x93",
          "removed": false
        },
        {
          "address": "0x6ec5929e48ad78838155fc8d3c6ed4e3c5bac111",
          "topics": [
            "0xf8e1a15aba9398e019f0b49df1a4fde98ee17ae345cb5f6b5e2c27f5033e8ce7"
          ],
          "data": "0x0000000000000000000000000000000000000000000000000000000000000022",
          "blockHash": "0xa1ce8289a4a4b4d84889f554c2db607f5f10f61ff943b2bfc637cceb8b99d468",
          "blockNumber": "0x5dcf0e",
          "transactionHash": "0x3dbfc8c8ded9b05b9ce87f4b9f5b153420130ccfd91e94a3bacea3ea491c5b1f",
          "transactionIndex": "0x37",
          "logIndex": "0x94",
          "removed": false
        },
        {
          "address": "0x6ec5929e48ad78838155fc8d3c6ed4e3c5bac111",
          "topics": [
            "0x026aac271342ae43d27b41062e6f37001e4673fbbf25ad4bc3cfd6cd2094bd39",
            "0x000000000000000000000000764693dd666e8dd9275cde8f05c6b07446b1d941",
            "0x0000000000000000000000000000000000000000000000000000000000000022"
          ],
          "data": "0x",
          "blockHash": "0xa1ce8289a4a4b4d84889f554c2db607f5f10f61ff943b2bfc637cceb8b99d468",
          "blockNumber": "0x5dcf0e",
          "transactionHash": "0x3dbfc8c8ded9b05b9ce87f4b9f5b153420130ccfd91e94a3bacea3ea491c5b1f",
          "transactionIndex": "0x37",
          "logIndex": "0x95",
          "removed": false
        },
        {
          "address": "0x5f5e7ec4b245c571edfa8fcd81a09b9311b769b1",
          "topics": [
            "0x91e71c368c41168aa5766ee5b0c25d8c5f2c37970e7e4365305015fae0bfb0c6",
            "0x0000000000000000000000000000000000000000000000000000000000000007",
            "0x00000000000000000000000000000000000000000000000000000002540be400",
            "0x00000000000000000000000000000000000000000000000000000002540be400"
          ],
          "data": "0x",
          "blockHash": "0xa1ce8289a4a4b4d84889f554c2db607f5f10f61ff943b2bfc637cceb8b99d468",
          "blockNumber": "0x5dcf0e",
          "transactionHash": "0x3dbfc8c8ded9b05b9ce87f4b9f5b153420130ccfd91e94a3bacea3ea491c5b1f",
          "transactionIndex": "0x37",
          "logIndex": "0x96",
          "removed": false
        }
      ],
      "logsBloom": "0x00000000040000100000000000000000800000000000000000000000004000000000000000000000000000000000000000001000000000000000000000000000000020000000000000000088000000000000000000000000000000000000000000000000020000000000100000000800000000400000000000000010000020002000020000000000000000000000000000000000000000000000004000080000000000000080080000000000000040002000020000000000400000000000008000000002000000000000000000000000000000000000000000040100000030080000000000000000200000000000000000000000000000000100000000000000",
      "type": "0x2",
      "transactionHash": "0x3dbfc8c8ded9b05b9ce87f4b9f5b153420130ccfd91e94a3bacea3ea491c5b1f",
      "transactionIndex": "0x37",
      "blockHash": "0xa1ce8289a4a4b4d84889f554c2db607f5f10f61ff943b2bfc637cceb8b99d468",
      "blockNumber": "0x5dcf0e",
      "gasUsed": "0x2df7a",
      "effectiveGasPrice": "0x43926da4",
      "from": "0x764693dd666e8dd9275cde8f05c6b07446b1d941",
      "to": "0x5f5e7ec4b245c571edfa8fcd81a09b9311b769b1",
      "contractAddress": null
    },
    {
      "status": "0x1",
      "cumulativeGasUsed": "0x1754ef9",
      "logs": [
        {
          "address": "0x6ec5929e48ad78838155fc8d3c6ed4e3c5bac111",
          "topics": [
            "0xddf252ad1be2c89b69c2b068fc378daa952ba7f163c4a11628f55a4df523b3ef",
            "0x0000000000000000000000000000000000000000000000000000000000000000",
            "0x000000000000000000000000764693dd666e8dd9275cde8f05c6b07446b1d941",
            "0x0000000000000000000000000000000000000000000000000000000000000023"
          ],
          "data": "0x",
          "blockHash": "0xa1ce8289a4a4b4d84889f554c2db607f5f10f61ff943b2bfc637cceb8b99d468",
          "blockNumber": "0x5dcf0e",
          "transactionHash": "0x59e5279bdc8d2be20bdd5d3ddeaa3f41682c60a97df16b8807a288192a8f50b5",
          "transactionIndex": "0x38",
          "logIndex": "0x97",
          "removed": false
        },
        {
          "address": "0x6ec5929e48ad78838155fc8d3c6ed4e3c5bac111",
          "topics": [
            "0xf8e1a15aba9398e019f0b49df1a4fde98ee17ae345cb5f6b5e2c27f5033e8ce7"
          ],
          "data": "0x0000000000000000000000000000000000000000000000000000000000000023",
          "blockHash": "0xa1ce8289a4a4b4d84889f554c2db607f5f10f61ff943b2bfc637cceb8b99d468",
          "blockNumber": "0x5dcf0e",
          "transactionHash": "0x59e5279bdc8d2be20bdd5d3ddeaa3f41682c60a97df16b8807a288192a8f50b5",
          "transactionIndex": "0x38",
          "logIndex": "0x98",
          "removed": false
        },
        {
          "address": "0x6ec5929e48ad78838155fc8d3c6ed4e3c5bac111",
          "topics": [
            "0x026aac271342ae43d27b41062e6f37001e4673fbbf25ad4bc3cfd6cd2094bd39",
            "0x000000000000000000000000764693dd666e8dd9275cde8f05c6b07446b1d941",
            "0x0000000000000000000000000000000000000000000000000000000000000023"
          ],
          "data": "0x",
          "blockHash": "0xa1ce8289a4a4b4d84889f554c2db607f5f10f61ff943b2bfc637cceb8b99d468",
          "blockNumber": "0x5dcf0e",
          "transactionHash": "0x59e5279bdc8d2be20bdd5d3ddeaa3f41682c60a97df16b8807a288192a8f50b5",
          "transactionIndex": "0x38",
          "logIndex": "0x99",
          "removed": false
        },
        {
          "address": "0x5f5e7ec4b245c571edfa8fcd81a09b9311b769b1",
          "topics": [
            "0x91e71c368c41168aa5766ee5b0c25d8c5f2c37970e7e4365305015fae0bfb0c6",
            "0x0000000000000000000000000000000000000000000000000000000000000008",
            "0x00000000000000000000000000000000000000000000000000000002540be400",
            "0x00000000000000000000000000000000000000000000000000000002540be400"
          ],
          "data": "0x",
          "blockHash": "0xa1ce8289a4a4b4d84889f554c2db607f5f10f61ff943b2bfc637cceb8b99d468",
          "blockNumber": "0x5dcf0e",
          "transactionHash": "0x59e5279bdc8d2be20bdd5d3ddeaa3f41682c60a97df16b8807a288192a8f50b5",
          "transactionIndex": "0x38",
          "logIndex": "0x9a",
          "removed": false
        }
      ],
      "logsBloom": "0x00000000040000100000000000000000800000000000000000000000004000000000000000000000000000000000000000000000000080800000000000000000000000000000000000000088000000000800000000000000000000000000000000000000020000000000100000000800000000400000000000000010000020002080000000000000000000000000000000000000000200000000000000080000000000000080080000000000000040002000020000000000400000000000008040000002000000000000000000000000000000000000000000040000000030000000000000000000200000000000000000000000000000000100000000000000",
      "type": "0x2",
      "transactionHash": "0x59e5279bdc8d2be20bdd5d3ddeaa3f41682c60a97df16b8807a288192a8f50b5",
      "transactionIndex": "0x38",
      "blockHash": "0xa1ce8289a4a4b4d84889f554c2db607f5f10f61ff943b2bfc637cceb8b99d468",
      "blockNumber": "0x5dcf0e",
      "gasUsed": "0x2df7a",
      "effectiveGasPrice": "0x43926da4",
      "from": "0x764693dd666e8dd9275cde8f05c6b07446b1d941",
      "to": "0x5f5e7ec4b245c571edfa8fcd81a09b9311b769b1",
      "contractAddress": null
    },
    {
      "status": "0x1",
      "cumulativeGasUsed": "0x1782e73",
      "logs": [
        {
          "address": "0x6ec5929e48ad78838155fc8d3c6ed4e3c5bac111",
          "topics": [
            "0xddf252ad1be2c89b69c2b068fc378daa952ba7f163c4a11628f55a4df523b3ef",
            "0x0000000000000000000000000000000000000000000000000000000000000000",
            "0x000000000000000000000000764693dd666e8dd9275cde8f05c6b07446b1d941",
            "0x0000000000000000000000000000000000000000000000000000000000000024"
          ],
          "data": "0x",
          "blockHash": "0xa1ce8289a4a4b4d84889f554c2db607f5f10f61ff943b2bfc637cceb8b99d468",
          "blockNumber": "0x5dcf0e",
          "transactionHash": "0x7c96cd1b87890c5482ddcdd71c4124f4a6feb7ac23eb1117009a3f2824e6ef4e",
          "transactionIndex": "0x39",
          "logIndex": "0x9b",
          "removed": false
        },
        {
          "address": "0x6ec5929e48ad78838155fc8d3c6ed4e3c5bac111",
          "topics": [
            "0xf8e1a15aba9398e019f0b49df1a4fde98ee17ae345cb5f6b5e2c27f5033e8ce7"
          ],
          "data": "0x0000000000000000000000000000000000000000000000000000000000000024",
          "blockHash": "0xa1ce8289a4a4b4d84889f554c2db607f5f10f61ff943b2bfc637cceb8b99d468",
          "blockNumber": "0x5dcf0e",
          "transactionHash": "0x7c96cd1b87890c5482ddcdd71c4124f4a6feb7ac23eb1117009a3f2824e6ef4e",
          "transactionIndex": "0x39",
          "logIndex": "0x9c",
          "removed": false
        },
        {
          "address": "0x6ec5929e48ad78838155fc8d3c6ed4e3c5bac111",
          "topics": [
            "0x026aac271342ae43d27b41062e6f37001e4673fbbf25ad4bc3cfd6cd2094bd39",
            "0x000000000000000000000000764693dd666e8dd9275cde8f05c6b07446b1d941",
            "0x0000000000000000000000000000000000000000000000000000000000000024"
          ],
          "data": "0x",
          "blockHash": "0xa1ce8289a4a4b4d84889f554c2db607f5f10f61ff943b2bfc637cceb8b99d468",
          "blockNumber": "0x5dcf0e",
          "transactionHash": "0x7c96cd1b87890c5482ddcdd71c4124f4a6feb7ac23eb1117009a3f2824e6ef4e",
          "transactionIndex": "0x39",
          "logIndex": "0x9d",
          "removed": false
        },
        {
          "address": "0x5f5e7ec4b245c571edfa8fcd81a09b9311b769b1",
          "topics": [
            "0x91e71c368c41168aa5766ee5b0c25d8c5f2c37970e7e4365305015fae0bfb0c6",
            "0x0000000000000000000000000000000000000000000000000000000000000009",
            "0x00000000000000000000000000000000000000000000000000000002540be400",
            "0x00000000000000000000000000000000000000000000000000000002540be400"
          ],
          "data": "0x",
          "blockHash": "0xa1ce8289a4a4b4d84889f554c2db607f5f10f61ff943b2bfc637cceb8b99d468",
          "blockNumber": "0x5dcf0e",
          "transactionHash": "0x7c96cd1b87890c5482ddcdd71c4124f4a6feb7ac23eb1117009a3f2824e6ef4e",
          "transactionIndex": "0x39",
          "logIndex": "0x9e",
          "removed": false
        }
      ],
      "logsBloom": "0x00000000040000100000000000000000800000000000000000000000004000000000000000000000000000000000000000000000000000000000000000200000000000000000000000000088000000000000000000000000000000000000000000000000020800000000100000000800000000400000000000000010000020002000000000000000000000000008000000001000000000000000000000080000000000000082080000000000000040002000020000000000400000000000008000000002000000000000000000000000000000000000000000040000000030000000000000000000200000000000000000000000000000000100000000800000",
      "type": "0x2",
      "transactionHash": "0x7c96cd1b87890c5482ddcdd71c4124f4a6feb7ac23eb1117009a3f2824e6ef4e",
      "transactionIndex": "0x39",
      "blockHash": "0xa1ce8289a4a4b4d84889f554c2db607f5f10f61ff943b2bfc637cceb8b99d468",
      "blockNumber": "0x5dcf0e",
      "gasUsed": "0x2df7a",
      "effectiveGasPrice": "0x43926da4",
      "from": "0x764693dd666e8dd9275cde8f05c6b07446b1d941",
      "to": "0x5f5e7ec4b245c571edfa8fcd81a09b9311b769b1",
      "contractAddress": null
    },
    {
      "status": "0x1",
      "cumulativeGasUsed": "0x17b0ded",
      "logs": [
        {
          "address": "0x6ec5929e48ad78838155fc8d3c6ed4e3c5bac111",
          "topics": [
            "0xddf252ad1be2c89b69c2b068fc378daa952ba7f163c4a11628f55a4df523b3ef",
            "0x0000000000000000000000000000000000000000000000000000000000000000",
            "0x000000000000000000000000764693dd666e8dd9275cde8f05c6b07446b1d941",
            "0x0000000000000000000000000000000000000000000000000000000000000025"
          ],
          "data": "0x",
          "blockHash": "0xa1ce8289a4a4b4d84889f554c2db607f5f10f61ff943b2bfc637cceb8b99d468",
          "blockNumber": "0x5dcf0e",
          "transactionHash": "0xb358642548e723387d02fdbdc30cc4f8b814e5906509721dc79fbff7ba25aec4",
          "transactionIndex": "0x3a",
          "logIndex": "0x9f",
          "removed": false
        },
        {
          "address": "0x6ec5929e48ad78838155fc8d3c6ed4e3c5bac111",
          "topics": [
            "0xf8e1a15aba9398e019f0b49df1a4fde98ee17ae345cb5f6b5e2c27f5033e8ce7"
          ],
          "data": "0x0000000000000000000000000000000000000000000000000000000000000025",
          "blockHash": "0xa1ce8289a4a4b4d84889f554c2db607f5f10f61ff943b2bfc637cceb8b99d468",
          "blockNumber": "0x5dcf0e",
          "transactionHash": "0xb358642548e723387d02fdbdc30cc4f8b814e5906509721dc79fbff7ba25aec4",
          "transactionIndex": "0x3a",
          "logIndex": "0xa0",
          "removed": false
        },
        {
          "address": "0x6ec5929e48ad78838155fc8d3c6ed4e3c5bac111",
          "topics": [
            "0x026aac271342ae43d27b41062e6f37001e4673fbbf25ad4bc3cfd6cd2094bd39",
            "0x000000000000000000000000764693dd666e8dd9275cde8f05c6b07446b1d941",
            "0x0000000000000000000000000000000000000000000000000000000000000025"
          ],
          "data": "0x",
          "blockHash": "0xa1ce8289a4a4b4d84889f554c2db607f5f10f61ff943b2bfc637cceb8b99d468",
          "blockNumber": "0x5dcf0e",
          "transactionHash": "0xb358642548e723387d02fdbdc30cc4f8b814e5906509721dc79fbff7ba25aec4",
          "transactionIndex": "0x3a",
          "logIndex": "0xa1",
          "removed": false
        },
        {
          "address": "0x5f5e7ec4b245c571edfa8fcd81a09b9311b769b1",
          "topics": [
            "0x91e71c368c41168aa5766ee5b0c25d8c5f2c37970e7e4365305015fae0bfb0c6",
            "0x000000000000000000000000000000000000000000000000000000000000000a",
            "0x00000000000000000000000000000000000000000000000000000002540be400",
            "0x00000000000000000000000000000000000000000000000000000002540be400"
          ],
          "data": "0x",
          "blockHash": "0xa1ce8289a4a4b4d84889f554c2db607f5f10f61ff943b2bfc637cceb8b99d468",
          "blockNumber": "0x5dcf0e",
          "transactionHash": "0xb358642548e723387d02fdbdc30cc4f8b814e5906509721dc79fbff7ba25aec4",
          "transactionIndex": "0x3a",
          "logIndex": "0xa2",
          "removed": false
        }
      ],
      "logsBloom": "0x00000000040000100000000000000000800000000000000000000000004000000000000000000000000000000000000000000000040000000020000000000000000000000000000000000088000000000000000000000000000000000000000000000000020000000000100000000800000000400000000000000010000020002000000000000000010000000000000000000000000000000000000000080000000000000080080000000002000040002000020000000000400000000000008000000002000000000000000000000000000000000000000000040000000030008000000000000000200000000000000000000000000000000100000002000000",
      "type": "0x2",
      "transactionHash": "0xb358642548e723387d02fdbdc30cc4f8b814e5906509721dc79fbff7ba25aec4",
      "transactionIndex": "0x3a",
      "blockHash": "0xa1ce8289a4a4b4d84889f554c2db607f5f10f61ff943b2bfc637cceb8b99d468",
      "blockNumber": "0x5dcf0e",
      "gasUsed": "0x2df7a",
      "effectiveGasPrice": "0x43926da4",
      "from": "0x764693dd666e8dd9275cde8f05c6b07446b1d941",
      "to": "0x5f5e7ec4b245c571edfa8fcd81a09b9311b769b1",
      "contractAddress": null
    },
    {
      "status": "0x1",
      "cumulativeGasUsed": "0x17ded67",
      "logs": [
        {
          "address": "0x6ec5929e48ad78838155fc8d3c6ed4e3c5bac111",
          "topics": [
            "0xddf252ad1be2c89b69c2b068fc378daa952ba7f163c4a11628f55a4df523b3ef",
            "0x0000000000000000000000000000000000000000000000000000000000000000",
            "0x000000000000000000000000764693dd666e8dd9275cde8f05c6b07446b1d941",
            "0x0000000000000000000000000000000000000000000000000000000000000026"
          ],
          "data": "0x",
          "blockHash": "0xa1ce8289a4a4b4d84889f554c2db607f5f10f61ff943b2bfc637cceb8b99d468",
          "blockNumber": "0x5dcf0e",
          "transactionHash": "0x814a976424843d671cd1e02f87c11d9eae415b90310fe5cad1a024615d571a13",
          "transactionIndex": "0x3b",
          "logIndex": "0xa3",
          "removed": false
        },
        {
          "address": "0x6ec5929e48ad78838155fc8d3c6ed4e3c5bac111",
          "topics": [
            "0xf8e1a15aba9398e019f0b49df1a4fde98ee17ae345cb5f6b5e2c27f5033e8ce7"
          ],
          "data": "0x0000000000000000000000000000000000000000000000000000000000000026",
          "blockHash": "0xa1ce8289a4a4b4d84889f554c2db607f5f10f61ff943b2bfc637cceb8b99d468",
          "blockNumber": "0x5dcf0e",
          "transactionHash": "0x814a976424843d671cd1e02f87c11d9eae415b90310fe5cad1a024615d571a13",
          "transactionIndex": "0x3b",
          "logIndex": "0xa4",
          "removed": false
        },
        {
          "address": "0x6ec5929e48ad78838155fc8d3c6ed4e3c5bac111",
          "topics": [
            "0x026aac271342ae43d27b41062e6f37001e4673fbbf25ad4bc3cfd6cd2094bd39",
            "0x000000000000000000000000764693dd666e8dd9275cde8f05c6b07446b1d941",
            "0x0000000000000000000000000000000000000000000000000000000000000026"
          ],
          "data": "0x",
          "blockHash": "0xa1ce8289a4a4b4d84889f554c2db607f5f10f61ff943b2bfc637cceb8b99d468",
          "blockNumber": "0x5dcf0e",
          "transactionHash": "0x814a976424843d671cd1e02f87c11d9eae415b90310fe5cad1a024615d571a13",
          "transactionIndex": "0x3b",
          "logIndex": "0xa5",
          "removed": false
        },
        {
          "address": "0x5f5e7ec4b245c571edfa8fcd81a09b9311b769b1",
          "topics": [
            "0x91e71c368c41168aa5766ee5b0c25d8c5f2c37970e7e4365305015fae0bfb0c6",
            "0x000000000000000000000000000000000000000000000000000000000000000b",
            "0x00000000000000000000000000000000000000000000000000000002540be400",
            "0x00000000000000000000000000000000000000000000000000000002540be400"
          ],
          "data": "0x",
          "blockHash": "0xa1ce8289a4a4b4d84889f554c2db607f5f10f61ff943b2bfc637cceb8b99d468",
          "blockNumber": "0x5dcf0e",
          "transactionHash": "0x814a976424843d671cd1e02f87c11d9eae415b90310fe5cad1a024615d571a13",
          "transactionIndex": "0x3b",
          "logIndex": "0xa6",
          "removed": false
        }
      ],
      "logsBloom": "0x00000000040000100000004000000000800000000000000000000000004000000000000000000000000000000000000000000000000000000000000000000000000000000000000000000088000000000001000000000000000000000000000001000000020000000000100000000800000000400000040000000010000020002000000000000000000000000000000000000000000000000000000000080000000000000080080000000000000040002000020000000000400000000000008000000002000000000000000000000000002000000000000000040000000030000000000000000000200000000000000000000000000000040100000000000000",
      "type": "0x2",
      "transactionHash": "0x814a976424843d671cd1e02f87c11d9eae415b90310fe5cad1a024615d571a13",
      "transactionIndex": "0x3b",
      "blockHash": "0xa1ce8289a4a4b4d84889f554c2db607f5f10f61ff943b2bfc637cceb8b99d468",
      "blockNumber": "0x5dcf0e",
      "gasUsed": "0x2df7a",
      "effectiveGasPrice": "0x43926da4",
      "from": "0x764693dd666e8dd9275cde8f05c6b07446b1d941",
      "to": "0x5f5e7ec4b245c571edfa8fcd81a09b9311b769b1",
      "contractAddress": null
    },
    {
      "status": "0x1",
      "cumulativeGasUsed": "0x180cce1",
      "logs": [
        {
          "address": "0x6ec5929e48ad78838155fc8d3c6ed4e3c5bac111",
          "topics": [
            "0xddf252ad1be2c89b69c2b068fc378daa952ba7f163c4a11628f55a4df523b3ef",
            "0x0000000000000000000000000000000000000000000000000000000000000000",
            "0x000000000000000000000000764693dd666e8dd9275cde8f05c6b07446b1d941",
            "0x0000000000000000000000000000000000000000000000000000000000000027"
          ],
          "data": "0x",
          "blockHash": "0xa1ce8289a4a4b4d84889f554c2db607f5f10f61ff943b2bfc637cceb8b99d468",
          "blockNumber": "0x5dcf0e",
          "transactionHash": "0x61c682e836a1dd9641275a10caaf1325e6cca51726e798752c958d68b08995ec",
          "transactionIndex": "0x3c",
          "logIndex": "0xa7",
          "removed": false
        },
        {
          "address": "0x6ec5929e48ad78838155fc8d3c6ed4e3c5bac111",
          "topics": [
            "0xf8e1a15aba9398e019f0b49df1a4fde98ee17ae345cb5f6b5e2c27f5033e8ce7"
          ],
          "data": "0x0000000000000000000000000000000000000000000000000000000000000027",
          "blockHash": "0xa1ce8289a4a4b4d84889f554c2db607f5f10f61ff943b2bfc637cceb8b99d468",
          "blockNumber": "0x5dcf0e",
          "transactionHash": "0x61c682e836a1dd9641275a10caaf1325e6cca51726e798752c958d68b08995ec",
          "transactionIndex": "0x3c",
          "logIndex": "0xa8",
          "removed": false
        },
        {
          "address": "0x6ec5929e48ad78838155fc8d3c6ed4e3c5bac111",
          "topics": [
            "0x026aac271342ae43d27b41062e6f37001e4673fbbf25ad4bc3cfd6cd2094bd39",
            "0x000000000000000000000000764693dd666e8dd9275cde8f05c6b07446b1d941",
            "0x0000000000000000000000000000000000000000000000000000000000000027"
          ],
          "data": "0x",
          "blockHash": "0xa1ce8289a4a4b4d84889f554c2db607f5f10f61ff943b2bfc637cceb8b99d468",
          "blockNumber": "0x5dcf0e",
          "transactionHash": "0x61c682e836a1dd9641275a10caaf1325e6cca51726e798752c958d68b08995ec",
          "transactionIndex": "0x3c",
          "logIndex": "0xa9",
          "removed": false
        },
        {
          "address": "0x5f5e7ec4b245c571edfa8fcd81a09b9311b769b1",
          "topics": [
            "0x91e71c368c41168aa5766ee5b0c25d8c5f2c37970e7e4365305015fae0bfb0c6",
            "0x000000000000000000000000000000000000000000000000000000000000000c",
            "0x00000000000000000000000000000000000000000000000000000002540be400",
            "0x00000000000000000000000000000000000000000000000000000002540be400"
          ],
          "data": "0x",
          "blockHash": "0xa1ce8289a4a4b4d84889f554c2db607f5f10f61ff943b2bfc637cceb8b99d468",
          "blockNumber": "0x5dcf0e",
          "transactionHash": "0x61c682e836a1dd9641275a10caaf1325e6cca51726e798752c958d68b08995ec",
          "transactionIndex": "0x3c",
          "logIndex": "0xaa",
          "removed": false
        }
      ],
      "logsBloom": "0x00000000040000100000000000000000800002000000000000000000004000000002000000000200000000000000000000000000000000000000000000000000000000000000000000000088000000000000000000000000000000000000000000000000020000000000100000000800000000400000000000000010000020002000000000000000000000000000000000000000000000000000000000080000000000000080080000000000000040002000020000000000400000000000008000000002000000000000000000000000000000000000000000040000000030200000000000000000200000100000000008000000000000000100000000000000",
      "type": "0x2",
      "transactionHash": "0x61c682e836a1dd9641275a10caaf1325e6cca51726e798752c958d68b08995ec",
      "transactionIndex": "0x3c",
      "blockHash": "0xa1ce8289a4a4b4d84889f554c2db607f5f10f61ff943b2bfc637cceb8b99d468",
      "blockNumber": "0x5dcf0e",
      "gasUsed": "0x2df7a",
      "effectiveGasPrice": "0x43926da4",
      "from": "0x764693dd666e8dd9275cde8f05c6b07446b1d941",
      "to": "0x5f5e7ec4b245c571edfa8fcd81a09b9311b769b1",
      "contractAddress": null
    },
    {
      "status": "0x1",
      "cumulativeGasUsed": "0x18238de",
      "logs": [
        {
          "address": "0xe37e44964dad319c6b31d222453b7ddd3b249721",
          "topics": [
            "0xddf252ad1be2c89b69c2b068fc378daa952ba7f163c4a11628f55a4df523b3ef",
            "0x0000000000000000000000000000000000000000000000000000000000000000",
            "0x000000000000000000000000764693dd666e8dd9275cde8f05c6b07446b1d941",
            "0x0000000000000000000000000000000000000000000000000000000000000008"
          ],
          "data": "0x",
          "blockHash": "0xa1ce8289a4a4b4d84889f554c2db607f5f10f61ff943b2bfc637cceb8b99d468",
          "blockNumber": "0x5dcf0e",
          "transactionHash": "0xcf8bd0a249d0bd7ab2355e5e9a44088c767a16da328c5159f761acba0074f515",
          "transactionIndex": "0x3d",
          "logIndex": "0xab",
          "removed": false
        },
        {
          "address": "0xe37e44964dad319c6b31d222453b7ddd3b249721",
          "topics": [
            "0xf8e1a15aba9398e019f0b49df1a4fde98ee17ae345cb5f6b5e2c27f5033e8ce7"
          ],
          "data": "0x0000000000000000000000000000000000000000000000000000000000000008",
          "blockHash": "0xa1ce8289a4a4b4d84889f554c2db607f5f10f61ff943b2bfc637cceb8b99d468",
          "blockNumber": "0x5dcf0e",
          "transactionHash": "0xcf8bd0a249d0bd7ab2355e5e9a44088c767a16da328c5159f761acba0074f515",
          "transactionIndex": "0x3d",
          "logIndex": "0xac",
          "removed": false
        },
        {
          "address": "0xe37e44964dad319c6b31d222453b7ddd3b249721",
          "topics": [
            "0xbab4562ae868d1765ed8452e98bba908a974596c4babc3ada5e90e05e3f433fb",
            "0x000000000000000000000000764693dd666e8dd9275cde8f05c6b07446b1d941",
            "0x0000000000000000000000000000000000000000000000000000000000000008"
          ],
          "data": "0x",
          "blockHash": "0xa1ce8289a4a4b4d84889f554c2db607f5f10f61ff943b2bfc637cceb8b99d468",
          "blockNumber": "0x5dcf0e",
          "transactionHash": "0xcf8bd0a249d0bd7ab2355e5e9a44088c767a16da328c5159f761acba0074f515",
          "transactionIndex": "0x3d",
          "logIndex": "0xad",
          "removed": false
        },
        {
          "address": "0x5f5e7ec4b245c571edfa8fcd81a09b9311b769b1",
          "topics": [
            "0xd35a6cc813c47c11ff9f41f7fe9d463b32db9be612b7f78e9ba6336deb4c5900",
            "0x000000000000000000000000764693dd666e8dd9275cde8f05c6b07446b1d941"
          ],
          "data": "0x",
          "blockHash": "0xa1ce8289a4a4b4d84889f554c2db607f5f10f61ff943b2bfc637cceb8b99d468",
          "blockNumber": "0x5dcf0e",
          "transactionHash": "0xcf8bd0a249d0bd7ab2355e5e9a44088c767a16da328c5159f761acba0074f515",
          "transactionIndex": "0x3d",
          "logIndex": "0xae",
          "removed": false
        }
      ],
      "logsBloom": "0x00000000000000100000100800000000800000000000000000000000004000000000000000000000000000004000000080000000000080000000000000000000000000000000000001000088000000000000000000000000000000000000000000004000020000040000000000000800000000000000000000000050200000000080000000000000000000000000000000000000000000000000000000080000000000000000080000000000000000002000000000000000000000000000008040000002000000000000000000000000000000000000000000000000000020000000000000000000200000000000000000000000000000000000000000000000",
      "type": "0x2",
      "transactionHash": "0xcf8bd0a249d0bd7ab2355e5e9a44088c767a16da328c5159f761acba0074f515",
      "transactionIndex": "0x3d",
      "blockHash": "0xa1ce8289a4a4b4d84889f554c2db607f5f10f61ff943b2bfc637cceb8b99d468",
      "blockNumber": "0x5dcf0e",
      "gasUsed": "0x16bfd",
      "effectiveGasPrice": "0x43926da4",
      "from": "0x764693dd666e8dd9275cde8f05c6b07446b1d941",
      "to": "0x5f5e7ec4b245c571edfa8fcd81a09b9311b769b1",
      "contractAddress": null
    },
    {
      "status": "0x1",
      "cumulativeGasUsed": "0x182ef39",
      "logs": [
        {
          "address": "0xd8ed4a9317585bd8ce8ef7524c313f25373d1739",
          "topics": [
            "0x8c5be1e5ebec7d5bd14f71427d1e84f3dd0314c0f7b2291e5b200ac8c7c3b925",
            "0x000000000000000000000000764693dd666e8dd9275cde8f05c6b07446b1d941",
            "0x0000000000000000000000005f5e7ec4b245c571edfa8fcd81a09b9311b769b1"
          ],
          "data": "0xffffffffffffffffffffffffffffffffffffffffffffffffffffffffffffffff",
          "blockHash": "0xa1ce8289a4a4b4d84889f554c2db607f5f10f61ff943b2bfc637cceb8b99d468",
          "blockNumber": "0x5dcf0e",
          "transactionHash": "0xc0d8ef639d5c729cc0c29d39b360737aa03a2356977f06e12877ebb0221fb4bf",
          "transactionIndex": "0x3e",
          "logIndex": "0xaf",
          "removed": false
        }
      ],
      "logsBloom": "0x00000000000000000000000000000000800000000000000000000000004000000000000000000000000000000000000000000000000000000000000000200000000000000000000000000080000000000000000000000000000000000000000000000000000000000000000000800000000800000000000000000000000000000000000000000000000000000000000000000000000000000000000000000000020000000000000000000000000000000000000000000000000000000040000000000000000000000000000000000000000000000000000000000000000000000010020008000000020000000000000000000000000000000000000000000000",
      "type": "0x2",
      "transactionHash": "0xc0d8ef639d5c729cc0c29d39b360737aa03a2356977f06e12877ebb0221fb4bf",
      "transactionIndex": "0x3e",
      "blockHash": "0xa1ce8289a4a4b4d84889f554c2db607f5f10f61ff943b2bfc637cceb8b99d468",
      "blockNumber": "0x5dcf0e",
      "gasUsed": "0xb65b",
      "effectiveGasPrice": "0x43926da4",
      "from": "0x764693dd666e8dd9275cde8f05c6b07446b1d941",
      "to": "0xd8ed4a9317585bd8ce8ef7524c313f25373d1739",
      "contractAddress": null
    },
    {
      "status": "0x1",
      "cumulativeGasUsed": "0x184d255",
      "logs": [
        {
          "address": "0xd8ed4a9317585bd8ce8ef7524c313f25373d1739",
          "topics": [
            "0xddf252ad1be2c89b69c2b068fc378daa952ba7f163c4a11628f55a4df523b3ef",
            "0x000000000000000000000000764693dd666e8dd9275cde8f05c6b07446b1d941",
            "0x0000000000000000000000005f5e7ec4b245c571edfa8fcd81a09b9311b769b1"
          ],
          "data": "0x0000000000000000000000000000000000000000000000000000417bce6c8000",
          "blockHash": "0xa1ce8289a4a4b4d84889f554c2db607f5f10f61ff943b2bfc637cceb8b99d468",
          "blockNumber": "0x5dcf0e",
          "transactionHash": "0x9f0fc9fa1531671264a1336b88a0b1a82fa1aeef3b88de12904d6e14615d4603",
          "transactionIndex": "0x3f",
          "logIndex": "0xb0",
          "removed": false
        },
        {
          "address": "0xd8ed4a9317585bd8ce8ef7524c313f25373d1739",
          "topics": [
            "0xddf252ad1be2c89b69c2b068fc378daa952ba7f163c4a11628f55a4df523b3ef",
            "0x0000000000000000000000005f5e7ec4b245c571edfa8fcd81a09b9311b769b1",
            "0x000000000000000000000000764693dd666e8dd9275cde8f05c6b07446b1d941"
          ],
          "data": "0x0000000000000000000000000000000000000000000000000000417bce6c7c18",
          "blockHash": "0xa1ce8289a4a4b4d84889f554c2db607f5f10f61ff943b2bfc637cceb8b99d468",
          "blockNumber": "0x5dcf0e",
          "transactionHash": "0x9f0fc9fa1531671264a1336b88a0b1a82fa1aeef3b88de12904d6e14615d4603",
          "transactionIndex": "0x3f",
          "logIndex": "0xb1",
          "removed": false
        },
        {
          "address": "0x5f5e7ec4b245c571edfa8fcd81a09b9311b769b1",
          "topics": [
            "0x1a777a4e69f842f69af228bdecb2e58e1ab9d68e3c8694533ddb6ff9dd243f82",
            "0x0000000000000000000000000000000000000000000000000000000000000001",
            "0x000000000000000000000000764693dd666e8dd9275cde8f05c6b07446b1d941"
          ],
          "data": "0x",
          "blockHash": "0xa1ce8289a4a4b4d84889f554c2db607f5f10f61ff943b2bfc637cceb8b99d468",
          "blockNumber": "0x5dcf0e",
          "transactionHash": "0x9f0fc9fa1531671264a1336b88a0b1a82fa1aeef3b88de12904d6e14615d4603",
          "transactionIndex": "0x3f",
          "logIndex": "0xb2",
          "removed": false
        }
      ],
      "logsBloom": "0x00000000000000100000000000000000800000000000000000000000004000000000000000000000000000000000000000000000000000000000000000040000000000000000000004000088000000000000000000040000000000000000000000000000000000000000000000800000000800000000000000000010000000000000000000000000000000000000000000000000000200000000000000080000000000000000080000000000000000000000000000000000000000000040000000000002000000000000000000000000000000000000000000000000000040000000020008000000020000000000000000000000000800000000000000000000",
      "type": "0x2",
      "transactionHash": "0x9f0fc9fa1531671264a1336b88a0b1a82fa1aeef3b88de12904d6e14615d4603",
      "transactionIndex": "0x3f",
      "blockHash": "0xa1ce8289a4a4b4d84889f554c2db607f5f10f61ff943b2bfc637cceb8b99d468",
      "blockNumber": "0x5dcf0e",
      "gasUsed": "0x1e31c",
      "effectiveGasPrice": "0x43926da4",
      "from": "0x764693dd666e8dd9275cde8f05c6b07446b1d941",
      "to": "0x5f5e7ec4b245c571edfa8fcd81a09b9311b769b1",
      "contractAddress": null
    },
    {
      "status": "0x1",
      "cumulativeGasUsed": "0x18672a5",
      "logs": [
        {
          "address": "0xd8ed4a9317585bd8ce8ef7524c313f25373d1739",
          "topics": [
            "0xddf252ad1be2c89b69c2b068fc378daa952ba7f163c4a11628f55a4df523b3ef",
            "0x000000000000000000000000764693dd666e8dd9275cde8f05c6b07446b1d941",
            "0x0000000000000000000000005f5e7ec4b245c571edfa8fcd81a09b9311b769b1"
          ],
          "data": "0x0000000000000000000000000000000000000000000000000000417bce6c8000",
          "blockHash": "0xa1ce8289a4a4b4d84889f554c2db607f5f10f61ff943b2bfc637cceb8b99d468",
          "blockNumber": "0x5dcf0e",
          "transactionHash": "0x7cbb11a5a46a15d5db6efb0bb8644f0b2ac42cf99ea84342682b113100700bed",
          "transactionIndex": "0x40",
          "logIndex": "0xb3",
          "removed": false
        },
        {
          "address": "0xd8ed4a9317585bd8ce8ef7524c313f25373d1739",
          "topics": [
            "0xddf252ad1be2c89b69c2b068fc378daa952ba7f163c4a11628f55a4df523b3ef",
            "0x0000000000000000000000005f5e7ec4b245c571edfa8fcd81a09b9311b769b1",
            "0x000000000000000000000000764693dd666e8dd9275cde8f05c6b07446b1d941"
          ],
          "data": "0x0000000000000000000000000000000000000000000000000000417bce6c7c18",
          "blockHash": "0xa1ce8289a4a4b4d84889f554c2db607f5f10f61ff943b2bfc637cceb8b99d468",
          "blockNumber": "0x5dcf0e",
          "transactionHash": "0x7cbb11a5a46a15d5db6efb0bb8644f0b2ac42cf99ea84342682b113100700bed",
          "transactionIndex": "0x40",
          "logIndex": "0xb4",
          "removed": false
        },
        {
          "address": "0x5f5e7ec4b245c571edfa8fcd81a09b9311b769b1",
          "topics": [
            "0x1a777a4e69f842f69af228bdecb2e58e1ab9d68e3c8694533ddb6ff9dd243f82",
            "0x0000000000000000000000000000000000000000000000000000000000000002",
            "0x000000000000000000000000764693dd666e8dd9275cde8f05c6b07446b1d941"
          ],
          "data": "0x",
          "blockHash": "0xa1ce8289a4a4b4d84889f554c2db607f5f10f61ff943b2bfc637cceb8b99d468",
          "blockNumber": "0x5dcf0e",
          "transactionHash": "0x7cbb11a5a46a15d5db6efb0bb8644f0b2ac42cf99ea84342682b113100700bed",
          "transactionIndex": "0x40",
          "logIndex": "0xb5",
          "removed": false
        }
      ],
      "logsBloom": "0x04000000000000100000000000000000800000000000000000000000004000000000000000000000000000000000000000000000000000000000000000000000000000000000000004000088000000000000000000000000000000000000000000000000000000000000000000800000000800000000000000000010000000000000000000000000000000000000000000000000000200000000000000080000000000000000080000000100000000000000000000000000000000000040000000000002000000000000000000000000000000000000000000000000000000000000020008000000020000000000000000000000008800000000000000000000",
      "type": "0x2",
      "transactionHash": "0x7cbb11a5a46a15d5db6efb0bb8644f0b2ac42cf99ea84342682b113100700bed",
      "transactionIndex": "0x40",
      "blockHash": "0xa1ce8289a4a4b4d84889f554c2db607f5f10f61ff943b2bfc637cceb8b99d468",
      "blockNumber": "0x5dcf0e",
      "gasUsed": "0x1a050",
      "effectiveGasPrice": "0x43926da4",
      "from": "0x764693dd666e8dd9275cde8f05c6b07446b1d941",
      "to": "0x5f5e7ec4b245c571edfa8fcd81a09b9311b769b1",
      "contractAddress": null
    },
    {
      "status": "0x1",
      "cumulativeGasUsed": "0x188121d",
      "logs": [
        {
          "address": "0xd8ed4a9317585bd8ce8ef7524c313f25373d1739",
          "topics": [
            "0xddf252ad1be2c89b69c2b068fc378daa952ba7f163c4a11628f55a4df523b3ef",
            "0x000000000000000000000000764693dd666e8dd9275cde8f05c6b07446b1d941",
            "0x0000000000000000000000005f5e7ec4b245c571edfa8fcd81a09b9311b769b1"
          ],
          "data": "0x0000000000000000000000000000000000000000000000000009356907420000",
          "blockHash": "0xa1ce8289a4a4b4d84889f554c2db607f5f10f61ff943b2bfc637cceb8b99d468",
          "blockNumber": "0x5dcf0e",
          "transactionHash": "0x5995e5d72d49a100e701d9a97854fdd3d1f3cdc6567ac186af5293db41f09d09",
          "transactionIndex": "0x41",
          "logIndex": "0xb6",
          "removed": false
        },
        {
          "address": "0xd8ed4a9317585bd8ce8ef7524c313f25373d1739",
          "topics": [
            "0xddf252ad1be2c89b69c2b068fc378daa952ba7f163c4a11628f55a4df523b3ef",
            "0x0000000000000000000000005f5e7ec4b245c571edfa8fcd81a09b9311b769b1",
            "0x000000000000000000000000764693dd666e8dd9275cde8f05c6b07446b1d941"
          ],
          "data": "0x000000000000000000000000000000000000000000000000000935690741fc18",
          "blockHash": "0xa1ce8289a4a4b4d84889f554c2db607f5f10f61ff943b2bfc637cceb8b99d468",
          "blockNumber": "0x5dcf0e",
          "transactionHash": "0x5995e5d72d49a100e701d9a97854fdd3d1f3cdc6567ac186af5293db41f09d09",
          "transactionIndex": "0x41",
          "logIndex": "0xb7",
          "removed": false
        },
        {
          "address": "0x5f5e7ec4b245c571edfa8fcd81a09b9311b769b1",
          "topics": [
            "0x1a777a4e69f842f69af228bdecb2e58e1ab9d68e3c8694533ddb6ff9dd243f82",
            "0x0000000000000000000000000000000000000000000000000000000000000003",
            "0x000000000000000000000000764693dd666e8dd9275cde8f05c6b07446b1d941"
          ],
          "data": "0x",
          "blockHash": "0xa1ce8289a4a4b4d84889f554c2db607f5f10f61ff943b2bfc637cceb8b99d468",
          "blockNumber": "0x5dcf0e",
          "transactionHash": "0x5995e5d72d49a100e701d9a97854fdd3d1f3cdc6567ac186af5293db41f09d09",
          "transactionIndex": "0x41",
          "logIndex": "0xb8",
          "removed": false
        }
      ],
      "logsBloom": "0x00000000000000100000000000000000800000000000000000000000004000000000000000000000000000000000000000000000020000000000000000000000000000000000000004000088000000000000000000000000000000000000000000000000000000000000000000800000000800000000000000000010000000000000000000000000000000000000000000000000000200000000000000080000000000000000080000000000000000000000000000800000000000000040400000000002000000000000000000000000000000000000000000000000000000000000020008000000020000000000000000000000000800000000000000000000",
      "type": "0x2",
      "transactionHash": "0x5995e5d72d49a100e701d9a97854fdd3d1f3cdc6567ac186af5293db41f09d09",
      "transactionIndex": "0x41",
      "blockHash": "0xa1ce8289a4a4b4d84889f554c2db607f5f10f61ff943b2bfc637cceb8b99d468",
      "blockNumber": "0x5dcf0e",
      "gasUsed": "0x19f78",
      "effectiveGasPrice": "0x43926da4",
      "from": "0x764693dd666e8dd9275cde8f05c6b07446b1d941",
      "to": "0x5f5e7ec4b245c571edfa8fcd81a09b9311b769b1",
      "contractAddress": null
    },
    {
      "status": "0x1",
      "cumulativeGasUsed": "0x189b189",
      "logs": [
        {
          "address": "0xd8ed4a9317585bd8ce8ef7524c313f25373d1739",
          "topics": [
            "0xddf252ad1be2c89b69c2b068fc378daa952ba7f163c4a11628f55a4df523b3ef",
            "0x000000000000000000000000764693dd666e8dd9275cde8f05c6b07446b1d941",
            "0x0000000000000000000000005f5e7ec4b245c571edfa8fcd81a09b9311b769b1"
          ],
          "data": "0x000000000000000000000000000000000000000000000000000c4736b4580000",
          "blockHash": "0xa1ce8289a4a4b4d84889f554c2db607f5f10f61ff943b2bfc637cceb8b99d468",
          "blockNumber": "0x5dcf0e",
          "transactionHash": "0xebc7aaef46079d9f527a0d309d43a67799a9b25186f0cfc353088a9bb198d5f9",
          "transactionIndex": "0x42",
          "logIndex": "0xb9",
          "removed": false
        },
        {
          "address": "0xd8ed4a9317585bd8ce8ef7524c313f25373d1739",
          "topics": [
            "0xddf252ad1be2c89b69c2b068fc378daa952ba7f163c4a11628f55a4df523b3ef",
            "0x0000000000000000000000005f5e7ec4b245c571edfa8fcd81a09b9311b769b1",
            "0x000000000000000000000000764693dd666e8dd9275cde8f05c6b07446b1d941"
          ],
          "data": "0x000000000000000000000000000000000000000000000000000c4736b457fc18",
          "blockHash": "0xa1ce8289a4a4b4d84889f554c2db607f5f10f61ff943b2bfc637cceb8b99d468",
          "blockNumber": "0x5dcf0e",
          "transactionHash": "0xebc7aaef46079d9f527a0d309d43a67799a9b25186f0cfc353088a9bb198d5f9",
          "transactionIndex": "0x42",
          "logIndex": "0xba",
          "removed": false
        },
        {
          "address": "0x5f5e7ec4b245c571edfa8fcd81a09b9311b769b1",
          "topics": [
            "0x1a777a4e69f842f69af228bdecb2e58e1ab9d68e3c8694533ddb6ff9dd243f82",
            "0x0000000000000000000000000000000000000000000000000000000000000004",
            "0x000000000000000000000000764693dd666e8dd9275cde8f05c6b07446b1d941"
          ],
          "data": "0x",
          "blockHash": "0xa1ce8289a4a4b4d84889f554c2db607f5f10f61ff943b2bfc637cceb8b99d468",
          "blockNumber": "0x5dcf0e",
          "transactionHash": "0xebc7aaef46079d9f527a0d309d43a67799a9b25186f0cfc353088a9bb198d5f9",
          "transactionIndex": "0x42",
          "logIndex": "0xbb",
          "removed": false
        }
      ],
      "logsBloom": "0x00000000000000100000000000000000800000000000000000000000004000000000000000000000000000000000000000000000000000000000000000000000000000000000000004000088000000000000000000000000000000000000000008000000000000000000000000800000000800000000000000000010000000000000000000000000000000000000000000000000000200000000000000080000000000000000080000000000000000000000000000000000002000000040000000000002000000000000000000000000000000008000000000000000000000000000020008000000020000000000000000000000000800000000000000000000",
      "type": "0x2",
      "transactionHash": "0xebc7aaef46079d9f527a0d309d43a67799a9b25186f0cfc353088a9bb198d5f9",
      "transactionIndex": "0x42",
      "blockHash": "0xa1ce8289a4a4b4d84889f554c2db607f5f10f61ff943b2bfc637cceb8b99d468",
      "blockNumber": "0x5dcf0e",
      "gasUsed": "0x19f6c",
      "effectiveGasPrice": "0x43926da4",
      "from": "0x764693dd666e8dd9275cde8f05c6b07446b1d941",
      "to": "0x5f5e7ec4b245c571edfa8fcd81a09b9311b769b1",
      "contractAddress": null
    },
    {
      "status": "0x1",
      "cumulativeGasUsed": "0x18b51d9",
      "logs": [
        {
          "address": "0xd8ed4a9317585bd8ce8ef7524c313f25373d1739",
          "topics": [
            "0xddf252ad1be2c89b69c2b068fc378daa952ba7f163c4a11628f55a4df523b3ef",
            "0x000000000000000000000000764693dd666e8dd9275cde8f05c6b07446b1d941",
            "0x0000000000000000000000005f5e7ec4b245c571edfa8fcd81a09b9311b769b1"
          ],
          "data": "0x0000000000000000000000000000000000000000000000000000417bce6c8000",
          "blockHash": "0xa1ce8289a4a4b4d84889f554c2db607f5f10f61ff943b2bfc637cceb8b99d468",
          "blockNumber": "0x5dcf0e",
          "transactionHash": "0x17e5ae495495c187f58d1efb86924604f35970ac1a0e06b713ae59a54821e6b4",
          "transactionIndex": "0x43",
          "logIndex": "0xbc",
          "removed": false
        },
        {
          "address": "0xd8ed4a9317585bd8ce8ef7524c313f25373d1739",
          "topics": [
            "0xddf252ad1be2c89b69c2b068fc378daa952ba7f163c4a11628f55a4df523b3ef",
            "0x0000000000000000000000005f5e7ec4b245c571edfa8fcd81a09b9311b769b1",
            "0x000000000000000000000000764693dd666e8dd9275cde8f05c6b07446b1d941"
          ],
          "data": "0x0000000000000000000000000000000000000000000000000000417bce6c7c18",
          "blockHash": "0xa1ce8289a4a4b4d84889f554c2db607f5f10f61ff943b2bfc637cceb8b99d468",
          "blockNumber": "0x5dcf0e",
          "transactionHash": "0x17e5ae495495c187f58d1efb86924604f35970ac1a0e06b713ae59a54821e6b4",
          "transactionIndex": "0x43",
          "logIndex": "0xbd",
          "removed": false
        },
        {
          "address": "0x5f5e7ec4b245c571edfa8fcd81a09b9311b769b1",
          "topics": [
            "0x1a777a4e69f842f69af228bdecb2e58e1ab9d68e3c8694533ddb6ff9dd243f82",
            "0x0000000000000000000000000000000000000000000000000000000000000005",
            "0x000000000000000000000000764693dd666e8dd9275cde8f05c6b07446b1d941"
          ],
          "data": "0x",
          "blockHash": "0xa1ce8289a4a4b4d84889f554c2db607f5f10f61ff943b2bfc637cceb8b99d468",
          "blockNumber": "0x5dcf0e",
          "transactionHash": "0x17e5ae495495c187f58d1efb86924604f35970ac1a0e06b713ae59a54821e6b4",
          "transactionIndex": "0x43",
          "logIndex": "0xbe",
          "removed": false
        }
      ],
      "logsBloom": "0x00000000000000100000000000000000800000000000000000000000004000000000000000000000000000000000000000000000000000000000000000000000000010000000000004000088000000000000000000000000000000000000000000000000000000000000000000800000000800000000000000000010000000000000000000000000000000000000001000000800000200000000000000080000000000000000080000000000000000000000000000000000000000000040000000000002000000000000000000000000000000000000000000000000000000000000020008000000020000000000000000000000000800000000000000000000",
      "type": "0x2",
      "transactionHash": "0x17e5ae495495c187f58d1efb86924604f35970ac1a0e06b713ae59a54821e6b4",
      "transactionIndex": "0x43",
      "blockHash": "0xa1ce8289a4a4b4d84889f554c2db607f5f10f61ff943b2bfc637cceb8b99d468",
      "blockNumber": "0x5dcf0e",
      "gasUsed": "0x1a050",
      "effectiveGasPrice": "0x43926da4",
      "from": "0x764693dd666e8dd9275cde8f05c6b07446b1d941",
      "to": "0x5f5e7ec4b245c571edfa8fcd81a09b9311b769b1",
      "contractAddress": null
    },
    {
      "status": "0x1",
      "cumulativeGasUsed": "0x18cf229",
      "logs": [
        {
          "address": "0xd8ed4a9317585bd8ce8ef7524c313f25373d1739",
          "topics": [
            "0xddf252ad1be2c89b69c2b068fc378daa952ba7f163c4a11628f55a4df523b3ef",
            "0x000000000000000000000000764693dd666e8dd9275cde8f05c6b07446b1d941",
            "0x0000000000000000000000005f5e7ec4b245c571edfa8fcd81a09b9311b769b1"
          ],
          "data": "0x0000000000000000000000000000000000000000000000000000417bce6c8000",
          "blockHash": "0xa1ce8289a4a4b4d84889f554c2db607f5f10f61ff943b2bfc637cceb8b99d468",
          "blockNumber": "0x5dcf0e",
          "transactionHash": "0xb5c546853418b1ea8c366341354d0c294669dcf1f7a7d7f0633126ed221512a5",
          "transactionIndex": "0x44",
          "logIndex": "0xbf",
          "removed": false
        },
        {
          "address": "0xd8ed4a9317585bd8ce8ef7524c313f25373d1739",
          "topics": [
            "0xddf252ad1be2c89b69c2b068fc378daa952ba7f163c4a11628f55a4df523b3ef",
            "0x0000000000000000000000005f5e7ec4b245c571edfa8fcd81a09b9311b769b1",
            "0x000000000000000000000000764693dd666e8dd9275cde8f05c6b07446b1d941"
          ],
          "data": "0x0000000000000000000000000000000000000000000000000000417bce6c7c18",
          "blockHash": "0xa1ce8289a4a4b4d84889f554c2db607f5f10f61ff943b2bfc637cceb8b99d468",
          "blockNumber": "0x5dcf0e",
          "transactionHash": "0xb5c546853418b1ea8c366341354d0c294669dcf1f7a7d7f0633126ed221512a5",
          "transactionIndex": "0x44",
          "logIndex": "0xc0",
          "removed": false
        },
        {
          "address": "0x5f5e7ec4b245c571edfa8fcd81a09b9311b769b1",
          "topics": [
            "0x1a777a4e69f842f69af228bdecb2e58e1ab9d68e3c8694533ddb6ff9dd243f82",
            "0x0000000000000000000000000000000000000000000000000000000000000006",
            "0x000000000000000000000000764693dd666e8dd9275cde8f05c6b07446b1d941"
          ],
          "data": "0x",
          "blockHash": "0xa1ce8289a4a4b4d84889f554c2db607f5f10f61ff943b2bfc637cceb8b99d468",
          "blockNumber": "0x5dcf0e",
          "transactionHash": "0xb5c546853418b1ea8c366341354d0c294669dcf1f7a7d7f0633126ed221512a5",
          "transactionIndex": "0x44",
          "logIndex": "0xc1",
          "removed": false
        }
      ],
      "logsBloom": "0x00000000000000100000000000000000800000000000000000000000004000000000000000000000000000000000000000000000000400000000000000000000000000000000000004000088000000000000000000000000000000000000000000000000000000000000000000800000000800000000000000000010000000000000000400000000000000000000000000000000000200000000000000080000000000000000080000000000000000000000000000000000000000080040000000000002000000000000000000000000000000000000000000000000000000000000020008000000020000000000000000000000000800000000000000000000",
      "type": "0x2",
      "transactionHash": "0xb5c546853418b1ea8c366341354d0c294669dcf1f7a7d7f0633126ed221512a5",
      "transactionIndex": "0x44",
      "blockHash": "0xa1ce8289a4a4b4d84889f554c2db607f5f10f61ff943b2bfc637cceb8b99d468",
      "blockNumber": "0x5dcf0e",
      "gasUsed": "0x1a050",
      "effectiveGasPrice": "0x43926da4",
      "from": "0x764693dd666e8dd9275cde8f05c6b07446b1d941",
      "to": "0x5f5e7ec4b245c571edfa8fcd81a09b9311b769b1",
      "contractAddress": null
    },
    {
      "status": "0x1",
      "cumulativeGasUsed": "0x18e9279",
      "logs": [
        {
          "address": "0xd8ed4a9317585bd8ce8ef7524c313f25373d1739",
          "topics": [
            "0xddf252ad1be2c89b69c2b068fc378daa952ba7f163c4a11628f55a4df523b3ef",
            "0x000000000000000000000000764693dd666e8dd9275cde8f05c6b07446b1d941",
            "0x0000000000000000000000005f5e7ec4b245c571edfa8fcd81a09b9311b769b1"
          ],
          "data": "0x0000000000000000000000000000000000000000000000000000417bce6c8000",
          "blockHash": "0xa1ce8289a4a4b4d84889f554c2db607f5f10f61ff943b2bfc637cceb8b99d468",
          "blockNumber": "0x5dcf0e",
          "transactionHash": "0xd65ae2961374f3f4353060fdcb523319c0393bea7474980fe867cb8d50d7921a",
          "transactionIndex": "0x45",
          "logIndex": "0xc2",
          "removed": false
        },
        {
          "address": "0xd8ed4a9317585bd8ce8ef7524c313f25373d1739",
          "topics": [
            "0xddf252ad1be2c89b69c2b068fc378daa952ba7f163c4a11628f55a4df523b3ef",
            "0x0000000000000000000000005f5e7ec4b245c571edfa8fcd81a09b9311b769b1",
            "0x000000000000000000000000764693dd666e8dd9275cde8f05c6b07446b1d941"
          ],
          "data": "0x0000000000000000000000000000000000000000000000000000417bce6c7c18",
          "blockHash": "0xa1ce8289a4a4b4d84889f554c2db607f5f10f61ff943b2bfc637cceb8b99d468",
          "blockNumber": "0x5dcf0e",
          "transactionHash": "0xd65ae2961374f3f4353060fdcb523319c0393bea7474980fe867cb8d50d7921a",
          "transactionIndex": "0x45",
          "logIndex": "0xc3",
          "removed": false
        },
        {
          "address": "0x5f5e7ec4b245c571edfa8fcd81a09b9311b769b1",
          "topics": [
            "0x1a777a4e69f842f69af228bdecb2e58e1ab9d68e3c8694533ddb6ff9dd243f82",
            "0x0000000000000000000000000000000000000000000000000000000000000007",
            "0x000000000000000000000000764693dd666e8dd9275cde8f05c6b07446b1d941"
          ],
          "data": "0x",
          "blockHash": "0xa1ce8289a4a4b4d84889f554c2db607f5f10f61ff943b2bfc637cceb8b99d468",
          "blockNumber": "0x5dcf0e",
          "transactionHash": "0xd65ae2961374f3f4353060fdcb523319c0393bea7474980fe867cb8d50d7921a",
          "transactionIndex": "0x45",
          "logIndex": "0xc4",
          "removed": false
        }
      ],
      "logsBloom": "0x00000000000000100000000000000000800000000000000000000000004000000000000000000000000000000000000000001000000000000000000000000000000020000000000004000088000000000000000000000000000000000000000000000000000000000000000000800000000800000000000000000010000000000000000000000000000000000000000000000000000200000000000000080000000000000000080000000000000000000000000000000000000000000040000000000002000000000000000000000000000000000000000000000100000000000000020008000000020000000000000000000000000800000000000000000000",
      "type": "0x2",
      "transactionHash": "0xd65ae2961374f3f4353060fdcb523319c0393bea7474980fe867cb8d50d7921a",
      "transactionIndex": "0x45",
      "blockHash": "0xa1ce8289a4a4b4d84889f554c2db607f5f10f61ff943b2bfc637cceb8b99d468",
      "blockNumber": "0x5dcf0e",
      "gasUsed": "0x1a050",
      "effectiveGasPrice": "0x43926da4",
      "from": "0x764693dd666e8dd9275cde8f05c6b07446b1d941",
      "to": "0x5f5e7ec4b245c571edfa8fcd81a09b9311b769b1",
      "contractAddress": null
    },
    {
      "status": "0x1",
      "cumulativeGasUsed": "0x19032c9",
      "logs": [
        {
          "address": "0xd8ed4a9317585bd8ce8ef7524c313f25373d1739",
          "topics": [
            "0xddf252ad1be2c89b69c2b068fc378daa952ba7f163c4a11628f55a4df523b3ef",
            "0x000000000000000000000000764693dd666e8dd9275cde8f05c6b07446b1d941",
            "0x0000000000000000000000005f5e7ec4b245c571edfa8fcd81a09b9311b769b1"
          ],
          "data": "0x0000000000000000000000000000000000000000000000000000417bce6c8000",
          "blockHash": "0xa1ce8289a4a4b4d84889f554c2db607f5f10f61ff943b2bfc637cceb8b99d468",
          "blockNumber": "0x5dcf0e",
          "transactionHash": "0xeeae8602afb6f59b1ac4200ec807937b3526643b182c47d6290c5386940fa6f2",
          "transactionIndex": "0x46",
          "logIndex": "0xc5",
          "removed": false
        },
        {
          "address": "0xd8ed4a9317585bd8ce8ef7524c313f25373d1739",
          "topics": [
            "0xddf252ad1be2c89b69c2b068fc378daa952ba7f163c4a11628f55a4df523b3ef",
            "0x0000000000000000000000005f5e7ec4b245c571edfa8fcd81a09b9311b769b1",
            "0x000000000000000000000000764693dd666e8dd9275cde8f05c6b07446b1d941"
          ],
          "data": "0x0000000000000000000000000000000000000000000000000000417bce6c7c18",
          "blockHash": "0xa1ce8289a4a4b4d84889f554c2db607f5f10f61ff943b2bfc637cceb8b99d468",
          "blockNumber": "0x5dcf0e",
          "transactionHash": "0xeeae8602afb6f59b1ac4200ec807937b3526643b182c47d6290c5386940fa6f2",
          "transactionIndex": "0x46",
          "logIndex": "0xc6",
          "removed": false
        },
        {
          "address": "0x5f5e7ec4b245c571edfa8fcd81a09b9311b769b1",
          "topics": [
            "0x1a777a4e69f842f69af228bdecb2e58e1ab9d68e3c8694533ddb6ff9dd243f82",
            "0x0000000000000000000000000000000000000000000000000000000000000008",
            "0x000000000000000000000000764693dd666e8dd9275cde8f05c6b07446b1d941"
          ],
          "data": "0x",
          "blockHash": "0xa1ce8289a4a4b4d84889f554c2db607f5f10f61ff943b2bfc637cceb8b99d468",
          "blockNumber": "0x5dcf0e",
          "transactionHash": "0xeeae8602afb6f59b1ac4200ec807937b3526643b182c47d6290c5386940fa6f2",
          "transactionIndex": "0x46",
          "logIndex": "0xc7",
          "removed": false
        }
      ],
      "logsBloom": "0x00000000000000100000000000000000800000000000000000000000004000000000000000000000000000000000000000000000000080000000000000000000000000000000000004000088000000000000000000000000000000000000000000000000000000000000000000800000000800000000000000000010000000000080000000000000000000000000000000000000000200000000000000080000000000000000080000000000000000000000000000000000000000000040000040000002000000000000000000000000000000000000000000000000000000000000020008000000020000000000000000000000000800000000000000000000",
      "type": "0x2",
      "transactionHash": "0xeeae8602afb6f59b1ac4200ec807937b3526643b182c47d6290c5386940fa6f2",
      "transactionIndex": "0x46",
      "blockHash": "0xa1ce8289a4a4b4d84889f554c2db607f5f10f61ff943b2bfc637cceb8b99d468",
      "blockNumber": "0x5dcf0e",
      "gasUsed": "0x1a050",
      "effectiveGasPrice": "0x43926da4",
      "from": "0x764693dd666e8dd9275cde8f05c6b07446b1d941",
      "to": "0x5f5e7ec4b245c571edfa8fcd81a09b9311b769b1",
      "contractAddress": null
    },
    {
      "status": "0x1",
      "cumulativeGasUsed": "0x191d319",
      "logs": [
        {
          "address": "0xd8ed4a9317585bd8ce8ef7524c313f25373d1739",
          "topics": [
            "0xddf252ad1be2c89b69c2b068fc378daa952ba7f163c4a11628f55a4df523b3ef",
            "0x000000000000000000000000764693dd666e8dd9275cde8f05c6b07446b1d941",
            "0x0000000000000000000000005f5e7ec4b245c571edfa8fcd81a09b9311b769b1"
          ],
          "data": "0x0000000000000000000000000000000000000000000000000000417bce6c8000",
          "blockHash": "0xa1ce8289a4a4b4d84889f554c2db607f5f10f61ff943b2bfc637cceb8b99d468",
          "blockNumber": "0x5dcf0e",
          "transactionHash": "0xac5e1814758f30da9b4bac1c1a12989b5698cbae146a4ce9ae1f7c4a253a0214",
          "transactionIndex": "0x47",
          "logIndex": "0xc8",
          "removed": false
        },
        {
          "address": "0xd8ed4a9317585bd8ce8ef7524c313f25373d1739",
          "topics": [
            "0xddf252ad1be2c89b69c2b068fc378daa952ba7f163c4a11628f55a4df523b3ef",
            "0x0000000000000000000000005f5e7ec4b245c571edfa8fcd81a09b9311b769b1",
            "0x000000000000000000000000764693dd666e8dd9275cde8f05c6b07446b1d941"
          ],
          "data": "0x0000000000000000000000000000000000000000000000000000417bce6c7c18",
          "blockHash": "0xa1ce8289a4a4b4d84889f554c2db607f5f10f61ff943b2bfc637cceb8b99d468",
          "blockNumber": "0x5dcf0e",
          "transactionHash": "0xac5e1814758f30da9b4bac1c1a12989b5698cbae146a4ce9ae1f7c4a253a0214",
          "transactionIndex": "0x47",
          "logIndex": "0xc9",
          "removed": false
        },
        {
          "address": "0x5f5e7ec4b245c571edfa8fcd81a09b9311b769b1",
          "topics": [
            "0x1a777a4e69f842f69af228bdecb2e58e1ab9d68e3c8694533ddb6ff9dd243f82",
            "0x0000000000000000000000000000000000000000000000000000000000000009",
            "0x000000000000000000000000764693dd666e8dd9275cde8f05c6b07446b1d941"
          ],
          "data": "0x",
          "blockHash": "0xa1ce8289a4a4b4d84889f554c2db607f5f10f61ff943b2bfc637cceb8b99d468",
          "blockNumber": "0x5dcf0e",
          "transactionHash": "0xac5e1814758f30da9b4bac1c1a12989b5698cbae146a4ce9ae1f7c4a253a0214",
          "transactionIndex": "0x47",
          "logIndex": "0xca",
          "removed": false
        }
      ],
      "logsBloom": "0x00000000000000100000000000000000800000000000000000000000004000000000000000000000000000000000000000000000000000000000000000200000000000000000000004000088000000000000000000000000000000000000000000000000000000000000000000800000000800000000000000000010000000000000000000000000000000000000000000001000000200000000000000080000000000000000080000000000000000000000000000000000000000000040000000000002000000000000000000000000000000000000000000000000000000000000020008000000020000000000000000000000000800000000000000800000",
      "type": "0x2",
      "transactionHash": "0xac5e1814758f30da9b4bac1c1a12989b5698cbae146a4ce9ae1f7c4a253a0214",
      "transactionIndex": "0x47",
      "blockHash": "0xa1ce8289a4a4b4d84889f554c2db607f5f10f61ff943b2bfc637cceb8b99d468",
      "blockNumber": "0x5dcf0e",
      "gasUsed": "0x1a050",
      "effectiveGasPrice": "0x43926da4",
      "from": "0x764693dd666e8dd9275cde8f05c6b07446b1d941",
      "to": "0x5f5e7ec4b245c571edfa8fcd81a09b9311b769b1",
      "contractAddress": null
    },
    {
      "status": "0x1",
      "cumulativeGasUsed": "0x1937369",
      "logs": [
        {
          "address": "0xd8ed4a9317585bd8ce8ef7524c313f25373d1739",
          "topics": [
            "0xddf252ad1be2c89b69c2b068fc378daa952ba7f163c4a11628f55a4df523b3ef",
            "0x000000000000000000000000764693dd666e8dd9275cde8f05c6b07446b1d941",
            "0x0000000000000000000000005f5e7ec4b245c571edfa8fcd81a09b9311b769b1"
          ],
          "data": "0x0000000000000000000000000000000000000000000000000000417bce6c8000",
          "blockHash": "0xa1ce8289a4a4b4d84889f554c2db607f5f10f61ff943b2bfc637cceb8b99d468",
          "blockNumber": "0x5dcf0e",
          "transactionHash": "0xd3266a2ff68db693ca4cd5ac13e767219f780528b0921fca61eca8f9bc439740",
          "transactionIndex": "0x48",
          "logIndex": "0xcb",
          "removed": false
        },
        {
          "address": "0xd8ed4a9317585bd8ce8ef7524c313f25373d1739",
          "topics": [
            "0xddf252ad1be2c89b69c2b068fc378daa952ba7f163c4a11628f55a4df523b3ef",
            "0x0000000000000000000000005f5e7ec4b245c571edfa8fcd81a09b9311b769b1",
            "0x000000000000000000000000764693dd666e8dd9275cde8f05c6b07446b1d941"
          ],
          "data": "0x0000000000000000000000000000000000000000000000000000417bce6c7c18",
          "blockHash": "0xa1ce8289a4a4b4d84889f554c2db607f5f10f61ff943b2bfc637cceb8b99d468",
          "blockNumber": "0x5dcf0e",
          "transactionHash": "0xd3266a2ff68db693ca4cd5ac13e767219f780528b0921fca61eca8f9bc439740",
          "transactionIndex": "0x48",
          "logIndex": "0xcc",
          "removed": false
        },
        {
          "address": "0x5f5e7ec4b245c571edfa8fcd81a09b9311b769b1",
          "topics": [
            "0x1a777a4e69f842f69af228bdecb2e58e1ab9d68e3c8694533ddb6ff9dd243f82",
            "0x000000000000000000000000000000000000000000000000000000000000000a",
            "0x000000000000000000000000764693dd666e8dd9275cde8f05c6b07446b1d941"
          ],
          "data": "0x",
          "blockHash": "0xa1ce8289a4a4b4d84889f554c2db607f5f10f61ff943b2bfc637cceb8b99d468",
          "blockNumber": "0x5dcf0e",
          "transactionHash": "0xd3266a2ff68db693ca4cd5ac13e767219f780528b0921fca61eca8f9bc439740",
          "transactionIndex": "0x48",
          "logIndex": "0xcd",
          "removed": false
        }
      ],
      "logsBloom": "0x00000000000000100000000000000000800000000000000000000000004000000000000000000000000000000000000000000000040000000020000000000000000000000000000004000088000000000000000000000000000000000000000000000000000000000000000000800000000800000000000000000010000000000000000000000000010000000000000000000000000200000000000000080000000000000000080000000000000000000000000000000000000000000040000000000002000000000000000000000000000000000000000000000000000000000000020008000000020000000000000000000000000800000000000000000000",
      "type": "0x2",
      "transactionHash": "0xd3266a2ff68db693ca4cd5ac13e767219f780528b0921fca61eca8f9bc439740",
      "transactionIndex": "0x48",
      "blockHash": "0xa1ce8289a4a4b4d84889f554c2db607f5f10f61ff943b2bfc637cceb8b99d468",
      "blockNumber": "0x5dcf0e",
      "gasUsed": "0x1a050",
      "effectiveGasPrice": "0x43926da4",
      "from": "0x764693dd666e8dd9275cde8f05c6b07446b1d941",
      "to": "0x5f5e7ec4b245c571edfa8fcd81a09b9311b769b1",
      "contractAddress": null
    },
    {
      "status": "0x1",
      "cumulativeGasUsed": "0x193f229",
      "logs": [
        {
          "address": "0x5f5e7ec4b245c571edfa8fcd81a09b9311b769b1",
          "topics": [
            "0x484d6a78aff107b13227d3005e91c4967e9d387e9c8b44953f3f95f18308a926",
            "0x0000000000000000000000000000000000000000000000000000000000000001"
          ],
          "data": "0x",
          "blockHash": "0xa1ce8289a4a4b4d84889f554c2db607f5f10f61ff943b2bfc637cceb8b99d468",
          "blockNumber": "0x5dcf0e",
          "transactionHash": "0x33e37a87b2e62e53490563bd872951f03fd77d61c235d444f306bc841eff9391",
          "transactionIndex": "0x49",
          "logIndex": "0xce",
          "removed": false
        }
      ],
      "logsBloom": "0x00000000000000100000000000000000000000000000000000000000000000000000000000000000000000000000000000000000000000000000000000040000000000000000000000000000000000000000000000040000000000000000000000000000000000000000000000000020000000000000000000000000000000000000000000000000000000000000000000000000000000000000000000080000000000000000080000000000000000000008000000000000000000000000000000000000000000000000000000000000000000000000000000000000000040040000000000000000000000000000000000000000000000000000000000000000",
      "type": "0x2",
      "transactionHash": "0x33e37a87b2e62e53490563bd872951f03fd77d61c235d444f306bc841eff9391",
      "transactionIndex": "0x49",
      "blockHash": "0xa1ce8289a4a4b4d84889f554c2db607f5f10f61ff943b2bfc637cceb8b99d468",
      "blockNumber": "0x5dcf0e",
      "gasUsed": "0x7ec0",
      "effectiveGasPrice": "0x43926da4",
      "from": "0x764693dd666e8dd9275cde8f05c6b07446b1d941",
      "to": "0x5f5e7ec4b245c571edfa8fcd81a09b9311b769b1",
      "contractAddress": null
    },
    {
      "status": "0x1",
      "cumulativeGasUsed": "0x19470e9",
      "logs": [
        {
          "address": "0x5f5e7ec4b245c571edfa8fcd81a09b9311b769b1",
          "topics": [
            "0x484d6a78aff107b13227d3005e91c4967e9d387e9c8b44953f3f95f18308a926",
            "0x0000000000000000000000000000000000000000000000000000000000000003"
          ],
          "data": "0x",
          "blockHash": "0xa1ce8289a4a4b4d84889f554c2db607f5f10f61ff943b2bfc637cceb8b99d468",
          "blockNumber": "0x5dcf0e",
          "transactionHash": "0x98676b0d7a0a2eef3bcc2558680c0cb412d4b40a7492065d1663590ae1042df8",
          "transactionIndex": "0x4a",
          "logIndex": "0xcf",
          "removed": false
        }
      ],
      "logsBloom": "0x00000000000000100000000000000000000000000000000000000000000000000000000000000000000000000000000000000000020000000000000000000000000000000000000000000000000000000000000000000000000000000000000000000000000000000000000000000020000000000000000000000000000000000000000000000000000000000000000000000000000000000000000000080000000000000000080000000000000000000008000000800000000000000000400000000000000000000000000000000000000000000000000000000000000000040000000000000000000000000000000000000000000000000000000000000000",
      "type": "0x2",
      "transactionHash": "0x98676b0d7a0a2eef3bcc2558680c0cb412d4b40a7492065d1663590ae1042df8",
      "transactionIndex": "0x4a",
      "blockHash": "0xa1ce8289a4a4b4d84889f554c2db607f5f10f61ff943b2bfc637cceb8b99d468",
      "blockNumber": "0x5dcf0e",
      "gasUsed": "0x7ec0",
      "effectiveGasPrice": "0x43926da4",
      "from": "0x764693dd666e8dd9275cde8f05c6b07446b1d941",
      "to": "0x5f5e7ec4b245c571edfa8fcd81a09b9311b769b1",
      "contractAddress": null
    }
  ],
  "libraries": [],
  "pending": [],
  "returns": {},
  "timestamp": 1718890308,
  "chain": 11155111,
  "commit": "8fce21c"
}