{
  "transactions": [
    {
      "hash": "0xccec439900da2240e19d755a4e4e8c7bea12a876004224416ccf014a7926e94d",
      "transactionType": "CALL",
      "contractName": null,
      "contractAddress": "0xfd57931425e1da4257500a5b168fe5c975b97c52",
      "function": "transfer(address,uint256)",
      "arguments": [
        "0x2D9cB5c5733138e54Ec5E78C6553E6E145C2351C",
        "1000000000000000000000"
      ],
      "transaction": {
        "from": "0x764693dd666e8dd9275cde8f05c6b07446b1d941",
        "to": "0xfd57931425e1da4257500a5b168fe5c975b97c52",
        "gas": "0xba51",
        "value": "0x0",
        "input": "0xa9059cbb0000000000000000000000002d9cb5c5733138e54ec5e78c6553e6e145c2351c00000000000000000000000000000000000000000000003635c9adc5dea00000",
        "nonce": "0x140",
        "chainId": "0xaa36a7"
      },
      "additionalContracts": [],
      "isFixedGasLimit": false
    }
  ],
  "receipts": [
    {
      "status": "0x1",
      "cumulativeGasUsed": "0x622d35",
      "logs": [
        {
          "address": "0xfd57931425e1da4257500a5b168fe5c975b97c52",
          "topics": [
            "0xddf252ad1be2c89b69c2b068fc378daa952ba7f163c4a11628f55a4df523b3ef",
            "0x000000000000000000000000764693dd666e8dd9275cde8f05c6b07446b1d941",
            "0x0000000000000000000000002d9cb5c5733138e54ec5e78c6553e6e145c2351c"
          ],
          "data": "0x00000000000000000000000000000000000000000000003635c9adc5dea00000",
          "blockHash": "0x086bba0506320bbd878637d689c0d6f0af3c99e903da7063b013275153d9dc65",
          "blockNumber": "0x5dbdb0",
          "transactionHash": "0xccec439900da2240e19d755a4e4e8c7bea12a876004224416ccf014a7926e94d",
          "transactionIndex": "0x36",
          "logIndex": "0x3b",
          "removed": false
        }
      ],
      "logsBloom": "0x00000000000000000000000000000000800000000000000000000000004000000000000000000000000000000000000000000000000000000000000000000000000000000000000000000088000000000000000000000000000000000000000000000000000000000000000000000000000400000000000000000010000000000000000040000000000000000000000000000000000000000000000000000000000000004000000000000000000000000000000000000000000000000000000200000002000000000000000000000000000000000000000000000000000000000000800000000000000000000000000000000400000000000000000000000000",
      "type": "0x2",
      "transactionHash": "0xccec439900da2240e19d755a4e4e8c7bea12a876004224416ccf014a7926e94d",
      "transactionIndex": "0x36",
      "blockHash": "0x086bba0506320bbd878637d689c0d6f0af3c99e903da7063b013275153d9dc65",
      "blockNumber": "0x5dbdb0",
      "gasUsed": "0x86e4",
      "effectiveGasPrice": "0x11f07b",
      "from": "0x764693dd666e8dd9275cde8f05c6b07446b1d941",
      "to": "0xfd57931425e1da4257500a5b168fe5c975b97c52",
      "contractAddress": null
    }
  ],
  "libraries": [],
  "pending": [],
  "returns": {},
  "timestamp": 1718836889,
  "chain": 11155111,
  "commit": "02b8d64"
}