{
  "transactions": [
    {
      "hash": null,
      "transactionType": "CALL",
      "contractName": null,
      "contractAddress": "0xefce5726631051a4ea3a8483d79e69f8fe0aa12a",
      "function": "verifyAndMintParkingSpace(uint256,uint256)",
      "arguments": [
        "10000000000",
        "10000000000"
      ],
      "transaction": {
        "from": "0x764693dd666e8dd9275cde8f05c6b07446b1d941",
        "to": "0xefce5726631051a4ea3a8483d79e69f8fe0aa12a",
        "gas": "0x433a2",
        "value": "0x0",
        "input": "0xe0bddcd900000000000000000000000000000000000000000000000000000002540be40000000000000000000000000000000000000000000000000000000002540be400",
        "nonce": "0x179",
        "chainId": "0xaa36a7"
      },
      "additionalContracts": [],
      "isFixedGasLimit": false
    },
    {
      "hash": null,
      "transactionType": "CALL",
      "contractName": null,
      "contractAddress": "0xefce5726631051a4ea3a8483d79e69f8fe0aa12a",
      "function": "verifyAndMintParkingSpace(uint256,uint256)",
      "arguments": [
        "10000000000",
        "10000000000"
      ],
      "transaction": {
        "from": "0x764693dd666e8dd9275cde8f05c6b07446b1d941",
        "to": "0xefce5726631051a4ea3a8483d79e69f8fe0aa12a",
        "gas": "0x433a2",
        "value": "0x0",
        "input": "0xe0bddcd900000000000000000000000000000000000000000000000000000002540be40000000000000000000000000000000000000000000000000000000002540be400",
        "nonce": "0x17a",
        "chainId": "0xaa36a7"
      },
      "additionalContracts": [],
      "isFixedGasLimit": false
    },
    {
      "hash": null,
      "transactionType": "CALL",
      "contractName": null,
      "contractAddress": "0xefce5726631051a4ea3a8483d79e69f8fe0aa12a",
      "function": "verifyAndMintParkingSpace(uint256,uint256)",
      "arguments": [
        "10000000000",
        "10000000000"
      ],
      "transaction": {
        "from": "0x764693dd666e8dd9275cde8f05c6b07446b1d941",
        "to": "0xefce5726631051a4ea3a8483d79e69f8fe0aa12a",
        "gas": "0x433a2",
        "value": "0x0",
        "input": "0xe0bddcd900000000000000000000000000000000000000000000000000000002540be40000000000000000000000000000000000000000000000000000000002540be400",
        "nonce": "0x17b",
        "chainId": "0xaa36a7"
      },
      "additionalContracts": [],
      "isFixedGasLimit": false
    },
    {
      "hash": null,
      "transactionType": "CALL",
      "contractName": null,
      "contractAddress": "0xefce5726631051a4ea3a8483d79e69f8fe0aa12a",
      "function": "verifyAndMintParkingSpace(uint256,uint256)",
      "arguments": [
        "10000000000",
        "10000000000"
      ],
      "transaction": {
        "from": "0x764693dd666e8dd9275cde8f05c6b07446b1d941",
        "to": "0xefce5726631051a4ea3a8483d79e69f8fe0aa12a",
        "gas": "0x433a2",
        "value": "0x0",
        "input": "0xe0bddcd900000000000000000000000000000000000000000000000000000002540be40000000000000000000000000000000000000000000000000000000002540be400",
        "nonce": "0x17c",
        "chainId": "0xaa36a7"
      },
      "additionalContracts": [],
      "isFixedGasLimit": false
    },
    {
      "hash": null,
      "transactionType": "CALL",
      "contractName": null,
      "contractAddress": "0xefce5726631051a4ea3a8483d79e69f8fe0aa12a",
      "function": "verifyAndMintParkingSpace(uint256,uint256)",
      "arguments": [
        "10000000000",
        "10000000000"
      ],
      "transaction": {
        "from": "0x764693dd666e8dd9275cde8f05c6b07446b1d941",
        "to": "0xefce5726631051a4ea3a8483d79e69f8fe0aa12a",
        "gas": "0x433a2",
        "value": "0x0",
        "input": "0xe0bddcd900000000000000000000000000000000000000000000000000000002540be40000000000000000000000000000000000000000000000000000000002540be400",
        "nonce": "0x17d",
        "chainId": "0xaa36a7"
      },
      "additionalContracts": [],
      "isFixedGasLimit": false
    },
    {
      "hash": null,
      "transactionType": "CALL",
      "contractName": null,
      "contractAddress": "0xefce5726631051a4ea3a8483d79e69f8fe0aa12a",
      "function": "verifyAndMintParkingSpace(uint256,uint256)",
      "arguments": [
        "10000000000",
        "10000000000"
      ],
      "transaction": {
        "from": "0x764693dd666e8dd9275cde8f05c6b07446b1d941",
        "to": "0xefce5726631051a4ea3a8483d79e69f8fe0aa12a",
        "gas": "0x433a2",
        "value": "0x0",
        "input": "0xe0bddcd900000000000000000000000000000000000000000000000000000002540be40000000000000000000000000000000000000000000000000000000002540be400",
        "nonce": "0x17e",
        "chainId": "0xaa36a7"
      },
      "additionalContracts": [],
      "isFixedGasLimit": false
    },
    {
      "hash": null,
      "transactionType": "CALL",
      "contractName": null,
      "contractAddress": "0xefce5726631051a4ea3a8483d79e69f8fe0aa12a",
      "function": "verifyAndMintParkingSpace(uint256,uint256)",
      "arguments": [
        "10000000000",
        "10000000000"
      ],
      "transaction": {
        "from": "0x764693dd666e8dd9275cde8f05c6b07446b1d941",
        "to": "0xefce5726631051a4ea3a8483d79e69f8fe0aa12a",
        "gas": "0x433a2",
        "value": "0x0",
        "input": "0xe0bddcd900000000000000000000000000000000000000000000000000000002540be40000000000000000000000000000000000000000000000000000000002540be400",
        "nonce": "0x17f",
        "chainId": "0xaa36a7"
      },
      "additionalContracts": [],
      "isFixedGasLimit": false
    },
    {
      "hash": null,
      "transactionType": "CALL",
      "contractName": null,
      "contractAddress": "0xefce5726631051a4ea3a8483d79e69f8fe0aa12a",
      "function": "verifyAndMintParkingSpace(uint256,uint256)",
      "arguments": [
        "10000000000",
        "10000000000"
      ],
      "transaction": {
        "from": "0x764693dd666e8dd9275cde8f05c6b07446b1d941",
        "to": "0xefce5726631051a4ea3a8483d79e69f8fe0aa12a",
        "gas": "0x433a2",
        "value": "0x0",
        "input": "0xe0bddcd900000000000000000000000000000000000000000000000000000002540be40000000000000000000000000000000000000000000000000000000002540be400",
        "nonce": "0x180",
        "chainId": "0xaa36a7"
      },
      "additionalContracts": [],
      "isFixedGasLimit": false
    },
    {
      "hash": null,
      "transactionType": "CALL",
      "contractName": null,
      "contractAddress": "0xefce5726631051a4ea3a8483d79e69f8fe0aa12a",
      "function": "verifyAndMintParkingSpace(uint256,uint256)",
      "arguments": [
        "10000000000",
        "10000000000"
      ],
      "transaction": {
        "from": "0x764693dd666e8dd9275cde8f05c6b07446b1d941",
        "to": "0xefce5726631051a4ea3a8483d79e69f8fe0aa12a",
        "gas": "0x433a2",
        "value": "0x0",
        "input": "0xe0bddcd900000000000000000000000000000000000000000000000000000002540be40000000000000000000000000000000000000000000000000000000002540be400",
        "nonce": "0x181",
        "chainId": "0xaa36a7"
      },
      "additionalContracts": [],
      "isFixedGasLimit": false
    },
    {
      "hash": null,
      "transactionType": "CALL",
      "contractName": null,
      "contractAddress": "0xefce5726631051a4ea3a8483d79e69f8fe0aa12a",
      "function": "verifyAndMintParkingSpace(uint256,uint256)",
      "arguments": [
        "10000000000",
        "10000000000"
      ],
      "transaction": {
        "from": "0x764693dd666e8dd9275cde8f05c6b07446b1d941",
        "to": "0xefce5726631051a4ea3a8483d79e69f8fe0aa12a",
        "gas": "0x433a2",
        "value": "0x0",
        "input": "0xe0bddcd900000000000000000000000000000000000000000000000000000002540be40000000000000000000000000000000000000000000000000000000002540be400",
        "nonce": "0x182",
        "chainId": "0xaa36a7"
      },
      "additionalContracts": [],
      "isFixedGasLimit": false
    },
    {
      "hash": null,
      "transactionType": "CALL",
      "contractName": null,
      "contractAddress": "0xefce5726631051a4ea3a8483d79e69f8fe0aa12a",
      "function": "verifyAndMintParkingSpace(uint256,uint256)",
      "arguments": [
        "10000000000",
        "10000000000"
      ],
      "transaction": {
        "from": "0x764693dd666e8dd9275cde8f05c6b07446b1d941",
        "to": "0xefce5726631051a4ea3a8483d79e69f8fe0aa12a",
        "gas": "0x433a2",
        "value": "0x0",
        "input": "0xe0bddcd900000000000000000000000000000000000000000000000000000002540be40000000000000000000000000000000000000000000000000000000002540be400",
        "nonce": "0x183",
        "chainId": "0xaa36a7"
      },
      "additionalContracts": [],
      "isFixedGasLimit": false
    },
    {
      "hash": null,
      "transactionType": "CALL",
      "contractName": null,
      "contractAddress": "0xefce5726631051a4ea3a8483d79e69f8fe0aa12a",
      "function": "verifyAndMintParkingSpace(uint256,uint256)",
      "arguments": [
        "10000000000",
        "10000000000"
      ],
      "transaction": {
        "from": "0x764693dd666e8dd9275cde8f05c6b07446b1d941",
        "to": "0xefce5726631051a4ea3a8483d79e69f8fe0aa12a",
        "gas": "0x433a2",
        "value": "0x0",
        "input": "0xe0bddcd900000000000000000000000000000000000000000000000000000002540be40000000000000000000000000000000000000000000000000000000002540be400",
        "nonce": "0x184",
        "chainId": "0xaa36a7"
      },
      "additionalContracts": [],
      "isFixedGasLimit": false
    },
    {
      "hash": null,
      "transactionType": "CALL",
      "contractName": null,
      "contractAddress": "0xefce5726631051a4ea3a8483d79e69f8fe0aa12a",
      "function": "verifyAndMintMembership()",
      "arguments": [],
      "transaction": {
        "from": "0x764693dd666e8dd9275cde8f05c6b07446b1d941",
        "to": "0xefce5726631051a4ea3a8483d79e69f8fe0aa12a",
        "gas": "0x1f6c1",
        "value": "0x0",
        "input": "0xf62c28cf",
        "nonce": "0x185",
        "chainId": "0xaa36a7"
      },
      "additionalContracts": [],
      "isFixedGasLimit": false
    },
    {
      "hash": null,
      "transactionType": "CALL",
      "contractName": null,
      "contractAddress": "0xd8ed4a9317585bd8ce8ef7524c313f25373d1739",
      "function": "approve(address,uint256)",
      "arguments": [
        "0xEfCe5726631051A4Ea3A8483D79E69F8Fe0aa12A",
        "115792089237316195423570985008687907853269984665640564039457584007913129639935"
      ],
      "transaction": {
        "from": "0x764693dd666e8dd9275cde8f05c6b07446b1d941",
        "to": "0xd8ed4a9317585bd8ce8ef7524c313f25373d1739",
        "gas": "0x9080",
        "value": "0x0",
        "input": "0x095ea7b3000000000000000000000000efce5726631051a4ea3a8483d79e69f8fe0aa12affffffffffffffffffffffffffffffffffffffffffffffffffffffffffffffff",
        "nonce": "0x186",
        "chainId": "0xaa36a7"
      },
      "additionalContracts": [],
      "isFixedGasLimit": false
    },
    {
      "hash": null,
      "transactionType": "CALL",
      "contractName": null,
      "contractAddress": "0xefce5726631051a4ea3a8483d79e69f8fe0aa12a",
      "function": "checkIn(uint256,uint8,uint256)",
      "arguments": [
        "3",
        "1",
        "259200"
      ],
      "transaction": {
        "from": "0x764693dd666e8dd9275cde8f05c6b07446b1d941",
        "to": "0xefce5726631051a4ea3a8483d79e69f8fe0aa12a",
        "gas": "0x23ddd",
        "value": "0x0",
        "input": "0xa1ae6a2500000000000000000000000000000000000000000000000000000000000000030000000000000000000000000000000000000000000000000000000000000001000000000000000000000000000000000000000000000000000000000003f480",
        "nonce": "0x187",
        "chainId": "0xaa36a7"
      },
      "additionalContracts": [],
      "isFixedGasLimit": false
    }
  ],
  "receipts": [],
  "libraries": [],
  "pending": [],
  "returns": {},
  "timestamp": 1718884197,
  "chain": 11155111,
  "commit": "8fce21c"
}