{
  "transactions": [
    {
      "hash": "0xd925d2b1b45219715f606312c3762407f89ee45b1baba6cbd7619029ed20bc87",
      "transactionType": "CALL",
      "contractName": null,
      "contractAddress": "0x5f7520323ceb32d7ef9b0315796a30b91519dfec",
      "function": "checkOut(uint256)",
      "arguments": [
        "1"
      ],
      "transaction": {
        "from": "0x764693dd666e8dd9275cde8f05c6b07446b1d941",
        "to": "0x5f7520323ceb32d7ef9b0315796a30b91519dfec",
        "gas": "0xaf12",
        "value": "0x0",
        "input": "0x1bd2eeee0000000000000000000000000000000000000000000000000000000000000001",
        "nonce": "0x13e",
        "chainId": "0xaa36a7"
      },
      "additionalContracts": [],
      "isFixedGasLimit": false
    },
    {
      "hash": "0x2d77cef3d8740b5d1e2cbb8b598df230f0ea702f5b949a7acb120b332957dc06",
      "transactionType": "CALL",
      "contractName": null,
      "contractAddress": "0x5f7520323ceb32d7ef9b0315796a30b91519dfec",
      "function": "checkOut(uint256)",
      "arguments": [
        "2"
      ],
      "transaction": {
        "from": "0x764693dd666e8dd9275cde8f05c6b07446b1d941",
        "to": "0x5f7520323ceb32d7ef9b0315796a30b91519dfec",
        "gas": "0xaf12",
        "value": "0x0",
        "input": "0x1bd2eeee0000000000000000000000000000000000000000000000000000000000000002",
        "nonce": "0x13f",
        "chainId": "0xaa36a7"
      },
      "additionalContracts": [],
      "isFixedGasLimit": false
    }
  ],
  "receipts": [
    {
      "status": "0x1",
      "cumulativeGasUsed": "0x643710",
      "logs": [
        {
          "address": "0x5f7520323ceb32d7ef9b0315796a30b91519dfec",
          "topics": [
            "0x484d6a78aff107b13227d3005e91c4967e9d387e9c8b44953f3f95f18308a926",
            "0x0000000000000000000000000000000000000000000000000000000000000001"
          ],
          "data": "0x",
          "blockHash": "0xa2107f5b0c281aae10bb6c20dd6f80ae218c76669de316fa6691cc801f1540eb",
          "blockNumber": "0x5db74d",
          "transactionHash": "0xd925d2b1b45219715f606312c3762407f89ee45b1baba6cbd7619029ed20bc87",
          "transactionIndex": "0x43",
          "logIndex": "0x59",
          "removed": false
        }
      ],
      "logsBloom": "0x00000000000000000000000000000000000000000000000000000000000000000000000000000000000000000000000000000000000000000000000000040000000000000000000000000000000000000000000000040000000000000000000000000000000000000000000000000020000000000000000000000000000000000000000000000000040000000000000000000000000000000000000000000000000000000000000000000000040000000008000000000000000000000000000000000000000000000000000001000000000000000000000000000000000040040000000000000000000000000000000000000000000000000000000000000000",
      "type": "0x2",
      "transactionHash": "0xd925d2b1b45219715f606312c3762407f89ee45b1baba6cbd7619029ed20bc87",
      "transactionIndex": "0x43",
      "blockHash": "0xa2107f5b0c281aae10bb6c20dd6f80ae218c76669de316fa6691cc801f1540eb",
      "blockNumber": "0x5db74d",
      "gasUsed": "0x7ec0",
      "effectiveGasPrice": "0x2d8e446e",
      "from": "0x764693dd666e8dd9275cde8f05c6b07446b1d941",
      "to": "0x5f7520323ceb32d7ef9b0315796a30b91519dfec",
      "contractAddress": null
    },
    {
      "status": "0x1",
      "cumulativeGasUsed": "0x64b5d0",
      "logs": [
        {
          "address": "0x5f7520323ceb32d7ef9b0315796a30b91519dfec",
          "topics": [
            "0x484d6a78aff107b13227d3005e91c4967e9d387e9c8b44953f3f95f18308a926",
            "0x0000000000000000000000000000000000000000000000000000000000000002"
          ],
          "data": "0x",
          "blockHash": "0xa2107f5b0c281aae10bb6c20dd6f80ae218c76669de316fa6691cc801f1540eb",
          "blockNumber": "0x5db74d",
          "transactionHash": "0x2d77cef3d8740b5d1e2cbb8b598df230f0ea702f5b949a7acb120b332957dc06",
          "transactionIndex": "0x44",
          "logIndex": "0x5a",
          "removed": false
        }
      ],
      "logsBloom": "0x04000000000000000000000000000000000000000000000000000000000000000000000000000000000000000000000000000000000000000000000000000000000000000000000000000000000000000000000000000000000000000000000000000000000000000000000000000020000000000000000000000000000000000000000000000000040000000000000000000000000000000000000000000000000000000000000000000100040000000008000000000000000000000000000000000000000000000000000001000000000000000000000000000000000000040000000000000000000000000000000000000000008000000000000000000000",
      "type": "0x2",
      "transactionHash": "0x2d77cef3d8740b5d1e2cbb8b598df230f0ea702f5b949a7acb120b332957dc06",
      "transactionIndex": "0x44",
      "blockHash": "0xa2107f5b0c281aae10bb6c20dd6f80ae218c76669de316fa6691cc801f1540eb",
      "blockNumber": "0x5db74d",
      "gasUsed": "0x7ec0",
      "effectiveGasPrice": "0x2d8e446e",
      "from": "0x764693dd666e8dd9275cde8f05c6b07446b1d941",
      "to": "0x5f7520323ceb32d7ef9b0315796a30b91519dfec",
      "contractAddress": null
    }
  ],
  "libraries": [],
  "pending": [],
  "returns": {},
  "timestamp": 1718817254,
  "chain": 11155111,
  "commit": "02b8d64"
}