{
  "transactions": [
    {
      "hash": "0x7d64aca441d4245b607d1615d868779dc23e759efb38231a21ecdcfc2173e24a",
      "transactionType": "CREATE",
      "contractName": "ParkFi",
      "contractAddress": "0xefce5726631051a4ea3a8483d79e69f8fe0aa12a",
      "function": null,
      "arguments": [
        "0xe37e44964Dad319C6b31D222453b7DDd3b249721",
        "0x6Ec5929e48aD78838155FC8D3C6ed4E3c5BAc111",
        "0xD8ed4a9317585BD8Ce8eF7524C313F25373D1739",
        "1000000000000000",
        "100000000000000000"
      ],
      "transaction": {
        "from": "0x764693dd666e8dd9275cde8f05c6b07446b1d941",
        "gas": "0x16231c",
        "value": "0x0",
        "input": "0x608060405234801561001057600080fd5b5060405161122738038061122783398101604081905261002f91610117565b338061005557604051631e4fbdf760e01b81526000600482015260240160405180910390fd5b61005e816100ab565b50600180546001600160a01b03199081166001600160a01b03978816179091556002805482169587169590951790945560038054909416929094169190911790915560045560055561016d565b600080546001600160a01b038381166001600160a01b0319831681178455604051919092169283917f8be0079c531659141344cd1fd0a4f28419497f9722a3daafe3b4186f6b6457e09190a35050565b80516001600160a01b038116811461011257600080fd5b919050565b600080600080600060a0868803121561012f57600080fd5b610138866100fb565b9450610146602087016100fb565b9350610154604087016100fb565b6060870151608090970151959894975095949392505050565b6110ab8061017c6000396000f3fe608060405234801561001057600080fd5b50600436106100935760003560e01c80639a9f07de116100665780639a9f07de146100ee578063a1ae6a25146100f6578063e0bddcd914610109578063f2fde38b1461011c578063f62c28cf1461012f57600080fd5b80631bd2eeee146100985780633b111731146100ad578063715018a6146100cb5780638da5cb5b146100d3575b600080fd5b6100ab6100a6366004610e10565b610137565b005b6100b56102ec565b6040516100c29190610e61565b60405180910390f35b6100ab610505565b6000546040516001600160a01b0390911681526020016100c2565b6100b5610519565b6100ab610104366004610f0e565b6107a1565b6100ab610117366004610f4a565b610b9c565b6100ab61012a366004610f6c565b610c7f565b6100ab610cc2565b600180546040516370a0823160e01b81523360048201526001600160a01b03909116906370a0823190602401602060405180830381865afa158015610180573d6000803e3d6000fd5b505050506040513d601f19601f820116820180604052508101906101a49190610f9c565b10156101c35760405163148fe22160e11b815260040160405180910390fd5b6000818152600760205260409020600481015461010090046001600160a01b031633146102035760405163be24598360e01b815260040160405180910390fd5b60006102128260030154610d4c565b905080156102a45760035460058301546040516323b872dd60e01b81523360048201526001600160a01b039182166024820152604481018490529116906323b872dd906064016020604051808303816000875af1158015610277573d6000803e3d6000fd5b505050506040513d601f19601f8201168201806040525081019061029b9190610fb5565b6102a457600080fd5b6004820180546001600160a81b031916905560006003830181905560405184917f484d6a78aff107b13227d3005e91c4967e9d387e9c8b44953f3f95f18308a92691a2505050565b6006546060906000805b8281101561033e576007600061030d836001610fed565b815260208101919091526040016000206004015460ff16610336578161033281611006565b9250505b6001016102f6565b506000808267ffffffffffffffff81111561035b5761035b61101f565b6040519080825280602002602001820160405280156103d157816020015b6103be6040805161010081018252600080825260208201819052918101829052606081018290526080810182905260a0810182905260c081018290529060e082015290565b8152602001906001900390816103795790505b50905060005b848110156104fc57600760006103ee836001610fed565b815260208101919091526040016000206004015460ff166104f4576000610416826001610fed565b60008181526007602090815260409182902082516101008082018552825482526001808401549483019490945260028301549482019490945260038201546060820152600482015460ff808216151560808401529490046001600160a01b0390811660a0830152600583015490811660c083015294955090939092849260e0850192600160a01b9004909116908111156104b2576104b2610e29565b60018111156104c3576104c3610e29565b815250508486815181106104d9576104d9611035565b60209081029190910101526104ef600186610fed565b945050505b6001016103d7565b50949350505050565b61050d610d93565b6105176000610dc0565b565b6006546060906000805b828110156105a7576007600061053a836001610fed565b815260208101919091526040016000206004015460ff16801561058c57503360076000610568846001610fed565b815260208101919091526040016000206004015461010090046001600160a01b0316145b1561059f578161059b81611006565b9250505b600101610523565b506000808267ffffffffffffffff8111156105c4576105c461101f565b60405190808252806020026020018201604052801561063a57816020015b6106276040805161010081018252600080825260208201819052918101829052606081018290526080810182905260a0810182905260c081018290529060e082015290565b8152602001906001900390816105e25790505b50905060005b848110156104fc5760076000610657836001610fed565b815260208101919091526040016000206004015460ff1680156106a957503360076000610685846001610fed565b815260208101919091526040016000206004015461010090046001600160a01b0316145b156107995760006106bb826001610fed565b60008181526007602090815260409182902082516101008082018552825482526001808401549483019490945260028301549482019490945260038201546060820152600482015460ff808216151560808401529490046001600160a01b0390811660a0830152600583015490811660c083015294955090939092849260e0850192600160a01b90049091169081111561075757610757610e29565b600181111561076857610768610e29565b8152505084868151811061077e5761077e611035565b6020908102919091010152610794600186610fed565b945050505b600101610640565b600180546040516370a0823160e01b81523360048201526001600160a01b03909116906370a0823190602401602060405180830381865afa1580156107ea573d6000803e3d6000fd5b505050506040513d601f19601f8201168201806040525081019061080e9190610f9c565b101561082d5760405163148fe22160e11b815260040160405180910390fd5b6000838152600760205260409020600481015460ff16156108615760405163d9b9141960e01b815260040160405180910390fd5b60048101805433610100026001600160a81b0319909116176001179055600083600181111561089257610892610e29565b03610a205760058101805460ff60a01b191690556108b08242610fed565b600382015560018101546000906108c7908461104b565b6003546040516323b872dd60e01b8152336004820152306024820152604481018390529192506001600160a01b0316906323b872dd906064016020604051808303816000875af115801561091f573d6000803e3d6000fd5b505050506040513d601f19601f820116820180604052508101906109439190610fb5565b61094c57600080fd5b60035460058301546004546001600160a01b039283169263a9059cbb9216906109759085611062565b6040516001600160e01b031960e085901b1681526001600160a01b03909216600483015260248201526044016020604051808303816000875af11580156109c0573d6000803e3d6000fd5b505050506040513d601f19601f820116820180604052508101906109e49190610fb5565b6109ed57600080fd5b604051339086907f1a777a4e69f842f69af228bdecb2e58e1ab9d68e3c8694533ddb6ff9dd243f8290600090a350610b96565b610a2a8242610fed565b60038201556002810154600090610a41908461104b565b6003546040516323b872dd60e01b8152336004820152306024820152604481018390529192506001600160a01b0316906323b872dd906064016020604051808303816000875af1158015610a99573d6000803e3d6000fd5b505050506040513d601f19601f82011682018060405250810190610abd9190610fb5565b610ac657600080fd5b60035460058301546004546001600160a01b039283169263a9059cbb921690610aef9085611062565b6040516001600160e01b031960e085901b1681526001600160a01b03909216600483015260248201526044016020604051808303816000875af1158015610b3a573d6000803e3d6000fd5b505050506040513d601f19601f82011682018060405250810190610b5e9190610fb5565b610b6757600080fd5b604051339086907f1a777a4e69f842f69af228bdecb2e58e1ab9d68e3c8694533ddb6ff9dd243f8290600090a3505b50505050565b60068054906000610bac83611006565b9091555050600654600081815260076020526040908190209182556001820184905560028083018490556005830180546001600160a01b0319163390811790915590549151632a6ac57960e01b815260048101919091526001600160a01b0390911690632a6ac57990602401600060405180830381600087803b158015610c3257600080fd5b505af1158015610c46573d6000803e3d6000fd5b50506006546040518593508692507f91e71c368c41168aa5766ee5b0c25d8c5f2c37970e7e4365305015fae0bfb0c690600090a4505050565b610c87610d93565b6001600160a01b038116610cb657604051631e4fbdf760e01b8152600060048201526024015b60405180910390fd5b610cbf81610dc0565b50565b60015460405163553005c560e11b81523360048201526001600160a01b039091169063aa600b8a90602401600060405180830381600087803b158015610d0757600080fd5b505af1158015610d1b573d6000803e3d6000fd5b50506040513392507fd35a6cc813c47c11ff9f41f7fe9d463b32db9be612b7f78e9ba6336deb4c59009150600090a2565b600081421115610d8e576000610d628342611062565b90508015610d8c57600454610d77908261104b565b610d8990670de0b6b3a764000061104b565b91505b505b919050565b6000546001600160a01b031633146105175760405163118cdaa760e01b8152336004820152602401610cad565b600080546001600160a01b038381166001600160a01b0319831681178455604051919092169283917f8be0079c531659141344cd1fd0a4f28419497f9722a3daafe3b4186f6b6457e09190a35050565b600060208284031215610e2257600080fd5b5035919050565b634e487b7160e01b600052602160045260246000fd5b60028110610e5d57634e487b7160e01b600052602160045260246000fd5b9052565b602080825282518282018190526000918401906040840190835b81811015610f035783518051845260208101516020850152604081015160408501526060810151606085015260808101511515608085015260018060a01b0360a08201511660a085015260018060a01b0360c08201511660c085015260e08101519050610eeb60e0850182610e3f565b50602093909301926101009290920191600101610e7b565b509095945050505050565b600080600060608486031215610f2357600080fd5b83359250602084013560028110610f3957600080fd5b929592945050506040919091013590565b60008060408385031215610f5d57600080fd5b50508035926020909101359150565b600060208284031215610f7e57600080fd5b81356001600160a01b0381168114610f9557600080fd5b9392505050565b600060208284031215610fae57600080fd5b5051919050565b600060208284031215610fc757600080fd5b81518015158114610f9557600080fd5b634e487b7160e01b600052601160045260246000fd5b8082018082111561100057611000610fd7565b92915050565b60006001820161101857611018610fd7565b5060010190565b634e487b7160e01b600052604160045260246000fd5b634e487b7160e01b600052603260045260246000fd5b808202811582820484141761100057611000610fd7565b8181038181111561100057611000610fd756fea2646970667358221220f2b7f2da9ea9f47e368b17b6855933da0428bcaa15ca72041c070bbaa5256d6964736f6c634300081a0033000000000000000000000000e37e44964dad319c6b31d222453b7ddd3b2497210000000000000000000000006ec5929e48ad78838155fc8d3c6ed4e3c5bac111000000000000000000000000d8ed4a9317585bd8ce8ef7524c313f25373d173900000000000000000000000000000000000000000000000000038d7ea4c68000000000000000000000000000000000000000000000000000016345785d8a0000",
        "nonce": "0x168",
        "chainId": "0xaa36a7"
      },
      "additionalContracts": [],
      "isFixedGasLimit": false
    },
    {
      "hash": "0xb74c0bcc9b6f0efbff356e7d1f2ef10834b4780dd157f1d8a935c80e813b601f",
      "transactionType": "CALL",
      "contractName": null,
      "contractAddress": "0xe37e44964dad319c6b31d222453b7ddd3b249721",
      "function": "setParkFiAddress(address)",
      "arguments": [
        "0xEfCe5726631051A4Ea3A8483D79E69F8Fe0aa12A"
      ],
      "transaction": {
        "from": "0x764693dd666e8dd9275cde8f05c6b07446b1d941",
        "to": "0xe37e44964dad319c6b31d222453b7ddd3b249721",
        "gas": "0x9c69",
        "value": "0x0",
        "input": "0x19b35093000000000000000000000000efce5726631051a4ea3a8483d79e69f8fe0aa12a",
        "nonce": "0x169",
        "chainId": "0xaa36a7"
      },
      "additionalContracts": [],
      "isFixedGasLimit": false
    },
    {
      "hash": "0x153403ec6e166ec2d89733ee354a38c7d8b2618bc6159af8b5d822119d16fe37",
      "transactionType": "CALL",
      "contractName": null,
      "contractAddress": "0x6ec5929e48ad78838155fc8d3c6ed4e3c5bac111",
      "function": "setParkFiAddress(address)",
      "arguments": [
        "0xEfCe5726631051A4Ea3A8483D79E69F8Fe0aa12A"
      ],
      "transaction": {
        "from": "0x764693dd666e8dd9275cde8f05c6b07446b1d941",
        "to": "0x6ec5929e48ad78838155fc8d3c6ed4e3c5bac111",
        "gas": "0x9c88",
        "value": "0x0",
        "input": "0x19b35093000000000000000000000000efce5726631051a4ea3a8483d79e69f8fe0aa12a",
        "nonce": "0x16a",
        "chainId": "0xaa36a7"
      },
      "additionalContracts": [],
      "isFixedGasLimit": false
    },
    {
      "hash": "0xc680452cad877c5ad151a1a117bde4f84c6ff965b7014fc2dbfe00bfef1fbedf",
      "transactionType": "CALL",
      "contractName": "ParkFi",
      "contractAddress": "0xefce5726631051a4ea3a8483d79e69f8fe0aa12a",
      "function": "verifyAndMintParkingSpace(uint256,uint256)",
      "arguments": [
        "1000000000000000000",
        "4000000000000000000"
      ],
      "transaction": {
        "from": "0x764693dd666e8dd9275cde8f05c6b07446b1d941",
        "to": "0xefce5726631051a4ea3a8483d79e69f8fe0aa12a",
        "gas": "0x45465",
        "value": "0x0",
        "input": "0xe0bddcd90000000000000000000000000000000000000000000000000de0b6b3a76400000000000000000000000000000000000000000000000000003782dace9d900000",
        "nonce": "0x16b",
        "chainId": "0xaa36a7"
      },
      "additionalContracts": [],
      "isFixedGasLimit": false
    },
    {
      "hash": "0xe96e500a07f3a573010031e6a8dc0f1a6cbf5ed011a49fbd91d927ae931633cb",
      "transactionType": "CALL",
      "contractName": "ParkFi",
      "contractAddress": "0xefce5726631051a4ea3a8483d79e69f8fe0aa12a",
      "function": "verifyAndMintParkingSpace(uint256,uint256)",
      "arguments": [
        "1000000000000000000",
        "5000000000000000000"
      ],
      "transaction": {
        "from": "0x764693dd666e8dd9275cde8f05c6b07446b1d941",
        "to": "0xefce5726631051a4ea3a8483d79e69f8fe0aa12a",
        "gas": "0x433e8",
        "value": "0x0",
        "input": "0xe0bddcd90000000000000000000000000000000000000000000000000de0b6b3a76400000000000000000000000000000000000000000000000000004563918244f40000",
        "nonce": "0x16c",
        "chainId": "0xaa36a7"
      },
      "additionalContracts": [],
      "isFixedGasLimit": false
    },
    {
      "hash": "0xdf8eff6fe3823c9d16c639eec6b2469e34ef778af1b4b33fa7ee43dfbf0c1e96",
      "transactionType": "CALL",
      "contractName": "ParkFi",
      "contractAddress": "0xefce5726631051a4ea3a8483d79e69f8fe0aa12a",
      "function": "verifyAndMintParkingSpace(uint256,uint256)",
      "arguments": [
        "2000000000000000000",
        "7000000000000000000"
      ],
      "transaction": {
        "from": "0x764693dd666e8dd9275cde8f05c6b07446b1d941",
        "to": "0xefce5726631051a4ea3a8483d79e69f8fe0aa12a",
        "gas": "0x433e8",
        "value": "0x0",
        "input": "0xe0bddcd90000000000000000000000000000000000000000000000001bc16d674ec800000000000000000000000000000000000000000000000000006124fee993bc0000",
        "nonce": "0x16d",
        "chainId": "0xaa36a7"
      },
      "additionalContracts": [],
      "isFixedGasLimit": false
    },
    {
      "hash": "0x761abece08fdec26fdff78bbf574db386a8ece01cb755a5d2d3742a181c409de",
      "transactionType": "CALL",
      "contractName": "ParkFi",
      "contractAddress": "0xefce5726631051a4ea3a8483d79e69f8fe0aa12a",
      "function": "verifyAndMintParkingSpace(uint256,uint256)",
      "arguments": [
        "3000000000000000000",
        "9000000000000000000"
      ],
      "transaction": {
        "from": "0x764693dd666e8dd9275cde8f05c6b07446b1d941",
        "to": "0xefce5726631051a4ea3a8483d79e69f8fe0aa12a",
        "gas": "0x433e8",
        "value": "0x0",
        "input": "0xe0bddcd900000000000000000000000000000000000000000000000029a2241af62c00000000000000000000000000000000000000000000000000007ce66c50e2840000",
        "nonce": "0x16e",
        "chainId": "0xaa36a7"
      },
      "additionalContracts": [],
      "isFixedGasLimit": false
    },
    {
      "hash": "0xf89944b280699c69db309028d43e60b72af92a964479214e3a4909a4e51c2fc8",
      "transactionType": "CALL",
      "contractName": "ParkFi",
      "contractAddress": "0xefce5726631051a4ea3a8483d79e69f8fe0aa12a",
      "function": "verifyAndMintParkingSpace(uint256,uint256)",
      "arguments": [
        "4000000000000000000",
        "12000000000000000000"
      ],
      "transaction": {
        "from": "0x764693dd666e8dd9275cde8f05c6b07446b1d941",
        "to": "0xefce5726631051a4ea3a8483d79e69f8fe0aa12a",
        "gas": "0x433e8",
        "value": "0x0",
        "input": "0xe0bddcd90000000000000000000000000000000000000000000000003782dace9d900000000000000000000000000000000000000000000000000000a688906bd8b00000",
        "nonce": "0x16f",
        "chainId": "0xaa36a7"
      },
      "additionalContracts": [],
      "isFixedGasLimit": false
    },
    {
      "hash": "0xdcbc00f415dfd8cda0ad83dc66472027102b09cff1a22faeb3b4d29a820a8c9a",
      "transactionType": "CALL",
      "contractName": "ParkFi",
      "contractAddress": "0xefce5726631051a4ea3a8483d79e69f8fe0aa12a",
      "function": "verifyAndMintMembership()",
      "arguments": [],
      "transaction": {
        "from": "0x764693dd666e8dd9275cde8f05c6b07446b1d941",
        "to": "0xefce5726631051a4ea3a8483d79e69f8fe0aa12a",
        "gas": "0x1f6c1",
        "value": "0x0",
        "input": "0xf62c28cf",
        "nonce": "0x170",
        "chainId": "0xaa36a7"
      },
      "additionalContracts": [],
      "isFixedGasLimit": false
    },
    {
      "hash": "0xa4a096c56f6b606522a8f02a1ddbe85f6aa3f6a999a1e91ad55dcaa9d3af9a0d",
      "transactionType": "CALL",
      "contractName": null,
      "contractAddress": "0xd8ed4a9317585bd8ce8ef7524c313f25373d1739",
      "function": "approve(address,uint256)",
      "arguments": [
        "0xEfCe5726631051A4Ea3A8483D79E69F8Fe0aa12A",
        "115792089237316195423570985008687907853269984665640564039457584007913129639935"
      ],
      "transaction": {
        "from": "0x764693dd666e8dd9275cde8f05c6b07446b1d941",
        "to": "0xd8ed4a9317585bd8ce8ef7524c313f25373d1739",
        "gas": "0x10ab1",
        "value": "0x0",
        "input": "0x095ea7b3000000000000000000000000efce5726631051a4ea3a8483d79e69f8fe0aa12affffffffffffffffffffffffffffffffffffffffffffffffffffffffffffffff",
        "nonce": "0x171",
        "chainId": "0xaa36a7"
      },
      "additionalContracts": [],
      "isFixedGasLimit": false
    },
    {
      "hash": "0x2f6a9a199c4c01026314eb08b8d60ef91d0ed5d0fb0696b0910575c96c175aa6",
      "transactionType": "CALL",
      "contractName": "ParkFi",
      "contractAddress": "0xefce5726631051a4ea3a8483d79e69f8fe0aa12a",
      "function": "checkIn(uint256,uint8,uint256)",
      "arguments": [
        "1",
        "0",
        "7200"
      ],
      "transaction": {
        "from": "0x764693dd666e8dd9275cde8f05c6b07446b1d941",
        "to": "0xefce5726631051a4ea3a8483d79e69f8fe0aa12a",
        "gas": "0x29b4a",
        "value": "0x0",
        "input": "0xa1ae6a25000000000000000000000000000000000000000000000000000000000000000100000000000000000000000000000000000000000000000000000000000000000000000000000000000000000000000000000000000000000000000000001c20",
        "nonce": "0x172",
        "chainId": "0xaa36a7"
      },
      "additionalContracts": [],
      "isFixedGasLimit": false
    },
    {
      "hash": "0x89b359071978fb9fa8251adceb5edeafbeca864b82ed13b70c5c042fa5950a60",
      "transactionType": "CALL",
      "contractName": "ParkFi",
      "contractAddress": "0xefce5726631051a4ea3a8483d79e69f8fe0aa12a",
      "function": "checkIn(uint256,uint8,uint256)",
      "arguments": [
        "2",
        "0",
        "7200"
      ],
      "transaction": {
        "from": "0x764693dd666e8dd9275cde8f05c6b07446b1d941",
        "to": "0xefce5726631051a4ea3a8483d79e69f8fe0aa12a",
        "gas": "0x23f08",
        "value": "0x0",
        "input": "0xa1ae6a25000000000000000000000000000000000000000000000000000000000000000200000000000000000000000000000000000000000000000000000000000000000000000000000000000000000000000000000000000000000000000000001c20",
        "nonce": "0x173",
        "chainId": "0xaa36a7"
      },
      "additionalContracts": [],
      "isFixedGasLimit": false
    },
    {
      "hash": "0x83d0f7c7f223f159fa369c1caaa749f177ce4bf6477a97776c7f22c61c3157d0",
      "transactionType": "CALL",
      "contractName": "ParkFi",
      "contractAddress": "0xefce5726631051a4ea3a8483d79e69f8fe0aa12a",
      "function": "checkIn(uint256,uint8,uint256)",
      "arguments": [
        "3",
        "1",
        "259200"
      ],
      "transaction": {
        "from": "0x764693dd666e8dd9275cde8f05c6b07446b1d941",
        "to": "0xefce5726631051a4ea3a8483d79e69f8fe0aa12a",
        "gas": "0x23ddd",
        "value": "0x0",
        "input": "0xa1ae6a2500000000000000000000000000000000000000000000000000000000000000030000000000000000000000000000000000000000000000000000000000000001000000000000000000000000000000000000000000000000000000000003f480",
        "nonce": "0x174",
        "chainId": "0xaa36a7"
      },
      "additionalContracts": [],
      "isFixedGasLimit": false
    },
    {
      "hash": "0xc657be7aeeaadd08765334264c6345dcf03e2932735ad5600b632e379cbf73ef",
      "transactionType": "CALL",
      "contractName": "ParkFi",
      "contractAddress": "0xefce5726631051a4ea3a8483d79e69f8fe0aa12a",
      "function": "checkIn(uint256,uint8,uint256)",
      "arguments": [
        "4",
        "1",
        "345600"
      ],
      "transaction": {
        "from": "0x764693dd666e8dd9275cde8f05c6b07446b1d941",
        "to": "0xefce5726631051a4ea3a8483d79e69f8fe0aa12a",
        "gas": "0x23dcc",
        "value": "0x0",
        "input": "0xa1ae6a25000000000000000000000000000000000000000000000000000000000000000400000000000000000000000000000000000000000000000000000000000000010000000000000000000000000000000000000000000000000000000000054600",
        "nonce": "0x175",
        "chainId": "0xaa36a7"
      },
      "additionalContracts": [],
      "isFixedGasLimit": false
    },
    {
      "hash": "0xcf297e46cc918d7ba13d9ed5b141322e3a573a615b0a19e079ba5f0efe8065b8",
      "transactionType": "CALL",
      "contractName": "ParkFi",
      "contractAddress": "0xefce5726631051a4ea3a8483d79e69f8fe0aa12a",
      "function": "checkIn(uint256,uint8,uint256)",
      "arguments": [
        "5",
        "0",
        "7200"
      ],
      "transaction": {
        "from": "0x764693dd666e8dd9275cde8f05c6b07446b1d941",
        "to": "0xefce5726631051a4ea3a8483d79e69f8fe0aa12a",
        "gas": "0x23f08",
        "value": "0x0",
        "input": "0xa1ae6a25000000000000000000000000000000000000000000000000000000000000000500000000000000000000000000000000000000000000000000000000000000000000000000000000000000000000000000000000000000000000000000001c20",
        "nonce": "0x176",
        "chainId": "0xaa36a7"
      },
      "additionalContracts": [],
      "isFixedGasLimit": false
    },
    {
      "hash": "0x3bbb06cbe2a8ae7516600c56779c6d5b052c8c57f6cab1e237f334c4c611d4c1",
      "transactionType": "CALL",
      "contractName": "ParkFi",
      "contractAddress": "0xefce5726631051a4ea3a8483d79e69f8fe0aa12a",
      "function": "checkOut(uint256)",
      "arguments": [
        "1"
      ],
      "transaction": {
        "from": "0x764693dd666e8dd9275cde8f05c6b07446b1d941",
        "to": "0xefce5726631051a4ea3a8483d79e69f8fe0aa12a",
        "gas": "0xaf12",
        "value": "0x0",
        "input": "0x1bd2eeee0000000000000000000000000000000000000000000000000000000000000001",
        "nonce": "0x177",
        "chainId": "0xaa36a7"
      },
      "additionalContracts": [],
      "isFixedGasLimit": false
    },
    {
      "hash": "0x31d6b14e79d62bfd48e8522e6aa93ea835e954e815f6b3a917bfbfa60e1d0198",
      "transactionType": "CALL",
      "contractName": "ParkFi",
      "contractAddress": "0xefce5726631051a4ea3a8483d79e69f8fe0aa12a",
      "function": "checkOut(uint256)",
      "arguments": [
        "3"
      ],
      "transaction": {
        "from": "0x764693dd666e8dd9275cde8f05c6b07446b1d941",
        "to": "0xefce5726631051a4ea3a8483d79e69f8fe0aa12a",
        "gas": "0xaf12",
        "value": "0x0",
        "input": "0x1bd2eeee0000000000000000000000000000000000000000000000000000000000000003",
        "nonce": "0x178",
        "chainId": "0xaa36a7"
      },
      "additionalContracts": [],
      "isFixedGasLimit": false
    }
  ],
  "receipts": [
    {
      "status": "0x1",
      "cumulativeGasUsed": "0x8f7170",
      "logs": [
        {
          "address": "0xefce5726631051a4ea3a8483d79e69f8fe0aa12a",
          "topics": [
            "0x8be0079c531659141344cd1fd0a4f28419497f9722a3daafe3b4186f6b6457e0",
            "0x0000000000000000000000000000000000000000000000000000000000000000",
            "0x000000000000000000000000764693dd666e8dd9275cde8f05c6b07446b1d941"
          ],
          "data": "0x",
          "blockHash": "0x9848a16920063d1b5bc322183e6d9b8c1b45339d0109d18778362f4c7e16df4f",
          "blockNumber": "0x5dcbca",
          "transactionHash": "0x7d64aca441d4245b607d1615d868779dc23e759efb38231a21ecdcfc2173e24a",
          "transactionIndex": "0x3f",
          "logIndex": "0x77",
          "removed": false
        }
      ],
      "logsBloom": "0x00000000000000000000000000000000800000000000000000800000004000000000000000000000000000000000000000000000000000000000000000000000000000000000000000000080000000000001000000000000000000000000000000000000020000000000000000000800000000000000000000000000000000400000000000000008000000000000000000000000000000000000000000000000000000000000000000000000000000000080000000000004000000000000000000000000000000000000000000000000000000000000000000000000000020000000000000000000000000000000000000000000000000000000000000000000",
      "type": "0x2",
      "transactionHash": "0x7d64aca441d4245b607d1615d868779dc23e759efb38231a21ecdcfc2173e24a",
      "transactionIndex": "0x3f",
      "blockHash": "0x9848a16920063d1b5bc322183e6d9b8c1b45339d0109d18778362f4c7e16df4f",
      "blockNumber": "0x5dcbca",
      "gasUsed": "0x11087f",
      "effectiveGasPrice": "0x216a7fab",
      "from": "0x764693dd666e8dd9275cde8f05c6b07446b1d941",
      "to": null,
      "contractAddress": "0xefce5726631051a4ea3a8483d79e69f8fe0aa12a"
    },
    {
      "status": "0x1",
      "cumulativeGasUsed": "0x8fe2ae",
      "logs": [],
      "logsBloom": "0x00000000000000000000000000000000000000000000000000000000000000000000000000000000000000000000000000000000000000000000000000000000000000000000000000000000000000000000000000000000000000000000000000000000000000000000000000000000000000000000000000000000000000000000000000000000000000000000000000000000000000000000000000000000000000000000000000000000000000000000000000000000000000000000000000000000000000000000000000000000000000000000000000000000000000000000000000000000000000000000000000000000000000000000000000000000",
      "type": "0x2",
      "transactionHash": "0xb74c0bcc9b6f0efbff356e7d1f2ef10834b4780dd157f1d8a935c80e813b601f",
      "transactionIndex": "0x40",
      "blockHash": "0x9848a16920063d1b5bc322183e6d9b8c1b45339d0109d18778362f4c7e16df4f",
      "blockNumber": "0x5dcbca",
      "gasUsed": "0x713e",
      "effectiveGasPrice": "0x216a7fab",
      "from": "0x764693dd666e8dd9275cde8f05c6b07446b1d941",
      "to": "0xe37e44964dad319c6b31d222453b7ddd3b249721",
      "contractAddress": null
    },
    {
      "status": "0x1",
      "cumulativeGasUsed": "0x905402",
      "logs": [],
      "logsBloom": "0x00000000000000000000000000000000000000000000000000000000000000000000000000000000000000000000000000000000000000000000000000000000000000000000000000000000000000000000000000000000000000000000000000000000000000000000000000000000000000000000000000000000000000000000000000000000000000000000000000000000000000000000000000000000000000000000000000000000000000000000000000000000000000000000000000000000000000000000000000000000000000000000000000000000000000000000000000000000000000000000000000000000000000000000000000000000",
      "type": "0x2",
      "transactionHash": "0x153403ec6e166ec2d89733ee354a38c7d8b2618bc6159af8b5d822119d16fe37",
      "transactionIndex": "0x41",
      "blockHash": "0x9848a16920063d1b5bc322183e6d9b8c1b45339d0109d18778362f4c7e16df4f",
      "blockNumber": "0x5dcbca",
      "gasUsed": "0x7154",
      "effectiveGasPrice": "0x216a7fab",
      "from": "0x764693dd666e8dd9275cde8f05c6b07446b1d941",
      "to": "0x6ec5929e48ad78838155fc8d3c6ed4e3c5bac111",
      "contractAddress": null
    },
    {
      "status": "0x1",
      "cumulativeGasUsed": "0x937678",
      "logs": [
        {
          "address": "0x6ec5929e48ad78838155fc8d3c6ed4e3c5bac111",
          "topics": [
            "0xddf252ad1be2c89b69c2b068fc378daa952ba7f163c4a11628f55a4df523b3ef",
            "0x0000000000000000000000000000000000000000000000000000000000000000",
            "0x000000000000000000000000764693dd666e8dd9275cde8f05c6b07446b1d941",
            "0x000000000000000000000000000000000000000000000000000000000000000b"
          ],
          "data": "0x",
          "blockHash": "0x9848a16920063d1b5bc322183e6d9b8c1b45339d0109d18778362f4c7e16df4f",
          "blockNumber": "0x5dcbca",
          "transactionHash": "0xc680452cad877c5ad151a1a117bde4f84c6ff965b7014fc2dbfe00bfef1fbedf",
          "transactionIndex": "0x42",
          "logIndex": "0x78",
          "removed": false
        },
        {
          "address": "0x6ec5929e48ad78838155fc8d3c6ed4e3c5bac111",
          "topics": [
            "0xf8e1a15aba9398e019f0b49df1a4fde98ee17ae345cb5f6b5e2c27f5033e8ce7"
          ],
          "data": "0x000000000000000000000000000000000000000000000000000000000000000b",
          "blockHash": "0x9848a16920063d1b5bc322183e6d9b8c1b45339d0109d18778362f4c7e16df4f",
          "blockNumber": "0x5dcbca",
          "transactionHash": "0xc680452cad877c5ad151a1a117bde4f84c6ff965b7014fc2dbfe00bfef1fbedf",
          "transactionIndex": "0x42",
          "logIndex": "0x79",
          "removed": false
        },
        {
          "address": "0x6ec5929e48ad78838155fc8d3c6ed4e3c5bac111",
          "topics": [
            "0x026aac271342ae43d27b41062e6f37001e4673fbbf25ad4bc3cfd6cd2094bd39",
            "0x000000000000000000000000764693dd666e8dd9275cde8f05c6b07446b1d941",
            "0x000000000000000000000000000000000000000000000000000000000000000b"
          ],
          "data": "0x",
          "blockHash": "0x9848a16920063d1b5bc322183e6d9b8c1b45339d0109d18778362f4c7e16df4f",
          "blockNumber": "0x5dcbca",
          "transactionHash": "0xc680452cad877c5ad151a1a117bde4f84c6ff965b7014fc2dbfe00bfef1fbedf",
          "transactionIndex": "0x42",
          "logIndex": "0x7a",
          "removed": false
        },
        {
          "address": "0xefce5726631051a4ea3a8483d79e69f8fe0aa12a",
          "topics": [
            "0x91e71c368c41168aa5766ee5b0c25d8c5f2c37970e7e4365305015fae0bfb0c6",
            "0x0000000000000000000000000000000000000000000000000000000000000001",
            "0x0000000000000000000000000000000000000000000000000de0b6b3a7640000",
            "0x0000000000000000000000000000000000000000000000003782dace9d900000"
          ],
          "data": "0x",
          "blockHash": "0x9848a16920063d1b5bc322183e6d9b8c1b45339d0109d18778362f4c7e16df4f",
          "blockNumber": "0x5dcbca",
          "transactionHash": "0xc680452cad877c5ad151a1a117bde4f84c6ff965b7014fc2dbfe00bfef1fbedf",
          "transactionIndex": "0x42",
          "logIndex": "0x7b",
          "removed": false
        }
      ],
      "logsBloom": "0x00000000040000000000004000000000800000000000000000000000004000000000000000000000000000000000000000000000000000000000000000040000000000000000000000000088000000000000000000040000000000000000000000000000020000000000000000000800000000400000000000000010000000002000000000000008000000000000000000000000004000000000000000000000000020000080000008000000000010002080020000000004400000000000008000000002000800000000000000000000002000000000000000040000000070000000000000000000200000000000000000000000000000040100000020000000",
      "type": "0x2",
      "transactionHash": "0xc680452cad877c5ad151a1a117bde4f84c6ff965b7014fc2dbfe00bfef1fbedf",
      "transactionIndex": "0x42",
      "blockHash": "0x9848a16920063d1b5bc322183e6d9b8c1b45339d0109d18778362f4c7e16df4f",
      "blockNumber": "0x5dcbca",
      "gasUsed": "0x32276",
      "effectiveGasPrice": "0x216a7fab",
      "from": "0x764693dd666e8dd9275cde8f05c6b07446b1d941",
      "to": "0xefce5726631051a4ea3a8483d79e69f8fe0aa12a",
      "contractAddress": null
    },
    {
      "status": "0x1",
      "cumulativeGasUsed": "0x965622",
      "logs": [
        {
          "address": "0x6ec5929e48ad78838155fc8d3c6ed4e3c5bac111",
          "topics": [
            "0xddf252ad1be2c89b69c2b068fc378daa952ba7f163c4a11628f55a4df523b3ef",
            "0x0000000000000000000000000000000000000000000000000000000000000000",
            "0x000000000000000000000000764693dd666e8dd9275cde8f05c6b07446b1d941",
            "0x000000000000000000000000000000000000000000000000000000000000000c"
          ],
          "data": "0x",
          "blockHash": "0x9848a16920063d1b5bc322183e6d9b8c1b45339d0109d18778362f4c7e16df4f",
          "blockNumber": "0x5dcbca",
          "transactionHash": "0xe96e500a07f3a573010031e6a8dc0f1a6cbf5ed011a49fbd91d927ae931633cb",
          "transactionIndex": "0x43",
          "logIndex": "0x7c",
          "removed": false
        },
        {
          "address": "0x6ec5929e48ad78838155fc8d3c6ed4e3c5bac111",
          "topics": [
            "0xf8e1a15aba9398e019f0b49df1a4fde98ee17ae345cb5f6b5e2c27f5033e8ce7"
          ],
          "data": "0x000000000000000000000000000000000000000000000000000000000000000c",
          "blockHash": "0x9848a16920063d1b5bc322183e6d9b8c1b45339d0109d18778362f4c7e16df4f",
          "blockNumber": "0x5dcbca",
          "transactionHash": "0xe96e500a07f3a573010031e6a8dc0f1a6cbf5ed011a49fbd91d927ae931633cb",
          "transactionIndex": "0x43",
          "logIndex": "0x7d",
          "removed": false
        },
        {
          "address": "0x6ec5929e48ad78838155fc8d3c6ed4e3c5bac111",
          "topics": [
            "0x026aac271342ae43d27b41062e6f37001e4673fbbf25ad4bc3cfd6cd2094bd39",
            "0x000000000000000000000000764693dd666e8dd9275cde8f05c6b07446b1d941",
            "0x000000000000000000000000000000000000000000000000000000000000000c"
          ],
          "data": "0x",
          "blockHash": "0x9848a16920063d1b5bc322183e6d9b8c1b45339d0109d18778362f4c7e16df4f",
          "blockNumber": "0x5dcbca",
          "transactionHash": "0xe96e500a07f3a573010031e6a8dc0f1a6cbf5ed011a49fbd91d927ae931633cb",
          "transactionIndex": "0x43",
          "logIndex": "0x7e",
          "removed": false
        },
        {
          "address": "0xefce5726631051a4ea3a8483d79e69f8fe0aa12a",
          "topics": [
            "0x91e71c368c41168aa5766ee5b0c25d8c5f2c37970e7e4365305015fae0bfb0c6",
            "0x0000000000000000000000000000000000000000000000000000000000000002",
            "0x0000000000000000000000000000000000000000000000000de0b6b3a7640000",
            "0x0000000000000000000000000000000000000000000000004563918244f40000"
          ],
          "data": "0x",
          "blockHash": "0x9848a16920063d1b5bc322183e6d9b8c1b45339d0109d18778362f4c7e16df4f",
          "blockNumber": "0x5dcbca",
          "transactionHash": "0xe96e500a07f3a573010031e6a8dc0f1a6cbf5ed011a49fbd91d927ae931633cb",
          "transactionIndex": "0x43",
          "logIndex": "0x7f",
          "removed": false
        }
      ],
      "logsBloom": "0x04000000040000000000000000000000800002000000000000000000004000000000000000000200000000000000000000000000000000000000000000010000000000000000000000000088000000000000000000000000000000000000000000000000020000000000000000000800000000400000000000000010000000002000000000000008000000000000000000000000004000000000000000000000000000000080000000000100000010002080022000000004400000000000008000000002000800000000000000000000000000000000000000040000000030200000000000000000200000000000001000000000008000000100000000000000",
      "type": "0x2",
      "transactionHash": "0xe96e500a07f3a573010031e6a8dc0f1a6cbf5ed011a49fbd91d927ae931633cb",
      "transactionIndex": "0x43",
      "blockHash": "0x9848a16920063d1b5bc322183e6d9b8c1b45339d0109d18778362f4c7e16df4f",
      "blockNumber": "0x5dcbca",
      "gasUsed": "0x2dfaa",
      "effectiveGasPrice": "0x216a7fab",
      "from": "0x764693dd666e8dd9275cde8f05c6b07446b1d941",
      "to": "0xefce5726631051a4ea3a8483d79e69f8fe0aa12a",
      "contractAddress": null
    },
    {
      "status": "0x1",
      "cumulativeGasUsed": "0x9935cc",
      "logs": [
        {
          "address": "0x6ec5929e48ad78838155fc8d3c6ed4e3c5bac111",
          "topics": [
            "0xddf252ad1be2c89b69c2b068fc378daa952ba7f163c4a11628f55a4df523b3ef",
            "0x0000000000000000000000000000000000000000000000000000000000000000",
            "0x000000000000000000000000764693dd666e8dd9275cde8f05c6b07446b1d941",
            "0x000000000000000000000000000000000000000000000000000000000000000d"
          ],
          "data": "0x",
          "blockHash": "0x9848a16920063d1b5bc322183e6d9b8c1b45339d0109d18778362f4c7e16df4f",
          "blockNumber": "0x5dcbca",
          "transactionHash": "0xdf8eff6fe3823c9d16c639eec6b2469e34ef778af1b4b33fa7ee43dfbf0c1e96",
          "transactionIndex": "0x44",
          "logIndex": "0x80",
          "removed": false
        },
        {
          "address": "0x6ec5929e48ad78838155fc8d3c6ed4e3c5bac111",
          "topics": [
            "0xf8e1a15aba9398e019f0b49df1a4fde98ee17ae345cb5f6b5e2c27f5033e8ce7"
          ],
          "data": "0x000000000000000000000000000000000000000000000000000000000000000d",
          "blockHash": "0x9848a16920063d1b5bc322183e6d9b8c1b45339d0109d18778362f4c7e16df4f",
          "blockNumber": "0x5dcbca",
          "transactionHash": "0xdf8eff6fe3823c9d16c639eec6b2469e34ef778af1b4b33fa7ee43dfbf0c1e96",
          "transactionIndex": "0x44",
          "logIndex": "0x81",
          "removed": false
        },
        {
          "address": "0x6ec5929e48ad78838155fc8d3c6ed4e3c5bac111",
          "topics": [
            "0x026aac271342ae43d27b41062e6f37001e4673fbbf25ad4bc3cfd6cd2094bd39",
            "0x000000000000000000000000764693dd666e8dd9275cde8f05c6b07446b1d941",
            "0x000000000000000000000000000000000000000000000000000000000000000d"
          ],
          "data": "0x",
          "blockHash": "0x9848a16920063d1b5bc322183e6d9b8c1b45339d0109d18778362f4c7e16df4f",
          "blockNumber": "0x5dcbca",
          "transactionHash": "0xdf8eff6fe3823c9d16c639eec6b2469e34ef778af1b4b33fa7ee43dfbf0c1e96",
          "transactionIndex": "0x44",
          "logIndex": "0x82",
          "removed": false
        },
        {
          "address": "0xefce5726631051a4ea3a8483d79e69f8fe0aa12a",
          "topics": [
            "0x91e71c368c41168aa5766ee5b0c25d8c5f2c37970e7e4365305015fae0bfb0c6",
            "0x0000000000000000000000000000000000000000000000000000000000000003",
            "0x0000000000000000000000000000000000000000000000001bc16d674ec80000",
            "0x0000000000000000000000000000000000000000000000006124fee993bc0000"
          ],
          "data": "0x",
          "blockHash": "0x9848a16920063d1b5bc322183e6d9b8c1b45339d0109d18778362f4c7e16df4f",
          "blockNumber": "0x5dcbca",
          "transactionHash": "0xdf8eff6fe3823c9d16c639eec6b2469e34ef778af1b4b33fa7ee43dfbf0c1e96",
          "transactionIndex": "0x44",
          "logIndex": "0x83",
          "removed": false
        }
      ],
      "logsBloom": "0x00000000040000000040000000000000800100000000000000000000004000000000000000000000000000000000000000000000020000000000000000000000000000000001000000000088000000000002000000000000000000000000000000000000120000000000000000000800000000400000000000000010000000042000000000000008000000000000000000000000000000000000001000000000000000000080000000000000000000002080020000800004400000000000408000000002000000000400000000000000000000000000000000040000000030020000000000000000200000000000000000000000000000000100000000000000",
      "type": "0x2",
      "transactionHash": "0xdf8eff6fe3823c9d16c639eec6b2469e34ef778af1b4b33fa7ee43dfbf0c1e96",
      "transactionIndex": "0x44",
      "blockHash": "0x9848a16920063d1b5bc322183e6d9b8c1b45339d0109d18778362f4c7e16df4f",
      "blockNumber": "0x5dcbca",
      "gasUsed": "0x2dfaa",
      "effectiveGasPrice": "0x216a7fab",
      "from": "0x764693dd666e8dd9275cde8f05c6b07446b1d941",
      "to": "0xefce5726631051a4ea3a8483d79e69f8fe0aa12a",
      "contractAddress": null
    },
    {
      "status": "0x1",
      "cumulativeGasUsed": "0x9c1576",
      "logs": [
        {
          "address": "0x6ec5929e48ad78838155fc8d3c6ed4e3c5bac111",
          "topics": [
            "0xddf252ad1be2c89b69c2b068fc378daa952ba7f163c4a11628f55a4df523b3ef",
            "0x0000000000000000000000000000000000000000000000000000000000000000",
            "0x000000000000000000000000764693dd666e8dd9275cde8f05c6b07446b1d941",
            "0x000000000000000000000000000000000000000000000000000000000000000e"
          ],
          "data": "0x",
          "blockHash": "0x9848a16920063d1b5bc322183e6d9b8c1b45339d0109d18778362f4c7e16df4f",
          "blockNumber": "0x5dcbca",
          "transactionHash": "0x761abece08fdec26fdff78bbf574db386a8ece01cb755a5d2d3742a181c409de",
          "transactionIndex": "0x45",
          "logIndex": "0x84",
          "removed": false
        },
        {
          "address": "0x6ec5929e48ad78838155fc8d3c6ed4e3c5bac111",
          "topics": [
            "0xf8e1a15aba9398e019f0b49df1a4fde98ee17ae345cb5f6b5e2c27f5033e8ce7"
          ],
          "data": "0x000000000000000000000000000000000000000000000000000000000000000e",
          "blockHash": "0x9848a16920063d1b5bc322183e6d9b8c1b45339d0109d18778362f4c7e16df4f",
          "blockNumber": "0x5dcbca",
          "transactionHash": "0x761abece08fdec26fdff78bbf574db386a8ece01cb755a5d2d3742a181c409de",
          "transactionIndex": "0x45",
          "logIndex": "0x85",
          "removed": false
        },
        {
          "address": "0x6ec5929e48ad78838155fc8d3c6ed4e3c5bac111",
          "topics": [
            "0x026aac271342ae43d27b41062e6f37001e4673fbbf25ad4bc3cfd6cd2094bd39",
            "0x000000000000000000000000764693dd666e8dd9275cde8f05c6b07446b1d941",
            "0x000000000000000000000000000000000000000000000000000000000000000e"
          ],
          "data": "0x",
          "blockHash": "0x9848a16920063d1b5bc322183e6d9b8c1b45339d0109d18778362f4c7e16df4f",
          "blockNumber": "0x5dcbca",
          "transactionHash": "0x761abece08fdec26fdff78bbf574db386a8ece01cb755a5d2d3742a181c409de",
          "transactionIndex": "0x45",
          "logIndex": "0x86",
          "removed": false
        },
        {
          "address": "0xefce5726631051a4ea3a8483d79e69f8fe0aa12a",
          "topics": [
            "0x91e71c368c41168aa5766ee5b0c25d8c5f2c37970e7e4365305015fae0bfb0c6",
            "0x0000000000000000000000000000000000000000000000000000000000000004",
            "0x00000000000000000000000000000000000000000000000029a2241af62c0000",
            "0x0000000000000000000000000000000000000000000000007ce66c50e2840000"
          ],
          "data": "0x",
          "blockHash": "0x9848a16920063d1b5bc322183e6d9b8c1b45339d0109d18778362f4c7e16df4f",
          "blockNumber": "0x5dcbca",
          "transactionHash": "0x761abece08fdec26fdff78bbf574db386a8ece01cb755a5d2d3742a181c409de",
          "transactionIndex": "0x45",
          "logIndex": "0x87",
          "removed": false
        }
      ],
      "logsBloom": "0x00000000040000000000000000000000800200000000000000000000004000000000800000000000000000000000000000000000000000000000000000000000000000000000000800000088000000000000000000000000000000000000000008000000020000400000000000000800000000400000000000000010000000002000000000000008000000000000000008000000000000000000000000000000000000000080000001000000000000002080020000000024402000000020008000000002000000000000000000000000000000008000000000040000000030000000000000000000200000000000000000000000000000008100000000000000",
      "type": "0x2",
      "transactionHash": "0x761abece08fdec26fdff78bbf574db386a8ece01cb755a5d2d3742a181c409de",
      "transactionIndex": "0x45",
      "blockHash": "0x9848a16920063d1b5bc322183e6d9b8c1b45339d0109d18778362f4c7e16df4f",
      "blockNumber": "0x5dcbca",
      "gasUsed": "0x2dfaa",
      "effectiveGasPrice": "0x216a7fab",
      "from": "0x764693dd666e8dd9275cde8f05c6b07446b1d941",
      "to": "0xefce5726631051a4ea3a8483d79e69f8fe0aa12a",
      "contractAddress": null
    },
    {
      "status": "0x1",
      "cumulativeGasUsed": "0x9ef520",
      "logs": [
        {
          "address": "0x6ec5929e48ad78838155fc8d3c6ed4e3c5bac111",
          "topics": [
            "0xddf252ad1be2c89b69c2b068fc378daa952ba7f163c4a11628f55a4df523b3ef",
            "0x0000000000000000000000000000000000000000000000000000000000000000",
            "0x000000000000000000000000764693dd666e8dd9275cde8f05c6b07446b1d941",
            "0x000000000000000000000000000000000000000000000000000000000000000f"
          ],
          "data": "0x",
          "blockHash": "0x9848a16920063d1b5bc322183e6d9b8c1b45339d0109d18778362f4c7e16df4f",
          "blockNumber": "0x5dcbca",
          "transactionHash": "0xf89944b280699c69db309028d43e60b72af92a964479214e3a4909a4e51c2fc8",
          "transactionIndex": "0x46",
          "logIndex": "0x88",
          "removed": false
        },
        {
          "address": "0x6ec5929e48ad78838155fc8d3c6ed4e3c5bac111",
          "topics": [
            "0xf8e1a15aba9398e019f0b49df1a4fde98ee17ae345cb5f6b5e2c27f5033e8ce7"
          ],
          "data": "0x000000000000000000000000000000000000000000000000000000000000000f",
          "blockHash": "0x9848a16920063d1b5bc322183e6d9b8c1b45339d0109d18778362f4c7e16df4f",
          "blockNumber": "0x5dcbca",
          "transactionHash": "0xf89944b280699c69db309028d43e60b72af92a964479214e3a4909a4e51c2fc8",
          "transactionIndex": "0x46",
          "logIndex": "0x89",
          "removed": false
        },
        {
          "address": "0x6ec5929e48ad78838155fc8d3c6ed4e3c5bac111",
          "topics": [
            "0x026aac271342ae43d27b41062e6f37001e4673fbbf25ad4bc3cfd6cd2094bd39",
            "0x000000000000000000000000764693dd666e8dd9275cde8f05c6b07446b1d941",
            "0x000000000000000000000000000000000000000000000000000000000000000f"
          ],
          "data": "0x",
          "blockHash": "0x9848a16920063d1b5bc322183e6d9b8c1b45339d0109d18778362f4c7e16df4f",
          "blockNumber": "0x5dcbca",
          "transactionHash": "0xf89944b280699c69db309028d43e60b72af92a964479214e3a4909a4e51c2fc8",
          "transactionIndex": "0x46",
          "logIndex": "0x8a",
          "removed": false
        },
        {
          "address": "0xefce5726631051a4ea3a8483d79e69f8fe0aa12a",
          "topics": [
            "0x91e71c368c41168aa5766ee5b0c25d8c5f2c37970e7e4365305015fae0bfb0c6",
            "0x0000000000000000000000000000000000000000000000000000000000000005",
            "0x0000000000000000000000000000000000000000000000003782dace9d900000",
            "0x000000000000000000000000000000000000000000000000a688906bd8b00000"
          ],
          "data": "0x",
          "blockHash": "0x9848a16920063d1b5bc322183e6d9b8c1b45339d0109d18778362f4c7e16df4f",
          "blockNumber": "0x5dcbca",
          "transactionHash": "0xf89944b280699c69db309028d43e60b72af92a964479214e3a4909a4e51c2fc8",
          "transactionIndex": "0x46",
          "logIndex": "0x8b",
          "removed": false
        }
      ],
      "logsBloom": "0x00000000840000000000000000000000800001000000000000000000004000000000000000000000000000000000000000000000000000000000000000000000400010000000000000000088000000000000000000000000000000000002000000000000020000000000000000000800000000400000000000000010000000002000000000000808000000000000001000000800000000000000000000000000000020000080000008000000000000002080020000000004400000000000008000000002000000000000000000000000000000000000000000040000000030000000000200000000200000000000000000000000000000000100000020000000",
      "type": "0x2",
      "transactionHash": "0xf89944b280699c69db309028d43e60b72af92a964479214e3a4909a4e51c2fc8",
      "transactionIndex": "0x46",
      "blockHash": "0x9848a16920063d1b5bc322183e6d9b8c1b45339d0109d18778362f4c7e16df4f",
      "blockNumber": "0x5dcbca",
      "gasUsed": "0x2dfaa",
      "effectiveGasPrice": "0x216a7fab",
      "from": "0x764693dd666e8dd9275cde8f05c6b07446b1d941",
      "to": "0xefce5726631051a4ea3a8483d79e69f8fe0aa12a",
      "contractAddress": null
    },
    {
      "status": "0x1",
      "cumulativeGasUsed": "0xa0611d",
      "logs": [
        {
          "address": "0xe37e44964dad319c6b31d222453b7ddd3b249721",
          "topics": [
            "0xddf252ad1be2c89b69c2b068fc378daa952ba7f163c4a11628f55a4df523b3ef",
            "0x0000000000000000000000000000000000000000000000000000000000000000",
            "0x000000000000000000000000764693dd666e8dd9275cde8f05c6b07446b1d941",
            "0x0000000000000000000000000000000000000000000000000000000000000004"
          ],
          "data": "0x",
          "blockHash": "0x9848a16920063d1b5bc322183e6d9b8c1b45339d0109d18778362f4c7e16df4f",
          "blockNumber": "0x5dcbca",
          "transactionHash": "0xdcbc00f415dfd8cda0ad83dc66472027102b09cff1a22faeb3b4d29a820a8c9a",
          "transactionIndex": "0x47",
          "logIndex": "0x8c",
          "removed": false
        },
        {
          "address": "0xe37e44964dad319c6b31d222453b7ddd3b249721",
          "topics": [
            "0xf8e1a15aba9398e019f0b49df1a4fde98ee17ae345cb5f6b5e2c27f5033e8ce7"
          ],
          "data": "0x0000000000000000000000000000000000000000000000000000000000000004",
          "blockHash": "0x9848a16920063d1b5bc322183e6d9b8c1b45339d0109d18778362f4c7e16df4f",
          "blockNumber": "0x5dcbca",
          "transactionHash": "0xdcbc00f415dfd8cda0ad83dc66472027102b09cff1a22faeb3b4d29a820a8c9a",
          "transactionIndex": "0x47",
          "logIndex": "0x8d",
          "removed": false
        },
        {
          "address": "0xe37e44964dad319c6b31d222453b7ddd3b249721",
          "topics": [
            "0xbab4562ae868d1765ed8452e98bba908a974596c4babc3ada5e90e05e3f433fb",
            "0x000000000000000000000000764693dd666e8dd9275cde8f05c6b07446b1d941",
            "0x0000000000000000000000000000000000000000000000000000000000000004"
          ],
          "data": "0x",
          "blockHash": "0x9848a16920063d1b5bc322183e6d9b8c1b45339d0109d18778362f4c7e16df4f",
          "blockNumber": "0x5dcbca",
          "transactionHash": "0xdcbc00f415dfd8cda0ad83dc66472027102b09cff1a22faeb3b4d29a820a8c9a",
          "transactionIndex": "0x47",
          "logIndex": "0x8e",
          "removed": false
        },
        {
          "address": "0xefce5726631051a4ea3a8483d79e69f8fe0aa12a",
          "topics": [
            "0xd35a6cc813c47c11ff9f41f7fe9d463b32db9be612b7f78e9ba6336deb4c5900",
            "0x000000000000000000000000764693dd666e8dd9275cde8f05c6b07446b1d941"
          ],
          "data": "0x",
          "blockHash": "0x9848a16920063d1b5bc322183e6d9b8c1b45339d0109d18778362f4c7e16df4f",
          "blockNumber": "0x5dcbca",
          "transactionHash": "0xdcbc00f415dfd8cda0ad83dc66472027102b09cff1a22faeb3b4d29a820a8c9a",
          "transactionIndex": "0x47",
          "logIndex": "0x8f",
          "removed": false
        }
      ],
      "logsBloom": "0x00000000000000000000100800000000800000000000000000000000004000000000000000000000000000004000000080000000000000000000000000000000000000000000000001000088000000000000000000000000000000000000000008004000020000040000000000000800000000000000000000000050200000000000000000000008000000000000000000000000000000000000000000000000000000000000000000000000000000002080000000000004002000000000008000000002000000000000000000000000000000008000000000000000000020000000000000000000200000000000000000000000000000000000000000000000",
      "type": "0x2",
      "transactionHash": "0xdcbc00f415dfd8cda0ad83dc66472027102b09cff1a22faeb3b4d29a820a8c9a",
      "transactionIndex": "0x47",
      "blockHash": "0x9848a16920063d1b5bc322183e6d9b8c1b45339d0109d18778362f4c7e16df4f",
      "blockNumber": "0x5dcbca",
      "gasUsed": "0x16bfd",
      "effectiveGasPrice": "0x216a7fab",
      "from": "0x764693dd666e8dd9275cde8f05c6b07446b1d941",
      "to": "0xefce5726631051a4ea3a8483d79e69f8fe0aa12a",
      "contractAddress": null
    },
    {
      "status": "0x1",
      "cumulativeGasUsed": "0xa11778",
      "logs": [
        {
          "address": "0xd8ed4a9317585bd8ce8ef7524c313f25373d1739",
          "topics": [
            "0x8c5be1e5ebec7d5bd14f71427d1e84f3dd0314c0f7b2291e5b200ac8c7c3b925",
            "0x000000000000000000000000764693dd666e8dd9275cde8f05c6b07446b1d941",
            "0x000000000000000000000000efce5726631051a4ea3a8483d79e69f8fe0aa12a"
          ],
          "data": "0xffffffffffffffffffffffffffffffffffffffffffffffffffffffffffffffff",
          "blockHash": "0x9848a16920063d1b5bc322183e6d9b8c1b45339d0109d18778362f4c7e16df4f",
          "blockNumber": "0x5dcbca",
          "transactionHash": "0xa4a096c56f6b606522a8f02a1ddbe85f6aa3f6a999a1e91ad55dcaa9d3af9a0d",
          "transactionIndex": "0x48",
          "logIndex": "0x90",
          "removed": false
        }
      ],
      "logsBloom": "0x00000000000000000000000000000000800000000000000000000000004000000000000000000000000000000000000000000000000000000000000000200000000000000000000000000080000000000000000000000000000000000000000000000000000000000000000000800000000000000000000000000000000000000000000000000000000000000000000000000000000000000000000000000000020000000200000000000000000000000000000000000000000000000040000000000000000000000000000000000004000000000000000000000000000000000010000000000000020000000000000400000000000000000000000000000000",
      "type": "0x2",
      "transactionHash": "0xa4a096c56f6b606522a8f02a1ddbe85f6aa3f6a999a1e91ad55dcaa9d3af9a0d",
      "transactionIndex": "0x48",
      "blockHash": "0x9848a16920063d1b5bc322183e6d9b8c1b45339d0109d18778362f4c7e16df4f",
      "blockNumber": "0x5dcbca",
      "gasUsed": "0xb65b",
      "effectiveGasPrice": "0x216a7fab",
      "from": "0x764693dd666e8dd9275cde8f05c6b07446b1d941",
      "to": "0xd8ed4a9317585bd8ce8ef7524c313f25373d1739",
      "contractAddress": null
    },
    {
      "status": "0x1",
      "cumulativeGasUsed": "0xa2fa94",
      "logs": [
        {
          "address": "0xd8ed4a9317585bd8ce8ef7524c313f25373d1739",
          "topics": [
            "0xddf252ad1be2c89b69c2b068fc378daa952ba7f163c4a11628f55a4df523b3ef",
            "0x000000000000000000000000764693dd666e8dd9275cde8f05c6b07446b1d941",
            "0x000000000000000000000000efce5726631051a4ea3a8483d79e69f8fe0aa12a"
          ],
          "data": "0x00000000000000000000000000000000000000000000018650127cc3dc800000",
          "blockHash": "0x9848a16920063d1b5bc322183e6d9b8c1b45339d0109d18778362f4c7e16df4f",
          "blockNumber": "0x5dcbca",
          "transactionHash": "0x2f6a9a199c4c01026314eb08b8d60ef91d0ed5d0fb0696b0910575c96c175aa6",
          "transactionIndex": "0x49",
          "logIndex": "0x91",
          "removed": false
        },
        {
          "address": "0xd8ed4a9317585bd8ce8ef7524c313f25373d1739",
          "topics": [
            "0xddf252ad1be2c89b69c2b068fc378daa952ba7f163c4a11628f55a4df523b3ef",
            "0x000000000000000000000000efce5726631051a4ea3a8483d79e69f8fe0aa12a",
            "0x000000000000000000000000764693dd666e8dd9275cde8f05c6b07446b1d941"
          ],
          "data": "0x000000000000000000000000000000000000000000000186500eef4537b98000",
          "blockHash": "0x9848a16920063d1b5bc322183e6d9b8c1b45339d0109d18778362f4c7e16df4f",
          "blockNumber": "0x5dcbca",
          "transactionHash": "0x2f6a9a199c4c01026314eb08b8d60ef91d0ed5d0fb0696b0910575c96c175aa6",
          "transactionIndex": "0x49",
          "logIndex": "0x92",
          "removed": false
        },
        {
          "address": "0xefce5726631051a4ea3a8483d79e69f8fe0aa12a",
          "topics": [
            "0x1a777a4e69f842f69af228bdecb2e58e1ab9d68e3c8694533ddb6ff9dd243f82",
            "0x0000000000000000000000000000000000000000000000000000000000000001",
            "0x000000000000000000000000764693dd666e8dd9275cde8f05c6b07446b1d941"
          ],
          "data": "0x",
          "blockHash": "0x9848a16920063d1b5bc322183e6d9b8c1b45339d0109d18778362f4c7e16df4f",
          "blockNumber": "0x5dcbca",
          "transactionHash": "0x2f6a9a199c4c01026314eb08b8d60ef91d0ed5d0fb0696b0910575c96c175aa6",
          "transactionIndex": "0x49",
          "logIndex": "0x93",
          "removed": false
        }
      ],
      "logsBloom": "0x00000000000000000000000000000000800000000000000000000000004000000000000000000000000000000000000000000000000000000000000000040000000000000000000004000088000000000000000000040000000000000000000000000000000000000000000000800000000000000000000000000010000000000000000000000008000000000000000000000000000200000000000000000000000000000200000000000000000000000080000000000004000000000040000000000002000000000000000000000004000000000000000000000000000040000000000000000000020000000000000400000000000800000000000000000000",
      "type": "0x2",
      "transactionHash": "0x2f6a9a199c4c01026314eb08b8d60ef91d0ed5d0fb0696b0910575c96c175aa6",
      "transactionIndex": "0x49",
      "blockHash": "0x9848a16920063d1b5bc322183e6d9b8c1b45339d0109d18778362f4c7e16df4f",
      "blockNumber": "0x5dcbca",
      "gasUsed": "0x1e31c",
      "effectiveGasPrice": "0x216a7fab",
      "from": "0x764693dd666e8dd9275cde8f05c6b07446b1d941",
      "to": "0xefce5726631051a4ea3a8483d79e69f8fe0aa12a",
      "contractAddress": null
    },
    {
      "status": "0x1",
      "cumulativeGasUsed": "0xa49ae4",
      "logs": [
        {
          "address": "0xd8ed4a9317585bd8ce8ef7524c313f25373d1739",
          "topics": [
            "0xddf252ad1be2c89b69c2b068fc378daa952ba7f163c4a11628f55a4df523b3ef",
            "0x000000000000000000000000764693dd666e8dd9275cde8f05c6b07446b1d941",
            "0x000000000000000000000000efce5726631051a4ea3a8483d79e69f8fe0aa12a"
          ],
          "data": "0x00000000000000000000000000000000000000000000018650127cc3dc800000",
          "blockHash": "0x9848a16920063d1b5bc322183e6d9b8c1b45339d0109d18778362f4c7e16df4f",
          "blockNumber": "0x5dcbca",
          "transactionHash": "0x89b359071978fb9fa8251adceb5edeafbeca864b82ed13b70c5c042fa5950a60",
          "transactionIndex": "0x4a",
          "logIndex": "0x94",
          "removed": false
        },
        {
          "address": "0xd8ed4a9317585bd8ce8ef7524c313f25373d1739",
          "topics": [
            "0xddf252ad1be2c89b69c2b068fc378daa952ba7f163c4a11628f55a4df523b3ef",
            "0x000000000000000000000000efce5726631051a4ea3a8483d79e69f8fe0aa12a",
            "0x000000000000000000000000764693dd666e8dd9275cde8f05c6b07446b1d941"
          ],
          "data": "0x000000000000000000000000000000000000000000000186500eef4537b98000",
          "blockHash": "0x9848a16920063d1b5bc322183e6d9b8c1b45339d0109d18778362f4c7e16df4f",
          "blockNumber": "0x5dcbca",
          "transactionHash": "0x89b359071978fb9fa8251adceb5edeafbeca864b82ed13b70c5c042fa5950a60",
          "transactionIndex": "0x4a",
          "logIndex": "0x95",
          "removed": false
        },
        {
          "address": "0xefce5726631051a4ea3a8483d79e69f8fe0aa12a",
          "topics": [
            "0x1a777a4e69f842f69af228bdecb2e58e1ab9d68e3c8694533ddb6ff9dd243f82",
            "0x0000000000000000000000000000000000000000000000000000000000000002",
            "0x000000000000000000000000764693dd666e8dd9275cde8f05c6b07446b1d941"
          ],
          "data": "0x",
          "blockHash": "0x9848a16920063d1b5bc322183e6d9b8c1b45339d0109d18778362f4c7e16df4f",
          "blockNumber": "0x5dcbca",
          "transactionHash": "0x89b359071978fb9fa8251adceb5edeafbeca864b82ed13b70c5c042fa5950a60",
          "transactionIndex": "0x4a",
          "logIndex": "0x96",
          "removed": false
        }
      ],
      "logsBloom": "0x04000000000000000000000000000000800000000000000000000000004000000000000000000000000000000000000000000000000000000000000000000000000000000000000004000088000000000000000000000000000000000000000000000000000000000000000000800000000000000000000000000010000000000000000000000008000000000000000000000000000200000000000000000000000000000200000000000100000000000080000000000004000000000040000000000002000000000000000000000004000000000000000000000000000000000000000000000000020000000000000400000000008800000000000000000000",
      "type": "0x2",
      "transactionHash": "0x89b359071978fb9fa8251adceb5edeafbeca864b82ed13b70c5c042fa5950a60",
      "transactionIndex": "0x4a",
      "blockHash": "0x9848a16920063d1b5bc322183e6d9b8c1b45339d0109d18778362f4c7e16df4f",
      "blockNumber": "0x5dcbca",
      "gasUsed": "0x1a050",
      "effectiveGasPrice": "0x216a7fab",
      "from": "0x764693dd666e8dd9275cde8f05c6b07446b1d941",
      "to": "0xefce5726631051a4ea3a8483d79e69f8fe0aa12a",
      "contractAddress": null
    },
    {
      "status": "0x1",
      "cumulativeGasUsed": "0xa63a5c",
      "logs": [
        {
          "address": "0xd8ed4a9317585bd8ce8ef7524c313f25373d1739",
          "topics": [
            "0xddf252ad1be2c89b69c2b068fc378daa952ba7f163c4a11628f55a4df523b3ef",
            "0x000000000000000000000000764693dd666e8dd9275cde8f05c6b07446b1d941",
            "0x000000000000000000000000efce5726631051a4ea3a8483d79e69f8fe0aa12a"
          ],
          "data": "0x000000000000000000000000000000000000000000018036d232d0cd0e000000",
          "blockHash": "0x9848a16920063d1b5bc322183e6d9b8c1b45339d0109d18778362f4c7e16df4f",
          "blockNumber": "0x5dcbca",
          "transactionHash": "0x83d0f7c7f223f159fa369c1caaa749f177ce4bf6477a97776c7f22c61c3157d0",
          "transactionIndex": "0x4b",
          "logIndex": "0x97",
          "removed": false
        },
        {
          "address": "0xd8ed4a9317585bd8ce8ef7524c313f25373d1739",
          "topics": [
            "0xddf252ad1be2c89b69c2b068fc378daa952ba7f163c4a11628f55a4df523b3ef",
            "0x000000000000000000000000efce5726631051a4ea3a8483d79e69f8fe0aa12a",
            "0x000000000000000000000000764693dd666e8dd9275cde8f05c6b07446b1d941"
          ],
          "data": "0x000000000000000000000000000000000000000000018036d22f434e69398000",
          "blockHash": "0x9848a16920063d1b5bc322183e6d9b8c1b45339d0109d18778362f4c7e16df4f",
          "blockNumber": "0x5dcbca",
          "transactionHash": "0x83d0f7c7f223f159fa369c1caaa749f177ce4bf6477a97776c7f22c61c3157d0",
          "transactionIndex": "0x4b",
          "logIndex": "0x98",
          "removed": false
        },
        {
          "address": "0xefce5726631051a4ea3a8483d79e69f8fe0aa12a",
          "topics": [
            "0x1a777a4e69f842f69af228bdecb2e58e1ab9d68e3c8694533ddb6ff9dd243f82",
            "0x0000000000000000000000000000000000000000000000000000000000000003",
            "0x000000000000000000000000764693dd666e8dd9275cde8f05c6b07446b1d941"
          ],
          "data": "0x",
          "blockHash": "0x9848a16920063d1b5bc322183e6d9b8c1b45339d0109d18778362f4c7e16df4f",
          "blockNumber": "0x5dcbca",
          "transactionHash": "0x83d0f7c7f223f159fa369c1caaa749f177ce4bf6477a97776c7f22c61c3157d0",
          "transactionIndex": "0x4b",
          "logIndex": "0x99",
          "removed": false
        }
      ],
      "logsBloom": "0x00000000000000000000000000000000800000000000000000000000004000000000000000000000000000000000000000000000020000000000000000000000000000000000000004000088000000000000000000000000000000000000000000000000000000000000000000800000000000000000000000000010000000000000000000000008000000000000000000000000000200000000000000000000000000000200000000000000000000000080000000800004000000000040400000000002000000000000000000000004000000000000000000000000000000000000000000000000020000000000000400000000000800000000000000000000",
      "type": "0x2",
      "transactionHash": "0x83d0f7c7f223f159fa369c1caaa749f177ce4bf6477a97776c7f22c61c3157d0",
      "transactionIndex": "0x4b",
      "blockHash": "0x9848a16920063d1b5bc322183e6d9b8c1b45339d0109d18778362f4c7e16df4f",
      "blockNumber": "0x5dcbca",
      "gasUsed": "0x19f78",
      "effectiveGasPrice": "0x216a7fab",
      "from": "0x764693dd666e8dd9275cde8f05c6b07446b1d941",
      "to": "0xefce5726631051a4ea3a8483d79e69f8fe0aa12a",
      "contractAddress": null
    },
    {
      "status": "0x1",
      "cumulativeGasUsed": "0xa7d9c8",
      "logs": [
        {
          "address": "0xd8ed4a9317585bd8ce8ef7524c313f25373d1739",
          "topics": [
            "0xddf252ad1be2c89b69c2b068fc378daa952ba7f163c4a11628f55a4df523b3ef",
            "0x000000000000000000000000764693dd666e8dd9275cde8f05c6b07446b1d941",
            "0x000000000000000000000000efce5726631051a4ea3a8483d79e69f8fe0aa12a"
          ],
          "data": "0x0000000000000000000000000000000000000000000292a71f328a8418000000",
          "blockHash": "0x9848a16920063d1b5bc322183e6d9b8c1b45339d0109d18778362f4c7e16df4f",
          "blockNumber": "0x5dcbca",
          "transactionHash": "0xc657be7aeeaadd08765334264c6345dcf03e2932735ad5600b632e379cbf73ef",
          "transactionIndex": "0x4c",
          "logIndex": "0x9a",
          "removed": false
        },
        {
          "address": "0xd8ed4a9317585bd8ce8ef7524c313f25373d1739",
          "topics": [
            "0xddf252ad1be2c89b69c2b068fc378daa952ba7f163c4a11628f55a4df523b3ef",
            "0x000000000000000000000000efce5726631051a4ea3a8483d79e69f8fe0aa12a",
            "0x000000000000000000000000764693dd666e8dd9275cde8f05c6b07446b1d941"
          ],
          "data": "0x0000000000000000000000000000000000000000000292a71f2efd0573398000",
          "blockHash": "0x9848a16920063d1b5bc322183e6d9b8c1b45339d0109d18778362f4c7e16df4f",
          "blockNumber": "0x5dcbca",
          "transactionHash": "0xc657be7aeeaadd08765334264c6345dcf03e2932735ad5600b632e379cbf73ef",
          "transactionIndex": "0x4c",
          "logIndex": "0x9b",
          "removed": false
        },
        {
          "address": "0xefce5726631051a4ea3a8483d79e69f8fe0aa12a",
          "topics": [
            "0x1a777a4e69f842f69af228bdecb2e58e1ab9d68e3c8694533ddb6ff9dd243f82",
            "0x0000000000000000000000000000000000000000000000000000000000000004",
            "0x000000000000000000000000764693dd666e8dd9275cde8f05c6b07446b1d941"
          ],
          "data": "0x",
          "blockHash": "0x9848a16920063d1b5bc322183e6d9b8c1b45339d0109d18778362f4c7e16df4f",
          "blockNumber": "0x5dcbca",
          "transactionHash": "0xc657be7aeeaadd08765334264c6345dcf03e2932735ad5600b632e379cbf73ef",
          "transactionIndex": "0x4c",
          "logIndex": "0x9c",
          "removed": false
        }
      ],
      "logsBloom": "0x00000000000000000000000000000000800000000000000000000000004000000000000000000000000000000000000000000000000000000000000000000000000000000000000004000088000000000000000000000000000000000000000008000000000000000000000000800000000000000000000000000010000000000000000000000008000000000000000000000000000200000000000000000000000000000200000000000000000000000080000000000004002000000040000000000002000000000000000000000004000000008000000000000000000000000000000000000000020000000000000400000000000800000000000000000000",
      "type": "0x2",
      "transactionHash": "0xc657be7aeeaadd08765334264c6345dcf03e2932735ad5600b632e379cbf73ef",
      "transactionIndex": "0x4c",
      "blockHash": "0x9848a16920063d1b5bc322183e6d9b8c1b45339d0109d18778362f4c7e16df4f",
      "blockNumber": "0x5dcbca",
      "gasUsed": "0x19f6c",
      "effectiveGasPrice": "0x216a7fab",
      "from": "0x764693dd666e8dd9275cde8f05c6b07446b1d941",
      "to": "0xefce5726631051a4ea3a8483d79e69f8fe0aa12a",
      "contractAddress": null
    },
    {
      "status": "0x1",
      "cumulativeGasUsed": "0xa97a18",
      "logs": [
        {
          "address": "0xd8ed4a9317585bd8ce8ef7524c313f25373d1739",
          "topics": [
            "0xddf252ad1be2c89b69c2b068fc378daa952ba7f163c4a11628f55a4df523b3ef",
            "0x000000000000000000000000764693dd666e8dd9275cde8f05c6b07446b1d941",
            "0x000000000000000000000000efce5726631051a4ea3a8483d79e69f8fe0aa12a"
          ],
          "data": "0x0000000000000000000000000000000000000000000006194049f30f72000000",
          "blockHash": "0x9848a16920063d1b5bc322183e6d9b8c1b45339d0109d18778362f4c7e16df4f",
          "blockNumber": "0x5dcbca",
          "transactionHash": "0xcf297e46cc918d7ba13d9ed5b141322e3a573a615b0a19e079ba5f0efe8065b8",
          "transactionIndex": "0x4d",
          "logIndex": "0x9d",
          "removed": false
        },
        {
          "address": "0xd8ed4a9317585bd8ce8ef7524c313f25373d1739",
          "topics": [
            "0xddf252ad1be2c89b69c2b068fc378daa952ba7f163c4a11628f55a4df523b3ef",
            "0x000000000000000000000000efce5726631051a4ea3a8483d79e69f8fe0aa12a",
            "0x000000000000000000000000764693dd666e8dd9275cde8f05c6b07446b1d941"
          ],
          "data": "0x00000000000000000000000000000000000000000000061940466590cd398000",
          "blockHash": "0x9848a16920063d1b5bc322183e6d9b8c1b45339d0109d18778362f4c7e16df4f",
          "blockNumber": "0x5dcbca",
          "transactionHash": "0xcf297e46cc918d7ba13d9ed5b141322e3a573a615b0a19e079ba5f0efe8065b8",
          "transactionIndex": "0x4d",
          "logIndex": "0x9e",
          "removed": false
        },
        {
          "address": "0xefce5726631051a4ea3a8483d79e69f8fe0aa12a",
          "topics": [
            "0x1a777a4e69f842f69af228bdecb2e58e1ab9d68e3c8694533ddb6ff9dd243f82",
            "0x0000000000000000000000000000000000000000000000000000000000000005",
            "0x000000000000000000000000764693dd666e8dd9275cde8f05c6b07446b1d941"
          ],
          "data": "0x",
          "blockHash": "0x9848a16920063d1b5bc322183e6d9b8c1b45339d0109d18778362f4c7e16df4f",
          "blockNumber": "0x5dcbca",
          "transactionHash": "0xcf297e46cc918d7ba13d9ed5b141322e3a573a615b0a19e079ba5f0efe8065b8",
          "transactionIndex": "0x4d",
          "logIndex": "0x9f",
          "removed": false
        }
      ],
      "logsBloom": "0x00000000000000000000000000000000800000000000000000000000004000000000000000000000000000000000000000000000000000000000000000000000000010000000000004000088000000000000000000000000000000000000000000000000000000000000000000800000000000000000000000000010000000000000000000000008000000000000001000000800000200000000000000000000000000000200000000000000000000000080000000000004000000000040000000000002000000000000000000000004000000000000000000000000000000000000000000000000020000000000000400000000000800000000000000000000",
      "type": "0x2",
      "transactionHash": "0xcf297e46cc918d7ba13d9ed5b141322e3a573a615b0a19e079ba5f0efe8065b8",
      "transactionIndex": "0x4d",
      "blockHash": "0x9848a16920063d1b5bc322183e6d9b8c1b45339d0109d18778362f4c7e16df4f",
      "blockNumber": "0x5dcbca",
      "gasUsed": "0x1a050",
      "effectiveGasPrice": "0x216a7fab",
      "from": "0x764693dd666e8dd9275cde8f05c6b07446b1d941",
      "to": "0xefce5726631051a4ea3a8483d79e69f8fe0aa12a",
      "contractAddress": null
    },
    {
      "status": "0x1",
      "cumulativeGasUsed": "0xa9f8d8",
      "logs": [
        {
          "address": "0xefce5726631051a4ea3a8483d79e69f8fe0aa12a",
          "topics": [
            "0x484d6a78aff107b13227d3005e91c4967e9d387e9c8b44953f3f95f18308a926",
            "0x0000000000000000000000000000000000000000000000000000000000000001"
          ],
          "data": "0x",
          "blockHash": "0x9848a16920063d1b5bc322183e6d9b8c1b45339d0109d18778362f4c7e16df4f",
          "blockNumber": "0x5dcbca",
          "transactionHash": "0x3bbb06cbe2a8ae7516600c56779c6d5b052c8c57f6cab1e237f334c4c611d4c1",
          "transactionIndex": "0x4e",
          "logIndex": "0xa0",
          "removed": false
        }
      ],
      "logsBloom": "0x00000000000000000000000000000000000000000000000000000000000000000000000000000000000000000000000000000000000000000000000000040000000000000000000000000000000000000000000000040000000000000000000000000000000000000000000000000020000000000000000000000000000000000000000000000008000000000000000000000000000000000000000000000000000000000000000000000000000000000088000000000004000000000000000000000000000000000000000000000000000000000000000000000000000040040000000000000000000000000000000000000000000000000000000000000000",
      "type": "0x2",
      "transactionHash": "0x3bbb06cbe2a8ae7516600c56779c6d5b052c8c57f6cab1e237f334c4c611d4c1",
      "transactionIndex": "0x4e",
      "blockHash": "0x9848a16920063d1b5bc322183e6d9b8c1b45339d0109d18778362f4c7e16df4f",
      "blockNumber": "0x5dcbca",
      "gasUsed": "0x7ec0",
      "effectiveGasPrice": "0x216a7fab",
      "from": "0x764693dd666e8dd9275cde8f05c6b07446b1d941",
      "to": "0xefce5726631051a4ea3a8483d79e69f8fe0aa12a",
      "contractAddress": null
    },
    {
      "status": "0x1",
      "cumulativeGasUsed": "0xaa7798",
      "logs": [
        {
          "address": "0xefce5726631051a4ea3a8483d79e69f8fe0aa12a",
          "topics": [
            "0x484d6a78aff107b13227d3005e91c4967e9d387e9c8b44953f3f95f18308a926",
            "0x0000000000000000000000000000000000000000000000000000000000000003"
          ],
          "data": "0x",
          "blockHash": "0x9848a16920063d1b5bc322183e6d9b8c1b45339d0109d18778362f4c7e16df4f",
          "blockNumber": "0x5dcbca",
          "transactionHash": "0x31d6b14e79d62bfd48e8522e6aa93ea835e954e815f6b3a917bfbfa60e1d0198",
          "transactionIndex": "0x4f",
          "logIndex": "0xa1",
          "removed": false
        }
      ],
      "logsBloom": "0x00000000000000000000000000000000000000000000000000000000000000000000000000000000000000000000000000000000020000000000000000000000000000000000000000000000000000000000000000000000000000000000000000000000000000000000000000000020000000000000000000000000000000000000000000000008000000000000000000000000000000000000000000000000000000000000000000000000000000000088000000800004000000000000400000000000000000000000000000000000000000000000000000000000000000040000000000000000000000000000000000000000000000000000000000000000",
      "type": "0x2",
      "transactionHash": "0x31d6b14e79d62bfd48e8522e6aa93ea835e954e815f6b3a917bfbfa60e1d0198",
      "transactionIndex": "0x4f",
      "blockHash": "0x9848a16920063d1b5bc322183e6d9b8c1b45339d0109d18778362f4c7e16df4f",
      "blockNumber": "0x5dcbca",
      "gasUsed": "0x7ec0",
      "effectiveGasPrice": "0x216a7fab",
      "from": "0x764693dd666e8dd9275cde8f05c6b07446b1d941",
      "to": "0xefce5726631051a4ea3a8483d79e69f8fe0aa12a",
      "contractAddress": null
    }
  ],
  "libraries": [],
  "pending": [],
  "returns": {},
  "timestamp": 1718880275,
  "chain": 11155111,
  "commit": "8fce21c"
}