{
  "transactions": [
    {
      "hash": "0x8c8d852c67724b38afe919dc7d01f0cef437f5080ee39ad6b8738e07e9740d48",
      "transactionType": "CREATE",
      "contractName": "MembershipNft",
      "contractAddress": "0xe37e44964dad319c6b31d222453b7ddd3b249721",
      "function": null,
      "arguments": [
        "\"demo\""
      ],
      "transaction": {
        "from": "0x764693dd666e8dd9275cde8f05c6b07446b1d941",
        "gas": "0x1ba568",
        "value": "0x0",
        "input": "0x608060405234801561001057600080fd5b506040516119be3803806119be83398101604081905261002f91610145565b336040518060400160405280600e81526020016d13595b58995c9cda1a5c0813919560921b8152506040518060400160405280600381526020016213539560ea1b8152508160009081610082919061029a565b50600161008f828261029a565b5050506001600160a01b0381166100c057604051631e4fbdf760e01b81526000600482015260240160405180910390fd5b6100c9816100dd565b50600a6100d6828261029a565b5050610358565b600780546001600160a01b038381166001600160a01b0319831681179093556040519116919082907f8be0079c531659141344cd1fd0a4f28419497f9722a3daafe3b4186f6b6457e090600090a35050565b634e487b7160e01b600052604160045260246000fd5b60006020828403121561015757600080fd5b81516001600160401b0381111561016d57600080fd5b8201601f8101841361017e57600080fd5b80516001600160401b038111156101975761019761012f565b604051601f8201601f19908116603f011681016001600160401b03811182821017156101c5576101c561012f565b6040528181528282016020018610156101dd57600080fd5b60005b828110156101fc576020818501810151838301820152016101e0565b50600091810160200191909152949350505050565b600181811c9082168061022557607f821691505b60208210810361024557634e487b7160e01b600052602260045260246000fd5b50919050565b601f82111561029557806000526020600020601f840160051c810160208510156102725750805b601f840160051c820191505b81811015610292576000815560010161027e565b50505b505050565b81516001600160401b038111156102b3576102b361012f565b6102c7816102c18454610211565b8461024b565b6020601f8211600181146102fb57600083156102e35750848201515b600019600385901b1c1916600184901b178455610292565b600084815260208120601f198516915b8281101561032b578785015182556020948501946001909201910161030b565b50848210156103495786840151600019600387901b60f8161c191681555b50505050600190811b01905550565b611657806103676000396000f3fe608060405234801561001057600080fd5b50600436106101375760003560e01c806370a08231116100b8578063aa600b8a1161007c578063aa600b8a14610275578063b88d4fde14610288578063c2ea4a2d1461029b578063c87b56dd146102ae578063e985e9c5146102c1578063f2fde38b146102d457600080fd5b806370a0823114610220578063715018a6146102415780638da5cb5b1461024957806395d89b411461025a578063a22cb4651461026257600080fd5b806319b35093116100ff57806319b35093146101c157806323b872dd146101d45780633665bd1d146101e757806342842e0e146101fa5780636352211e1461020d57600080fd5b806301ffc9a71461013c57806306fdde0314610164578063081812fc14610179578063095ea7b3146101a45780631141d7de146101b9575b600080fd5b61014f61014a366004611191565b6102e7565b60405190151581526020015b60405180910390f35b61016c610312565b60405161015b91906111fe565b61018c610187366004611211565b6103a4565b6040516001600160a01b03909116815260200161015b565b6101b76101b2366004611246565b6103cd565b005b61016c6103dc565b6101b76101cf366004611270565b61046a565b6101b76101e236600461128b565b610494565b6101b76101f5366004611211565b610524565b6101b761020836600461128b565b610586565b61018c61021b366004611211565b6105a6565b61023361022e366004611270565b6105b1565b60405190815260200161015b565b6101b76105f9565b6007546001600160a01b031661018c565b61016c61060d565b6101b76102703660046112c8565b61061c565b6101b7610283366004611270565b610627565b6101b761029636600461131a565b610743565b60085461018c906001600160a01b031681565b61016c6102bc366004611211565b61075a565b61014f6102cf3660046113fe565b61086b565b6101b76102e2366004611270565b610899565b60006001600160e01b03198216632483248360e11b148061030c575061030c826108d7565b92915050565b60606000805461032190611431565b80601f016020809104026020016040519081016040528092919081815260200182805461034d90611431565b801561039a5780601f1061036f5761010080835404028352916020019161039a565b820191906000526020600020905b81548152906001019060200180831161037d57829003601f168201915b5050505050905090565b60006103af82610927565b506000828152600460205260409020546001600160a01b031661030c565b6103d8828233610960565b5050565b600a80546103e990611431565b80601f016020809104026020016040519081016040528092919081815260200182805461041590611431565b80156104625780601f1061043757610100808354040283529160200191610462565b820191906000526020600020905b81548152906001019060200180831161044557829003601f168201915b505050505081565b61047261096d565b600880546001600160a01b0319166001600160a01b0392909216919091179055565b6001600160a01b0382166104c357604051633250574960e11b8152600060048201526024015b60405180910390fd5b60006104d083833361099a565b9050836001600160a01b0316816001600160a01b03161461051e576040516364283d7b60e01b81526001600160a01b03808616600483015260248201849052821660448201526064016104ba565b50505050565b6008546001600160a01b0316331461054f5760405163be24598360e01b815260040160405180910390fd5b61055881610a93565b60405181907fbb17bf6c2cf433e35096ddc2c37d42fbda9f1d7db9c0e98af23cd2e68d00bbd090600090a250565b6105a183838360405180602001604052806000815250610743565b505050565b600061030c82610927565b60006001600160a01b0382166105dd576040516322718ad960e21b8152600060048201526024016104ba565b506001600160a01b031660009081526003602052604090205490565b61060161096d565b61060b6000610ace565b565b60606001805461032190611431565b6103d8338383610b20565b6008546001600160a01b031633146106525760405163be24598360e01b815260040160405180910390fd5b600980549060006106628361146b565b919050555061067381600954610bbf565b610709600954600a805461068690611431565b80601f01602080910402602001604051908101604052809291908181526020018280546106b290611431565b80156106ff5780601f106106d4576101008083540402835291602001916106ff565b820191906000526020600020905b8154815290600101906020018083116106e257829003601f168201915b5050505050610bd9565b6009546040516001600160a01b038316907fbab4562ae868d1765ed8452e98bba908a974596c4babc3ada5e90e05e3f433fb90600090a350565b61074e848484610494565b61051e84848484610c29565b606061076582610927565b506000828152600660205260408120805461077f90611431565b80601f01602080910402602001604051908101604052809291908181526020018280546107ab90611431565b80156107f85780601f106107cd576101008083540402835291602001916107f8565b820191906000526020600020905b8154815290600101906020018083116107db57829003601f168201915b50505050509050600061081660408051602081019091526000815290565b90508051600003610828575092915050565b81511561085a578082604051602001610842929190611492565b60405160208183030381529060405292505050919050565b61086384610d52565b949350505050565b6001600160a01b03918216600090815260056020908152604080832093909416825291909152205460ff1690565b6108a161096d565b6001600160a01b0381166108cb57604051631e4fbdf760e01b8152600060048201526024016104ba565b6108d481610ace565b50565b60006001600160e01b031982166380ac58cd60e01b148061090857506001600160e01b03198216635b5e139f60e01b145b8061030c57506301ffc9a760e01b6001600160e01b031983161461030c565b6000818152600260205260408120546001600160a01b03168061030c57604051637e27328960e01b8152600481018490526024016104ba565b6105a18383836001610dc7565b6007546001600160a01b0316331461060b5760405163118cdaa760e01b81523360048201526024016104ba565b6000828152600260205260408120546001600160a01b03908116908316156109c7576109c7818486610ecd565b6001600160a01b03811615610a05576109e4600085600080610dc7565b6001600160a01b038116600090815260036020526040902080546000190190555b6001600160a01b03851615610a34576001600160a01b0385166000908152600360205260409020805460010190555b60008481526002602052604080822080546001600160a01b0319166001600160a01b0389811691821790925591518793918516917fddf252ad1be2c89b69c2b068fc378daa952ba7f163c4a11628f55a4df523b3ef91a4949350505050565b6000610aa2600083600061099a565b90506001600160a01b0381166103d857604051637e27328960e01b8152600481018390526024016104ba565b600780546001600160a01b038381166001600160a01b0319831681179093556040519116919082907f8be0079c531659141344cd1fd0a4f28419497f9722a3daafe3b4186f6b6457e090600090a35050565b6001600160a01b038216610b5257604051630b61174360e31b81526001600160a01b03831660048201526024016104ba565b6001600160a01b03838116600081815260056020908152604080832094871680845294825291829020805460ff191686151590811790915591519182527f17307eab39ab6107e8899845ad3d59bd9653f200f220920489ca2b5937696c31910160405180910390a3505050565b6103d8828260405180602001604052806000815250610f31565b6000828152600660205260409020610bf18282611508565b506040518281527ff8e1a15aba9398e019f0b49df1a4fde98ee17ae345cb5f6b5e2c27f5033e8ce79060200160405180910390a15050565b6001600160a01b0383163b1561051e57604051630a85bd0160e11b81526001600160a01b0384169063150b7a0290610c6b9033908890879087906004016115c7565b6020604051808303816000875af1925050508015610ca6575060408051601f3d908101601f19168201909252610ca391810190611604565b60015b610d0f573d808015610cd4576040519150601f19603f3d011682016040523d82523d6000602084013e610cd9565b606091505b508051600003610d0757604051633250574960e11b81526001600160a01b03851660048201526024016104ba565b805181602001fd5b6001600160e01b03198116630a85bd0160e11b14610d4b57604051633250574960e11b81526001600160a01b03851660048201526024016104ba565b5050505050565b6060610d5d82610927565b506000610d7560408051602081019091526000815290565b90506000815111610d955760405180602001604052806000815250610dc0565b80610d9f84610f48565b604051602001610db0929190611492565b6040516020818303038152906040525b9392505050565b8080610ddb57506001600160a01b03821615155b15610e9d576000610deb84610927565b90506001600160a01b03831615801590610e175750826001600160a01b0316816001600160a01b031614155b8015610e2a5750610e28818461086b565b155b15610e535760405163a9fbf51f60e01b81526001600160a01b03841660048201526024016104ba565b8115610e9b5783856001600160a01b0316826001600160a01b03167f8c5be1e5ebec7d5bd14f71427d1e84f3dd0314c0f7b2291e5b200ac8c7c3b92560405160405180910390a45b505b5050600090815260046020526040902080546001600160a01b0319166001600160a01b0392909216919091179055565b610ed8838383610fdb565b6105a1576001600160a01b038316610f0657604051637e27328960e01b8152600481018290526024016104ba565b60405163177e802f60e01b81526001600160a01b0383166004820152602481018290526044016104ba565b610f3b838361103e565b6105a16000848484610c29565b60606000610f55836110a3565b600101905060008167ffffffffffffffff811115610f7557610f75611304565b6040519080825280601f01601f191660200182016040528015610f9f576020820181803683370190505b5090508181016020015b600019016f181899199a1a9b1b9c1cb0b131b232b360811b600a86061a8153600a8504945084610fa957509392505050565b60006001600160a01b038316158015906108635750826001600160a01b0316846001600160a01b031614806110155750611015848461086b565b806108635750506000908152600460205260409020546001600160a01b03908116911614919050565b6001600160a01b03821661106857604051633250574960e11b8152600060048201526024016104ba565b60006110768383600061099a565b90506001600160a01b038116156105a1576040516339e3563760e11b8152600060048201526024016104ba565b60008072184f03e93ff9f4daa797ed6e38ed64bf6a1f0160401b83106110e25772184f03e93ff9f4daa797ed6e38ed64bf6a1f0160401b830492506040015b6d04ee2d6d415b85acef8100000000831061110e576d04ee2d6d415b85acef8100000000830492506020015b662386f26fc10000831061112c57662386f26fc10000830492506010015b6305f5e1008310611144576305f5e100830492506008015b612710831061115857612710830492506004015b6064831061116a576064830492506002015b600a831061030c5760010192915050565b6001600160e01b0319811681146108d457600080fd5b6000602082840312156111a357600080fd5b8135610dc08161117b565b60005b838110156111c95781810151838201526020016111b1565b50506000910152565b600081518084526111ea8160208601602086016111ae565b601f01601f19169290920160200192915050565b602081526000610dc060208301846111d2565b60006020828403121561122357600080fd5b5035919050565b80356001600160a01b038116811461124157600080fd5b919050565b6000806040838503121561125957600080fd5b6112628361122a565b946020939093013593505050565b60006020828403121561128257600080fd5b610dc08261122a565b6000806000606084860312156112a057600080fd5b6112a98461122a565b92506112b76020850161122a565b929592945050506040919091013590565b600080604083850312156112db57600080fd5b6112e48361122a565b9150602083013580151581146112f957600080fd5b809150509250929050565b634e487b7160e01b600052604160045260246000fd5b6000806000806080858703121561133057600080fd5b6113398561122a565b93506113476020860161122a565b925060408501359150606085013567ffffffffffffffff81111561136a57600080fd5b8501601f8101871361137b57600080fd5b803567ffffffffffffffff81111561139557611395611304565b604051601f8201601f19908116603f0116810167ffffffffffffffff811182821017156113c4576113c4611304565b6040528181528282016020018910156113dc57600080fd5b8160208401602083013760006020838301015280935050505092959194509250565b6000806040838503121561141157600080fd5b61141a8361122a565b91506114286020840161122a565b90509250929050565b600181811c9082168061144557607f821691505b60208210810361146557634e487b7160e01b600052602260045260246000fd5b50919050565b60006001820161148b57634e487b7160e01b600052601160045260246000fd5b5060010190565b600083516114a48184602088016111ae565b8351908301906114b88183602088016111ae565b01949350505050565b601f8211156105a157806000526020600020601f840160051c810160208510156114e85750805b601f840160051c820191505b81811015610d4b57600081556001016114f4565b815167ffffffffffffffff81111561152257611522611304565b611536816115308454611431565b846114c1565b6020601f82116001811461156a57600083156115525750848201515b600019600385901b1c1916600184901b178455610d4b565b600084815260208120601f198516915b8281101561159a578785015182556020948501946001909201910161157a565b50848210156115b85786840151600019600387901b60f8161c191681555b50505050600190811b01905550565b6001600160a01b03858116825284166020820152604081018390526080606082018190526000906115fa908301846111d2565b9695505050505050565b60006020828403121561161657600080fd5b8151610dc08161117b56fea2646970667358221220a93233fe1e0adc13f4dbcc74f685e80129e834254f3d5c7378128ac7f7a27d1564736f6c634300081a00330000000000000000000000000000000000000000000000000000000000000020000000000000000000000000000000000000000000000000000000000000000464656d6f00000000000000000000000000000000000000000000000000000000",
        "nonce": "0x141",
        "chainId": "0xaa36a7"
      },
      "additionalContracts": [],
      "isFixedGasLimit": false
    },
    {
      "hash": "0xd641b2ed3dd233cc8cc2234f028e98e34cd8ac96e88506076b88260b9356b777",
      "transactionType": "CREATE",
      "contractName": "ParkingSpaceNFT",
      "contractAddress": "0x6ec5929e48ad78838155fc8d3c6ed4e3c5bac111",
      "function": null,
      "arguments": [
        "\"demo\""
      ],
      "transaction": {
        "from": "0x764693dd666e8dd9275cde8f05c6b07446b1d941",
        "gas": "0x1bbba0",
        "value": "0x0",
        "input": "0x608060405234801561001057600080fd5b506040516119d53803806119d583398101604081905261002f91610148565b336040518060400160405280601181526020017014185c9ada5b99c814dc1858d948139195607a1b815250604051806040016040528060038152602001622829a760e91b8152508160009081610085919061029d565b506001610092828261029d565b5050506001600160a01b0381166100c357604051631e4fbdf760e01b81526000600482015260240160405180910390fd5b6100cc816100e0565b50600a6100d9828261029d565b505061035b565b600780546001600160a01b038381166001600160a01b0319831681179093556040519116919082907f8be0079c531659141344cd1fd0a4f28419497f9722a3daafe3b4186f6b6457e090600090a35050565b634e487b7160e01b600052604160045260246000fd5b60006020828403121561015a57600080fd5b81516001600160401b0381111561017057600080fd5b8201601f8101841361018157600080fd5b80516001600160401b0381111561019a5761019a610132565b604051601f8201601f19908116603f011681016001600160401b03811182821017156101c8576101c8610132565b6040528181528282016020018610156101e057600080fd5b60005b828110156101ff576020818501810151838301820152016101e3565b50600091810160200191909152949350505050565b600181811c9082168061022857607f821691505b60208210810361024857634e487b7160e01b600052602260045260246000fd5b50919050565b601f82111561029857806000526020600020601f840160051c810160208510156102755750805b601f840160051c820191505b818110156102955760008155600101610281565b50505b505050565b81516001600160401b038111156102b6576102b6610132565b6102ca816102c48454610214565b8461024e565b6020601f8211600181146102fe57600083156102e65750848201515b600019600385901b1c1916600184901b178455610295565b600084815260208120601f198516915b8281101561032e578785015182556020948501946001909201910161030e565b508482101561034c5786840151600019600387901b60f8161c191681555b50505050600190811b01905550565b61166b8061036a6000396000f3fe608060405234801561001057600080fd5b50600436106101425760003560e01c80636352211e116100b8578063a22cb4651161007c578063a22cb46514610289578063b88d4fde1461029c578063c2ea4a2d146102af578063c87b56dd146102c2578063e985e9c5146102d5578063f2fde38b146102e857600080fd5b80636352211e1461024257806370a0823114610255578063715018a6146102685780638da5cb5b1461027057806395d89b411461028157600080fd5b806317d70f7c1161010a57806317d70f7c146101cc57806319b35093146101e357806323b872dd146101f65780632a6ac5791461020957806339c575e51461021c57806342842e0e1461022f57600080fd5b806301ffc9a71461014757806306fdde031461016f578063081812fc14610184578063095ea7b3146101af5780631141d7de146101c4575b600080fd5b61015a6101553660046111a5565b6102fb565b60405190151581526020015b60405180910390f35b610177610326565b6040516101669190611212565b610197610192366004611225565b6103b8565b6040516001600160a01b039091168152602001610166565b6101c26101bd36600461125a565b6103e1565b005b6101776103f0565b6101d560095481565b604051908152602001610166565b6101c26101f1366004611284565b61047e565b6101c261020436600461129f565b6104a8565b6101c2610217366004611284565b610538565b6101c261022a366004611225565b610654565b6101c261023d36600461129f565b6106b6565b610197610250366004611225565b6106d6565b6101d5610263366004611284565b6106e1565b6101c2610729565b6007546001600160a01b0316610197565b61017761073d565b6101c26102973660046112dc565b61074c565b6101c26102aa36600461132e565b610757565b600854610197906001600160a01b031681565b6101776102d0366004611225565b61076e565b61015a6102e3366004611412565b61087f565b6101c26102f6366004611284565b6108ad565b60006001600160e01b03198216632483248360e11b14806103205750610320826108eb565b92915050565b60606000805461033590611445565b80601f016020809104026020016040519081016040528092919081815260200182805461036190611445565b80156103ae5780601f10610383576101008083540402835291602001916103ae565b820191906000526020600020905b81548152906001019060200180831161039157829003601f168201915b5050505050905090565b60006103c38261093b565b506000828152600460205260409020546001600160a01b0316610320565b6103ec828233610974565b5050565b600a80546103fd90611445565b80601f016020809104026020016040519081016040528092919081815260200182805461042990611445565b80156104765780601f1061044b57610100808354040283529160200191610476565b820191906000526020600020905b81548152906001019060200180831161045957829003601f168201915b505050505081565b610486610981565b600880546001600160a01b0319166001600160a01b0392909216919091179055565b6001600160a01b0382166104d757604051633250574960e11b8152600060048201526024015b60405180910390fd5b60006104e48383336109ae565b9050836001600160a01b0316816001600160a01b031614610532576040516364283d7b60e01b81526001600160a01b03808616600483015260248201849052821660448201526064016104ce565b50505050565b6008546001600160a01b031633146105635760405163be24598360e01b815260040160405180910390fd5b600980549060006105738361147f565b919050555061058481600954610aa7565b61061a600954600a805461059790611445565b80601f01602080910402602001604051908101604052809291908181526020018280546105c390611445565b80156106105780601f106105e557610100808354040283529160200191610610565b820191906000526020600020905b8154815290600101906020018083116105f357829003601f168201915b5050505050610ac1565b6009546040516001600160a01b038316907f026aac271342ae43d27b41062e6f37001e4673fbbf25ad4bc3cfd6cd2094bd3990600090a350565b6008546001600160a01b0316331461067f5760405163be24598360e01b815260040160405180910390fd5b61068881610b11565b60405181907fbb17bf6c2cf433e35096ddc2c37d42fbda9f1d7db9c0e98af23cd2e68d00bbd090600090a250565b6106d183838360405180602001604052806000815250610757565b505050565b60006103208261093b565b60006001600160a01b03821661070d576040516322718ad960e21b8152600060048201526024016104ce565b506001600160a01b031660009081526003602052604090205490565b610731610981565b61073b6000610b4c565b565b60606001805461033590611445565b6103ec338383610b9e565b6107628484846104a8565b61053284848484610c3d565b60606107798261093b565b506000828152600660205260408120805461079390611445565b80601f01602080910402602001604051908101604052809291908181526020018280546107bf90611445565b801561080c5780601f106107e15761010080835404028352916020019161080c565b820191906000526020600020905b8154815290600101906020018083116107ef57829003601f168201915b50505050509050600061082a60408051602081019091526000815290565b9050805160000361083c575092915050565b81511561086e5780826040516020016108569291906114a6565b60405160208183030381529060405292505050919050565b61087784610d66565b949350505050565b6001600160a01b03918216600090815260056020908152604080832093909416825291909152205460ff1690565b6108b5610981565b6001600160a01b0381166108df57604051631e4fbdf760e01b8152600060048201526024016104ce565b6108e881610b4c565b50565b60006001600160e01b031982166380ac58cd60e01b148061091c57506001600160e01b03198216635b5e139f60e01b145b8061032057506301ffc9a760e01b6001600160e01b0319831614610320565b6000818152600260205260408120546001600160a01b03168061032057604051637e27328960e01b8152600481018490526024016104ce565b6106d18383836001610ddb565b6007546001600160a01b0316331461073b5760405163118cdaa760e01b81523360048201526024016104ce565b6000828152600260205260408120546001600160a01b03908116908316156109db576109db818486610ee1565b6001600160a01b03811615610a19576109f8600085600080610ddb565b6001600160a01b038116600090815260036020526040902080546000190190555b6001600160a01b03851615610a48576001600160a01b0385166000908152600360205260409020805460010190555b60008481526002602052604080822080546001600160a01b0319166001600160a01b0389811691821790925591518793918516917fddf252ad1be2c89b69c2b068fc378daa952ba7f163c4a11628f55a4df523b3ef91a4949350505050565b6103ec828260405180602001604052806000815250610f45565b6000828152600660205260409020610ad9828261151c565b506040518281527ff8e1a15aba9398e019f0b49df1a4fde98ee17ae345cb5f6b5e2c27f5033e8ce79060200160405180910390a15050565b6000610b2060008360006109ae565b90506001600160a01b0381166103ec57604051637e27328960e01b8152600481018390526024016104ce565b600780546001600160a01b038381166001600160a01b0319831681179093556040519116919082907f8be0079c531659141344cd1fd0a4f28419497f9722a3daafe3b4186f6b6457e090600090a35050565b6001600160a01b038216610bd057604051630b61174360e31b81526001600160a01b03831660048201526024016104ce565b6001600160a01b03838116600081815260056020908152604080832094871680845294825291829020805460ff191686151590811790915591519182527f17307eab39ab6107e8899845ad3d59bd9653f200f220920489ca2b5937696c31910160405180910390a3505050565b6001600160a01b0383163b1561053257604051630a85bd0160e11b81526001600160a01b0384169063150b7a0290610c7f9033908890879087906004016115db565b6020604051808303816000875af1925050508015610cba575060408051601f3d908101601f19168201909252610cb791810190611618565b60015b610d23573d808015610ce8576040519150601f19603f3d011682016040523d82523d6000602084013e610ced565b606091505b508051600003610d1b57604051633250574960e11b81526001600160a01b03851660048201526024016104ce565b805181602001fd5b6001600160e01b03198116630a85bd0160e11b14610d5f57604051633250574960e11b81526001600160a01b03851660048201526024016104ce565b5050505050565b6060610d718261093b565b506000610d8960408051602081019091526000815290565b90506000815111610da95760405180602001604052806000815250610dd4565b80610db384610f5c565b604051602001610dc49291906114a6565b6040516020818303038152906040525b9392505050565b8080610def57506001600160a01b03821615155b15610eb1576000610dff8461093b565b90506001600160a01b03831615801590610e2b5750826001600160a01b0316816001600160a01b031614155b8015610e3e5750610e3c818461087f565b155b15610e675760405163a9fbf51f60e01b81526001600160a01b03841660048201526024016104ce565b8115610eaf5783856001600160a01b0316826001600160a01b03167f8c5be1e5ebec7d5bd14f71427d1e84f3dd0314c0f7b2291e5b200ac8c7c3b92560405160405180910390a45b505b5050600090815260046020526040902080546001600160a01b0319166001600160a01b0392909216919091179055565b610eec838383610fef565b6106d1576001600160a01b038316610f1a57604051637e27328960e01b8152600481018290526024016104ce565b60405163177e802f60e01b81526001600160a01b0383166004820152602481018290526044016104ce565b610f4f8383611052565b6106d16000848484610c3d565b60606000610f69836110b7565b600101905060008167ffffffffffffffff811115610f8957610f89611318565b6040519080825280601f01601f191660200182016040528015610fb3576020820181803683370190505b5090508181016020015b600019016f181899199a1a9b1b9c1cb0b131b232b360811b600a86061a8153600a8504945084610fbd57509392505050565b60006001600160a01b038316158015906108775750826001600160a01b0316846001600160a01b031614806110295750611029848461087f565b806108775750506000908152600460205260409020546001600160a01b03908116911614919050565b6001600160a01b03821661107c57604051633250574960e11b8152600060048201526024016104ce565b600061108a838360006109ae565b90506001600160a01b038116156106d1576040516339e3563760e11b8152600060048201526024016104ce565b60008072184f03e93ff9f4daa797ed6e38ed64bf6a1f0160401b83106110f65772184f03e93ff9f4daa797ed6e38ed64bf6a1f0160401b830492506040015b6d04ee2d6d415b85acef81000000008310611122576d04ee2d6d415b85acef8100000000830492506020015b662386f26fc10000831061114057662386f26fc10000830492506010015b6305f5e1008310611158576305f5e100830492506008015b612710831061116c57612710830492506004015b6064831061117e576064830492506002015b600a83106103205760010192915050565b6001600160e01b0319811681146108e857600080fd5b6000602082840312156111b757600080fd5b8135610dd48161118f565b60005b838110156111dd5781810151838201526020016111c5565b50506000910152565b600081518084526111fe8160208601602086016111c2565b601f01601f19169290920160200192915050565b602081526000610dd460208301846111e6565b60006020828403121561123757600080fd5b5035919050565b80356001600160a01b038116811461125557600080fd5b919050565b6000806040838503121561126d57600080fd5b6112768361123e565b946020939093013593505050565b60006020828403121561129657600080fd5b610dd48261123e565b6000806000606084860312156112b457600080fd5b6112bd8461123e565b92506112cb6020850161123e565b929592945050506040919091013590565b600080604083850312156112ef57600080fd5b6112f88361123e565b91506020830135801515811461130d57600080fd5b809150509250929050565b634e487b7160e01b600052604160045260246000fd5b6000806000806080858703121561134457600080fd5b61134d8561123e565b935061135b6020860161123e565b925060408501359150606085013567ffffffffffffffff81111561137e57600080fd5b8501601f8101871361138f57600080fd5b803567ffffffffffffffff8111156113a9576113a9611318565b604051601f8201601f19908116603f0116810167ffffffffffffffff811182821017156113d8576113d8611318565b6040528181528282016020018910156113f057600080fd5b8160208401602083013760006020838301015280935050505092959194509250565b6000806040838503121561142557600080fd5b61142e8361123e565b915061143c6020840161123e565b90509250929050565b600181811c9082168061145957607f821691505b60208210810361147957634e487b7160e01b600052602260045260246000fd5b50919050565b60006001820161149f57634e487b7160e01b600052601160045260246000fd5b5060010190565b600083516114b88184602088016111c2565b8351908301906114cc8183602088016111c2565b01949350505050565b601f8211156106d157806000526020600020601f840160051c810160208510156114fc5750805b601f840160051c820191505b81811015610d5f5760008155600101611508565b815167ffffffffffffffff81111561153657611536611318565b61154a816115448454611445565b846114d5565b6020601f82116001811461157e57600083156115665750848201515b600019600385901b1c1916600184901b178455610d5f565b600084815260208120601f198516915b828110156115ae578785015182556020948501946001909201910161158e565b50848210156115cc5786840151600019600387901b60f8161c191681555b50505050600190811b01905550565b6001600160a01b038581168252841660208201526040810183905260806060820181905260009061160e908301846111e6565b9695505050505050565b60006020828403121561162a57600080fd5b8151610dd48161118f56fea26469706673582212202e1fd3fb3a1d2b6352fbcd7bdcab3b8fc72f67a790bff15886b1b0e893831dc064736f6c634300081a00330000000000000000000000000000000000000000000000000000000000000020000000000000000000000000000000000000000000000000000000000000000464656d6f00000000000000000000000000000000000000000000000000000000",
        "nonce": "0x142",
        "chainId": "0xaa36a7"
      },
      "additionalContracts": [],
      "isFixedGasLimit": false
    },
    {
      "hash": "0xf8174382fe394d0c2971332093b1690e425ad796e5f8ac1346e037134535b26a",
      "transactionType": "CREATE",
      "contractName": "ParkTokenMain",
      "contractAddress": "0xd8ed4a9317585bd8ce8ef7524c313f25373d1739",
      "function": null,
      "arguments": [
        "0x764693DD666E8dD9275CDE8F05C6B07446B1d941"
      ],
      "transaction": {
        "from": "0x764693dd666e8dd9275cde8f05c6b07446b1d941",
        "gas": "0xc7f27",
        "value": "0x0",
        "input": "0x608060405234801561001057600080fd5b50604051610c5b380380610c5b83398101604081905261002f91610218565b604051806040016040528060098152602001682830b935aa37b5b2b760b91b815250604051806040016040528060048152602001635041524b60e01b815250816003908161007d91906102e7565b50600461008a82826102e7565b5050506100a9816b033b2e3c9fd0803ce80000006100af60201b60201c565b506103cc565b6001600160a01b0382166100de5760405163ec442f0560e01b8152600060048201526024015b60405180910390fd5b6100ea600083836100ee565b5050565b6001600160a01b03831661011957806002600082825461010e91906103a5565b9091555061018b9050565b6001600160a01b0383166000908152602081905260409020548181101561016c5760405163391434e360e21b81526001600160a01b038516600482015260248101829052604481018390526064016100d5565b6001600160a01b03841660009081526020819052604090209082900390555b6001600160a01b0382166101a7576002805482900390556101c6565b6001600160a01b03821660009081526020819052604090208054820190555b816001600160a01b0316836001600160a01b03167fddf252ad1be2c89b69c2b068fc378daa952ba7f163c4a11628f55a4df523b3ef8360405161020b91815260200190565b60405180910390a3505050565b60006020828403121561022a57600080fd5b81516001600160a01b038116811461024157600080fd5b9392505050565b634e487b7160e01b600052604160045260246000fd5b600181811c9082168061027257607f821691505b60208210810361029257634e487b7160e01b600052602260045260246000fd5b50919050565b601f8211156102e257806000526020600020601f840160051c810160208510156102bf5750805b601f840160051c820191505b818110156102df57600081556001016102cb565b50505b505050565b81516001600160401b0381111561030057610300610248565b6103148161030e845461025e565b84610298565b6020601f82116001811461034857600083156103305750848201515b600019600385901b1c1916600184901b1784556102df565b600084815260208120601f198516915b828110156103785787850151825560209485019460019092019101610358565b50848210156103965786840151600019600387901b60f8161c191681555b50505050600190811b01905550565b808201808211156103c657634e487b7160e01b600052601160045260246000fd5b92915050565b610880806103db6000396000f3fe60806040526004361061009c5760003560e01c8063313ce56711610064578063313ce567146101455780634e71d92d1461016157806370a082311461017657806395d89b41146101ac578063a9059cbb146101c1578063dd62ed3e146101e157600080fd5b806306fdde03146100a1578063095ea7b3146100cc5780631249c58b146100fc57806318160ddd1461010657806323b872dd14610125575b600080fd5b3480156100ad57600080fd5b506100b6610227565b6040516100c391906106c9565b60405180910390f35b3480156100d857600080fd5b506100ec6100e7366004610733565b6102b9565b60405190151581526020016100c3565b6101046102d3565b005b34801561011257600080fd5b506002545b6040519081526020016100c3565b34801561013157600080fd5b506100ec61014036600461075d565b6102ec565b34801561015157600080fd5b50604051601281526020016100c3565b34801561016d57600080fd5b50610104610310565b34801561018257600080fd5b5061011761019136600461079a565b6001600160a01b031660009081526020819052604090205490565b3480156101b857600080fd5b506100b661037f565b3480156101cd57600080fd5b506100ec6101dc366004610733565b61038e565b3480156101ed57600080fd5b506101176101fc3660046107bc565b6001600160a01b03918216600090815260016020908152604080832093909416825291909152205490565b606060038054610236906107ef565b80601f0160208091040260200160405190810160405280929190818152602001828054610262906107ef565b80156102af5780601f10610284576101008083540402835291602001916102af565b820191906000526020600020905b81548152906001019060200180831161029257829003601f168201915b5050505050905090565b6000336102c781858561039c565b60019150505b92915050565b600034116102e057600080fd5b6102ea33346103ae565b565b6000336102fa8582856103ed565b61030585858561046b565b506001949350505050565b6005546001600160a01b0316331461032757600080fd5b604051600090339047908381818185875af1925050503d8060008114610369576040519150601f19603f3d011682016040523d82523d6000602084013e61036e565b606091505b505090508061037c57600080fd5b50565b606060048054610236906107ef565b6000336102c781858561046b565b6103a983838360016104ca565b505050565b6001600160a01b0382166103dd5760405163ec442f0560e01b8152600060048201526024015b60405180910390fd5b6103e96000838361059f565b5050565b6001600160a01b038381166000908152600160209081526040808320938616835292905220546000198114610465578181101561045657604051637dc7a0d960e11b81526001600160a01b038416600482015260248101829052604481018390526064016103d4565b610465848484840360006104ca565b50505050565b6001600160a01b03831661049557604051634b637e8f60e11b8152600060048201526024016103d4565b6001600160a01b0382166104bf5760405163ec442f0560e01b8152600060048201526024016103d4565b6103a983838361059f565b6001600160a01b0384166104f45760405163e602df0560e01b8152600060048201526024016103d4565b6001600160a01b03831661051e57604051634a1406b160e11b8152600060048201526024016103d4565b6001600160a01b038085166000908152600160209081526040808320938716835292905220829055801561046557826001600160a01b0316846001600160a01b03167f8c5be1e5ebec7d5bd14f71427d1e84f3dd0314c0f7b2291e5b200ac8c7c3b9258460405161059191815260200190565b60405180910390a350505050565b6001600160a01b0383166105ca5780600260008282546105bf9190610829565b9091555061063c9050565b6001600160a01b0383166000908152602081905260409020548181101561061d5760405163391434e360e21b81526001600160a01b038516600482015260248101829052604481018390526064016103d4565b6001600160a01b03841660009081526020819052604090209082900390555b6001600160a01b03821661065857600280548290039055610677565b6001600160a01b03821660009081526020819052604090208054820190555b816001600160a01b0316836001600160a01b03167fddf252ad1be2c89b69c2b068fc378daa952ba7f163c4a11628f55a4df523b3ef836040516106bc91815260200190565b60405180910390a3505050565b602081526000825180602084015260005b818110156106f757602081860181015160408684010152016106da565b506000604082850101526040601f19601f83011684010191505092915050565b80356001600160a01b038116811461072e57600080fd5b919050565b6000806040838503121561074657600080fd5b61074f83610717565b946020939093013593505050565b60008060006060848603121561077257600080fd5b61077b84610717565b925061078960208501610717565b929592945050506040919091013590565b6000602082840312156107ac57600080fd5b6107b582610717565b9392505050565b600080604083850312156107cf57600080fd5b6107d883610717565b91506107e660208401610717565b90509250929050565b600181811c9082168061080357607f821691505b60208210810361082357634e487b7160e01b600052602260045260246000fd5b50919050565b808201808211156102cd57634e487b7160e01b600052601160045260246000fdfea26469706673582212200be246a1f0d0355b30c85094a9f3be092c61a08f5afc3a1ca6a8ab90101cb7d364736f6c634300081a0033000000000000000000000000764693dd666e8dd9275cde8f05c6b07446b1d941",
        "nonce": "0x143",
        "chainId": "0xaa36a7"
      },
      "additionalContracts": [],
      "isFixedGasLimit": false
    },
    {
      "hash": "0x86f8bd6aeef4db3eade1442fbbed89272cb0fb7fc04854fa43e19828484e5a2d",
      "transactionType": "CREATE",
      "contractName": "ParkFi",
      "contractAddress": "0x1f6eec72dca1ccd968aba326492eaab09bf8c14c",
      "function": null,
      "arguments": [
        "0xe37e44964Dad319C6b31D222453b7DDd3b249721",
        "0x6Ec5929e48aD78838155FC8D3C6ed4E3c5BAc111",
        "0xD8ed4a9317585BD8Ce8eF7524C313F25373D1739",
        "10000000000000000",
        "1000000000000000"
      ],
      "transaction": {
        "from": "0x764693dd666e8dd9275cde8f05c6b07446b1d941",
        "gas": "0x16230c",
        "value": "0x0",
        "input": "0x608060405234801561001057600080fd5b5060405161122738038061122783398101604081905261002f91610117565b338061005557604051631e4fbdf760e01b81526000600482015260240160405180910390fd5b61005e816100ab565b50600180546001600160a01b03199081166001600160a01b03978816179091556002805482169587169590951790945560038054909416929094169190911790915560045560055561016d565b600080546001600160a01b038381166001600160a01b0319831681178455604051919092169283917f8be0079c531659141344cd1fd0a4f28419497f9722a3daafe3b4186f6b6457e09190a35050565b80516001600160a01b038116811461011257600080fd5b919050565b600080600080600060a0868803121561012f57600080fd5b610138866100fb565b9450610146602087016100fb565b9350610154604087016100fb565b6060870151608090970151959894975095949392505050565b6110ab8061017c6000396000f3fe608060405234801561001057600080fd5b50600436106100935760003560e01c80639a9f07de116100665780639a9f07de146100ee578063a1ae6a25146100f6578063e0bddcd914610109578063f2fde38b1461011c578063f62c28cf1461012f57600080fd5b80631bd2eeee146100985780633b111731146100ad578063715018a6146100cb5780638da5cb5b146100d3575b600080fd5b6100ab6100a6366004610e10565b610137565b005b6100b56102ec565b6040516100c29190610e61565b60405180910390f35b6100ab610505565b6000546040516001600160a01b0390911681526020016100c2565b6100b5610519565b6100ab610104366004610f0e565b6107a1565b6100ab610117366004610f4a565b610b9c565b6100ab61012a366004610f6c565b610c7f565b6100ab610cc2565b600180546040516370a0823160e01b81523360048201526001600160a01b03909116906370a0823190602401602060405180830381865afa158015610180573d6000803e3d6000fd5b505050506040513d601f19601f820116820180604052508101906101a49190610f9c565b10156101c35760405163148fe22160e11b815260040160405180910390fd5b6000818152600760205260409020600481015461010090046001600160a01b031633146102035760405163be24598360e01b815260040160405180910390fd5b60006102128260030154610d4c565b905080156102a45760035460058301546040516323b872dd60e01b81523360048201526001600160a01b039182166024820152604481018490529116906323b872dd906064016020604051808303816000875af1158015610277573d6000803e3d6000fd5b505050506040513d601f19601f8201168201806040525081019061029b9190610fb5565b6102a457600080fd5b6004820180546001600160a81b031916905560006003830181905560405184917f484d6a78aff107b13227d3005e91c4967e9d387e9c8b44953f3f95f18308a92691a2505050565b6006546060906000805b8281101561033e576007600061030d836001610fed565b815260208101919091526040016000206004015460ff16610336578161033281611006565b9250505b6001016102f6565b506000808267ffffffffffffffff81111561035b5761035b61101f565b6040519080825280602002602001820160405280156103d157816020015b6103be6040805161010081018252600080825260208201819052918101829052606081018290526080810182905260a0810182905260c081018290529060e082015290565b8152602001906001900390816103795790505b50905060005b848110156104fc57600760006103ee836001610fed565b815260208101919091526040016000206004015460ff166104f4576000610416826001610fed565b60008181526007602090815260409182902082516101008082018552825482526001808401549483019490945260028301549482019490945260038201546060820152600482015460ff808216151560808401529490046001600160a01b0390811660a0830152600583015490811660c083015294955090939092849260e0850192600160a01b9004909116908111156104b2576104b2610e29565b60018111156104c3576104c3610e29565b815250508486815181106104d9576104d9611035565b60209081029190910101526104ef600186610fed565b945050505b6001016103d7565b50949350505050565b61050d610d93565b6105176000610dc0565b565b6006546060906000805b828110156105a7576007600061053a836001610fed565b815260208101919091526040016000206004015460ff16801561058c57503360076000610568846001610fed565b815260208101919091526040016000206004015461010090046001600160a01b0316145b1561059f578161059b81611006565b9250505b600101610523565b506000808267ffffffffffffffff8111156105c4576105c461101f565b60405190808252806020026020018201604052801561063a57816020015b6106276040805161010081018252600080825260208201819052918101829052606081018290526080810182905260a0810182905260c081018290529060e082015290565b8152602001906001900390816105e25790505b50905060005b848110156104fc5760076000610657836001610fed565b815260208101919091526040016000206004015460ff1680156106a957503360076000610685846001610fed565b815260208101919091526040016000206004015461010090046001600160a01b0316145b156107995760006106bb826001610fed565b60008181526007602090815260409182902082516101008082018552825482526001808401549483019490945260028301549482019490945260038201546060820152600482015460ff808216151560808401529490046001600160a01b0390811660a0830152600583015490811660c083015294955090939092849260e0850192600160a01b90049091169081111561075757610757610e29565b600181111561076857610768610e29565b8152505084868151811061077e5761077e611035565b6020908102919091010152610794600186610fed565b945050505b600101610640565b600180546040516370a0823160e01b81523360048201526001600160a01b03909116906370a0823190602401602060405180830381865afa1580156107ea573d6000803e3d6000fd5b505050506040513d601f19601f8201168201806040525081019061080e9190610f9c565b101561082d5760405163148fe22160e11b815260040160405180910390fd5b6000838152600760205260409020600481015460ff16156108615760405163d9b9141960e01b815260040160405180910390fd5b60048101805433610100026001600160a81b0319909116176001179055600083600181111561089257610892610e29565b03610a205760058101805460ff60a01b191690556108b08242610fed565b600382015560018101546000906108c7908461104b565b6003546040516323b872dd60e01b8152336004820152306024820152604481018390529192506001600160a01b0316906323b872dd906064016020604051808303816000875af115801561091f573d6000803e3d6000fd5b505050506040513d601f19601f820116820180604052508101906109439190610fb5565b61094c57600080fd5b60035460058301546004546001600160a01b039283169263a9059cbb9216906109759085611062565b6040516001600160e01b031960e085901b1681526001600160a01b03909216600483015260248201526044016020604051808303816000875af11580156109c0573d6000803e3d6000fd5b505050506040513d601f19601f820116820180604052508101906109e49190610fb5565b6109ed57600080fd5b604051339086907f1a777a4e69f842f69af228bdecb2e58e1ab9d68e3c8694533ddb6ff9dd243f8290600090a350610b96565b610a2a8242610fed565b60038201556002810154600090610a41908461104b565b6003546040516323b872dd60e01b8152336004820152306024820152604481018390529192506001600160a01b0316906323b872dd906064016020604051808303816000875af1158015610a99573d6000803e3d6000fd5b505050506040513d601f19601f82011682018060405250810190610abd9190610fb5565b610ac657600080fd5b60035460058301546004546001600160a01b039283169263a9059cbb921690610aef9085611062565b6040516001600160e01b031960e085901b1681526001600160a01b03909216600483015260248201526044016020604051808303816000875af1158015610b3a573d6000803e3d6000fd5b505050506040513d601f19601f82011682018060405250810190610b5e9190610fb5565b610b6757600080fd5b604051339086907f1a777a4e69f842f69af228bdecb2e58e1ab9d68e3c8694533ddb6ff9dd243f8290600090a3505b50505050565b60068054906000610bac83611006565b9091555050600654600081815260076020526040908190209182556001820184905560028083018490556005830180546001600160a01b0319163390811790915590549151632a6ac57960e01b815260048101919091526001600160a01b0390911690632a6ac57990602401600060405180830381600087803b158015610c3257600080fd5b505af1158015610c46573d6000803e3d6000fd5b50506006546040518593508692507f91e71c368c41168aa5766ee5b0c25d8c5f2c37970e7e4365305015fae0bfb0c690600090a4505050565b610c87610d93565b6001600160a01b038116610cb657604051631e4fbdf760e01b8152600060048201526024015b60405180910390fd5b610cbf81610dc0565b50565b60015460405163553005c560e11b81523360048201526001600160a01b039091169063aa600b8a90602401600060405180830381600087803b158015610d0757600080fd5b505af1158015610d1b573d6000803e3d6000fd5b50506040513392507fd35a6cc813c47c11ff9f41f7fe9d463b32db9be612b7f78e9ba6336deb4c59009150600090a2565b600081421115610d8e576000610d628342611062565b90508015610d8c57600454610d77908261104b565b610d8990670de0b6b3a764000061104b565b91505b505b919050565b6000546001600160a01b031633146105175760405163118cdaa760e01b8152336004820152602401610cad565b600080546001600160a01b038381166001600160a01b0319831681178455604051919092169283917f8be0079c531659141344cd1fd0a4f28419497f9722a3daafe3b4186f6b6457e09190a35050565b600060208284031215610e2257600080fd5b5035919050565b634e487b7160e01b600052602160045260246000fd5b60028110610e5d57634e487b7160e01b600052602160045260246000fd5b9052565b602080825282518282018190526000918401906040840190835b81811015610f035783518051845260208101516020850152604081015160408501526060810151606085015260808101511515608085015260018060a01b0360a08201511660a085015260018060a01b0360c08201511660c085015260e08101519050610eeb60e0850182610e3f565b50602093909301926101009290920191600101610e7b565b509095945050505050565b600080600060608486031215610f2357600080fd5b83359250602084013560028110610f3957600080fd5b929592945050506040919091013590565b60008060408385031215610f5d57600080fd5b50508035926020909101359150565b600060208284031215610f7e57600080fd5b81356001600160a01b0381168114610f9557600080fd5b9392505050565b600060208284031215610fae57600080fd5b5051919050565b600060208284031215610fc757600080fd5b81518015158114610f9557600080fd5b634e487b7160e01b600052601160045260246000fd5b8082018082111561100057611000610fd7565b92915050565b60006001820161101857611018610fd7565b5060010190565b634e487b7160e01b600052604160045260246000fd5b634e487b7160e01b600052603260045260246000fd5b808202811582820484141761100057611000610fd7565b8181038181111561100057611000610fd756fea264697066735822122037196bd4309ca9a2b1722d2279eda4a068a8ca0bba4c34c79381b12c1abd083564736f6c634300081a0033000000000000000000000000e37e44964dad319c6b31d222453b7ddd3b2497210000000000000000000000006ec5929e48ad78838155fc8d3c6ed4e3c5bac111000000000000000000000000d8ed4a9317585bd8ce8ef7524c313f25373d1739000000000000000000000000000000000000000000000000002386f26fc1000000000000000000000000000000000000000000000000000000038d7ea4c68000",
        "nonce": "0x144",
        "chainId": "0xaa36a7"
      },
      "additionalContracts": [],
      "isFixedGasLimit": false
    },
    {
      "hash": "0x8a0e19ee43294cc1c4e1891cf6046d5724b095382fb8b0c826e778449d85afa6",
      "transactionType": "CALL",
      "contractName": "ParkTokenMain",
      "contractAddress": "0xd8ed4a9317585bd8ce8ef7524c313f25373d1739",
      "function": "transfer(address,uint256)",
      "arguments": [
        "0x2D9cB5c5733138e54Ec5E78C6553E6E145C2351C",
        "1000000000000000000000"
      ],
      "transaction": {
        "from": "0x764693dd666e8dd9275cde8f05c6b07446b1d941",
        "to": "0xd8ed4a9317585bd8ce8ef7524c313f25373d1739",
        "gas": "0x116b2",
        "value": "0x0",
        "input": "0xa9059cbb0000000000000000000000002d9cb5c5733138e54ec5e78c6553e6e145c2351c00000000000000000000000000000000000000000000003635c9adc5dea00000",
        "nonce": "0x145",
        "chainId": "0xaa36a7"
      },
      "additionalContracts": [],
      "isFixedGasLimit": false
    },
    {
      "hash": "0xb5f6099f39be91cd4542810a4a0f7f13bc8f833dc5729356899944ead2f50983",
      "transactionType": "CALL",
      "contractName": "MembershipNft",
      "contractAddress": "0xe37e44964dad319c6b31d222453b7ddd3b249721",
      "function": "setParkFiAddress(address)",
      "arguments": [
        "0x1f6EEC72dcA1ccd968aba326492EAAB09bF8C14c"
      ],
      "transaction": {
        "from": "0x764693dd666e8dd9275cde8f05c6b07446b1d941",
        "to": "0xe37e44964dad319c6b31d222453b7ddd3b249721",
        "gas": "0x1074e",
        "value": "0x0",
        "input": "0x19b350930000000000000000000000001f6eec72dca1ccd968aba326492eaab09bf8c14c",
        "nonce": "0x146",
        "chainId": "0xaa36a7"
      },
      "additionalContracts": [],
      "isFixedGasLimit": false
    },
    {
      "hash": "0x05a2d185138ba452253d51904d4de10146f92f0ae25759ed3c2a3077ee411821",
      "transactionType": "CALL",
      "contractName": "ParkingSpaceNFT",
      "contractAddress": "0x6ec5929e48ad78838155fc8d3c6ed4e3c5bac111",
      "function": "setParkFiAddress(address)",
      "arguments": [
        "0x1f6EEC72dcA1ccd968aba326492EAAB09bF8C14c"
      ],
      "transaction": {
        "from": "0x764693dd666e8dd9275cde8f05c6b07446b1d941",
        "to": "0x6ec5929e48ad78838155fc8d3c6ed4e3c5bac111",
        "gas": "0xf8cc",
        "value": "0x0",
        "input": "0x19b350930000000000000000000000001f6eec72dca1ccd968aba326492eaab09bf8c14c",
        "nonce": "0x147",
        "chainId": "0xaa36a7"
      },
      "additionalContracts": [],
      "isFixedGasLimit": false
    },
    {
      "hash": "0xf4e8c544c04752a1712790155e4fcb2689ced253989f46c8168fbeb5c9865227",
      "transactionType": "CALL",
      "contractName": "ParkFi",
      "contractAddress": "0x1f6eec72dca1ccd968aba326492eaab09bf8c14c",
      "function": "verifyAndMintParkingSpace(uint256,uint256)",
      "arguments": [
        "1000000000000000000",
        "4000000000000000000"
      ],
      "transaction": {
        "from": "0x764693dd666e8dd9275cde8f05c6b07446b1d941",
        "to": "0x1f6eec72dca1ccd968aba326492eaab09bf8c14c",
        "gas": "0x50ceb",
        "value": "0x0",
        "input": "0xe0bddcd90000000000000000000000000000000000000000000000000de0b6b3a76400000000000000000000000000000000000000000000000000003782dace9d900000",
        "nonce": "0x148",
        "chainId": "0xaa36a7"
      },
      "additionalContracts": [],
      "isFixedGasLimit": false
    },
    {
      "hash": "0x7f993c556d2bac1a60e89755ea1be3631706979a4d4d7c835531754541c73e16",
      "transactionType": "CALL",
      "contractName": "ParkFi",
      "contractAddress": "0x1f6eec72dca1ccd968aba326492eaab09bf8c14c",
      "function": "verifyAndMintParkingSpace(uint256,uint256)",
      "arguments": [
        "1000000000000000000",
        "5000000000000000000"
      ],
      "transaction": {
        "from": "0x764693dd666e8dd9275cde8f05c6b07446b1d941",
        "to": "0x1f6eec72dca1ccd968aba326492eaab09bf8c14c",
        "gas": "0x433e8",
        "value": "0x0",
        "input": "0xe0bddcd90000000000000000000000000000000000000000000000000de0b6b3a76400000000000000000000000000000000000000000000000000004563918244f40000",
        "nonce": "0x149",
        "chainId": "0xaa36a7"
      },
      "additionalContracts": [],
      "isFixedGasLimit": false
    },
    {
      "hash": "0xe399edf0239fa256e0eae0c184ca69cf178fc91f9494623f883e01ddcc130112",
      "transactionType": "CALL",
      "contractName": "ParkFi",
      "contractAddress": "0x1f6eec72dca1ccd968aba326492eaab09bf8c14c",
      "function": "verifyAndMintParkingSpace(uint256,uint256)",
      "arguments": [
        "2000000000000000000",
        "7000000000000000000"
      ],
      "transaction": {
        "from": "0x764693dd666e8dd9275cde8f05c6b07446b1d941",
        "to": "0x1f6eec72dca1ccd968aba326492eaab09bf8c14c",
        "gas": "0x433e8",
        "value": "0x0",
        "input": "0xe0bddcd90000000000000000000000000000000000000000000000001bc16d674ec800000000000000000000000000000000000000000000000000006124fee993bc0000",
        "nonce": "0x14a",
        "chainId": "0xaa36a7"
      },
      "additionalContracts": [],
      "isFixedGasLimit": false
    },
    {
      "hash": "0x57bcfd3dd04b50c813f7e68b985d92abd5b26f634ad42150166c0858f2b35192",
      "transactionType": "CALL",
      "contractName": "ParkFi",
      "contractAddress": "0x1f6eec72dca1ccd968aba326492eaab09bf8c14c",
      "function": "verifyAndMintParkingSpace(uint256,uint256)",
      "arguments": [
        "3000000000000000000",
        "9000000000000000000"
      ],
      "transaction": {
        "from": "0x764693dd666e8dd9275cde8f05c6b07446b1d941",
        "to": "0x1f6eec72dca1ccd968aba326492eaab09bf8c14c",
        "gas": "0x433e8",
        "value": "0x0",
        "input": "0xe0bddcd900000000000000000000000000000000000000000000000029a2241af62c00000000000000000000000000000000000000000000000000007ce66c50e2840000",
        "nonce": "0x14b",
        "chainId": "0xaa36a7"
      },
      "additionalContracts": [],
      "isFixedGasLimit": false
    },
    {
      "hash": "0xa0d86174d35ac404705c040f15dc2332c441338a9fd1295c5450f3a1ebed1c1b",
      "transactionType": "CALL",
      "contractName": "ParkFi",
      "contractAddress": "0x1f6eec72dca1ccd968aba326492eaab09bf8c14c",
      "function": "verifyAndMintParkingSpace(uint256,uint256)",
      "arguments": [
        "4000000000000000000",
        "12000000000000000000"
      ],
      "transaction": {
        "from": "0x764693dd666e8dd9275cde8f05c6b07446b1d941",
        "to": "0x1f6eec72dca1ccd968aba326492eaab09bf8c14c",
        "gas": "0x433e8",
        "value": "0x0",
        "input": "0xe0bddcd90000000000000000000000000000000000000000000000003782dace9d900000000000000000000000000000000000000000000000000000a688906bd8b00000",
        "nonce": "0x14c",
        "chainId": "0xaa36a7"
      },
      "additionalContracts": [],
      "isFixedGasLimit": false
    },
    {
      "hash": "0x2ebbda567fe6729149a5f1038ca4988a128858835860a8e68b3d0ae1d9c3f215",
      "transactionType": "CALL",
      "contractName": "ParkFi",
      "contractAddress": "0x1f6eec72dca1ccd968aba326492eaab09bf8c14c",
      "function": "verifyAndMintMembership()",
      "arguments": [],
      "transaction": {
        "from": "0x764693dd666e8dd9275cde8f05c6b07446b1d941",
        "to": "0x1f6eec72dca1ccd968aba326492eaab09bf8c14c",
        "gas": "0x2af48",
        "value": "0x0",
        "input": "0xf62c28cf",
        "nonce": "0x14d",
        "chainId": "0xaa36a7"
      },
      "additionalContracts": [],
      "isFixedGasLimit": false
    },
    {
      "hash": "0x715ffd0341fa3cf9452263cd835e9413e3f5aeb4694b0cb17eea5a4c27afcd4e",
      "transactionType": "CALL",
      "contractName": "ParkTokenMain",
      "contractAddress": "0xd8ed4a9317585bd8ce8ef7524c313f25373d1739",
      "function": "approve(address,uint256)",
      "arguments": [
        "0x1f6EEC72dcA1ccd968aba326492EAAB09bF8C14c",
        "115792089237316195423570985008687907853269984665640564039457584007913129639935"
      ],
      "transaction": {
        "from": "0x764693dd666e8dd9275cde8f05c6b07446b1d941",
        "to": "0xd8ed4a9317585bd8ce8ef7524c313f25373d1739",
        "gas": "0x10ab1",
        "value": "0x0",
        "input": "0x095ea7b30000000000000000000000001f6eec72dca1ccd968aba326492eaab09bf8c14cffffffffffffffffffffffffffffffffffffffffffffffffffffffffffffffff",
        "nonce": "0x14e",
        "chainId": "0xaa36a7"
      },
      "additionalContracts": [],
      "isFixedGasLimit": false
    },
    {
      "hash": "0x473e1fa1ae89071eda3f1d7cfe18d1411ba9f498318ef40ba3db6afffc2ceb8f",
      "transactionType": "CALL",
      "contractName": "ParkFi",
      "contractAddress": "0x1f6eec72dca1ccd968aba326492eaab09bf8c14c",
      "function": "checkIn(uint256,uint8,uint256)",
      "arguments": [
        "1",
        "0",
        "7200"
      ],
      "transaction": {
        "from": "0x764693dd666e8dd9275cde8f05c6b07446b1d941",
        "to": "0x1f6eec72dca1ccd968aba326492eaab09bf8c14c",
        "gas": "0x29b4a",
        "value": "0x0",
        "input": "0xa1ae6a25000000000000000000000000000000000000000000000000000000000000000100000000000000000000000000000000000000000000000000000000000000000000000000000000000000000000000000000000000000000000000000001c20",
        "nonce": "0x14f",
        "chainId": "0xaa36a7"
      },
      "additionalContracts": [],
      "isFixedGasLimit": false
    },
    {
      "hash": "0x6b0f1b9458069ac2d90963dd2e8222b8aae2266e127b12fddc21b57aebe9e143",
      "transactionType": "CALL",
      "contractName": "ParkFi",
      "contractAddress": "0x1f6eec72dca1ccd968aba326492eaab09bf8c14c",
      "function": "checkIn(uint256,uint8,uint256)",
      "arguments": [
        "2",
        "0",
        "7200"
      ],
      "transaction": {
        "from": "0x764693dd666e8dd9275cde8f05c6b07446b1d941",
        "to": "0x1f6eec72dca1ccd968aba326492eaab09bf8c14c",
        "gas": "0x23f08",
        "value": "0x0",
        "input": "0xa1ae6a25000000000000000000000000000000000000000000000000000000000000000200000000000000000000000000000000000000000000000000000000000000000000000000000000000000000000000000000000000000000000000000001c20",
        "nonce": "0x150",
        "chainId": "0xaa36a7"
      },
      "additionalContracts": [],
      "isFixedGasLimit": false
    },
    {
      "hash": "0x0b8dd90a0e2b7f29bf34b325e8490b7f635505693d651850c80072077ab91616",
      "transactionType": "CALL",
      "contractName": "ParkFi",
      "contractAddress": "0x1f6eec72dca1ccd968aba326492eaab09bf8c14c",
      "function": "checkIn(uint256,uint8,uint256)",
      "arguments": [
        "3",
        "1",
        "259200"
      ],
      "transaction": {
        "from": "0x764693dd666e8dd9275cde8f05c6b07446b1d941",
        "to": "0x1f6eec72dca1ccd968aba326492eaab09bf8c14c",
        "gas": "0x23ddd",
        "value": "0x0",
        "input": "0xa1ae6a2500000000000000000000000000000000000000000000000000000000000000030000000000000000000000000000000000000000000000000000000000000001000000000000000000000000000000000000000000000000000000000003f480",
        "nonce": "0x151",
        "chainId": "0xaa36a7"
      },
      "additionalContracts": [],
      "isFixedGasLimit": false
    },
    {
      "hash": "0xd022613827f52591e42af2a1244d8a446b644187c4eaca20e8bd593fd0ce29fe",
      "transactionType": "CALL",
      "contractName": "ParkFi",
      "contractAddress": "0x1f6eec72dca1ccd968aba326492eaab09bf8c14c",
      "function": "checkIn(uint256,uint8,uint256)",
      "arguments": [
        "4",
        "1",
        "345600"
      ],
      "transaction": {
        "from": "0x764693dd666e8dd9275cde8f05c6b07446b1d941",
        "to": "0x1f6eec72dca1ccd968aba326492eaab09bf8c14c",
        "gas": "0x23dcc",
        "value": "0x0",
        "input": "0xa1ae6a25000000000000000000000000000000000000000000000000000000000000000400000000000000000000000000000000000000000000000000000000000000010000000000000000000000000000000000000000000000000000000000054600",
        "nonce": "0x152",
        "chainId": "0xaa36a7"
      },
      "additionalContracts": [],
      "isFixedGasLimit": false
    },
    {
      "hash": "0x04d8e3c3403615b8cdef94115a30d04b747e238130926b6f1c3c3275a6258b8b",
      "transactionType": "CALL",
      "contractName": "ParkFi",
      "contractAddress": "0x1f6eec72dca1ccd968aba326492eaab09bf8c14c",
      "function": "checkIn(uint256,uint8,uint256)",
      "arguments": [
        "5",
        "0",
        "7200"
      ],
      "transaction": {
        "from": "0x764693dd666e8dd9275cde8f05c6b07446b1d941",
        "to": "0x1f6eec72dca1ccd968aba326492eaab09bf8c14c",
        "gas": "0x23f08",
        "value": "0x0",
        "input": "0xa1ae6a25000000000000000000000000000000000000000000000000000000000000000500000000000000000000000000000000000000000000000000000000000000000000000000000000000000000000000000000000000000000000000000001c20",
        "nonce": "0x153",
        "chainId": "0xaa36a7"
      },
      "additionalContracts": [],
      "isFixedGasLimit": false
    },
    {
      "hash": "0xb5bc71f791900135b12fa0071c4b39f4ed5c88a56e9ccc3f990a3a39335e83a4",
      "transactionType": "CALL",
      "contractName": "ParkFi",
      "contractAddress": "0x1f6eec72dca1ccd968aba326492eaab09bf8c14c",
      "function": "checkOut(uint256)",
      "arguments": [
        "1"
      ],
      "transaction": {
        "from": "0x764693dd666e8dd9275cde8f05c6b07446b1d941",
        "to": "0x1f6eec72dca1ccd968aba326492eaab09bf8c14c",
        "gas": "0xaf12",
        "value": "0x0",
        "input": "0x1bd2eeee0000000000000000000000000000000000000000000000000000000000000001",
        "nonce": "0x154",
        "chainId": "0xaa36a7"
      },
      "additionalContracts": [],
      "isFixedGasLimit": false
    },
    {
      "hash": "0xa142628cfebcec7692386431bcbf7d4aa470fedcb04b007ce8f3d091529788f0",
      "transactionType": "CALL",
      "contractName": "ParkFi",
      "contractAddress": "0x1f6eec72dca1ccd968aba326492eaab09bf8c14c",
      "function": "checkOut(uint256)",
      "arguments": [
        "3"
      ],
      "transaction": {
        "from": "0x764693dd666e8dd9275cde8f05c6b07446b1d941",
        "to": "0x1f6eec72dca1ccd968aba326492eaab09bf8c14c",
        "gas": "0xaf12",
        "value": "0x0",
        "input": "0x1bd2eeee0000000000000000000000000000000000000000000000000000000000000003",
        "nonce": "0x155",
        "chainId": "0xaa36a7"
      },
      "additionalContracts": [],
      "isFixedGasLimit": false
    }
  ],
  "receipts": [
    {
      "status": "0x1",
      "cumulativeGasUsed": "0xcbc9e6",
      "logs": [
        {
          "address": "0xe37e44964dad319c6b31d222453b7ddd3b249721",
          "topics": [
            "0x8be0079c531659141344cd1fd0a4f28419497f9722a3daafe3b4186f6b6457e0",
            "0x0000000000000000000000000000000000000000000000000000000000000000",
            "0x000000000000000000000000764693dd666e8dd9275cde8f05c6b07446b1d941"
          ],
          "data": "0x",
          "blockHash": "0x58ecf87a1cb3ee39704e5ab04fd5e795923479461267504221c30d5500bf3d54",
          "blockNumber": "0x5dc7a8",
          "transactionHash": "0x8c8d852c67724b38afe919dc7d01f0cef437f5080ee39ad6b8738e07e9740d48",
          "transactionIndex": "0x3e",
          "logIndex": "0x95",
          "removed": false
        }
      ],
      "logsBloom": "0x00000000000000000000000000000000800000000000000000800000004000000000000000000000000000004000000000000000000000000000000000000000000000000000000000000080000000000001000000000000000000000000000000000000020000040000000000000800000000000000000000000040000000400000000000000000000000000000000000000000000000000000000000000000000000000000000000000000000000000000000000000000000000000000000000000000000000000000000000000000000000000000000000000000000020000000000000000000000000000000000000000000000000000000000000000000",
      "type": "0x2",
      "transactionHash": "0x8c8d852c67724b38afe919dc7d01f0cef437f5080ee39ad6b8738e07e9740d48",
      "transactionIndex": "0x3e",
      "blockHash": "0x58ecf87a1cb3ee39704e5ab04fd5e795923479461267504221c30d5500bf3d54",
      "blockNumber": "0x5dc7a8",
      "gasUsed": "0x1545cb",
      "effectiveGasPrice": "0x1df080e9",
      "from": "0x764693dd666e8dd9275cde8f05c6b07446b1d941",
      "to": null,
      "contractAddress": "0xe37e44964dad319c6b31d222453b7ddd3b249721"
    },
    {
      "status": "0x1",
      "cumulativeGasUsed": "0xe120ca",
      "logs": [
        {
          "address": "0x6ec5929e48ad78838155fc8d3c6ed4e3c5bac111",
          "topics": [
            "0x8be0079c531659141344cd1fd0a4f28419497f9722a3daafe3b4186f6b6457e0",
            "0x0000000000000000000000000000000000000000000000000000000000000000",
            "0x000000000000000000000000764693dd666e8dd9275cde8f05c6b07446b1d941"
          ],
          "data": "0x",
          "blockHash": "0x58ecf87a1cb3ee39704e5ab04fd5e795923479461267504221c30d5500bf3d54",
          "blockNumber": "0x5dc7a8",
          "transactionHash": "0xd641b2ed3dd233cc8cc2234f028e98e34cd8ac96e88506076b88260b9356b777",
          "transactionIndex": "0x3f",
          "logIndex": "0x96",
          "removed": false
        }
      ],
      "logsBloom": "0x00000000000000000000000000000000800000000000000000800000004000000000000000000000000000000000000000000000000000000000000000000000000000000000000000000080000000000001000000000000000000000000000000000000020000000000000000000800000000400000000000000000000000400000000000000000000000000000000000000000000000000000000000000000000000000080000000000000000000000000000000000000000000000000000000000000000000000000000000000000000000000000000000000000000030000000000000000000000000000000000000000000000000000000000000000000",
      "type": "0x2",
      "transactionHash": "0xd641b2ed3dd233cc8cc2234f028e98e34cd8ac96e88506076b88260b9356b777",
      "transactionIndex": "0x3f",
      "blockHash": "0x58ecf87a1cb3ee39704e5ab04fd5e795923479461267504221c30d5500bf3d54",
      "blockNumber": "0x5dc7a8",
      "gasUsed": "0x1556e4",
      "effectiveGasPrice": "0x1df080e9",
      "from": "0x764693dd666e8dd9275cde8f05c6b07446b1d941",
      "to": null,
      "contractAddress": "0x6ec5929e48ad78838155fc8d3c6ed4e3c5bac111"
    },
    {
      "status": "0x1",
      "cumulativeGasUsed": "0x721e81",
      "logs": [
        {
          "address": "0xd8ed4a9317585bd8ce8ef7524c313f25373d1739",
          "topics": [
            "0xddf252ad1be2c89b69c2b068fc378daa952ba7f163c4a11628f55a4df523b3ef",
            "0x0000000000000000000000000000000000000000000000000000000000000000",
            "0x000000000000000000000000764693dd666e8dd9275cde8f05c6b07446b1d941"
          ],
          "data": "0x0000000000000000000000000000000000000000033b2e3c9fd0803ce8000000",
          "blockHash": "0xb003195b7ff6c436c6572abf5a11cd8e3852a9800f5cfdf987fad25e04f98423",
          "blockNumber": "0x5dc7a9",
          "transactionHash": "0xf8174382fe394d0c2971332093b1690e425ad796e5f8ac1346e037134535b26a",
          "transactionIndex": "0x2a",
          "logIndex": "0x4f",
          "removed": false
        }
      ],
      "logsBloom": "0x00000000000000000000000000000000800000000000000000000000004000000000000000000000000000000000000000000000000000000000000000000000000000000000000000000088000000000000000000000000000000000000000000000000020000000000000000800800000000000000000000000010000000000000000000000000000000000000000000000000000000000000000000000000000000000000000000000000000000000000000000000000000000000040000000000002000000000000000000000000000000000000000000000000000020000000000000000000020000000000000000000000000000000000000000000000",
      "type": "0x2",
      "transactionHash": "0xf8174382fe394d0c2971332093b1690e425ad796e5f8ac1346e037134535b26a",
      "transactionIndex": "0x2a",
      "blockHash": "0xb003195b7ff6c436c6572abf5a11cd8e3852a9800f5cfdf987fad25e04f98423",
      "blockNumber": "0x5dc7a9",
      "gasUsed": "0x99dab",
      "effectiveGasPrice": "0x1df1e774",
      "from": "0x764693dd666e8dd9275cde8f05c6b07446b1d941",
      "to": null,
      "contractAddress": "0xd8ed4a9317585bd8ce8ef7524c313f25373d1739"
    },
    {
      "status": "0x1",
      "cumulativeGasUsed": "0x8326f4",
      "logs": [
        {
          "address": "0x1f6eec72dca1ccd968aba326492eaab09bf8c14c",
          "topics": [
            "0x8be0079c531659141344cd1fd0a4f28419497f9722a3daafe3b4186f6b6457e0",
            "0x0000000000000000000000000000000000000000000000000000000000000000",
            "0x000000000000000000000000764693dd666e8dd9275cde8f05c6b07446b1d941"
          ],
          "data": "0x",
          "blockHash": "0xb003195b7ff6c436c6572abf5a11cd8e3852a9800f5cfdf987fad25e04f98423",
          "blockNumber": "0x5dc7a9",
          "transactionHash": "0x86f8bd6aeef4db3eade1442fbbed89272cb0fb7fc04854fa43e19828484e5a2d",
          "transactionIndex": "0x2b",
          "logIndex": "0x50",
          "removed": false
        }
      ],
      "logsBloom": "0x00000000000000000000000000000000800000000000000000800000004000000000000000000000000000040000000000000000000000000000000000000000000000000000000000000080000000000001000000000000000000000000000000000020020000000000000000000800000000000000000000000000000000400000000000000000000000000000000000000000000000000000000000000000000000000000000000000000000000000000000000000000000000000000000000000000000000000000000000000000000000000000000000000000000020000000000000000000000010000000000000000000000000000000000000000000",
      "type": "0x2",
      "transactionHash": "0x86f8bd6aeef4db3eade1442fbbed89272cb0fb7fc04854fa43e19828484e5a2d",
      "transactionIndex": "0x2b",
      "blockHash": "0xb003195b7ff6c436c6572abf5a11cd8e3852a9800f5cfdf987fad25e04f98423",
      "blockNumber": "0x5dc7a9",
      "gasUsed": "0x110873",
      "effectiveGasPrice": "0x1df1e774",
      "from": "0x764693dd666e8dd9275cde8f05c6b07446b1d941",
      "to": null,
      "contractAddress": "0x1f6eec72dca1ccd968aba326492eaab09bf8c14c"
    },
    {
      "status": "0x1",
      "cumulativeGasUsed": "0x83f0ba",
      "logs": [
        {
          "address": "0xd8ed4a9317585bd8ce8ef7524c313f25373d1739",
          "topics": [
            "0xddf252ad1be2c89b69c2b068fc378daa952ba7f163c4a11628f55a4df523b3ef",
            "0x000000000000000000000000764693dd666e8dd9275cde8f05c6b07446b1d941",
            "0x0000000000000000000000002d9cb5c5733138e54ec5e78c6553e6e145c2351c"
          ],
          "data": "0x00000000000000000000000000000000000000000000003635c9adc5dea00000",
          "blockHash": "0xb003195b7ff6c436c6572abf5a11cd8e3852a9800f5cfdf987fad25e04f98423",
          "blockNumber": "0x5dc7a9",
          "transactionHash": "0x8a0e19ee43294cc1c4e1891cf6046d5724b095382fb8b0c826e778449d85afa6",
          "transactionIndex": "0x2c",
          "logIndex": "0x51",
          "removed": false
        }
      ],
      "logsBloom": "0x00000000000000000000000000000000800000000000000000000000004000000000000000000000000000000000000000000000000000000000000000000000000000000000000000000088000000000000000000000000000000000000000000000000000000000000000000800000000400000000000000000010000000000000000000000000000000000000000000000000000000000000000000000000000000004000000000000000000000000000000000000000000000000040000000000002000000000000000000000000000000000000000000000000000000000000800000000000020000000000000000000000000000000000000000000000",
      "type": "0x2",
      "transactionHash": "0x8a0e19ee43294cc1c4e1891cf6046d5724b095382fb8b0c826e778449d85afa6",
      "transactionIndex": "0x2c",
      "blockHash": "0xb003195b7ff6c436c6572abf5a11cd8e3852a9800f5cfdf987fad25e04f98423",
      "blockNumber": "0x5dc7a9",
      "gasUsed": "0xc9c6",
      "effectiveGasPrice": "0x1df1e774",
      "from": "0x764693dd666e8dd9275cde8f05c6b07446b1d941",
      "to": "0xd8ed4a9317585bd8ce8ef7524c313f25373d1739",
      "contractAddress": null
    },
    {
      "status": "0x1",
      "cumulativeGasUsed": "0x84a4c4",
      "logs": [],
      "logsBloom": "0x00000000000000000000000000000000000000000000000000000000000000000000000000000000000000000000000000000000000000000000000000000000000000000000000000000000000000000000000000000000000000000000000000000000000000000000000000000000000000000000000000000000000000000000000000000000000000000000000000000000000000000000000000000000000000000000000000000000000000000000000000000000000000000000000000000000000000000000000000000000000000000000000000000000000000000000000000000000000000000000000000000000000000000000000000000000",
      "type": "0x2",
      "transactionHash": "0xb5f6099f39be91cd4542810a4a0f7f13bc8f833dc5729356899944ead2f50983",
      "transactionIndex": "0x2d",
      "blockHash": "0xb003195b7ff6c436c6572abf5a11cd8e3852a9800f5cfdf987fad25e04f98423",
      "blockNumber": "0x5dc7a9",
      "gasUsed": "0xb40a",
      "effectiveGasPrice": "0x1df1e774",
      "from": "0x764693dd666e8dd9275cde8f05c6b07446b1d941",
      "to": "0xe37e44964dad319c6b31d222453b7ddd3b249721",
      "contractAddress": null
    },
    {
      "status": "0x1",
      "cumulativeGasUsed": "0x8558e4",
      "logs": [],
      "logsBloom": "0x00000000000000000000000000000000000000000000000000000000000000000000000000000000000000000000000000000000000000000000000000000000000000000000000000000000000000000000000000000000000000000000000000000000000000000000000000000000000000000000000000000000000000000000000000000000000000000000000000000000000000000000000000000000000000000000000000000000000000000000000000000000000000000000000000000000000000000000000000000000000000000000000000000000000000000000000000000000000000000000000000000000000000000000000000000000",
      "type": "0x2",
      "transactionHash": "0x05a2d185138ba452253d51904d4de10146f92f0ae25759ed3c2a3077ee411821",
      "transactionIndex": "0x2e",
      "blockHash": "0xb003195b7ff6c436c6572abf5a11cd8e3852a9800f5cfdf987fad25e04f98423",
      "blockNumber": "0x5dc7a9",
      "gasUsed": "0xb420",
      "effectiveGasPrice": "0x1df1e774",
      "from": "0x764693dd666e8dd9275cde8f05c6b07446b1d941",
      "to": "0x6ec5929e48ad78838155fc8d3c6ed4e3c5bac111",
      "contractAddress": null
    },
    {
      "status": "0x1",
      "cumulativeGasUsed": "0x8900f2",
      "logs": [
        {
          "address": "0x6ec5929e48ad78838155fc8d3c6ed4e3c5bac111",
          "topics": [
            "0xddf252ad1be2c89b69c2b068fc378daa952ba7f163c4a11628f55a4df523b3ef",
            "0x0000000000000000000000000000000000000000000000000000000000000000",
            "0x000000000000000000000000764693dd666e8dd9275cde8f05c6b07446b1d941",
            "0x0000000000000000000000000000000000000000000000000000000000000001"
          ],
          "data": "0x",
          "blockHash": "0xb003195b7ff6c436c6572abf5a11cd8e3852a9800f5cfdf987fad25e04f98423",
          "blockNumber": "0x5dc7a9",
          "transactionHash": "0xf4e8c544c04752a1712790155e4fcb2689ced253989f46c8168fbeb5c9865227",
          "transactionIndex": "0x2f",
          "logIndex": "0x52",
          "removed": false
        },
        {
          "address": "0x6ec5929e48ad78838155fc8d3c6ed4e3c5bac111",
          "topics": [
            "0xf8e1a15aba9398e019f0b49df1a4fde98ee17ae345cb5f6b5e2c27f5033e8ce7"
          ],
          "data": "0x0000000000000000000000000000000000000000000000000000000000000001",
          "blockHash": "0xb003195b7ff6c436c6572abf5a11cd8e3852a9800f5cfdf987fad25e04f98423",
          "blockNumber": "0x5dc7a9",
          "transactionHash": "0xf4e8c544c04752a1712790155e4fcb2689ced253989f46c8168fbeb5c9865227",
          "transactionIndex": "0x2f",
          "logIndex": "0x53",
          "removed": false
        },
        {
          "address": "0x6ec5929e48ad78838155fc8d3c6ed4e3c5bac111",
          "topics": [
            "0x026aac271342ae43d27b41062e6f37001e4673fbbf25ad4bc3cfd6cd2094bd39",
            "0x000000000000000000000000764693dd666e8dd9275cde8f05c6b07446b1d941",
            "0x0000000000000000000000000000000000000000000000000000000000000001"
          ],
          "data": "0x",
          "blockHash": "0xb003195b7ff6c436c6572abf5a11cd8e3852a9800f5cfdf987fad25e04f98423",
          "blockNumber": "0x5dc7a9",
          "transactionHash": "0xf4e8c544c04752a1712790155e4fcb2689ced253989f46c8168fbeb5c9865227",
          "transactionIndex": "0x2f",
          "logIndex": "0x54",
          "removed": false
        },
        {
          "address": "0x1f6eec72dca1ccd968aba326492eaab09bf8c14c",
          "topics": [
            "0x91e71c368c41168aa5766ee5b0c25d8c5f2c37970e7e4365305015fae0bfb0c6",
            "0x0000000000000000000000000000000000000000000000000000000000000001",
            "0x0000000000000000000000000000000000000000000000000de0b6b3a7640000",
            "0x0000000000000000000000000000000000000000000000003782dace9d900000"
          ],
          "data": "0x",
          "blockHash": "0xb003195b7ff6c436c6572abf5a11cd8e3852a9800f5cfdf987fad25e04f98423",
          "blockNumber": "0x5dc7a9",
          "transactionHash": "0xf4e8c544c04752a1712790155e4fcb2689ced253989f46c8168fbeb5c9865227",
          "transactionIndex": "0x2f",
          "logIndex": "0x55",
          "removed": false
        }
      ],
      "logsBloom": "0x00000000040000000000000000000000800000000000000000000000004000000000000000000000000000040000000000000000000000000000000000040000000000000000000000000088000000000000000000040000000000000000000000000020020000000000000000000800000000400000000000000010000000002000000000000000000000000000000000000000004000000000000000000000000020000080000008000000000010002000020000000000400000000000008000000002000800000000000000000000000000000000000000040000000070000000000000000000200010000000000000000000000000000100000020000000",
      "type": "0x2",
      "transactionHash": "0xf4e8c544c04752a1712790155e4fcb2689ced253989f46c8168fbeb5c9865227",
      "transactionIndex": "0x2f",
      "blockHash": "0xb003195b7ff6c436c6572abf5a11cd8e3852a9800f5cfdf987fad25e04f98423",
      "blockNumber": "0x5dc7a9",
      "gasUsed": "0x3a80e",
      "effectiveGasPrice": "0x1df1e774",
      "from": "0x764693dd666e8dd9275cde8f05c6b07446b1d941",
      "to": "0x1f6eec72dca1ccd968aba326492eaab09bf8c14c",
      "contractAddress": null
    },
    {
      "status": "0x1",
      "cumulativeGasUsed": "0x8be09c",
      "logs": [
        {
          "address": "0x6ec5929e48ad78838155fc8d3c6ed4e3c5bac111",
          "topics": [
            "0xddf252ad1be2c89b69c2b068fc378daa952ba7f163c4a11628f55a4df523b3ef",
            "0x0000000000000000000000000000000000000000000000000000000000000000",
            "0x000000000000000000000000764693dd666e8dd9275cde8f05c6b07446b1d941",
            "0x0000000000000000000000000000000000000000000000000000000000000002"
          ],
          "data": "0x",
          "blockHash": "0xb003195b7ff6c436c6572abf5a11cd8e3852a9800f5cfdf987fad25e04f98423",
          "blockNumber": "0x5dc7a9",
          "transactionHash": "0x7f993c556d2bac1a60e89755ea1be3631706979a4d4d7c835531754541c73e16",
          "transactionIndex": "0x30",
          "logIndex": "0x56",
          "removed": false
        },
        {
          "address": "0x6ec5929e48ad78838155fc8d3c6ed4e3c5bac111",
          "topics": [
            "0xf8e1a15aba9398e019f0b49df1a4fde98ee17ae345cb5f6b5e2c27f5033e8ce7"
          ],
          "data": "0x0000000000000000000000000000000000000000000000000000000000000002",
          "blockHash": "0xb003195b7ff6c436c6572abf5a11cd8e3852a9800f5cfdf987fad25e04f98423",
          "blockNumber": "0x5dc7a9",
          "transactionHash": "0x7f993c556d2bac1a60e89755ea1be3631706979a4d4d7c835531754541c73e16",
          "transactionIndex": "0x30",
          "logIndex": "0x57",
          "removed": false
        },
        {
          "address": "0x6ec5929e48ad78838155fc8d3c6ed4e3c5bac111",
          "topics": [
            "0x026aac271342ae43d27b41062e6f37001e4673fbbf25ad4bc3cfd6cd2094bd39",
            "0x000000000000000000000000764693dd666e8dd9275cde8f05c6b07446b1d941",
            "0x0000000000000000000000000000000000000000000000000000000000000002"
          ],
          "data": "0x",
          "blockHash": "0xb003195b7ff6c436c6572abf5a11cd8e3852a9800f5cfdf987fad25e04f98423",
          "blockNumber": "0x5dc7a9",
          "transactionHash": "0x7f993c556d2bac1a60e89755ea1be3631706979a4d4d7c835531754541c73e16",
          "transactionIndex": "0x30",
          "logIndex": "0x58",
          "removed": false
        },
        {
          "address": "0x1f6eec72dca1ccd968aba326492eaab09bf8c14c",
          "topics": [
            "0x91e71c368c41168aa5766ee5b0c25d8c5f2c37970e7e4365305015fae0bfb0c6",
            "0x0000000000000000000000000000000000000000000000000000000000000002",
            "0x0000000000000000000000000000000000000000000000000de0b6b3a7640000",
            "0x0000000000000000000000000000000000000000000000004563918244f40000"
          ],
          "data": "0x",
          "blockHash": "0xb003195b7ff6c436c6572abf5a11cd8e3852a9800f5cfdf987fad25e04f98423",
          "blockNumber": "0x5dc7a9",
          "transactionHash": "0x7f993c556d2bac1a60e89755ea1be3631706979a4d4d7c835531754541c73e16",
          "transactionIndex": "0x30",
          "logIndex": "0x59",
          "removed": false
        }
      ],
      "logsBloom": "0x04000000040000000000000000000000800000000000000000000000004000000000000000000000000000040000000000000000000000000000000000010000000000000000000000000088000000000000000000000000000000000000000000000020020000000000000000000800000000400000000000000010000000002000000000000000000000000000000000000000004000000000000000000000000000000080000000000100000010002000022000000000400000000000008000000002000800000000000000000000000000000000000000040000000030000000000000000000200010000000001000000000008000000100000000000000",
      "type": "0x2",
      "transactionHash": "0x7f993c556d2bac1a60e89755ea1be3631706979a4d4d7c835531754541c73e16",
      "transactionIndex": "0x30",
      "blockHash": "0xb003195b7ff6c436c6572abf5a11cd8e3852a9800f5cfdf987fad25e04f98423",
      "blockNumber": "0x5dc7a9",
      "gasUsed": "0x2dfaa",
      "effectiveGasPrice": "0x1df1e774",
      "from": "0x764693dd666e8dd9275cde8f05c6b07446b1d941",
      "to": "0x1f6eec72dca1ccd968aba326492eaab09bf8c14c",
      "contractAddress": null
    },
    {
      "status": "0x1",
      "cumulativeGasUsed": "0x8ec046",
      "logs": [
        {
          "address": "0x6ec5929e48ad78838155fc8d3c6ed4e3c5bac111",
          "topics": [
            "0xddf252ad1be2c89b69c2b068fc378daa952ba7f163c4a11628f55a4df523b3ef",
            "0x0000000000000000000000000000000000000000000000000000000000000000",
            "0x000000000000000000000000764693dd666e8dd9275cde8f05c6b07446b1d941",
            "0x0000000000000000000000000000000000000000000000000000000000000003"
          ],
          "data": "0x",
          "blockHash": "0xb003195b7ff6c436c6572abf5a11cd8e3852a9800f5cfdf987fad25e04f98423",
          "blockNumber": "0x5dc7a9",
          "transactionHash": "0xe399edf0239fa256e0eae0c184ca69cf178fc91f9494623f883e01ddcc130112",
          "transactionIndex": "0x31",
          "logIndex": "0x5a",
          "removed": false
        },
        {
          "address": "0x6ec5929e48ad78838155fc8d3c6ed4e3c5bac111",
          "topics": [
            "0xf8e1a15aba9398e019f0b49df1a4fde98ee17ae345cb5f6b5e2c27f5033e8ce7"
          ],
          "data": "0x0000000000000000000000000000000000000000000000000000000000000003",
          "blockHash": "0xb003195b7ff6c436c6572abf5a11cd8e3852a9800f5cfdf987fad25e04f98423",
          "blockNumber": "0x5dc7a9",
          "transactionHash": "0xe399edf0239fa256e0eae0c184ca69cf178fc91f9494623f883e01ddcc130112",
          "transactionIndex": "0x31",
          "logIndex": "0x5b",
          "removed": false
        },
        {
          "address": "0x6ec5929e48ad78838155fc8d3c6ed4e3c5bac111",
          "topics": [
            "0x026aac271342ae43d27b41062e6f37001e4673fbbf25ad4bc3cfd6cd2094bd39",
            "0x000000000000000000000000764693dd666e8dd9275cde8f05c6b07446b1d941",
            "0x0000000000000000000000000000000000000000000000000000000000000003"
          ],
          "data": "0x",
          "blockHash": "0xb003195b7ff6c436c6572abf5a11cd8e3852a9800f5cfdf987fad25e04f98423",
          "blockNumber": "0x5dc7a9",
          "transactionHash": "0xe399edf0239fa256e0eae0c184ca69cf178fc91f9494623f883e01ddcc130112",
          "transactionIndex": "0x31",
          "logIndex": "0x5c",
          "removed": false
        },
        {
          "address": "0x1f6eec72dca1ccd968aba326492eaab09bf8c14c",
          "topics": [
            "0x91e71c368c41168aa5766ee5b0c25d8c5f2c37970e7e4365305015fae0bfb0c6",
            "0x0000000000000000000000000000000000000000000000000000000000000003",
            "0x0000000000000000000000000000000000000000000000001bc16d674ec80000",
            "0x0000000000000000000000000000000000000000000000006124fee993bc0000"
          ],
          "data": "0x",
          "blockHash": "0xb003195b7ff6c436c6572abf5a11cd8e3852a9800f5cfdf987fad25e04f98423",
          "blockNumber": "0x5dc7a9",
          "transactionHash": "0xe399edf0239fa256e0eae0c184ca69cf178fc91f9494623f883e01ddcc130112",
          "transactionIndex": "0x31",
          "logIndex": "0x5d",
          "removed": false
        }
      ],
      "logsBloom": "0x00000000040000000000000000000000800100000000000000000000004000000000000000000000000000040000000000000000020000000000000000000000000000000001000000000088000000000000000000000000000000000000000000000020120000000000000000000800000000400000000000000010000000042000000000000000000000000000000000000000000000000000001000000000000000000080000000000000000000002000020000800000400000000000408000000002000000000400000000000000000000000000000000040000000030000000000000000000200010000000000000000000000000000100000000000000",
      "type": "0x2",
      "transactionHash": "0xe399edf0239fa256e0eae0c184ca69cf178fc91f9494623f883e01ddcc130112",
      "transactionIndex": "0x31",
      "blockHash": "0xb003195b7ff6c436c6572abf5a11cd8e3852a9800f5cfdf987fad25e04f98423",
      "blockNumber": "0x5dc7a9",
      "gasUsed": "0x2dfaa",
      "effectiveGasPrice": "0x1df1e774",
      "from": "0x764693dd666e8dd9275cde8f05c6b07446b1d941",
      "to": "0x1f6eec72dca1ccd968aba326492eaab09bf8c14c",
      "contractAddress": null
    },
    {
      "status": "0x1",
      "cumulativeGasUsed": "0x919ff0",
      "logs": [
        {
          "address": "0x6ec5929e48ad78838155fc8d3c6ed4e3c5bac111",
          "topics": [
            "0xddf252ad1be2c89b69c2b068fc378daa952ba7f163c4a11628f55a4df523b3ef",
            "0x0000000000000000000000000000000000000000000000000000000000000000",
            "0x000000000000000000000000764693dd666e8dd9275cde8f05c6b07446b1d941",
            "0x0000000000000000000000000000000000000000000000000000000000000004"
          ],
          "data": "0x",
          "blockHash": "0xb003195b7ff6c436c6572abf5a11cd8e3852a9800f5cfdf987fad25e04f98423",
          "blockNumber": "0x5dc7a9",
          "transactionHash": "0x57bcfd3dd04b50c813f7e68b985d92abd5b26f634ad42150166c0858f2b35192",
          "transactionIndex": "0x32",
          "logIndex": "0x5e",
          "removed": false
        },
        {
          "address": "0x6ec5929e48ad78838155fc8d3c6ed4e3c5bac111",
          "topics": [
            "0xf8e1a15aba9398e019f0b49df1a4fde98ee17ae345cb5f6b5e2c27f5033e8ce7"
          ],
          "data": "0x0000000000000000000000000000000000000000000000000000000000000004",
          "blockHash": "0xb003195b7ff6c436c6572abf5a11cd8e3852a9800f5cfdf987fad25e04f98423",
          "blockNumber": "0x5dc7a9",
          "transactionHash": "0x57bcfd3dd04b50c813f7e68b985d92abd5b26f634ad42150166c0858f2b35192",
          "transactionIndex": "0x32",
          "logIndex": "0x5f",
          "removed": false
        },
        {
          "address": "0x6ec5929e48ad78838155fc8d3c6ed4e3c5bac111",
          "topics": [
            "0x026aac271342ae43d27b41062e6f37001e4673fbbf25ad4bc3cfd6cd2094bd39",
            "0x000000000000000000000000764693dd666e8dd9275cde8f05c6b07446b1d941",
            "0x0000000000000000000000000000000000000000000000000000000000000004"
          ],
          "data": "0x",
          "blockHash": "0xb003195b7ff6c436c6572abf5a11cd8e3852a9800f5cfdf987fad25e04f98423",
          "blockNumber": "0x5dc7a9",
          "transactionHash": "0x57bcfd3dd04b50c813f7e68b985d92abd5b26f634ad42150166c0858f2b35192",
          "transactionIndex": "0x32",
          "logIndex": "0x60",
          "removed": false
        },
        {
          "address": "0x1f6eec72dca1ccd968aba326492eaab09bf8c14c",
          "topics": [
            "0x91e71c368c41168aa5766ee5b0c25d8c5f2c37970e7e4365305015fae0bfb0c6",
            "0x0000000000000000000000000000000000000000000000000000000000000004",
            "0x00000000000000000000000000000000000000000000000029a2241af62c0000",
            "0x0000000000000000000000000000000000000000000000007ce66c50e2840000"
          ],
          "data": "0x",
          "blockHash": "0xb003195b7ff6c436c6572abf5a11cd8e3852a9800f5cfdf987fad25e04f98423",
          "blockNumber": "0x5dc7a9",
          "transactionHash": "0x57bcfd3dd04b50c813f7e68b985d92abd5b26f634ad42150166c0858f2b35192",
          "transactionIndex": "0x32",
          "logIndex": "0x61",
          "removed": false
        }
      ],
      "logsBloom": "0x00000000040000000000000000000000800200000000000000000000004000000000800000000000000000040000000000000000000000000000000000000000000000000000000000000088000000000000000000000000000000000000000008000020020000400000000000000800000000400000000000000010000000002000000000000000000000000000000000000000000000000000000000000000000000000080000001000000000000002000020000000000402000000020008000000002000000000000000000000000000000008000000000040000000030000000000000000000200010000000000000000000000000008100000000000000",
      "type": "0x2",
      "transactionHash": "0x57bcfd3dd04b50c813f7e68b985d92abd5b26f634ad42150166c0858f2b35192",
      "transactionIndex": "0x32",
      "blockHash": "0xb003195b7ff6c436c6572abf5a11cd8e3852a9800f5cfdf987fad25e04f98423",
      "blockNumber": "0x5dc7a9",
      "gasUsed": "0x2dfaa",
      "effectiveGasPrice": "0x1df1e774",
      "from": "0x764693dd666e8dd9275cde8f05c6b07446b1d941",
      "to": "0x1f6eec72dca1ccd968aba326492eaab09bf8c14c",
      "contractAddress": null
    },
    {
      "status": "0x1",
      "cumulativeGasUsed": "0x947f9a",
      "logs": [
        {
          "address": "0x6ec5929e48ad78838155fc8d3c6ed4e3c5bac111",
          "topics": [
            "0xddf252ad1be2c89b69c2b068fc378daa952ba7f163c4a11628f55a4df523b3ef",
            "0x0000000000000000000000000000000000000000000000000000000000000000",
            "0x000000000000000000000000764693dd666e8dd9275cde8f05c6b07446b1d941",
            "0x0000000000000000000000000000000000000000000000000000000000000005"
          ],
          "data": "0x",
          "blockHash": "0xb003195b7ff6c436c6572abf5a11cd8e3852a9800f5cfdf987fad25e04f98423",
          "blockNumber": "0x5dc7a9",
          "transactionHash": "0xa0d86174d35ac404705c040f15dc2332c441338a9fd1295c5450f3a1ebed1c1b",
          "transactionIndex": "0x33",
          "logIndex": "0x62",
          "removed": false
        },
        {
          "address": "0x6ec5929e48ad78838155fc8d3c6ed4e3c5bac111",
          "topics": [
            "0xf8e1a15aba9398e019f0b49df1a4fde98ee17ae345cb5f6b5e2c27f5033e8ce7"
          ],
          "data": "0x0000000000000000000000000000000000000000000000000000000000000005",
          "blockHash": "0xb003195b7ff6c436c6572abf5a11cd8e3852a9800f5cfdf987fad25e04f98423",
          "blockNumber": "0x5dc7a9",
          "transactionHash": "0xa0d86174d35ac404705c040f15dc2332c441338a9fd1295c5450f3a1ebed1c1b",
          "transactionIndex": "0x33",
          "logIndex": "0x63",
          "removed": false
        },
        {
          "address": "0x6ec5929e48ad78838155fc8d3c6ed4e3c5bac111",
          "topics": [
            "0x026aac271342ae43d27b41062e6f37001e4673fbbf25ad4bc3cfd6cd2094bd39",
            "0x000000000000000000000000764693dd666e8dd9275cde8f05c6b07446b1d941",
            "0x0000000000000000000000000000000000000000000000000000000000000005"
          ],
          "data": "0x",
          "blockHash": "0xb003195b7ff6c436c6572abf5a11cd8e3852a9800f5cfdf987fad25e04f98423",
          "blockNumber": "0x5dc7a9",
          "transactionHash": "0xa0d86174d35ac404705c040f15dc2332c441338a9fd1295c5450f3a1ebed1c1b",
          "transactionIndex": "0x33",
          "logIndex": "0x64",
          "removed": false
        },
        {
          "address": "0x1f6eec72dca1ccd968aba326492eaab09bf8c14c",
          "topics": [
            "0x91e71c368c41168aa5766ee5b0c25d8c5f2c37970e7e4365305015fae0bfb0c6",
            "0x0000000000000000000000000000000000000000000000000000000000000005",
            "0x0000000000000000000000000000000000000000000000003782dace9d900000",
            "0x000000000000000000000000000000000000000000000000a688906bd8b00000"
          ],
          "data": "0x",
          "blockHash": "0xb003195b7ff6c436c6572abf5a11cd8e3852a9800f5cfdf987fad25e04f98423",
          "blockNumber": "0x5dc7a9",
          "transactionHash": "0xa0d86174d35ac404705c040f15dc2332c441338a9fd1295c5450f3a1ebed1c1b",
          "transactionIndex": "0x33",
          "logIndex": "0x65",
          "removed": false
        }
      ],
      "logsBloom": "0x00000000840000000000000000000000800001000000000000000000004000000000000000000000000000040000000000000000000000000000000000000000400010000000000000000088000000000000000000000000000000000000000000000020020000000000000000000800000000400000000000000010000000002000000000000000000000000000001000000800000000000000000000000000000020000080000008000000000000002000020000000000400000000000008000000002000000000000000000000000000000000000000000040000000030000000000000000000200010000000000000000000000000000100000020000000",
      "type": "0x2",
      "transactionHash": "0xa0d86174d35ac404705c040f15dc2332c441338a9fd1295c5450f3a1ebed1c1b",
      "transactionIndex": "0x33",
      "blockHash": "0xb003195b7ff6c436c6572abf5a11cd8e3852a9800f5cfdf987fad25e04f98423",
      "blockNumber": "0x5dc7a9",
      "gasUsed": "0x2dfaa",
      "effectiveGasPrice": "0x1df1e774",
      "from": "0x764693dd666e8dd9275cde8f05c6b07446b1d941",
      "to": "0x1f6eec72dca1ccd968aba326492eaab09bf8c14c",
      "contractAddress": null
    },
    {
      "status": "0x1",
      "cumulativeGasUsed": "0x96712f",
      "logs": [
        {
          "address": "0xe37e44964dad319c6b31d222453b7ddd3b249721",
          "topics": [
            "0xddf252ad1be2c89b69c2b068fc378daa952ba7f163c4a11628f55a4df523b3ef",
            "0x0000000000000000000000000000000000000000000000000000000000000000",
            "0x000000000000000000000000764693dd666e8dd9275cde8f05c6b07446b1d941",
            "0x0000000000000000000000000000000000000000000000000000000000000001"
          ],
          "data": "0x",
          "blockHash": "0xb003195b7ff6c436c6572abf5a11cd8e3852a9800f5cfdf987fad25e04f98423",
          "blockNumber": "0x5dc7a9",
          "transactionHash": "0x2ebbda567fe6729149a5f1038ca4988a128858835860a8e68b3d0ae1d9c3f215",
          "transactionIndex": "0x34",
          "logIndex": "0x66",
          "removed": false
        },
        {
          "address": "0xe37e44964dad319c6b31d222453b7ddd3b249721",
          "topics": [
            "0xf8e1a15aba9398e019f0b49df1a4fde98ee17ae345cb5f6b5e2c27f5033e8ce7"
          ],
          "data": "0x0000000000000000000000000000000000000000000000000000000000000001",
          "blockHash": "0xb003195b7ff6c436c6572abf5a11cd8e3852a9800f5cfdf987fad25e04f98423",
          "blockNumber": "0x5dc7a9",
          "transactionHash": "0x2ebbda567fe6729149a5f1038ca4988a128858835860a8e68b3d0ae1d9c3f215",
          "transactionIndex": "0x34",
          "logIndex": "0x67",
          "removed": false
        },
        {
          "address": "0xe37e44964dad319c6b31d222453b7ddd3b249721",
          "topics": [
            "0xbab4562ae868d1765ed8452e98bba908a974596c4babc3ada5e90e05e3f433fb",
            "0x000000000000000000000000764693dd666e8dd9275cde8f05c6b07446b1d941",
            "0x0000000000000000000000000000000000000000000000000000000000000001"
          ],
          "data": "0x",
          "blockHash": "0xb003195b7ff6c436c6572abf5a11cd8e3852a9800f5cfdf987fad25e04f98423",
          "blockNumber": "0x5dc7a9",
          "transactionHash": "0x2ebbda567fe6729149a5f1038ca4988a128858835860a8e68b3d0ae1d9c3f215",
          "transactionIndex": "0x34",
          "logIndex": "0x68",
          "removed": false
        },
        {
          "address": "0x1f6eec72dca1ccd968aba326492eaab09bf8c14c",
          "topics": [
            "0xd35a6cc813c47c11ff9f41f7fe9d463b32db9be612b7f78e9ba6336deb4c5900",
            "0x000000000000000000000000764693dd666e8dd9275cde8f05c6b07446b1d941"
          ],
          "data": "0x",
          "blockHash": "0xb003195b7ff6c436c6572abf5a11cd8e3852a9800f5cfdf987fad25e04f98423",
          "blockNumber": "0x5dc7a9",
          "transactionHash": "0x2ebbda567fe6729149a5f1038ca4988a128858835860a8e68b3d0ae1d9c3f215",
          "transactionIndex": "0x34",
          "logIndex": "0x69",
          "removed": false
        }
      ],
      "logsBloom": "0x00000000000000000000100800000000800000000000000000000000004000000000000000000000000000044000000080000000000000000000000000040000000000000000000001000088000000000000000000040000000000000000000000004020020000040000000000000800000000000000000000000050200000000000000000000000000000000000000000000000000000000000000000000000000000000000000000000000000000002000000000000000000000000000008000000002000000000000000000000000000000000000000000000000000060000000000000000000200010000000000000000000000000000000000000000000",
      "type": "0x2",
      "transactionHash": "0x2ebbda567fe6729149a5f1038ca4988a128858835860a8e68b3d0ae1d9c3f215",
      "transactionIndex": "0x34",
      "blockHash": "0xb003195b7ff6c436c6572abf5a11cd8e3852a9800f5cfdf987fad25e04f98423",
      "blockNumber": "0x5dc7a9",
      "gasUsed": "0x1f195",
      "effectiveGasPrice": "0x1df1e774",
      "from": "0x764693dd666e8dd9275cde8f05c6b07446b1d941",
      "to": "0x1f6eec72dca1ccd968aba326492eaab09bf8c14c",
      "contractAddress": null
    },
    {
      "status": "0x1",
      "cumulativeGasUsed": "0x97278a",
      "logs": [
        {
          "address": "0xd8ed4a9317585bd8ce8ef7524c313f25373d1739",
          "topics": [
            "0x8c5be1e5ebec7d5bd14f71427d1e84f3dd0314c0f7b2291e5b200ac8c7c3b925",
            "0x000000000000000000000000764693dd666e8dd9275cde8f05c6b07446b1d941",
            "0x0000000000000000000000001f6eec72dca1ccd968aba326492eaab09bf8c14c"
          ],
          "data": "0xffffffffffffffffffffffffffffffffffffffffffffffffffffffffffffffff",
          "blockHash": "0xb003195b7ff6c436c6572abf5a11cd8e3852a9800f5cfdf987fad25e04f98423",
          "blockNumber": "0x5dc7a9",
          "transactionHash": "0x715ffd0341fa3cf9452263cd835e9413e3f5aeb4694b0cb17eea5a4c27afcd4e",
          "transactionIndex": "0x35",
          "logIndex": "0x6a",
          "removed": false
        }
      ],
      "logsBloom": "0x00000000000000000000000000000000800000000000000000000008004000000000000000000000000000000000000000000000400000000000000000200000000000000000000000000080000000000000000000000000000000000000000000000000000000000000000000800000000000000000000000000000000000000000000000000000000000000000000000000000000000000000000000000000020000000000000000000000000000000000000000000000000000000040000000000000000000000000000000000040000000000000000000000000000000000010000000000000020000000000000000000000000000000000000000000000",
      "type": "0x2",
      "transactionHash": "0x715ffd0341fa3cf9452263cd835e9413e3f5aeb4694b0cb17eea5a4c27afcd4e",
      "transactionIndex": "0x35",
      "blockHash": "0xb003195b7ff6c436c6572abf5a11cd8e3852a9800f5cfdf987fad25e04f98423",
      "blockNumber": "0x5dc7a9",
      "gasUsed": "0xb65b",
      "effectiveGasPrice": "0x1df1e774",
      "from": "0x764693dd666e8dd9275cde8f05c6b07446b1d941",
      "to": "0xd8ed4a9317585bd8ce8ef7524c313f25373d1739",
      "contractAddress": null
    },
    {
      "status": "0x1",
      "cumulativeGasUsed": "0x990aa6",
      "logs": [
        {
          "address": "0xd8ed4a9317585bd8ce8ef7524c313f25373d1739",
          "topics": [
            "0xddf252ad1be2c89b69c2b068fc378daa952ba7f163c4a11628f55a4df523b3ef",
            "0x000000000000000000000000764693dd666e8dd9275cde8f05c6b07446b1d941",
            "0x0000000000000000000000001f6eec72dca1ccd968aba326492eaab09bf8c14c"
          ],
          "data": "0x00000000000000000000000000000000000000000000018650127cc3dc800000",
          "blockHash": "0xb003195b7ff6c436c6572abf5a11cd8e3852a9800f5cfdf987fad25e04f98423",
          "blockNumber": "0x5dc7a9",
          "transactionHash": "0x473e1fa1ae89071eda3f1d7cfe18d1411ba9f498318ef40ba3db6afffc2ceb8f",
          "transactionIndex": "0x36",
          "logIndex": "0x6b",
          "removed": false
        },
        {
          "address": "0xd8ed4a9317585bd8ce8ef7524c313f25373d1739",
          "topics": [
            "0xddf252ad1be2c89b69c2b068fc378daa952ba7f163c4a11628f55a4df523b3ef",
            "0x0000000000000000000000001f6eec72dca1ccd968aba326492eaab09bf8c14c",
            "0x000000000000000000000000764693dd666e8dd9275cde8f05c6b07446b1d941"
          ],
          "data": "0x0000000000000000000000000000000000000000000001864feef5d16cbf0000",
          "blockHash": "0xb003195b7ff6c436c6572abf5a11cd8e3852a9800f5cfdf987fad25e04f98423",
          "blockNumber": "0x5dc7a9",
          "transactionHash": "0x473e1fa1ae89071eda3f1d7cfe18d1411ba9f498318ef40ba3db6afffc2ceb8f",
          "transactionIndex": "0x36",
          "logIndex": "0x6c",
          "removed": false
        },
        {
          "address": "0x1f6eec72dca1ccd968aba326492eaab09bf8c14c",
          "topics": [
            "0x1a777a4e69f842f69af228bdecb2e58e1ab9d68e3c8694533ddb6ff9dd243f82",
            "0x0000000000000000000000000000000000000000000000000000000000000001",
            "0x000000000000000000000000764693dd666e8dd9275cde8f05c6b07446b1d941"
          ],
          "data": "0x",
          "blockHash": "0xb003195b7ff6c436c6572abf5a11cd8e3852a9800f5cfdf987fad25e04f98423",
          "blockNumber": "0x5dc7a9",
          "transactionHash": "0x473e1fa1ae89071eda3f1d7cfe18d1411ba9f498318ef40ba3db6afffc2ceb8f",
          "transactionIndex": "0x36",
          "logIndex": "0x6d",
          "removed": false
        }
      ],
      "logsBloom": "0x00000000000000000000000000000000800000000000000000000008004000000000000000000000000000040000000000000000400000000000000000040000000000000000000004000088000000000000000000040000000000000000000000000020000000000000000000800000000000000000000000000010000000000000000000000000000000000000000000000000000200000000000000000000000000000000000000000000000000000000000000000000000000000040000000000002000000000000000000000040000000000000000000000000000040000000000000000000020010000000000000000000000800000000000000000000",
      "type": "0x2",
      "transactionHash": "0x473e1fa1ae89071eda3f1d7cfe18d1411ba9f498318ef40ba3db6afffc2ceb8f",
      "transactionIndex": "0x36",
      "blockHash": "0xb003195b7ff6c436c6572abf5a11cd8e3852a9800f5cfdf987fad25e04f98423",
      "blockNumber": "0x5dc7a9",
      "gasUsed": "0x1e31c",
      "effectiveGasPrice": "0x1df1e774",
      "from": "0x764693dd666e8dd9275cde8f05c6b07446b1d941",
      "to": "0x1f6eec72dca1ccd968aba326492eaab09bf8c14c",
      "contractAddress": null
    },
    {
      "status": "0x1",
      "cumulativeGasUsed": "0x9aaaf6",
      "logs": [
        {
          "address": "0xd8ed4a9317585bd8ce8ef7524c313f25373d1739",
          "topics": [
            "0xddf252ad1be2c89b69c2b068fc378daa952ba7f163c4a11628f55a4df523b3ef",
            "0x000000000000000000000000764693dd666e8dd9275cde8f05c6b07446b1d941",
            "0x0000000000000000000000001f6eec72dca1ccd968aba326492eaab09bf8c14c"
          ],
          "data": "0x00000000000000000000000000000000000000000000018650127cc3dc800000",
          "blockHash": "0xb003195b7ff6c436c6572abf5a11cd8e3852a9800f5cfdf987fad25e04f98423",
          "blockNumber": "0x5dc7a9",
          "transactionHash": "0x6b0f1b9458069ac2d90963dd2e8222b8aae2266e127b12fddc21b57aebe9e143",
          "transactionIndex": "0x37",
          "logIndex": "0x6e",
          "removed": false
        },
        {
          "address": "0xd8ed4a9317585bd8ce8ef7524c313f25373d1739",
          "topics": [
            "0xddf252ad1be2c89b69c2b068fc378daa952ba7f163c4a11628f55a4df523b3ef",
            "0x0000000000000000000000001f6eec72dca1ccd968aba326492eaab09bf8c14c",
            "0x000000000000000000000000764693dd666e8dd9275cde8f05c6b07446b1d941"
          ],
          "data": "0x0000000000000000000000000000000000000000000001864feef5d16cbf0000",
          "blockHash": "0xb003195b7ff6c436c6572abf5a11cd8e3852a9800f5cfdf987fad25e04f98423",
          "blockNumber": "0x5dc7a9",
          "transactionHash": "0x6b0f1b9458069ac2d90963dd2e8222b8aae2266e127b12fddc21b57aebe9e143",
          "transactionIndex": "0x37",
          "logIndex": "0x6f",
          "removed": false
        },
        {
          "address": "0x1f6eec72dca1ccd968aba326492eaab09bf8c14c",
          "topics": [
            "0x1a777a4e69f842f69af228bdecb2e58e1ab9d68e3c8694533ddb6ff9dd243f82",
            "0x0000000000000000000000000000000000000000000000000000000000000002",
            "0x000000000000000000000000764693dd666e8dd9275cde8f05c6b07446b1d941"
          ],
          "data": "0x",
          "blockHash": "0xb003195b7ff6c436c6572abf5a11cd8e3852a9800f5cfdf987fad25e04f98423",
          "blockNumber": "0x5dc7a9",
          "transactionHash": "0x6b0f1b9458069ac2d90963dd2e8222b8aae2266e127b12fddc21b57aebe9e143",
          "transactionIndex": "0x37",
          "logIndex": "0x70",
          "removed": false
        }
      ],
      "logsBloom": "0x04000000000000000000000000000000800000000000000000000008004000000000000000000000000000040000000000000000400000000000000000000000000000000000000004000088000000000000000000000000000000000000000000000020000000000000000000800000000000000000000000000010000000000000000000000000000000000000000000000000000200000000000000000000000000000000000000000100000000000000000000000000000000000040000000000002000000000000000000000040000000000000000000000000000000000000000000000000020010000000000000000000008800000000000000000000",
      "type": "0x2",
      "transactionHash": "0x6b0f1b9458069ac2d90963dd2e8222b8aae2266e127b12fddc21b57aebe9e143",
      "transactionIndex": "0x37",
      "blockHash": "0xb003195b7ff6c436c6572abf5a11cd8e3852a9800f5cfdf987fad25e04f98423",
      "blockNumber": "0x5dc7a9",
      "gasUsed": "0x1a050",
      "effectiveGasPrice": "0x1df1e774",
      "from": "0x764693dd666e8dd9275cde8f05c6b07446b1d941",
      "to": "0x1f6eec72dca1ccd968aba326492eaab09bf8c14c",
      "contractAddress": null
    },
    {
      "status": "0x1",
      "cumulativeGasUsed": "0x9c4a6e",
      "logs": [
        {
          "address": "0xd8ed4a9317585bd8ce8ef7524c313f25373d1739",
          "topics": [
            "0xddf252ad1be2c89b69c2b068fc378daa952ba7f163c4a11628f55a4df523b3ef",
            "0x000000000000000000000000764693dd666e8dd9275cde8f05c6b07446b1d941",
            "0x0000000000000000000000001f6eec72dca1ccd968aba326492eaab09bf8c14c"
          ],
          "data": "0x000000000000000000000000000000000000000000018036d232d0cd0e000000",
          "blockHash": "0xb003195b7ff6c436c6572abf5a11cd8e3852a9800f5cfdf987fad25e04f98423",
          "blockNumber": "0x5dc7a9",
          "transactionHash": "0x0b8dd90a0e2b7f29bf34b325e8490b7f635505693d651850c80072077ab91616",
          "transactionIndex": "0x38",
          "logIndex": "0x71",
          "removed": false
        },
        {
          "address": "0xd8ed4a9317585bd8ce8ef7524c313f25373d1739",
          "topics": [
            "0xddf252ad1be2c89b69c2b068fc378daa952ba7f163c4a11628f55a4df523b3ef",
            "0x0000000000000000000000001f6eec72dca1ccd968aba326492eaab09bf8c14c",
            "0x000000000000000000000000764693dd666e8dd9275cde8f05c6b07446b1d941"
          ],
          "data": "0x000000000000000000000000000000000000000000018036d20f49da9e3f0000",
          "blockHash": "0xb003195b7ff6c436c6572abf5a11cd8e3852a9800f5cfdf987fad25e04f98423",
          "blockNumber": "0x5dc7a9",
          "transactionHash": "0x0b8dd90a0e2b7f29bf34b325e8490b7f635505693d651850c80072077ab91616",
          "transactionIndex": "0x38",
          "logIndex": "0x72",
          "removed": false
        },
        {
          "address": "0x1f6eec72dca1ccd968aba326492eaab09bf8c14c",
          "topics": [
            "0x1a777a4e69f842f69af228bdecb2e58e1ab9d68e3c8694533ddb6ff9dd243f82",
            "0x0000000000000000000000000000000000000000000000000000000000000003",
            "0x000000000000000000000000764693dd666e8dd9275cde8f05c6b07446b1d941"
          ],
          "data": "0x",
          "blockHash": "0xb003195b7ff6c436c6572abf5a11cd8e3852a9800f5cfdf987fad25e04f98423",
          "blockNumber": "0x5dc7a9",
          "transactionHash": "0x0b8dd90a0e2b7f29bf34b325e8490b7f635505693d651850c80072077ab91616",
          "transactionIndex": "0x38",
          "logIndex": "0x73",
          "removed": false
        }
      ],
      "logsBloom": "0x00000000000000000000000000000000800000000000000000000008004000000000000000000000000000040000000000000000420000000000000000000000000000000000000004000088000000000000000000000000000000000000000000000020000000000000000000800000000000000000000000000010000000000000000000000000000000000000000000000000000200000000000000000000000000000000000000000000000000000000000000800000000000000040400000000002000000000000000000000040000000000000000000000000000000000000000000000000020010000000000000000000000800000000000000000000",
      "type": "0x2",
      "transactionHash": "0x0b8dd90a0e2b7f29bf34b325e8490b7f635505693d651850c80072077ab91616",
      "transactionIndex": "0x38",
      "blockHash": "0xb003195b7ff6c436c6572abf5a11cd8e3852a9800f5cfdf987fad25e04f98423",
      "blockNumber": "0x5dc7a9",
      "gasUsed": "0x19f78",
      "effectiveGasPrice": "0x1df1e774",
      "from": "0x764693dd666e8dd9275cde8f05c6b07446b1d941",
      "to": "0x1f6eec72dca1ccd968aba326492eaab09bf8c14c",
      "contractAddress": null
    },
    {
      "status": "0x1",
      "cumulativeGasUsed": "0x9de9da",
      "logs": [
        {
          "address": "0xd8ed4a9317585bd8ce8ef7524c313f25373d1739",
          "topics": [
            "0xddf252ad1be2c89b69c2b068fc378daa952ba7f163c4a11628f55a4df523b3ef",
            "0x000000000000000000000000764693dd666e8dd9275cde8f05c6b07446b1d941",
            "0x0000000000000000000000001f6eec72dca1ccd968aba326492eaab09bf8c14c"
          ],
          "data": "0x0000000000000000000000000000000000000000000292a71f328a8418000000",
          "blockHash": "0xb003195b7ff6c436c6572abf5a11cd8e3852a9800f5cfdf987fad25e04f98423",
          "blockNumber": "0x5dc7a9",
          "transactionHash": "0xd022613827f52591e42af2a1244d8a446b644187c4eaca20e8bd593fd0ce29fe",
          "transactionIndex": "0x39",
          "logIndex": "0x74",
          "removed": false
        },
        {
          "address": "0xd8ed4a9317585bd8ce8ef7524c313f25373d1739",
          "topics": [
            "0xddf252ad1be2c89b69c2b068fc378daa952ba7f163c4a11628f55a4df523b3ef",
            "0x0000000000000000000000001f6eec72dca1ccd968aba326492eaab09bf8c14c",
            "0x000000000000000000000000764693dd666e8dd9275cde8f05c6b07446b1d941"
          ],
          "data": "0x0000000000000000000000000000000000000000000292a71f0f0391a83f0000",
          "blockHash": "0xb003195b7ff6c436c6572abf5a11cd8e3852a9800f5cfdf987fad25e04f98423",
          "blockNumber": "0x5dc7a9",
          "transactionHash": "0xd022613827f52591e42af2a1244d8a446b644187c4eaca20e8bd593fd0ce29fe",
          "transactionIndex": "0x39",
          "logIndex": "0x75",
          "removed": false
        },
        {
          "address": "0x1f6eec72dca1ccd968aba326492eaab09bf8c14c",
          "topics": [
            "0x1a777a4e69f842f69af228bdecb2e58e1ab9d68e3c8694533ddb6ff9dd243f82",
            "0x0000000000000000000000000000000000000000000000000000000000000004",
            "0x000000000000000000000000764693dd666e8dd9275cde8f05c6b07446b1d941"
          ],
          "data": "0x",
          "blockHash": "0xb003195b7ff6c436c6572abf5a11cd8e3852a9800f5cfdf987fad25e04f98423",
          "blockNumber": "0x5dc7a9",
          "transactionHash": "0xd022613827f52591e42af2a1244d8a446b644187c4eaca20e8bd593fd0ce29fe",
          "transactionIndex": "0x39",
          "logIndex": "0x76",
          "removed": false
        }
      ],
      "logsBloom": "0x00000000000000000000000000000000800000000000000000000008004000000000000000000000000000040000000000000000400000000000000000000000000000000000000004000088000000000000000000000000000000000000000008000020000000000000000000800000000000000000000000000010000000000000000000000000000000000000000000000000000200000000000000000000000000000000000000000000000000000000000000000000002000000040000000000002000000000000000000000040000000008000000000000000000000000000000000000000020010000000000000000000000800000000000000000000",
      "type": "0x2",
      "transactionHash": "0xd022613827f52591e42af2a1244d8a446b644187c4eaca20e8bd593fd0ce29fe",
      "transactionIndex": "0x39",
      "blockHash": "0xb003195b7ff6c436c6572abf5a11cd8e3852a9800f5cfdf987fad25e04f98423",
      "blockNumber": "0x5dc7a9",
      "gasUsed": "0x19f6c",
      "effectiveGasPrice": "0x1df1e774",
      "from": "0x764693dd666e8dd9275cde8f05c6b07446b1d941",
      "to": "0x1f6eec72dca1ccd968aba326492eaab09bf8c14c",
      "contractAddress": null
    },
    {
      "status": "0x1",
      "cumulativeGasUsed": "0x9f8a2a",
      "logs": [
        {
          "address": "0xd8ed4a9317585bd8ce8ef7524c313f25373d1739",
          "topics": [
            "0xddf252ad1be2c89b69c2b068fc378daa952ba7f163c4a11628f55a4df523b3ef",
            "0x000000000000000000000000764693dd666e8dd9275cde8f05c6b07446b1d941",
            "0x0000000000000000000000001f6eec72dca1ccd968aba326492eaab09bf8c14c"
          ],
          "data": "0x0000000000000000000000000000000000000000000006194049f30f72000000",
          "blockHash": "0xb003195b7ff6c436c6572abf5a11cd8e3852a9800f5cfdf987fad25e04f98423",
          "blockNumber": "0x5dc7a9",
          "transactionHash": "0x04d8e3c3403615b8cdef94115a30d04b747e238130926b6f1c3c3275a6258b8b",
          "transactionIndex": "0x3a",
          "logIndex": "0x77",
          "removed": false
        },
        {
          "address": "0xd8ed4a9317585bd8ce8ef7524c313f25373d1739",
          "topics": [
            "0xddf252ad1be2c89b69c2b068fc378daa952ba7f163c4a11628f55a4df523b3ef",
            "0x0000000000000000000000001f6eec72dca1ccd968aba326492eaab09bf8c14c",
            "0x000000000000000000000000764693dd666e8dd9275cde8f05c6b07446b1d941"
          ],
          "data": "0x00000000000000000000000000000000000000000000061940266c1d023f0000",
          "blockHash": "0xb003195b7ff6c436c6572abf5a11cd8e3852a9800f5cfdf987fad25e04f98423",
          "blockNumber": "0x5dc7a9",
          "transactionHash": "0x04d8e3c3403615b8cdef94115a30d04b747e238130926b6f1c3c3275a6258b8b",
          "transactionIndex": "0x3a",
          "logIndex": "0x78",
          "removed": false
        },
        {
          "address": "0x1f6eec72dca1ccd968aba326492eaab09bf8c14c",
          "topics": [
            "0x1a777a4e69f842f69af228bdecb2e58e1ab9d68e3c8694533ddb6ff9dd243f82",
            "0x0000000000000000000000000000000000000000000000000000000000000005",
            "0x000000000000000000000000764693dd666e8dd9275cde8f05c6b07446b1d941"
          ],
          "data": "0x",
          "blockHash": "0xb003195b7ff6c436c6572abf5a11cd8e3852a9800f5cfdf987fad25e04f98423",
          "blockNumber": "0x5dc7a9",
          "transactionHash": "0x04d8e3c3403615b8cdef94115a30d04b747e238130926b6f1c3c3275a6258b8b",
          "transactionIndex": "0x3a",
          "logIndex": "0x79",
          "removed": false
        }
      ],
      "logsBloom": "0x00000000000000000000000000000000800000000000000000000008004000000000000000000000000000040000000000000000400000000000000000000000000010000000000004000088000000000000000000000000000000000000000000000020000000000000000000800000000000000000000000000010000000000000000000000000000000000000001000000800000200000000000000000000000000000000000000000000000000000000000000000000000000000040000000000002000000000000000000000040000000000000000000000000000000000000000000000000020010000000000000000000000800000000000000000000",
      "type": "0x2",
      "transactionHash": "0x04d8e3c3403615b8cdef94115a30d04b747e238130926b6f1c3c3275a6258b8b",
      "transactionIndex": "0x3a",
      "blockHash": "0xb003195b7ff6c436c6572abf5a11cd8e3852a9800f5cfdf987fad25e04f98423",
      "blockNumber": "0x5dc7a9",
      "gasUsed": "0x1a050",
      "effectiveGasPrice": "0x1df1e774",
      "from": "0x764693dd666e8dd9275cde8f05c6b07446b1d941",
      "to": "0x1f6eec72dca1ccd968aba326492eaab09bf8c14c",
      "contractAddress": null
    },
    {
      "status": "0x1",
      "cumulativeGasUsed": "0xa008ea",
      "logs": [
        {
          "address": "0x1f6eec72dca1ccd968aba326492eaab09bf8c14c",
          "topics": [
            "0x484d6a78aff107b13227d3005e91c4967e9d387e9c8b44953f3f95f18308a926",
            "0x0000000000000000000000000000000000000000000000000000000000000001"
          ],
          "data": "0x",
          "blockHash": "0xb003195b7ff6c436c6572abf5a11cd8e3852a9800f5cfdf987fad25e04f98423",
          "blockNumber": "0x5dc7a9",
          "transactionHash": "0xb5bc71f791900135b12fa0071c4b39f4ed5c88a56e9ccc3f990a3a39335e83a4",
          "transactionIndex": "0x3b",
          "logIndex": "0x7a",
          "removed": false
        }
      ],
      "logsBloom": "0x00000000000000000000000000000000000000000000000000000000000000000000000000000000000000040000000000000000000000000000000000040000000000000000000000000000000000000000000000040000000000000000000000000020000000000000000000000020000000000000000000000000000000000000000000000000000000000000000000000000000000000000000000000000000000000000000000000000000000000008000000000000000000000000000000000000000000000000000000000000000000000000000000000000000040040000000000000000000010000000000000000000000000000000000000000000",
      "type": "0x2",
      "transactionHash": "0xb5bc71f791900135b12fa0071c4b39f4ed5c88a56e9ccc3f990a3a39335e83a4",
      "transactionIndex": "0x3b",
      "blockHash": "0xb003195b7ff6c436c6572abf5a11cd8e3852a9800f5cfdf987fad25e04f98423",
      "blockNumber": "0x5dc7a9",
      "gasUsed": "0x7ec0",
      "effectiveGasPrice": "0x1df1e774",
      "from": "0x764693dd666e8dd9275cde8f05c6b07446b1d941",
      "to": "0x1f6eec72dca1ccd968aba326492eaab09bf8c14c",
      "contractAddress": null
    },
    {
      "status": "0x1",
      "cumulativeGasUsed": "0xa087aa",
      "logs": [
        {
          "address": "0x1f6eec72dca1ccd968aba326492eaab09bf8c14c",
          "topics": [
            "0x484d6a78aff107b13227d3005e91c4967e9d387e9c8b44953f3f95f18308a926",
            "0x0000000000000000000000000000000000000000000000000000000000000003"
          ],
          "data": "0x",
          "blockHash": "0xb003195b7ff6c436c6572abf5a11cd8e3852a9800f5cfdf987fad25e04f98423",
          "blockNumber": "0x5dc7a9",
          "transactionHash": "0xa142628cfebcec7692386431bcbf7d4aa470fedcb04b007ce8f3d091529788f0",
          "transactionIndex": "0x3c",
          "logIndex": "0x7b",
          "removed": false
        }
      ],
      "logsBloom": "0x00000000000000000000000000000000000000000000000000000000000000000000000000000000000000040000000000000000020000000000000000000000000000000000000000000000000000000000000000000000000000000000000000000020000000000000000000000020000000000000000000000000000000000000000000000000000000000000000000000000000000000000000000000000000000000000000000000000000000000008000000800000000000000000400000000000000000000000000000000000000000000000000000000000000000040000000000000000000010000000000000000000000000000000000000000000",
      "type": "0x2",
      "transactionHash": "0xa142628cfebcec7692386431bcbf7d4aa470fedcb04b007ce8f3d091529788f0",
      "transactionIndex": "0x3c",
      "blockHash": "0xb003195b7ff6c436c6572abf5a11cd8e3852a9800f5cfdf987fad25e04f98423",
      "blockNumber": "0x5dc7a9",
      "gasUsed": "0x7ec0",
      "effectiveGasPrice": "0x1df1e774",
      "from": "0x764693dd666e8dd9275cde8f05c6b07446b1d941",
      "to": "0x1f6eec72dca1ccd968aba326492eaab09bf8c14c",
      "contractAddress": null
    }
  ],
  "libraries": [],
  "pending": [],
  "returns": {},
  "timestamp": 1718867622,
  "chain": 11155111,
  "commit": "67d1581"
}