{
  "transactions": [
    {
      "hash": "0x8f0269f7196c961498093fc77b66a5e7c9b37b2b68794a5aa29a330f7be02aea",
      "transactionType": "CREATE",
      "contractName": "ParkFi",
      "contractAddress": "0x76807bd717cfab825aba49546a61beb0477e7607",
      "function": null,
      "arguments": [
        "0xe37e44964Dad319C6b31D222453b7DDd3b249721",
        "0x6Ec5929e48aD78838155FC8D3C6ed4E3c5BAc111",
        "0xD8ed4a9317585BD8Ce8eF7524C313F25373D1739",
        "1000000000000000",
        "100000000000000000"
      ],
      "transaction": {
        "from": "0x764693dd666e8dd9275cde8f05c6b07446b1d941",
        "gas": "0x16231c",
        "value": "0x0",
        "input": "0x608060405234801561001057600080fd5b5060405161122738038061122783398101604081905261002f91610117565b338061005557604051631e4fbdf760e01b81526000600482015260240160405180910390fd5b61005e816100ab565b50600180546001600160a01b03199081166001600160a01b03978816179091556002805482169587169590951790945560038054909416929094169190911790915560045560055561016d565b600080546001600160a01b038381166001600160a01b0319831681178455604051919092169283917f8be0079c531659141344cd1fd0a4f28419497f9722a3daafe3b4186f6b6457e09190a35050565b80516001600160a01b038116811461011257600080fd5b919050565b600080600080600060a0868803121561012f57600080fd5b610138866100fb565b9450610146602087016100fb565b9350610154604087016100fb565b6060870151608090970151959894975095949392505050565b6110ab8061017c6000396000f3fe608060405234801561001057600080fd5b50600436106100935760003560e01c80639a9f07de116100665780639a9f07de146100ee578063a1ae6a25146100f6578063e0bddcd914610109578063f2fde38b1461011c578063f62c28cf1461012f57600080fd5b80631bd2eeee146100985780633b111731146100ad578063715018a6146100cb5780638da5cb5b146100d3575b600080fd5b6100ab6100a6366004610e10565b610137565b005b6100b56102ec565b6040516100c29190610e61565b60405180910390f35b6100ab610505565b6000546040516001600160a01b0390911681526020016100c2565b6100b5610519565b6100ab610104366004610f0e565b6107a1565b6100ab610117366004610f4a565b610b9c565b6100ab61012a366004610f6c565b610c7f565b6100ab610cc2565b600180546040516370a0823160e01b81523360048201526001600160a01b03909116906370a0823190602401602060405180830381865afa158015610180573d6000803e3d6000fd5b505050506040513d601f19601f820116820180604052508101906101a49190610f9c565b10156101c35760405163148fe22160e11b815260040160405180910390fd5b6000818152600760205260409020600481015461010090046001600160a01b031633146102035760405163be24598360e01b815260040160405180910390fd5b60006102128260030154610d4c565b905080156102a45760035460058301546040516323b872dd60e01b81523360048201526001600160a01b039182166024820152604481018490529116906323b872dd906064016020604051808303816000875af1158015610277573d6000803e3d6000fd5b505050506040513d601f19601f8201168201806040525081019061029b9190610fb5565b6102a457600080fd5b6004820180546001600160a81b031916905560006003830181905560405184917f484d6a78aff107b13227d3005e91c4967e9d387e9c8b44953f3f95f18308a92691a2505050565b6006546060906000805b8281101561033e576007600061030d836001610fed565b815260208101919091526040016000206004015460ff16610336578161033281611006565b9250505b6001016102f6565b506000808267ffffffffffffffff81111561035b5761035b61101f565b6040519080825280602002602001820160405280156103d157816020015b6103be6040805161010081018252600080825260208201819052918101829052606081018290526080810182905260a0810182905260c081018290529060e082015290565b8152602001906001900390816103795790505b50905060005b848110156104fc57600760006103ee836001610fed565b815260208101919091526040016000206004015460ff166104f4576000610416826001610fed565b60008181526007602090815260409182902082516101008082018552825482526001808401549483019490945260028301549482019490945260038201546060820152600482015460ff808216151560808401529490046001600160a01b0390811660a0830152600583015490811660c083015294955090939092849260e0850192600160a01b9004909116908111156104b2576104b2610e29565b60018111156104c3576104c3610e29565b815250508486815181106104d9576104d9611035565b60209081029190910101526104ef600186610fed565b945050505b6001016103d7565b50949350505050565b61050d610d93565b6105176000610dc0565b565b6006546060906000805b828110156105a7576007600061053a836001610fed565b815260208101919091526040016000206004015460ff16801561058c57503360076000610568846001610fed565b815260208101919091526040016000206004015461010090046001600160a01b0316145b1561059f578161059b81611006565b9250505b600101610523565b506000808267ffffffffffffffff8111156105c4576105c461101f565b60405190808252806020026020018201604052801561063a57816020015b6106276040805161010081018252600080825260208201819052918101829052606081018290526080810182905260a0810182905260c081018290529060e082015290565b8152602001906001900390816105e25790505b50905060005b848110156104fc5760076000610657836001610fed565b815260208101919091526040016000206004015460ff1680156106a957503360076000610685846001610fed565b815260208101919091526040016000206004015461010090046001600160a01b0316145b156107995760006106bb826001610fed565b60008181526007602090815260409182902082516101008082018552825482526001808401549483019490945260028301549482019490945260038201546060820152600482015460ff808216151560808401529490046001600160a01b0390811660a0830152600583015490811660c083015294955090939092849260e0850192600160a01b90049091169081111561075757610757610e29565b600181111561076857610768610e29565b8152505084868151811061077e5761077e611035565b6020908102919091010152610794600186610fed565b945050505b600101610640565b600180546040516370a0823160e01b81523360048201526001600160a01b03909116906370a0823190602401602060405180830381865afa1580156107ea573d6000803e3d6000fd5b505050506040513d601f19601f8201168201806040525081019061080e9190610f9c565b101561082d5760405163148fe22160e11b815260040160405180910390fd5b6000838152600760205260409020600481015460ff16156108615760405163d9b9141960e01b815260040160405180910390fd5b60048101805433610100026001600160a81b0319909116176001179055600083600181111561089257610892610e29565b03610a205760058101805460ff60a01b191690556108b08242610fed565b600382015560018101546000906108c7908461104b565b6003546040516323b872dd60e01b8152336004820152306024820152604481018390529192506001600160a01b0316906323b872dd906064016020604051808303816000875af115801561091f573d6000803e3d6000fd5b505050506040513d601f19601f820116820180604052508101906109439190610fb5565b61094c57600080fd5b60035460058301546004546001600160a01b039283169263a9059cbb9216906109759085611062565b6040516001600160e01b031960e085901b1681526001600160a01b03909216600483015260248201526044016020604051808303816000875af11580156109c0573d6000803e3d6000fd5b505050506040513d601f19601f820116820180604052508101906109e49190610fb5565b6109ed57600080fd5b604051339086907f1a777a4e69f842f69af228bdecb2e58e1ab9d68e3c8694533ddb6ff9dd243f8290600090a350610b96565b610a2a8242610fed565b60038201556002810154600090610a41908461104b565b6003546040516323b872dd60e01b8152336004820152306024820152604481018390529192506001600160a01b0316906323b872dd906064016020604051808303816000875af1158015610a99573d6000803e3d6000fd5b505050506040513d601f19601f82011682018060405250810190610abd9190610fb5565b610ac657600080fd5b60035460058301546004546001600160a01b039283169263a9059cbb921690610aef9085611062565b6040516001600160e01b031960e085901b1681526001600160a01b03909216600483015260248201526044016020604051808303816000875af1158015610b3a573d6000803e3d6000fd5b505050506040513d601f19601f82011682018060405250810190610b5e9190610fb5565b610b6757600080fd5b604051339086907f1a777a4e69f842f69af228bdecb2e58e1ab9d68e3c8694533ddb6ff9dd243f8290600090a3505b50505050565b60068054906000610bac83611006565b9091555050600654600081815260076020526040908190209182556001820184905560028083018490556005830180546001600160a01b0319163390811790915590549151632a6ac57960e01b815260048101919091526001600160a01b0390911690632a6ac57990602401600060405180830381600087803b158015610c3257600080fd5b505af1158015610c46573d6000803e3d6000fd5b50506006546040518593508692507f91e71c368c41168aa5766ee5b0c25d8c5f2c37970e7e4365305015fae0bfb0c690600090a4505050565b610c87610d93565b6001600160a01b038116610cb657604051631e4fbdf760e01b8152600060048201526024015b60405180910390fd5b610cbf81610dc0565b50565b60015460405163553005c560e11b81523360048201526001600160a01b039091169063aa600b8a90602401600060405180830381600087803b158015610d0757600080fd5b505af1158015610d1b573d6000803e3d6000fd5b50506040513392507fd35a6cc813c47c11ff9f41f7fe9d463b32db9be612b7f78e9ba6336deb4c59009150600090a2565b600081421115610d8e576000610d628342611062565b90508015610d8c57600454610d77908261104b565b610d8990670de0b6b3a764000061104b565b91505b505b919050565b6000546001600160a01b031633146105175760405163118cdaa760e01b8152336004820152602401610cad565b600080546001600160a01b038381166001600160a01b0319831681178455604051919092169283917f8be0079c531659141344cd1fd0a4f28419497f9722a3daafe3b4186f6b6457e09190a35050565b600060208284031215610e2257600080fd5b5035919050565b634e487b7160e01b600052602160045260246000fd5b60028110610e5d57634e487b7160e01b600052602160045260246000fd5b9052565b602080825282518282018190526000918401906040840190835b81811015610f035783518051845260208101516020850152604081015160408501526060810151606085015260808101511515608085015260018060a01b0360a08201511660a085015260018060a01b0360c08201511660c085015260e08101519050610eeb60e0850182610e3f565b50602093909301926101009290920191600101610e7b565b509095945050505050565b600080600060608486031215610f2357600080fd5b83359250602084013560028110610f3957600080fd5b929592945050506040919091013590565b60008060408385031215610f5d57600080fd5b50508035926020909101359150565b600060208284031215610f7e57600080fd5b81356001600160a01b0381168114610f9557600080fd5b9392505050565b600060208284031215610fae57600080fd5b5051919050565b600060208284031215610fc757600080fd5b81518015158114610f9557600080fd5b634e487b7160e01b600052601160045260246000fd5b8082018082111561100057611000610fd7565b92915050565b60006001820161101857611018610fd7565b5060010190565b634e487b7160e01b600052604160045260246000fd5b634e487b7160e01b600052603260045260246000fd5b808202811582820484141761100057611000610fd7565b8181038181111561100057611000610fd756fea2646970667358221220787215739dd4e15487aa79d20a9a031214ffd06c94a3084a7bd11b6d352deeec64736f6c634300081a0033000000000000000000000000e37e44964dad319c6b31d222453b7ddd3b2497210000000000000000000000006ec5929e48ad78838155fc8d3c6ed4e3c5bac111000000000000000000000000d8ed4a9317585bd8ce8ef7524c313f25373d173900000000000000000000000000000000000000000000000000038d7ea4c68000000000000000000000000000000000000000000000000000016345785d8a0000",
        "nonce": "0x157",
        "chainId": "0xaa36a7"
      },
      "additionalContracts": [],
      "isFixedGasLimit": false
    },
    {
      "hash": "0x830bbdf7d777f25c83b449977caad16ba3bcf2ec04f85eff19b79ccbd1c35fb4",
      "transactionType": "CALL",
      "contractName": null,
      "contractAddress": "0xe37e44964dad319c6b31d222453b7ddd3b249721",
      "function": "setParkFiAddress(address)",
      "arguments": [
        "0x76807BD717CfaB825aba49546A61BEB0477E7607"
      ],
      "transaction": {
        "from": "0x764693dd666e8dd9275cde8f05c6b07446b1d941",
        "to": "0xe37e44964dad319c6b31d222453b7ddd3b249721",
        "gas": "0x9c69",
        "value": "0x0",
        "input": "0x19b3509300000000000000000000000076807bd717cfab825aba49546a61beb0477e7607",
        "nonce": "0x158",
        "chainId": "0xaa36a7"
      },
      "additionalContracts": [],
      "isFixedGasLimit": false
    },
    {
      "hash": "0x26dcf8557387e6de466883b4f596bc885aed64f8a571b6fffbb89461bf84ce1d",
      "transactionType": "CALL",
      "contractName": null,
      "contractAddress": "0x6ec5929e48ad78838155fc8d3c6ed4e3c5bac111",
      "function": "setParkFiAddress(address)",
      "arguments": [
        "0x76807BD717CfaB825aba49546A61BEB0477E7607"
      ],
      "transaction": {
        "from": "0x764693dd666e8dd9275cde8f05c6b07446b1d941",
        "to": "0x6ec5929e48ad78838155fc8d3c6ed4e3c5bac111",
        "gas": "0x9c88",
        "value": "0x0",
        "input": "0x19b3509300000000000000000000000076807bd717cfab825aba49546a61beb0477e7607",
        "nonce": "0x159",
        "chainId": "0xaa36a7"
      },
      "additionalContracts": [],
      "isFixedGasLimit": false
    },
    {
      "hash": "0x22df497eb88c80e0505455b20a5977a1148c3f77417a3e4763c56021570dce63",
      "transactionType": "CALL",
      "contractName": "ParkFi",
      "contractAddress": "0x76807bd717cfab825aba49546a61beb0477e7607",
      "function": "verifyAndMintParkingSpace(uint256,uint256)",
      "arguments": [
        "1000000000000000000",
        "4000000000000000000"
      ],
      "transaction": {
        "from": "0x764693dd666e8dd9275cde8f05c6b07446b1d941",
        "to": "0x76807bd717cfab825aba49546a61beb0477e7607",
        "gas": "0x45465",
        "value": "0x0",
        "input": "0xe0bddcd90000000000000000000000000000000000000000000000000de0b6b3a76400000000000000000000000000000000000000000000000000003782dace9d900000",
        "nonce": "0x15a",
        "chainId": "0xaa36a7"
      },
      "additionalContracts": [],
      "isFixedGasLimit": false
    },
    {
      "hash": "0xac5a5790dae8048ad147fc4d93f841185a5f53c2bd23739649fe2275dcf04162",
      "transactionType": "CALL",
      "contractName": "ParkFi",
      "contractAddress": "0x76807bd717cfab825aba49546a61beb0477e7607",
      "function": "verifyAndMintParkingSpace(uint256,uint256)",
      "arguments": [
        "1000000000000000000",
        "5000000000000000000"
      ],
      "transaction": {
        "from": "0x764693dd666e8dd9275cde8f05c6b07446b1d941",
        "to": "0x76807bd717cfab825aba49546a61beb0477e7607",
        "gas": "0x433e8",
        "value": "0x0",
        "input": "0xe0bddcd90000000000000000000000000000000000000000000000000de0b6b3a76400000000000000000000000000000000000000000000000000004563918244f40000",
        "nonce": "0x15b",
        "chainId": "0xaa36a7"
      },
      "additionalContracts": [],
      "isFixedGasLimit": false
    },
    {
      "hash": "0x7683ed90ab432daa166feb68bb1a70fdb89c26f9f9ba1be2780cb1c8faf37985",
      "transactionType": "CALL",
      "contractName": "ParkFi",
      "contractAddress": "0x76807bd717cfab825aba49546a61beb0477e7607",
      "function": "verifyAndMintParkingSpace(uint256,uint256)",
      "arguments": [
        "2000000000000000000",
        "7000000000000000000"
      ],
      "transaction": {
        "from": "0x764693dd666e8dd9275cde8f05c6b07446b1d941",
        "to": "0x76807bd717cfab825aba49546a61beb0477e7607",
        "gas": "0x433e8",
        "value": "0x0",
        "input": "0xe0bddcd90000000000000000000000000000000000000000000000001bc16d674ec800000000000000000000000000000000000000000000000000006124fee993bc0000",
        "nonce": "0x15c",
        "chainId": "0xaa36a7"
      },
      "additionalContracts": [],
      "isFixedGasLimit": false
    },
    {
      "hash": "0x30d80511b4af67f22812adc859f9ab22afac05094b3bfe1f740c35067cf2a32c",
      "transactionType": "CALL",
      "contractName": "ParkFi",
      "contractAddress": "0x76807bd717cfab825aba49546a61beb0477e7607",
      "function": "verifyAndMintParkingSpace(uint256,uint256)",
      "arguments": [
        "3000000000000000000",
        "9000000000000000000"
      ],
      "transaction": {
        "from": "0x764693dd666e8dd9275cde8f05c6b07446b1d941",
        "to": "0x76807bd717cfab825aba49546a61beb0477e7607",
        "gas": "0x433e8",
        "value": "0x0",
        "input": "0xe0bddcd900000000000000000000000000000000000000000000000029a2241af62c00000000000000000000000000000000000000000000000000007ce66c50e2840000",
        "nonce": "0x15d",
        "chainId": "0xaa36a7"
      },
      "additionalContracts": [],
      "isFixedGasLimit": false
    },
    {
      "hash": "0xcc91a89c9a5ad7dbcdb088b8375518377d877214780b1b05bfa3204239916100",
      "transactionType": "CALL",
      "contractName": "ParkFi",
      "contractAddress": "0x76807bd717cfab825aba49546a61beb0477e7607",
      "function": "verifyAndMintParkingSpace(uint256,uint256)",
      "arguments": [
        "4000000000000000000",
        "12000000000000000000"
      ],
      "transaction": {
        "from": "0x764693dd666e8dd9275cde8f05c6b07446b1d941",
        "to": "0x76807bd717cfab825aba49546a61beb0477e7607",
        "gas": "0x433e8",
        "value": "0x0",
        "input": "0xe0bddcd90000000000000000000000000000000000000000000000003782dace9d900000000000000000000000000000000000000000000000000000a688906bd8b00000",
        "nonce": "0x15e",
        "chainId": "0xaa36a7"
      },
      "additionalContracts": [],
      "isFixedGasLimit": false
    },
    {
      "hash": "0xa9bf8bf128cc603b17c24855cecb098ffe06e45f498ddf7d2ab83211c0003fa8",
      "transactionType": "CALL",
      "contractName": "ParkFi",
      "contractAddress": "0x76807bd717cfab825aba49546a61beb0477e7607",
      "function": "verifyAndMintMembership()",
      "arguments": [],
      "transaction": {
        "from": "0x764693dd666e8dd9275cde8f05c6b07446b1d941",
        "to": "0x76807bd717cfab825aba49546a61beb0477e7607",
        "gas": "0x1f6c1",
        "value": "0x0",
        "input": "0xf62c28cf",
        "nonce": "0x15f",
        "chainId": "0xaa36a7"
      },
      "additionalContracts": [],
      "isFixedGasLimit": false
    },
    {
      "hash": "0x798846a8c0752bee90ebfc9d35f204cc2523fc28574e3d5c2d0143f14ab25dd2",
      "transactionType": "CALL",
      "contractName": null,
      "contractAddress": "0xd8ed4a9317585bd8ce8ef7524c313f25373d1739",
      "function": "approve(address,uint256)",
      "arguments": [
        "0x76807BD717CfaB825aba49546A61BEB0477E7607",
        "115792089237316195423570985008687907853269984665640564039457584007913129639935"
      ],
      "transaction": {
        "from": "0x764693dd666e8dd9275cde8f05c6b07446b1d941",
        "to": "0xd8ed4a9317585bd8ce8ef7524c313f25373d1739",
        "gas": "0x10ab1",
        "value": "0x0",
        "input": "0x095ea7b300000000000000000000000076807bd717cfab825aba49546a61beb0477e7607ffffffffffffffffffffffffffffffffffffffffffffffffffffffffffffffff",
        "nonce": "0x160",
        "chainId": "0xaa36a7"
      },
      "additionalContracts": [],
      "isFixedGasLimit": false
    },
    {
      "hash": "0x6979e2e87afda5365607c80b1717cfb0900b5044907e489cc617ebd45b36db5c",
      "transactionType": "CALL",
      "contractName": "ParkFi",
      "contractAddress": "0x76807bd717cfab825aba49546a61beb0477e7607",
      "function": "checkIn(uint256,uint8,uint256)",
      "arguments": [
        "1",
        "0",
        "7200"
      ],
      "transaction": {
        "from": "0x764693dd666e8dd9275cde8f05c6b07446b1d941",
        "to": "0x76807bd717cfab825aba49546a61beb0477e7607",
        "gas": "0x29b4a",
        "value": "0x0",
        "input": "0xa1ae6a25000000000000000000000000000000000000000000000000000000000000000100000000000000000000000000000000000000000000000000000000000000000000000000000000000000000000000000000000000000000000000000001c20",
        "nonce": "0x161",
        "chainId": "0xaa36a7"
      },
      "additionalContracts": [],
      "isFixedGasLimit": false
    },
    {
      "hash": "0x3900a920793b0cef5b7b26e4bdefc2d3311f92abbae61c05af9e213e6a1835ac",
      "transactionType": "CALL",
      "contractName": "ParkFi",
      "contractAddress": "0x76807bd717cfab825aba49546a61beb0477e7607",
      "function": "checkIn(uint256,uint8,uint256)",
      "arguments": [
        "2",
        "0",
        "7200"
      ],
      "transaction": {
        "from": "0x764693dd666e8dd9275cde8f05c6b07446b1d941",
        "to": "0x76807bd717cfab825aba49546a61beb0477e7607",
        "gas": "0x23f08",
        "value": "0x0",
        "input": "0xa1ae6a25000000000000000000000000000000000000000000000000000000000000000200000000000000000000000000000000000000000000000000000000000000000000000000000000000000000000000000000000000000000000000000001c20",
        "nonce": "0x162",
        "chainId": "0xaa36a7"
      },
      "additionalContracts": [],
      "isFixedGasLimit": false
    },
    {
      "hash": "0xc51515ac8e3c9a16cb677aa3c5820137ca899bafa5d61105c695327be1b4e87a",
      "transactionType": "CALL",
      "contractName": "ParkFi",
      "contractAddress": "0x76807bd717cfab825aba49546a61beb0477e7607",
      "function": "checkIn(uint256,uint8,uint256)",
      "arguments": [
        "3",
        "1",
        "259200"
      ],
      "transaction": {
        "from": "0x764693dd666e8dd9275cde8f05c6b07446b1d941",
        "to": "0x76807bd717cfab825aba49546a61beb0477e7607",
        "gas": "0x23ddd",
        "value": "0x0",
        "input": "0xa1ae6a2500000000000000000000000000000000000000000000000000000000000000030000000000000000000000000000000000000000000000000000000000000001000000000000000000000000000000000000000000000000000000000003f480",
        "nonce": "0x163",
        "chainId": "0xaa36a7"
      },
      "additionalContracts": [],
      "isFixedGasLimit": false
    },
    {
      "hash": "0x1faee86bd775a17735773510389bd7ccc6c100d1c388cc594f488b836650da2d",
      "transactionType": "CALL",
      "contractName": "ParkFi",
      "contractAddress": "0x76807bd717cfab825aba49546a61beb0477e7607",
      "function": "checkIn(uint256,uint8,uint256)",
      "arguments": [
        "4",
        "1",
        "345600"
      ],
      "transaction": {
        "from": "0x764693dd666e8dd9275cde8f05c6b07446b1d941",
        "to": "0x76807bd717cfab825aba49546a61beb0477e7607",
        "gas": "0x23dcc",
        "value": "0x0",
        "input": "0xa1ae6a25000000000000000000000000000000000000000000000000000000000000000400000000000000000000000000000000000000000000000000000000000000010000000000000000000000000000000000000000000000000000000000054600",
        "nonce": "0x164",
        "chainId": "0xaa36a7"
      },
      "additionalContracts": [],
      "isFixedGasLimit": false
    },
    {
      "hash": "0x25ee132b2ee8ad42acab53bf99ffec854665f53bf91b95dc2068b71de596a75d",
      "transactionType": "CALL",
      "contractName": "ParkFi",
      "contractAddress": "0x76807bd717cfab825aba49546a61beb0477e7607",
      "function": "checkIn(uint256,uint8,uint256)",
      "arguments": [
        "5",
        "0",
        "7200"
      ],
      "transaction": {
        "from": "0x764693dd666e8dd9275cde8f05c6b07446b1d941",
        "to": "0x76807bd717cfab825aba49546a61beb0477e7607",
        "gas": "0x23f08",
        "value": "0x0",
        "input": "0xa1ae6a25000000000000000000000000000000000000000000000000000000000000000500000000000000000000000000000000000000000000000000000000000000000000000000000000000000000000000000000000000000000000000000001c20",
        "nonce": "0x165",
        "chainId": "0xaa36a7"
      },
      "additionalContracts": [],
      "isFixedGasLimit": false
    },
    {
      "hash": "0x48e5ee561d809d19d27780c5892f81563c3ff8fe03d1950a6ba746b80be92ee0",
      "transactionType": "CALL",
      "contractName": "ParkFi",
      "contractAddress": "0x76807bd717cfab825aba49546a61beb0477e7607",
      "function": "checkOut(uint256)",
      "arguments": [
        "1"
      ],
      "transaction": {
        "from": "0x764693dd666e8dd9275cde8f05c6b07446b1d941",
        "to": "0x76807bd717cfab825aba49546a61beb0477e7607",
        "gas": "0xaf12",
        "value": "0x0",
        "input": "0x1bd2eeee0000000000000000000000000000000000000000000000000000000000000001",
        "nonce": "0x166",
        "chainId": "0xaa36a7"
      },
      "additionalContracts": [],
      "isFixedGasLimit": false
    },
    {
      "hash": "0x5b767554581356eebda8958079c61cd73d3ae51166a5b5dce32a4f443ed58eec",
      "transactionType": "CALL",
      "contractName": "ParkFi",
      "contractAddress": "0x76807bd717cfab825aba49546a61beb0477e7607",
      "function": "checkOut(uint256)",
      "arguments": [
        "3"
      ],
      "transaction": {
        "from": "0x764693dd666e8dd9275cde8f05c6b07446b1d941",
        "to": "0x76807bd717cfab825aba49546a61beb0477e7607",
        "gas": "0xaf12",
        "value": "0x0",
        "input": "0x1bd2eeee0000000000000000000000000000000000000000000000000000000000000003",
        "nonce": "0x167",
        "chainId": "0xaa36a7"
      },
      "additionalContracts": [],
      "isFixedGasLimit": false
    }
  ],
  "receipts": [
    {
      "status": "0x1",
      "cumulativeGasUsed": "0xa1331a",
      "logs": [
        {
          "address": "0x76807bd717cfab825aba49546a61beb0477e7607",
          "topics": [
            "0x8be0079c531659141344cd1fd0a4f28419497f9722a3daafe3b4186f6b6457e0",
            "0x0000000000000000000000000000000000000000000000000000000000000000",
            "0x000000000000000000000000764693dd666e8dd9275cde8f05c6b07446b1d941"
          ],
          "data": "0x",
          "blockHash": "0x6b0cb83abb96938a0221d77b01dcd975d2e392c9d70c528b3248028d7d911f02",
          "blockNumber": "0x5dcb7c",
          "transactionHash": "0x8f0269f7196c961498093fc77b66a5e7c9b37b2b68794a5aa29a330f7be02aea",
          "transactionIndex": "0x37",
          "logIndex": "0x5f",
          "removed": false
        }
      ],
      "logsBloom": "0x00000000000000000000000000000000800000000000000000800000004000000000000000000000000000000000000000000000000000000000000000000000000000000000000000000080000000000001000000000000000000000000000000000000020000000000000000000800000000000000000000000000000000400000000000000000000000000000000000000000000000000000008000000000000000000000000000000000000000000000000000000000000000000000000000000000000000000000000000000000000000000000000000000000000020000000000000000000000000000000000200000000100000000000000000000000",
      "type": "0x2",
      "transactionHash": "0x8f0269f7196c961498093fc77b66a5e7c9b37b2b68794a5aa29a330f7be02aea",
      "transactionIndex": "0x37",
      "blockHash": "0x6b0cb83abb96938a0221d77b01dcd975d2e392c9d70c528b3248028d7d911f02",
      "blockNumber": "0x5dcb7c",
      "gasUsed": "0x11087f",
      "effectiveGasPrice": "0x22879cfd",
      "from": "0x764693dd666e8dd9275cde8f05c6b07446b1d941",
      "to": null,
      "contractAddress": "0x76807bd717cfab825aba49546a61beb0477e7607"
    },
    {
      "status": "0x1",
      "cumulativeGasUsed": "0xa1a458",
      "logs": [],
      "logsBloom": "0x00000000000000000000000000000000000000000000000000000000000000000000000000000000000000000000000000000000000000000000000000000000000000000000000000000000000000000000000000000000000000000000000000000000000000000000000000000000000000000000000000000000000000000000000000000000000000000000000000000000000000000000000000000000000000000000000000000000000000000000000000000000000000000000000000000000000000000000000000000000000000000000000000000000000000000000000000000000000000000000000000000000000000000000000000000000",
      "type": "0x2",
      "transactionHash": "0x830bbdf7d777f25c83b449977caad16ba3bcf2ec04f85eff19b79ccbd1c35fb4",
      "transactionIndex": "0x38",
      "blockHash": "0x6b0cb83abb96938a0221d77b01dcd975d2e392c9d70c528b3248028d7d911f02",
      "blockNumber": "0x5dcb7c",
      "gasUsed": "0x713e",
      "effectiveGasPrice": "0x22879cfd",
      "from": "0x764693dd666e8dd9275cde8f05c6b07446b1d941",
      "to": "0xe37e44964dad319c6b31d222453b7ddd3b249721",
      "contractAddress": null
    },
    {
      "status": "0x1",
      "cumulativeGasUsed": "0xa215ac",
      "logs": [],
      "logsBloom": "0x00000000000000000000000000000000000000000000000000000000000000000000000000000000000000000000000000000000000000000000000000000000000000000000000000000000000000000000000000000000000000000000000000000000000000000000000000000000000000000000000000000000000000000000000000000000000000000000000000000000000000000000000000000000000000000000000000000000000000000000000000000000000000000000000000000000000000000000000000000000000000000000000000000000000000000000000000000000000000000000000000000000000000000000000000000000",
      "type": "0x2",
      "transactionHash": "0x26dcf8557387e6de466883b4f596bc885aed64f8a571b6fffbb89461bf84ce1d",
      "transactionIndex": "0x39",
      "blockHash": "0x6b0cb83abb96938a0221d77b01dcd975d2e392c9d70c528b3248028d7d911f02",
      "blockNumber": "0x5dcb7c",
      "gasUsed": "0x7154",
      "effectiveGasPrice": "0x22879cfd",
      "from": "0x764693dd666e8dd9275cde8f05c6b07446b1d941",
      "to": "0x6ec5929e48ad78838155fc8d3c6ed4e3c5bac111",
      "contractAddress": null
    },
    {
      "status": "0x1",
      "cumulativeGasUsed": "0xa53822",
      "logs": [
        {
          "address": "0x6ec5929e48ad78838155fc8d3c6ed4e3c5bac111",
          "topics": [
            "0xddf252ad1be2c89b69c2b068fc378daa952ba7f163c4a11628f55a4df523b3ef",
            "0x0000000000000000000000000000000000000000000000000000000000000000",
            "0x000000000000000000000000764693dd666e8dd9275cde8f05c6b07446b1d941",
            "0x0000000000000000000000000000000000000000000000000000000000000006"
          ],
          "data": "0x",
          "blockHash": "0x6b0cb83abb96938a0221d77b01dcd975d2e392c9d70c528b3248028d7d911f02",
          "blockNumber": "0x5dcb7c",
          "transactionHash": "0x22df497eb88c80e0505455b20a5977a1148c3f77417a3e4763c56021570dce63",
          "transactionIndex": "0x3a",
          "logIndex": "0x60",
          "removed": false
        },
        {
          "address": "0x6ec5929e48ad78838155fc8d3c6ed4e3c5bac111",
          "topics": [
            "0xf8e1a15aba9398e019f0b49df1a4fde98ee17ae345cb5f6b5e2c27f5033e8ce7"
          ],
          "data": "0x0000000000000000000000000000000000000000000000000000000000000006",
          "blockHash": "0x6b0cb83abb96938a0221d77b01dcd975d2e392c9d70c528b3248028d7d911f02",
          "blockNumber": "0x5dcb7c",
          "transactionHash": "0x22df497eb88c80e0505455b20a5977a1148c3f77417a3e4763c56021570dce63",
          "transactionIndex": "0x3a",
          "logIndex": "0x61",
          "removed": false
        },
        {
          "address": "0x6ec5929e48ad78838155fc8d3c6ed4e3c5bac111",
          "topics": [
            "0x026aac271342ae43d27b41062e6f37001e4673fbbf25ad4bc3cfd6cd2094bd39",
            "0x000000000000000000000000764693dd666e8dd9275cde8f05c6b07446b1d941",
            "0x0000000000000000000000000000000000000000000000000000000000000006"
          ],
          "data": "0x",
          "blockHash": "0x6b0cb83abb96938a0221d77b01dcd975d2e392c9d70c528b3248028d7d911f02",
          "blockNumber": "0x5dcb7c",
          "transactionHash": "0x22df497eb88c80e0505455b20a5977a1148c3f77417a3e4763c56021570dce63",
          "transactionIndex": "0x3a",
          "logIndex": "0x62",
          "removed": false
        },
        {
          "address": "0x76807bd717cfab825aba49546a61beb0477e7607",
          "topics": [
            "0x91e71c368c41168aa5766ee5b0c25d8c5f2c37970e7e4365305015fae0bfb0c6",
            "0x0000000000000000000000000000000000000000000000000000000000000001",
            "0x0000000000000000000000000000000000000000000000000de0b6b3a7640000",
            "0x0000000000000000000000000000000000000000000000003782dace9d900000"
          ],
          "data": "0x",
          "blockHash": "0x6b0cb83abb96938a0221d77b01dcd975d2e392c9d70c528b3248028d7d911f02",
          "blockNumber": "0x5dcb7c",
          "transactionHash": "0x22df497eb88c80e0505455b20a5977a1148c3f77417a3e4763c56021570dce63",
          "transactionIndex": "0x3a",
          "logIndex": "0x63",
          "removed": false
        }
      ],
      "logsBloom": "0x00000000040000000000000000000000800000000000000000000000004000000000000000000000000000000000000000000000000400000000000000040000000000000000000000000088000000000000000000040000000000000000000000000000020000000000000000000800000000400000000000000010000000002000000400000000000000000000000000000000004000000000008000000000000020000080000008000000000010002000020000000000400000080000008000000002000800000000000000000000000000000000000000040000000070000000000000000000200000000000000200000000100000000100000020000000",
      "type": "0x2",
      "transactionHash": "0x22df497eb88c80e0505455b20a5977a1148c3f77417a3e4763c56021570dce63",
      "transactionIndex": "0x3a",
      "blockHash": "0x6b0cb83abb96938a0221d77b01dcd975d2e392c9d70c528b3248028d7d911f02",
      "blockNumber": "0x5dcb7c",
      "gasUsed": "0x32276",
      "effectiveGasPrice": "0x22879cfd",
      "from": "0x764693dd666e8dd9275cde8f05c6b07446b1d941",
      "to": "0x76807bd717cfab825aba49546a61beb0477e7607",
      "contractAddress": null
    },
    {
      "status": "0x1",
      "cumulativeGasUsed": "0xa817cc",
      "logs": [
        {
          "address": "0x6ec5929e48ad78838155fc8d3c6ed4e3c5bac111",
          "topics": [
            "0xddf252ad1be2c89b69c2b068fc378daa952ba7f163c4a11628f55a4df523b3ef",
            "0x0000000000000000000000000000000000000000000000000000000000000000",
            "0x000000000000000000000000764693dd666e8dd9275cde8f05c6b07446b1d941",
            "0x0000000000000000000000000000000000000000000000000000000000000007"
          ],
          "data": "0x",
          "blockHash": "0x6b0cb83abb96938a0221d77b01dcd975d2e392c9d70c528b3248028d7d911f02",
          "blockNumber": "0x5dcb7c",
          "transactionHash": "0xac5a5790dae8048ad147fc4d93f841185a5f53c2bd23739649fe2275dcf04162",
          "transactionIndex": "0x3b",
          "logIndex": "0x64",
          "removed": false
        },
        {
          "address": "0x6ec5929e48ad78838155fc8d3c6ed4e3c5bac111",
          "topics": [
            "0xf8e1a15aba9398e019f0b49df1a4fde98ee17ae345cb5f6b5e2c27f5033e8ce7"
          ],
          "data": "0x0000000000000000000000000000000000000000000000000000000000000007",
          "blockHash": "0x6b0cb83abb96938a0221d77b01dcd975d2e392c9d70c528b3248028d7d911f02",
          "blockNumber": "0x5dcb7c",
          "transactionHash": "0xac5a5790dae8048ad147fc4d93f841185a5f53c2bd23739649fe2275dcf04162",
          "transactionIndex": "0x3b",
          "logIndex": "0x65",
          "removed": false
        },
        {
          "address": "0x6ec5929e48ad78838155fc8d3c6ed4e3c5bac111",
          "topics": [
            "0x026aac271342ae43d27b41062e6f37001e4673fbbf25ad4bc3cfd6cd2094bd39",
            "0x000000000000000000000000764693dd666e8dd9275cde8f05c6b07446b1d941",
            "0x0000000000000000000000000000000000000000000000000000000000000007"
          ],
          "data": "0x",
          "blockHash": "0x6b0cb83abb96938a0221d77b01dcd975d2e392c9d70c528b3248028d7d911f02",
          "blockNumber": "0x5dcb7c",
          "transactionHash": "0xac5a5790dae8048ad147fc4d93f841185a5f53c2bd23739649fe2275dcf04162",
          "transactionIndex": "0x3b",
          "logIndex": "0x66",
          "removed": false
        },
        {
          "address": "0x76807bd717cfab825aba49546a61beb0477e7607",
          "topics": [
            "0x91e71c368c41168aa5766ee5b0c25d8c5f2c37970e7e4365305015fae0bfb0c6",
            "0x0000000000000000000000000000000000000000000000000000000000000002",
            "0x0000000000000000000000000000000000000000000000000de0b6b3a7640000",
            "0x0000000000000000000000000000000000000000000000004563918244f40000"
          ],
          "data": "0x",
          "blockHash": "0x6b0cb83abb96938a0221d77b01dcd975d2e392c9d70c528b3248028d7d911f02",
          "blockNumber": "0x5dcb7c",
          "transactionHash": "0xac5a5790dae8048ad147fc4d93f841185a5f53c2bd23739649fe2275dcf04162",
          "transactionIndex": "0x3b",
          "logIndex": "0x67",
          "removed": false
        }
      ],
      "logsBloom": "0x04000000040000000000000000000000800000000000000000000000004000000000000000000000000000000000000000001000000000000000000000010000000020000000000000000088000000000000000000000000000000000000000000000000020000000000000000000800000000400000000000000010000000002000000000000000000000000000000000000000004000000000008000000000000000000080000000000100000010002000022000000000400000000000008000000002000800000000000000000000000000000000000000040100000030000000000000000000200000000000001200000000108000000100000000000000",
      "type": "0x2",
      "transactionHash": "0xac5a5790dae8048ad147fc4d93f841185a5f53c2bd23739649fe2275dcf04162",
      "transactionIndex": "0x3b",
      "blockHash": "0x6b0cb83abb96938a0221d77b01dcd975d2e392c9d70c528b3248028d7d911f02",
      "blockNumber": "0x5dcb7c",
      "gasUsed": "0x2dfaa",
      "effectiveGasPrice": "0x22879cfd",
      "from": "0x764693dd666e8dd9275cde8f05c6b07446b1d941",
      "to": "0x76807bd717cfab825aba49546a61beb0477e7607",
      "contractAddress": null
    },
    {
      "status": "0x1",
      "cumulativeGasUsed": "0xaaf776",
      "logs": [
        {
          "address": "0x6ec5929e48ad78838155fc8d3c6ed4e3c5bac111",
          "topics": [
            "0xddf252ad1be2c89b69c2b068fc378daa952ba7f163c4a11628f55a4df523b3ef",
            "0x0000000000000000000000000000000000000000000000000000000000000000",
            "0x000000000000000000000000764693dd666e8dd9275cde8f05c6b07446b1d941",
            "0x0000000000000000000000000000000000000000000000000000000000000008"
          ],
          "data": "0x",
          "blockHash": "0x6b0cb83abb96938a0221d77b01dcd975d2e392c9d70c528b3248028d7d911f02",
          "blockNumber": "0x5dcb7c",
          "transactionHash": "0x7683ed90ab432daa166feb68bb1a70fdb89c26f9f9ba1be2780cb1c8faf37985",
          "transactionIndex": "0x3c",
          "logIndex": "0x68",
          "removed": false
        },
        {
          "address": "0x6ec5929e48ad78838155fc8d3c6ed4e3c5bac111",
          "topics": [
            "0xf8e1a15aba9398e019f0b49df1a4fde98ee17ae345cb5f6b5e2c27f5033e8ce7"
          ],
          "data": "0x0000000000000000000000000000000000000000000000000000000000000008",
          "blockHash": "0x6b0cb83abb96938a0221d77b01dcd975d2e392c9d70c528b3248028d7d911f02",
          "blockNumber": "0x5dcb7c",
          "transactionHash": "0x7683ed90ab432daa166feb68bb1a70fdb89c26f9f9ba1be2780cb1c8faf37985",
          "transactionIndex": "0x3c",
          "logIndex": "0x69",
          "removed": false
        },
        {
          "address": "0x6ec5929e48ad78838155fc8d3c6ed4e3c5bac111",
          "topics": [
            "0x026aac271342ae43d27b41062e6f37001e4673fbbf25ad4bc3cfd6cd2094bd39",
            "0x000000000000000000000000764693dd666e8dd9275cde8f05c6b07446b1d941",
            "0x0000000000000000000000000000000000000000000000000000000000000008"
          ],
          "data": "0x",
          "blockHash": "0x6b0cb83abb96938a0221d77b01dcd975d2e392c9d70c528b3248028d7d911f02",
          "blockNumber": "0x5dcb7c",
          "transactionHash": "0x7683ed90ab432daa166feb68bb1a70fdb89c26f9f9ba1be2780cb1c8faf37985",
          "transactionIndex": "0x3c",
          "logIndex": "0x6a",
          "removed": false
        },
        {
          "address": "0x76807bd717cfab825aba49546a61beb0477e7607",
          "topics": [
            "0x91e71c368c41168aa5766ee5b0c25d8c5f2c37970e7e4365305015fae0bfb0c6",
            "0x0000000000000000000000000000000000000000000000000000000000000003",
            "0x0000000000000000000000000000000000000000000000001bc16d674ec80000",
            "0x0000000000000000000000000000000000000000000000006124fee993bc0000"
          ],
          "data": "0x",
          "blockHash": "0x6b0cb83abb96938a0221d77b01dcd975d2e392c9d70c528b3248028d7d911f02",
          "blockNumber": "0x5dcb7c",
          "transactionHash": "0x7683ed90ab432daa166feb68bb1a70fdb89c26f9f9ba1be2780cb1c8faf37985",
          "transactionIndex": "0x3c",
          "logIndex": "0x6b",
          "removed": false
        }
      ],
      "logsBloom": "0x00000000040000000000000000000000800100000000000000000000004000000000000000000000000000000000000000000000020080000000000000000000000000000001000000000088000000000000000000000000000000000000000000000000120000000000000000000800000000400000000000000010000000042080000000000000000000000000000000000000000000000000009000000000000000000080000000000000000000002000020000800000400000000000408040000002000000000400000000000000000000000000000000040000000030000000000000000000200000000000000200000000100000000100000000000000",
      "type": "0x2",
      "transactionHash": "0x7683ed90ab432daa166feb68bb1a70fdb89c26f9f9ba1be2780cb1c8faf37985",
      "transactionIndex": "0x3c",
      "blockHash": "0x6b0cb83abb96938a0221d77b01dcd975d2e392c9d70c528b3248028d7d911f02",
      "blockNumber": "0x5dcb7c",
      "gasUsed": "0x2dfaa",
      "effectiveGasPrice": "0x22879cfd",
      "from": "0x764693dd666e8dd9275cde8f05c6b07446b1d941",
      "to": "0x76807bd717cfab825aba49546a61beb0477e7607",
      "contractAddress": null
    },
    {
      "status": "0x1",
      "cumulativeGasUsed": "0xadd720",
      "logs": [
        {
          "address": "0x6ec5929e48ad78838155fc8d3c6ed4e3c5bac111",
          "topics": [
            "0xddf252ad1be2c89b69c2b068fc378daa952ba7f163c4a11628f55a4df523b3ef",
            "0x0000000000000000000000000000000000000000000000000000000000000000",
            "0x000000000000000000000000764693dd666e8dd9275cde8f05c6b07446b1d941",
            "0x0000000000000000000000000000000000000000000000000000000000000009"
          ],
          "data": "0x",
          "blockHash": "0x6b0cb83abb96938a0221d77b01dcd975d2e392c9d70c528b3248028d7d911f02",
          "blockNumber": "0x5dcb7c",
          "transactionHash": "0x30d80511b4af67f22812adc859f9ab22afac05094b3bfe1f740c35067cf2a32c",
          "transactionIndex": "0x3d",
          "logIndex": "0x6c",
          "removed": false
        },
        {
          "address": "0x6ec5929e48ad78838155fc8d3c6ed4e3c5bac111",
          "topics": [
            "0xf8e1a15aba9398e019f0b49df1a4fde98ee17ae345cb5f6b5e2c27f5033e8ce7"
          ],
          "data": "0x0000000000000000000000000000000000000000000000000000000000000009",
          "blockHash": "0x6b0cb83abb96938a0221d77b01dcd975d2e392c9d70c528b3248028d7d911f02",
          "blockNumber": "0x5dcb7c",
          "transactionHash": "0x30d80511b4af67f22812adc859f9ab22afac05094b3bfe1f740c35067cf2a32c",
          "transactionIndex": "0x3d",
          "logIndex": "0x6d",
          "removed": false
        },
        {
          "address": "0x6ec5929e48ad78838155fc8d3c6ed4e3c5bac111",
          "topics": [
            "0x026aac271342ae43d27b41062e6f37001e4673fbbf25ad4bc3cfd6cd2094bd39",
            "0x000000000000000000000000764693dd666e8dd9275cde8f05c6b07446b1d941",
            "0x0000000000000000000000000000000000000000000000000000000000000009"
          ],
          "data": "0x",
          "blockHash": "0x6b0cb83abb96938a0221d77b01dcd975d2e392c9d70c528b3248028d7d911f02",
          "blockNumber": "0x5dcb7c",
          "transactionHash": "0x30d80511b4af67f22812adc859f9ab22afac05094b3bfe1f740c35067cf2a32c",
          "transactionIndex": "0x3d",
          "logIndex": "0x6e",
          "removed": false
        },
        {
          "address": "0x76807bd717cfab825aba49546a61beb0477e7607",
          "topics": [
            "0x91e71c368c41168aa5766ee5b0c25d8c5f2c37970e7e4365305015fae0bfb0c6",
            "0x0000000000000000000000000000000000000000000000000000000000000004",
            "0x00000000000000000000000000000000000000000000000029a2241af62c0000",
            "0x0000000000000000000000000000000000000000000000007ce66c50e2840000"
          ],
          "data": "0x",
          "blockHash": "0x6b0cb83abb96938a0221d77b01dcd975d2e392c9d70c528b3248028d7d911f02",
          "blockNumber": "0x5dcb7c",
          "transactionHash": "0x30d80511b4af67f22812adc859f9ab22afac05094b3bfe1f740c35067cf2a32c",
          "transactionIndex": "0x3d",
          "logIndex": "0x6f",
          "removed": false
        }
      ],
      "logsBloom": "0x00000000040000000000000000000000800200000000000000000000004000000000800000000000000000000000000000000000000000000000000000200000000000000000000000000088000000000000000000000000000000000000000008000000020000400000000000000800000000400000000000000010000000002000000000000000000000000000000000001000000000000000008000000000000000000080000001000000000000002000020000000000402000000020008000000002000000000000000000000000000000008000000000040000000030000000000000000000200000000000000200000000100000008100000000800000",
      "type": "0x2",
      "transactionHash": "0x30d80511b4af67f22812adc859f9ab22afac05094b3bfe1f740c35067cf2a32c",
      "transactionIndex": "0x3d",
      "blockHash": "0x6b0cb83abb96938a0221d77b01dcd975d2e392c9d70c528b3248028d7d911f02",
      "blockNumber": "0x5dcb7c",
      "gasUsed": "0x2dfaa",
      "effectiveGasPrice": "0x22879cfd",
      "from": "0x764693dd666e8dd9275cde8f05c6b07446b1d941",
      "to": "0x76807bd717cfab825aba49546a61beb0477e7607",
      "contractAddress": null
    },
    {
      "status": "0x1",
      "cumulativeGasUsed": "0xb0b6ca",
      "logs": [
        {
          "address": "0x6ec5929e48ad78838155fc8d3c6ed4e3c5bac111",
          "topics": [
            "0xddf252ad1be2c89b69c2b068fc378daa952ba7f163c4a11628f55a4df523b3ef",
            "0x0000000000000000000000000000000000000000000000000000000000000000",
            "0x000000000000000000000000764693dd666e8dd9275cde8f05c6b07446b1d941",
            "0x000000000000000000000000000000000000000000000000000000000000000a"
          ],
          "data": "0x",
          "blockHash": "0x6b0cb83abb96938a0221d77b01dcd975d2e392c9d70c528b3248028d7d911f02",
          "blockNumber": "0x5dcb7c",
          "transactionHash": "0xcc91a89c9a5ad7dbcdb088b8375518377d877214780b1b05bfa3204239916100",
          "transactionIndex": "0x3e",
          "logIndex": "0x70",
          "removed": false
        },
        {
          "address": "0x6ec5929e48ad78838155fc8d3c6ed4e3c5bac111",
          "topics": [
            "0xf8e1a15aba9398e019f0b49df1a4fde98ee17ae345cb5f6b5e2c27f5033e8ce7"
          ],
          "data": "0x000000000000000000000000000000000000000000000000000000000000000a",
          "blockHash": "0x6b0cb83abb96938a0221d77b01dcd975d2e392c9d70c528b3248028d7d911f02",
          "blockNumber": "0x5dcb7c",
          "transactionHash": "0xcc91a89c9a5ad7dbcdb088b8375518377d877214780b1b05bfa3204239916100",
          "transactionIndex": "0x3e",
          "logIndex": "0x71",
          "removed": false
        },
        {
          "address": "0x6ec5929e48ad78838155fc8d3c6ed4e3c5bac111",
          "topics": [
            "0x026aac271342ae43d27b41062e6f37001e4673fbbf25ad4bc3cfd6cd2094bd39",
            "0x000000000000000000000000764693dd666e8dd9275cde8f05c6b07446b1d941",
            "0x000000000000000000000000000000000000000000000000000000000000000a"
          ],
          "data": "0x",
          "blockHash": "0x6b0cb83abb96938a0221d77b01dcd975d2e392c9d70c528b3248028d7d911f02",
          "blockNumber": "0x5dcb7c",
          "transactionHash": "0xcc91a89c9a5ad7dbcdb088b8375518377d877214780b1b05bfa3204239916100",
          "transactionIndex": "0x3e",
          "logIndex": "0x72",
          "removed": false
        },
        {
          "address": "0x76807bd717cfab825aba49546a61beb0477e7607",
          "topics": [
            "0x91e71c368c41168aa5766ee5b0c25d8c5f2c37970e7e4365305015fae0bfb0c6",
            "0x0000000000000000000000000000000000000000000000000000000000000005",
            "0x0000000000000000000000000000000000000000000000003782dace9d900000",
            "0x000000000000000000000000000000000000000000000000a688906bd8b00000"
          ],
          "data": "0x",
          "blockHash": "0x6b0cb83abb96938a0221d77b01dcd975d2e392c9d70c528b3248028d7d911f02",
          "blockNumber": "0x5dcb7c",
          "transactionHash": "0xcc91a89c9a5ad7dbcdb088b8375518377d877214780b1b05bfa3204239916100",
          "transactionIndex": "0x3e",
          "logIndex": "0x73",
          "removed": false
        }
      ],
      "logsBloom": "0x00000000840000000000000000000000800001000000000000000000004000000000000000000000000000000000000000000000040000000020000000000000400010000000000000000088000000000000000000000000000000000000000000000000020000000000000000000800000000400000000000000010000000002000000000000000010000000000001000000800000000000000008000000000000020000080000008000000000000002000020000000000400000000000008000000002000000000000000000000000000000000000000000040000000030000000000000000000200000000000000200000000100000000100000020000000",
      "type": "0x2",
      "transactionHash": "0xcc91a89c9a5ad7dbcdb088b8375518377d877214780b1b05bfa3204239916100",
      "transactionIndex": "0x3e",
      "blockHash": "0x6b0cb83abb96938a0221d77b01dcd975d2e392c9d70c528b3248028d7d911f02",
      "blockNumber": "0x5dcb7c",
      "gasUsed": "0x2dfaa",
      "effectiveGasPrice": "0x22879cfd",
      "from": "0x764693dd666e8dd9275cde8f05c6b07446b1d941",
      "to": "0x76807bd717cfab825aba49546a61beb0477e7607",
      "contractAddress": null
    },
    {
      "status": "0x1",
      "cumulativeGasUsed": "0xb222c7",
      "logs": [
        {
          "address": "0xe37e44964dad319c6b31d222453b7ddd3b249721",
          "topics": [
            "0xddf252ad1be2c89b69c2b068fc378daa952ba7f163c4a11628f55a4df523b3ef",
            "0x0000000000000000000000000000000000000000000000000000000000000000",
            "0x000000000000000000000000764693dd666e8dd9275cde8f05c6b07446b1d941",
            "0x0000000000000000000000000000000000000000000000000000000000000003"
          ],
          "data": "0x",
          "blockHash": "0x6b0cb83abb96938a0221d77b01dcd975d2e392c9d70c528b3248028d7d911f02",
          "blockNumber": "0x5dcb7c",
          "transactionHash": "0xa9bf8bf128cc603b17c24855cecb098ffe06e45f498ddf7d2ab83211c0003fa8",
          "transactionIndex": "0x3f",
          "logIndex": "0x74",
          "removed": false
        },
        {
          "address": "0xe37e44964dad319c6b31d222453b7ddd3b249721",
          "topics": [
            "0xf8e1a15aba9398e019f0b49df1a4fde98ee17ae345cb5f6b5e2c27f5033e8ce7"
          ],
          "data": "0x0000000000000000000000000000000000000000000000000000000000000003",
          "blockHash": "0x6b0cb83abb96938a0221d77b01dcd975d2e392c9d70c528b3248028d7d911f02",
          "blockNumber": "0x5dcb7c",
          "transactionHash": "0xa9bf8bf128cc603b17c24855cecb098ffe06e45f498ddf7d2ab83211c0003fa8",
          "transactionIndex": "0x3f",
          "logIndex": "0x75",
          "removed": false
        },
        {
          "address": "0xe37e44964dad319c6b31d222453b7ddd3b249721",
          "topics": [
            "0xbab4562ae868d1765ed8452e98bba908a974596c4babc3ada5e90e05e3f433fb",
            "0x000000000000000000000000764693dd666e8dd9275cde8f05c6b07446b1d941",
            "0x0000000000000000000000000000000000000000000000000000000000000003"
          ],
          "data": "0x",
          "blockHash": "0x6b0cb83abb96938a0221d77b01dcd975d2e392c9d70c528b3248028d7d911f02",
          "blockNumber": "0x5dcb7c",
          "transactionHash": "0xa9bf8bf128cc603b17c24855cecb098ffe06e45f498ddf7d2ab83211c0003fa8",
          "transactionIndex": "0x3f",
          "logIndex": "0x76",
          "removed": false
        },
        {
          "address": "0x76807bd717cfab825aba49546a61beb0477e7607",
          "topics": [
            "0xd35a6cc813c47c11ff9f41f7fe9d463b32db9be612b7f78e9ba6336deb4c5900",
            "0x000000000000000000000000764693dd666e8dd9275cde8f05c6b07446b1d941"
          ],
          "data": "0x",
          "blockHash": "0x6b0cb83abb96938a0221d77b01dcd975d2e392c9d70c528b3248028d7d911f02",
          "blockNumber": "0x5dcb7c",
          "transactionHash": "0xa9bf8bf128cc603b17c24855cecb098ffe06e45f498ddf7d2ab83211c0003fa8",
          "transactionIndex": "0x3f",
          "logIndex": "0x77",
          "removed": false
        }
      ],
      "logsBloom": "0x00000000000000000000100800000000800000000000000000000000004000000000000000000000000000004000000080000000020000000000000000000000000000000000000001000088000000000000000000000000000000000000000000004000020000040000000000000800000000000000000000000050200000000000000000000000000000000000000000000000000000000000008000000000000000000000000000000000000000002000000000800000000000000000408000000002000000000000000000000000000000000000000000000000000020000000000000000000200000000000000200000000100000000000000000000000",
      "type": "0x2",
      "transactionHash": "0xa9bf8bf128cc603b17c24855cecb098ffe06e45f498ddf7d2ab83211c0003fa8",
      "transactionIndex": "0x3f",
      "blockHash": "0x6b0cb83abb96938a0221d77b01dcd975d2e392c9d70c528b3248028d7d911f02",
      "blockNumber": "0x5dcb7c",
      "gasUsed": "0x16bfd",
      "effectiveGasPrice": "0x22879cfd",
      "from": "0x764693dd666e8dd9275cde8f05c6b07446b1d941",
      "to": "0x76807bd717cfab825aba49546a61beb0477e7607",
      "contractAddress": null
    },
    {
      "status": "0x1",
      "cumulativeGasUsed": "0xb2d922",
      "logs": [
        {
          "address": "0xd8ed4a9317585bd8ce8ef7524c313f25373d1739",
          "topics": [
            "0x8c5be1e5ebec7d5bd14f71427d1e84f3dd0314c0f7b2291e5b200ac8c7c3b925",
            "0x000000000000000000000000764693dd666e8dd9275cde8f05c6b07446b1d941",
            "0x00000000000000000000000076807bd717cfab825aba49546a61beb0477e7607"
          ],
          "data": "0xffffffffffffffffffffffffffffffffffffffffffffffffffffffffffffffff",
          "blockHash": "0x6b0cb83abb96938a0221d77b01dcd975d2e392c9d70c528b3248028d7d911f02",
          "blockNumber": "0x5dcb7c",
          "transactionHash": "0x798846a8c0752bee90ebfc9d35f204cc2523fc28574e3d5c2d0143f14ab25dd2",
          "transactionIndex": "0x40",
          "logIndex": "0x78",
          "removed": false
        }
      ],
      "logsBloom": "0x00000000000000000000000000000000800000000000000000000000004000000000000000000000000000000000000000000000000000000000000000200000000000000000000000000080000000000000000000000000000000000000000000000000000000000000000000800000000000000000000000000000000000000000000000000000000000000000000000000000000000000000000000000000020000000000000004000000000000000000000000000000000000000040000000000000000000000000000000000000000000000000000000000000008000000010000000000000020000020000000000000000000000000000000000000000",
      "type": "0x2",
      "transactionHash": "0x798846a8c0752bee90ebfc9d35f204cc2523fc28574e3d5c2d0143f14ab25dd2",
      "transactionIndex": "0x40",
      "blockHash": "0x6b0cb83abb96938a0221d77b01dcd975d2e392c9d70c528b3248028d7d911f02",
      "blockNumber": "0x5dcb7c",
      "gasUsed": "0xb65b",
      "effectiveGasPrice": "0x22879cfd",
      "from": "0x764693dd666e8dd9275cde8f05c6b07446b1d941",
      "to": "0xd8ed4a9317585bd8ce8ef7524c313f25373d1739",
      "contractAddress": null
    },
    {
      "status": "0x1",
      "cumulativeGasUsed": "0xb4bc3e",
      "logs": [
        {
          "address": "0xd8ed4a9317585bd8ce8ef7524c313f25373d1739",
          "topics": [
            "0xddf252ad1be2c89b69c2b068fc378daa952ba7f163c4a11628f55a4df523b3ef",
            "0x000000000000000000000000764693dd666e8dd9275cde8f05c6b07446b1d941",
            "0x00000000000000000000000076807bd717cfab825aba49546a61beb0477e7607"
          ],
          "data": "0x00000000000000000000000000000000000000000000018650127cc3dc800000",
          "blockHash": "0x6b0cb83abb96938a0221d77b01dcd975d2e392c9d70c528b3248028d7d911f02",
          "blockNumber": "0x5dcb7c",
          "transactionHash": "0x6979e2e87afda5365607c80b1717cfb0900b5044907e489cc617ebd45b36db5c",
          "transactionIndex": "0x41",
          "logIndex": "0x79",
          "removed": false
        },
        {
          "address": "0xd8ed4a9317585bd8ce8ef7524c313f25373d1739",
          "topics": [
            "0xddf252ad1be2c89b69c2b068fc378daa952ba7f163c4a11628f55a4df523b3ef",
            "0x00000000000000000000000076807bd717cfab825aba49546a61beb0477e7607",
            "0x000000000000000000000000764693dd666e8dd9275cde8f05c6b07446b1d941"
          ],
          "data": "0x000000000000000000000000000000000000000000000186500eef4537b98000",
          "blockHash": "0x6b0cb83abb96938a0221d77b01dcd975d2e392c9d70c528b3248028d7d911f02",
          "blockNumber": "0x5dcb7c",
          "transactionHash": "0x6979e2e87afda5365607c80b1717cfb0900b5044907e489cc617ebd45b36db5c",
          "transactionIndex": "0x41",
          "logIndex": "0x7a",
          "removed": false
        },
        {
          "address": "0x76807bd717cfab825aba49546a61beb0477e7607",
          "topics": [
            "0x1a777a4e69f842f69af228bdecb2e58e1ab9d68e3c8694533ddb6ff9dd243f82",
            "0x0000000000000000000000000000000000000000000000000000000000000001",
            "0x000000000000000000000000764693dd666e8dd9275cde8f05c6b07446b1d941"
          ],
          "data": "0x",
          "blockHash": "0x6b0cb83abb96938a0221d77b01dcd975d2e392c9d70c528b3248028d7d911f02",
          "blockNumber": "0x5dcb7c",
          "transactionHash": "0x6979e2e87afda5365607c80b1717cfb0900b5044907e489cc617ebd45b36db5c",
          "transactionIndex": "0x41",
          "logIndex": "0x7b",
          "removed": false
        }
      ],
      "logsBloom": "0x00000000000000000000000000000000800000000000000000000000004000000000000000000000000000000000000000000000000000000000000000040000000000000000000004000088000000000000000000040000000000000000000000000000000000000000000000800000000000000000000000000010000000000000000000000000000000000000000000000000000200000000008000000000000000000000000004000000000000000000000000000000000000000040000000000002000000000000000000000000000000000000000000000000008040000000000000000000020000020000000200000000100800000000000000000000",
      "type": "0x2",
      "transactionHash": "0x6979e2e87afda5365607c80b1717cfb0900b5044907e489cc617ebd45b36db5c",
      "transactionIndex": "0x41",
      "blockHash": "0x6b0cb83abb96938a0221d77b01dcd975d2e392c9d70c528b3248028d7d911f02",
      "blockNumber": "0x5dcb7c",
      "gasUsed": "0x1e31c",
      "effectiveGasPrice": "0x22879cfd",
      "from": "0x764693dd666e8dd9275cde8f05c6b07446b1d941",
      "to": "0x76807bd717cfab825aba49546a61beb0477e7607",
      "contractAddress": null
    },
    {
      "status": "0x1",
      "cumulativeGasUsed": "0xb65c8e",
      "logs": [
        {
          "address": "0xd8ed4a9317585bd8ce8ef7524c313f25373d1739",
          "topics": [
            "0xddf252ad1be2c89b69c2b068fc378daa952ba7f163c4a11628f55a4df523b3ef",
            "0x000000000000000000000000764693dd666e8dd9275cde8f05c6b07446b1d941",
            "0x00000000000000000000000076807bd717cfab825aba49546a61beb0477e7607"
          ],
          "data": "0x00000000000000000000000000000000000000000000018650127cc3dc800000",
          "blockHash": "0x6b0cb83abb96938a0221d77b01dcd975d2e392c9d70c528b3248028d7d911f02",
          "blockNumber": "0x5dcb7c",
          "transactionHash": "0x3900a920793b0cef5b7b26e4bdefc2d3311f92abbae61c05af9e213e6a1835ac",
          "transactionIndex": "0x42",
          "logIndex": "0x7c",
          "removed": false
        },
        {
          "address": "0xd8ed4a9317585bd8ce8ef7524c313f25373d1739",
          "topics": [
            "0xddf252ad1be2c89b69c2b068fc378daa952ba7f163c4a11628f55a4df523b3ef",
            "0x00000000000000000000000076807bd717cfab825aba49546a61beb0477e7607",
            "0x000000000000000000000000764693dd666e8dd9275cde8f05c6b07446b1d941"
          ],
          "data": "0x000000000000000000000000000000000000000000000186500eef4537b98000",
          "blockHash": "0x6b0cb83abb96938a0221d77b01dcd975d2e392c9d70c528b3248028d7d911f02",
          "blockNumber": "0x5dcb7c",
          "transactionHash": "0x3900a920793b0cef5b7b26e4bdefc2d3311f92abbae61c05af9e213e6a1835ac",
          "transactionIndex": "0x42",
          "logIndex": "0x7d",
          "removed": false
        },
        {
          "address": "0x76807bd717cfab825aba49546a61beb0477e7607",
          "topics": [
            "0x1a777a4e69f842f69af228bdecb2e58e1ab9d68e3c8694533ddb6ff9dd243f82",
            "0x0000000000000000000000000000000000000000000000000000000000000002",
            "0x000000000000000000000000764693dd666e8dd9275cde8f05c6b07446b1d941"
          ],
          "data": "0x",
          "blockHash": "0x6b0cb83abb96938a0221d77b01dcd975d2e392c9d70c528b3248028d7d911f02",
          "blockNumber": "0x5dcb7c",
          "transactionHash": "0x3900a920793b0cef5b7b26e4bdefc2d3311f92abbae61c05af9e213e6a1835ac",
          "transactionIndex": "0x42",
          "logIndex": "0x7e",
          "removed": false
        }
      ],
      "logsBloom": "0x04000000000000000000000000000000800000000000000000000000004000000000000000000000000000000000000000000000000000000000000000000000000000000000000004000088000000000000000000000000000000000000000000000000000000000000000000800000000000000000000000000010000000000000000000000000000000000000000000000000000200000000008000000000000000000000000004000100000000000000000000000000000000000040000000000002000000000000000000000000000000000000000000000000008000000000000000000000020000020000000200000000108800000000000000000000",
      "type": "0x2",
      "transactionHash": "0x3900a920793b0cef5b7b26e4bdefc2d3311f92abbae61c05af9e213e6a1835ac",
      "transactionIndex": "0x42",
      "blockHash": "0x6b0cb83abb96938a0221d77b01dcd975d2e392c9d70c528b3248028d7d911f02",
      "blockNumber": "0x5dcb7c",
      "gasUsed": "0x1a050",
      "effectiveGasPrice": "0x22879cfd",
      "from": "0x764693dd666e8dd9275cde8f05c6b07446b1d941",
      "to": "0x76807bd717cfab825aba49546a61beb0477e7607",
      "contractAddress": null
    },
    {
      "status": "0x1",
      "cumulativeGasUsed": "0xb7fc06",
      "logs": [
        {
          "address": "0xd8ed4a9317585bd8ce8ef7524c313f25373d1739",
          "topics": [
            "0xddf252ad1be2c89b69c2b068fc378daa952ba7f163c4a11628f55a4df523b3ef",
            "0x000000000000000000000000764693dd666e8dd9275cde8f05c6b07446b1d941",
            "0x00000000000000000000000076807bd717cfab825aba49546a61beb0477e7607"
          ],
          "data": "0x000000000000000000000000000000000000000000018036d232d0cd0e000000",
          "blockHash": "0x6b0cb83abb96938a0221d77b01dcd975d2e392c9d70c528b3248028d7d911f02",
          "blockNumber": "0x5dcb7c",
          "transactionHash": "0xc51515ac8e3c9a16cb677aa3c5820137ca899bafa5d61105c695327be1b4e87a",
          "transactionIndex": "0x43",
          "logIndex": "0x7f",
          "removed": false
        },
        {
          "address": "0xd8ed4a9317585bd8ce8ef7524c313f25373d1739",
          "topics": [
            "0xddf252ad1be2c89b69c2b068fc378daa952ba7f163c4a11628f55a4df523b3ef",
            "0x00000000000000000000000076807bd717cfab825aba49546a61beb0477e7607",
            "0x000000000000000000000000764693dd666e8dd9275cde8f05c6b07446b1d941"
          ],
          "data": "0x000000000000000000000000000000000000000000018036d22f434e69398000",
          "blockHash": "0x6b0cb83abb96938a0221d77b01dcd975d2e392c9d70c528b3248028d7d911f02",
          "blockNumber": "0x5dcb7c",
          "transactionHash": "0xc51515ac8e3c9a16cb677aa3c5820137ca899bafa5d61105c695327be1b4e87a",
          "transactionIndex": "0x43",
          "logIndex": "0x80",
          "removed": false
        },
        {
          "address": "0x76807bd717cfab825aba49546a61beb0477e7607",
          "topics": [
            "0x1a777a4e69f842f69af228bdecb2e58e1ab9d68e3c8694533ddb6ff9dd243f82",
            "0x0000000000000000000000000000000000000000000000000000000000000003",
            "0x000000000000000000000000764693dd666e8dd9275cde8f05c6b07446b1d941"
          ],
          "data": "0x",
          "blockHash": "0x6b0cb83abb96938a0221d77b01dcd975d2e392c9d70c528b3248028d7d911f02",
          "blockNumber": "0x5dcb7c",
          "transactionHash": "0xc51515ac8e3c9a16cb677aa3c5820137ca899bafa5d61105c695327be1b4e87a",
          "transactionIndex": "0x43",
          "logIndex": "0x81",
          "removed": false
        }
      ],
      "logsBloom": "0x00000000000000000000000000000000800000000000000000000000004000000000000000000000000000000000000000000000020000000000000000000000000000000000000004000088000000000000000000000000000000000000000000000000000000000000000000800000000000000000000000000010000000000000000000000000000000000000000000000000000200000000008000000000000000000000000004000000000000000000000000800000000000000040400000000002000000000000000000000000000000000000000000000000008000000000000000000000020000020000000200000000100800000000000000000000",
      "type": "0x2",
      "transactionHash": "0xc51515ac8e3c9a16cb677aa3c5820137ca899bafa5d61105c695327be1b4e87a",
      "transactionIndex": "0x43",
      "blockHash": "0x6b0cb83abb96938a0221d77b01dcd975d2e392c9d70c528b3248028d7d911f02",
      "blockNumber": "0x5dcb7c",
      "gasUsed": "0x19f78",
      "effectiveGasPrice": "0x22879cfd",
      "from": "0x764693dd666e8dd9275cde8f05c6b07446b1d941",
      "to": "0x76807bd717cfab825aba49546a61beb0477e7607",
      "contractAddress": null
    },
    {
      "status": "0x1",
      "cumulativeGasUsed": "0xb99b72",
      "logs": [
        {
          "address": "0xd8ed4a9317585bd8ce8ef7524c313f25373d1739",
          "topics": [
            "0xddf252ad1be2c89b69c2b068fc378daa952ba7f163c4a11628f55a4df523b3ef",
            "0x000000000000000000000000764693dd666e8dd9275cde8f05c6b07446b1d941",
            "0x00000000000000000000000076807bd717cfab825aba49546a61beb0477e7607"
          ],
          "data": "0x0000000000000000000000000000000000000000000292a71f328a8418000000",
          "blockHash": "0x6b0cb83abb96938a0221d77b01dcd975d2e392c9d70c528b3248028d7d911f02",
          "blockNumber": "0x5dcb7c",
          "transactionHash": "0x1faee86bd775a17735773510389bd7ccc6c100d1c388cc594f488b836650da2d",
          "transactionIndex": "0x44",
          "logIndex": "0x82",
          "removed": false
        },
        {
          "address": "0xd8ed4a9317585bd8ce8ef7524c313f25373d1739",
          "topics": [
            "0xddf252ad1be2c89b69c2b068fc378daa952ba7f163c4a11628f55a4df523b3ef",
            "0x00000000000000000000000076807bd717cfab825aba49546a61beb0477e7607",
            "0x000000000000000000000000764693dd666e8dd9275cde8f05c6b07446b1d941"
          ],
          "data": "0x0000000000000000000000000000000000000000000292a71f2efd0573398000",
          "blockHash": "0x6b0cb83abb96938a0221d77b01dcd975d2e392c9d70c528b3248028d7d911f02",
          "blockNumber": "0x5dcb7c",
          "transactionHash": "0x1faee86bd775a17735773510389bd7ccc6c100d1c388cc594f488b836650da2d",
          "transactionIndex": "0x44",
          "logIndex": "0x83",
          "removed": false
        },
        {
          "address": "0x76807bd717cfab825aba49546a61beb0477e7607",
          "topics": [
            "0x1a777a4e69f842f69af228bdecb2e58e1ab9d68e3c8694533ddb6ff9dd243f82",
            "0x0000000000000000000000000000000000000000000000000000000000000004",
            "0x000000000000000000000000764693dd666e8dd9275cde8f05c6b07446b1d941"
          ],
          "data": "0x",
          "blockHash": "0x6b0cb83abb96938a0221d77b01dcd975d2e392c9d70c528b3248028d7d911f02",
          "blockNumber": "0x5dcb7c",
          "transactionHash": "0x1faee86bd775a17735773510389bd7ccc6c100d1c388cc594f488b836650da2d",
          "transactionIndex": "0x44",
          "logIndex": "0x84",
          "removed": false
        }
      ],
      "logsBloom": "0x00000000000000000000000000000000800000000000000000000000004000000000000000000000000000000000000000000000000000000000000000000000000000000000000004000088000000000000000000000000000000000000000008000000000000000000000000800000000000000000000000000010000000000000000000000000000000000000000000000000000200000000008000000000000000000000000004000000000000000000000000000000002000000040000000000002000000000000000000000000000000008000000000000000008000000000000000000000020000020000000200000000100800000000000000000000",
      "type": "0x2",
      "transactionHash": "0x1faee86bd775a17735773510389bd7ccc6c100d1c388cc594f488b836650da2d",
      "transactionIndex": "0x44",
      "blockHash": "0x6b0cb83abb96938a0221d77b01dcd975d2e392c9d70c528b3248028d7d911f02",
      "blockNumber": "0x5dcb7c",
      "gasUsed": "0x19f6c",
      "effectiveGasPrice": "0x22879cfd",
      "from": "0x764693dd666e8dd9275cde8f05c6b07446b1d941",
      "to": "0x76807bd717cfab825aba49546a61beb0477e7607",
      "contractAddress": null
    },
    {
      "status": "0x1",
      "cumulativeGasUsed": "0xbb3bc2",
      "logs": [
        {
          "address": "0xd8ed4a9317585bd8ce8ef7524c313f25373d1739",
          "topics": [
            "0xddf252ad1be2c89b69c2b068fc378daa952ba7f163c4a11628f55a4df523b3ef",
            "0x000000000000000000000000764693dd666e8dd9275cde8f05c6b07446b1d941",
            "0x00000000000000000000000076807bd717cfab825aba49546a61beb0477e7607"
          ],
          "data": "0x0000000000000000000000000000000000000000000006194049f30f72000000",
          "blockHash": "0x6b0cb83abb96938a0221d77b01dcd975d2e392c9d70c528b3248028d7d911f02",
          "blockNumber": "0x5dcb7c",
          "transactionHash": "0x25ee132b2ee8ad42acab53bf99ffec854665f53bf91b95dc2068b71de596a75d",
          "transactionIndex": "0x45",
          "logIndex": "0x85",
          "removed": false
        },
        {
          "address": "0xd8ed4a9317585bd8ce8ef7524c313f25373d1739",
          "topics": [
            "0xddf252ad1be2c89b69c2b068fc378daa952ba7f163c4a11628f55a4df523b3ef",
            "0x00000000000000000000000076807bd717cfab825aba49546a61beb0477e7607",
            "0x000000000000000000000000764693dd666e8dd9275cde8f05c6b07446b1d941"
          ],
          "data": "0x00000000000000000000000000000000000000000000061940466590cd398000",
          "blockHash": "0x6b0cb83abb96938a0221d77b01dcd975d2e392c9d70c528b3248028d7d911f02",
          "blockNumber": "0x5dcb7c",
          "transactionHash": "0x25ee132b2ee8ad42acab53bf99ffec854665f53bf91b95dc2068b71de596a75d",
          "transactionIndex": "0x45",
          "logIndex": "0x86",
          "removed": false
        },
        {
          "address": "0x76807bd717cfab825aba49546a61beb0477e7607",
          "topics": [
            "0x1a777a4e69f842f69af228bdecb2e58e1ab9d68e3c8694533ddb6ff9dd243f82",
            "0x0000000000000000000000000000000000000000000000000000000000000005",
            "0x000000000000000000000000764693dd666e8dd9275cde8f05c6b07446b1d941"
          ],
          "data": "0x",
          "blockHash": "0x6b0cb83abb96938a0221d77b01dcd975d2e392c9d70c528b3248028d7d911f02",
          "blockNumber": "0x5dcb7c",
          "transactionHash": "0x25ee132b2ee8ad42acab53bf99ffec854665f53bf91b95dc2068b71de596a75d",
          "transactionIndex": "0x45",
          "logIndex": "0x87",
          "removed": false
        }
      ],
      "logsBloom": "0x00000000000000000000000000000000800000000000000000000000004000000000000000000000000000000000000000000000000000000000000000000000000010000000000004000088000000000000000000000000000000000000000000000000000000000000000000800000000000000000000000000010000000000000000000000000000000000000001000000800000200000000008000000000000000000000000004000000000000000000000000000000000000000040000000000002000000000000000000000000000000000000000000000000008000000000000000000000020000020000000200000000100800000000000000000000",
      "type": "0x2",
      "transactionHash": "0x25ee132b2ee8ad42acab53bf99ffec854665f53bf91b95dc2068b71de596a75d",
      "transactionIndex": "0x45",
      "blockHash": "0x6b0cb83abb96938a0221d77b01dcd975d2e392c9d70c528b3248028d7d911f02",
      "blockNumber": "0x5dcb7c",
      "gasUsed": "0x1a050",
      "effectiveGasPrice": "0x22879cfd",
      "from": "0x764693dd666e8dd9275cde8f05c6b07446b1d941",
      "to": "0x76807bd717cfab825aba49546a61beb0477e7607",
      "contractAddress": null
    },
    {
      "status": "0x1",
      "cumulativeGasUsed": "0xbbba82",
      "logs": [
        {
          "address": "0x76807bd717cfab825aba49546a61beb0477e7607",
          "topics": [
            "0x484d6a78aff107b13227d3005e91c4967e9d387e9c8b44953f3f95f18308a926",
            "0x0000000000000000000000000000000000000000000000000000000000000001"
          ],
          "data": "0x",
          "blockHash": "0x6b0cb83abb96938a0221d77b01dcd975d2e392c9d70c528b3248028d7d911f02",
          "blockNumber": "0x5dcb7c",
          "transactionHash": "0x48e5ee561d809d19d27780c5892f81563c3ff8fe03d1950a6ba746b80be92ee0",
          "transactionIndex": "0x46",
          "logIndex": "0x88",
          "removed": false
        }
      ],
      "logsBloom": "0x00000000000000000000000000000000000000000000000000000000000000000000000000000000000000000000000000000000000000000000000000040000000000000000000000000000000000000000000000040000000000000000000000000000000000000000000000000020000000000000000000000000000000000000000000000000000000000000000000000000000000000000008000000000000000000000000000000000000000000008000000000000000000000000000000000000000000000000000000000000000000000000000000000000000040040000000000000000000000000000000200000000100000000000000000000000",
      "type": "0x2",
      "transactionHash": "0x48e5ee561d809d19d27780c5892f81563c3ff8fe03d1950a6ba746b80be92ee0",
      "transactionIndex": "0x46",
      "blockHash": "0x6b0cb83abb96938a0221d77b01dcd975d2e392c9d70c528b3248028d7d911f02",
      "blockNumber": "0x5dcb7c",
      "gasUsed": "0x7ec0",
      "effectiveGasPrice": "0x22879cfd",
      "from": "0x764693dd666e8dd9275cde8f05c6b07446b1d941",
      "to": "0x76807bd717cfab825aba49546a61beb0477e7607",
      "contractAddress": null
    },
    {
      "status": "0x1",
      "cumulativeGasUsed": "0xbc3942",
      "logs": [
        {
          "address": "0x76807bd717cfab825aba49546a61beb0477e7607",
          "topics": [
            "0x484d6a78aff107b13227d3005e91c4967e9d387e9c8b44953f3f95f18308a926",
            "0x0000000000000000000000000000000000000000000000000000000000000003"
          ],
          "data": "0x",
          "blockHash": "0x6b0cb83abb96938a0221d77b01dcd975d2e392c9d70c528b3248028d7d911f02",
          "blockNumber": "0x5dcb7c",
          "transactionHash": "0x5b767554581356eebda8958079c61cd73d3ae51166a5b5dce32a4f443ed58eec",
          "transactionIndex": "0x47",
          "logIndex": "0x89",
          "removed": false
        }
      ],
      "logsBloom": "0x00000000000000000000000000000000000000000000000000000000000000000000000000000000000000000000000000000000020000000000000000000000000000000000000000000000000000000000000000000000000000000000000000000000000000000000000000000020000000000000000000000000000000000000000000000000000000000000000000000000000000000000008000000000000000000000000000000000000000000008000000800000000000000000400000000000000000000000000000000000000000000000000000000000000000040000000000000000000000000000000200000000100000000000000000000000",
      "type": "0x2",
      "transactionHash": "0x5b767554581356eebda8958079c61cd73d3ae51166a5b5dce32a4f443ed58eec",
      "transactionIndex": "0x47",
      "blockHash": "0x6b0cb83abb96938a0221d77b01dcd975d2e392c9d70c528b3248028d7d911f02",
      "blockNumber": "0x5dcb7c",
      "gasUsed": "0x7ec0",
      "effectiveGasPrice": "0x22879cfd",
      "from": "0x764693dd666e8dd9275cde8f05c6b07446b1d941",
      "to": "0x76807bd717cfab825aba49546a61beb0477e7607",
      "contractAddress": null
    }
  ],
  "libraries": [],
  "pending": [],
  "returns": {},
  "timestamp": 1718879349,
  "chain": 11155111,
  "commit": "8fce21c"
}